{
  "abi": [
    {
      "inputs": [],
      "name": "ERC721AddressZeroIsNotaValidOwner",
      "type": "error"
    },
    {
      "inputs": [],
      "name": "ERC721ApprovalToCurrentOwner",
      "type": "error"
    },
    {
      "inputs": [],
      "name": "ERC721ApproveCallerIsNotOwnerNorApprovedForAll",
      "type": "error"
    },
    {
      "inputs": [],
      "name": "ERC721ApproveToCaller",
      "type": "error"
    },
    {
      "inputs": [],
      "name": "ERC721InvalidTokenId",
      "type": "error"
    },
    {
      "inputs": [],
      "name": "ERC721NotApprovedOrOwner",
      "type": "error"
    },
    {
      "inputs": [],
      "name": "ERC721TransferFromIncorrectOwner",
      "type": "error"
    },
    {
      "inputs": [],
      "name": "ERC721TransferToNonReceiverImplementer",
      "type": "error"
    },
    {
      "inputs": [],
      "name": "ERC721TransferToTheZeroAddress",
      "type": "error"
    },
    {
      "inputs": [],
      "name": "RMRKApprovalForAssetsToCurrentOwner",
      "type": "error"
    },
    {
      "inputs": [],
      "name": "RMRKApproveForAssetsCallerIsNotOwnerNorApprovedForAll",
      "type": "error"
    },
    {
      "inputs": [],
      "name": "RMRKBadPriorityListLength",
      "type": "error"
    },
    {
      "inputs": [],
      "name": "RMRKChildAlreadyExists",
      "type": "error"
    },
    {
      "inputs": [],
      "name": "RMRKChildIndexOutOfRange",
      "type": "error"
    },
    {
      "inputs": [],
      "name": "RMRKEquippableEquipNotAllowedByCatalog",
      "type": "error"
    },
    {
      "inputs": [],
      "name": "RMRKIndexOutOfRange",
      "type": "error"
    },
    {
      "inputs": [],
      "name": "RMRKIsNotContract",
      "type": "error"
    },
    {
      "inputs": [],
      "name": "RMRKMaxPendingChildrenReached",
      "type": "error"
    },
    {
      "inputs": [
        {
          "internalType": "address",
          "name": "childContract",
          "type": "address"
        },
        {
          "internalType": "uint256",
          "name": "childId",
          "type": "uint256"
        }
      ],
      "name": "RMRKMaxRecursiveBurnsReached",
      "type": "error"
    },
    {
      "inputs": [],
      "name": "RMRKMustUnequipFirst",
      "type": "error"
    },
    {
      "inputs": [],
      "name": "RMRKNestableTooDeep",
      "type": "error"
    },
    {
      "inputs": [],
      "name": "RMRKNestableTransferToDescendant",
      "type": "error"
    },
    {
      "inputs": [],
      "name": "RMRKNestableTransferToNonRMRKNestableImplementer",
      "type": "error"
    },
    {
      "inputs": [],
      "name": "RMRKNestableTransferToSelf",
      "type": "error"
    },
    {
      "inputs": [],
      "name": "RMRKNotApprovedForAssetsOrOwner",
      "type": "error"
    },
    {
      "inputs": [],
      "name": "RMRKNotApprovedOrDirectOwner",
      "type": "error"
    },
    {
      "inputs": [],
      "name": "RMRKNotEquipped",
      "type": "error"
    },
    {
      "inputs": [],
      "name": "RMRKPendingChildIndexOutOfRange",
      "type": "error"
    },
    {
      "inputs": [],
      "name": "RMRKSlotAlreadyUsed",
      "type": "error"
    },
    {
      "inputs": [],
      "name": "RMRKTargetAssetCannotReceiveSlot",
      "type": "error"
    },
    {
      "inputs": [],
      "name": "RMRKTokenCannotBeEquippedWithAssetIntoSlot",
      "type": "error"
    },
    {
      "inputs": [],
      "name": "RMRKTokenDoesNotHaveAsset",
      "type": "error"
    },
    {
      "inputs": [],
      "name": "RMRKUnexpectedAssetId",
      "type": "error"
    },
    {
      "inputs": [],
      "name": "RMRKUnexpectedChildId",
      "type": "error"
    },
    {
      "inputs": [],
      "name": "RMRKUnexpectedNumberOfAssets",
      "type": "error"
    },
    {
      "inputs": [],
      "name": "RMRKUnexpectedNumberOfChildren",
      "type": "error"
    },
    {
      "inputs": [],
      "name": "RentrantCall",
      "type": "error"
    },
    {
      "anonymous": false,
      "inputs": [
        {
          "indexed": true,
          "internalType": "uint256",
          "name": "tokenId",
          "type": "uint256"
        }
      ],
      "name": "AllChildrenRejected",
      "type": "event"
    },
    {
      "anonymous": false,
      "inputs": [
        {
          "indexed": true,
          "internalType": "address",
          "name": "owner",
          "type": "address"
        },
        {
          "indexed": true,
          "internalType": "address",
          "name": "approved",
          "type": "address"
        },
        {
          "indexed": true,
          "internalType": "uint256",
          "name": "tokenId",
          "type": "uint256"
        }
      ],
      "name": "Approval",
      "type": "event"
    },
    {
      "anonymous": false,
      "inputs": [
        {
          "indexed": true,
          "internalType": "address",
          "name": "owner",
          "type": "address"
        },
        {
          "indexed": true,
          "internalType": "address",
          "name": "operator",
          "type": "address"
        },
        {
          "indexed": false,
          "internalType": "bool",
          "name": "approved",
          "type": "bool"
        }
      ],
      "name": "ApprovalForAll",
      "type": "event"
    },
    {
      "anonymous": false,
      "inputs": [
        {
          "indexed": true,
          "internalType": "address",
          "name": "owner",
          "type": "address"
        },
        {
          "indexed": true,
          "internalType": "address",
          "name": "operator",
          "type": "address"
        },
        {
          "indexed": false,
          "internalType": "bool",
          "name": "approved",
          "type": "bool"
        }
      ],
      "name": "ApprovalForAllForAssets",
      "type": "event"
    },
    {
      "anonymous": false,
      "inputs": [
        {
          "indexed": true,
          "internalType": "address",
          "name": "owner",
          "type": "address"
        },
        {
          "indexed": true,
          "internalType": "address",
          "name": "approved",
          "type": "address"
        },
        {
          "indexed": true,
          "internalType": "uint256",
          "name": "tokenId",
          "type": "uint256"
        }
      ],
      "name": "ApprovalForAssets",
      "type": "event"
    },
    {
      "anonymous": false,
      "inputs": [
        {
          "indexed": true,
          "internalType": "uint256",
          "name": "tokenId",
          "type": "uint256"
        },
        {
          "indexed": true,
          "internalType": "uint64",
          "name": "assetId",
          "type": "uint64"
        },
        {
          "indexed": true,
          "internalType": "uint64",
          "name": "replacesId",
          "type": "uint64"
        }
      ],
      "name": "AssetAccepted",
      "type": "event"
    },
    {
      "anonymous": false,
      "inputs": [
        {
          "indexed": false,
          "internalType": "uint256[]",
          "name": "tokenIds",
          "type": "uint256[]"
        },
        {
          "indexed": true,
          "internalType": "uint64",
          "name": "assetId",
          "type": "uint64"
        },
        {
          "indexed": true,
          "internalType": "uint64",
          "name": "replacesId",
          "type": "uint64"
        }
      ],
      "name": "AssetAddedToTokens",
      "type": "event"
    },
    {
      "anonymous": false,
      "inputs": [
        {
          "indexed": true,
          "internalType": "uint256",
          "name": "tokenId",
          "type": "uint256"
        }
      ],
      "name": "AssetPrioritySet",
      "type": "event"
    },
    {
      "anonymous": false,
      "inputs": [
        {
          "indexed": true,
          "internalType": "uint256",
          "name": "tokenId",
          "type": "uint256"
        },
        {
          "indexed": true,
          "internalType": "uint64",
          "name": "assetId",
          "type": "uint64"
        }
      ],
      "name": "AssetRejected",
      "type": "event"
    },
    {
      "anonymous": false,
      "inputs": [
        {
          "indexed": true,
          "internalType": "uint64",
          "name": "assetId",
          "type": "uint64"
        }
      ],
      "name": "AssetSet",
      "type": "event"
    },
    {
      "anonymous": false,
      "inputs": [
        {
          "indexed": true,
          "internalType": "uint256",
          "name": "tokenId",
          "type": "uint256"
        },
        {
          "indexed": false,
          "internalType": "uint256",
          "name": "childIndex",
          "type": "uint256"
        },
        {
          "indexed": true,
          "internalType": "address",
          "name": "childAddress",
          "type": "address"
        },
        {
          "indexed": true,
          "internalType": "uint256",
          "name": "childId",
          "type": "uint256"
        }
      ],
      "name": "ChildAccepted",
      "type": "event"
    },
    {
      "anonymous": false,
      "inputs": [
        {
          "indexed": true,
          "internalType": "uint256",
          "name": "tokenId",
          "type": "uint256"
        },
        {
          "indexed": true,
          "internalType": "uint64",
          "name": "assetId",
          "type": "uint64"
        },
        {
          "indexed": true,
          "internalType": "uint64",
          "name": "slotPartId",
          "type": "uint64"
        },
        {
          "indexed": false,
          "internalType": "uint256",
          "name": "childId",
          "type": "uint256"
        },
        {
          "indexed": false,
          "internalType": "address",
          "name": "childAddress",
          "type": "address"
        },
        {
          "indexed": false,
          "internalType": "uint64",
          "name": "childAssetId",
          "type": "uint64"
        }
      ],
      "name": "ChildAssetEquipped",
      "type": "event"
    },
    {
      "anonymous": false,
      "inputs": [
        {
          "indexed": true,
          "internalType": "uint256",
          "name": "tokenId",
          "type": "uint256"
        },
        {
          "indexed": true,
          "internalType": "uint64",
          "name": "assetId",
          "type": "uint64"
        },
        {
          "indexed": true,
          "internalType": "uint64",
          "name": "slotPartId",
          "type": "uint64"
        },
        {
          "indexed": false,
          "internalType": "uint256",
          "name": "childId",
          "type": "uint256"
        },
        {
          "indexed": false,
          "internalType": "address",
          "name": "childAddress",
          "type": "address"
        },
        {
          "indexed": false,
          "internalType": "uint64",
          "name": "childAssetId",
          "type": "uint64"
        }
      ],
      "name": "ChildAssetUnequipped",
      "type": "event"
    },
    {
      "anonymous": false,
      "inputs": [
        {
          "indexed": true,
          "internalType": "uint256",
          "name": "tokenId",
          "type": "uint256"
        },
        {
          "indexed": false,
          "internalType": "uint256",
          "name": "childIndex",
          "type": "uint256"
        },
        {
          "indexed": true,
          "internalType": "address",
          "name": "childAddress",
          "type": "address"
        },
        {
          "indexed": true,
          "internalType": "uint256",
          "name": "childId",
          "type": "uint256"
        }
      ],
      "name": "ChildProposed",
      "type": "event"
    },
    {
      "anonymous": false,
      "inputs": [
        {
          "indexed": true,
          "internalType": "uint256",
          "name": "tokenId",
          "type": "uint256"
        },
        {
          "indexed": false,
          "internalType": "uint256",
          "name": "childIndex",
          "type": "uint256"
        },
        {
          "indexed": true,
          "internalType": "address",
          "name": "childAddress",
          "type": "address"
        },
        {
          "indexed": true,
          "internalType": "uint256",
          "name": "childId",
          "type": "uint256"
        },
        {
          "indexed": false,
          "internalType": "bool",
          "name": "fromPending",
          "type": "bool"
        },
        {
          "indexed": false,
          "internalType": "bool",
          "name": "toZero",
          "type": "bool"
        }
      ],
      "name": "ChildTransferred",
      "type": "event"
    },
    {
      "anonymous": false,
      "inputs": [
        {
          "indexed": true,
          "internalType": "address",
          "name": "from",
          "type": "address"
        },
        {
          "indexed": true,
          "internalType": "address",
          "name": "to",
          "type": "address"
        },
        {
          "indexed": false,
          "internalType": "uint256",
          "name": "fromTokenId",
          "type": "uint256"
        },
        {
          "indexed": false,
          "internalType": "uint256",
          "name": "toTokenId",
          "type": "uint256"
        },
        {
          "indexed": true,
          "internalType": "uint256",
          "name": "tokenId",
          "type": "uint256"
        }
      ],
      "name": "NestTransfer",
      "type": "event"
    },
    {
      "anonymous": false,
      "inputs": [
        {
          "indexed": true,
          "internalType": "address",
          "name": "from",
          "type": "address"
        },
        {
          "indexed": true,
          "internalType": "address",
          "name": "to",
          "type": "address"
        },
        {
          "indexed": true,
          "internalType": "uint256",
          "name": "tokenId",
          "type": "uint256"
        }
      ],
      "name": "Transfer",
      "type": "event"
    },
    {
      "anonymous": false,
      "inputs": [
        {
          "indexed": true,
          "internalType": "uint64",
          "name": "equippableGroupId",
          "type": "uint64"
        },
        {
          "indexed": true,
          "internalType": "uint64",
          "name": "slotPartId",
          "type": "uint64"
        },
        {
          "indexed": false,
          "internalType": "address",
          "name": "parentAddress",
          "type": "address"
        }
      ],
      "name": "ValidParentEquippableGroupIdSet",
      "type": "event"
    },
    {
      "inputs": [],
      "name": "RMRK_INTERFACE",
      "outputs": [
        {
          "internalType": "bytes4",
          "name": "",
          "type": "bytes4"
        }
      ],
      "stateMutability": "view",
      "type": "function"
    },
    {
      "inputs": [],
      "name": "VERSION",
      "outputs": [
        {
          "internalType": "string",
          "name": "",
          "type": "string"
        }
      ],
      "stateMutability": "view",
      "type": "function"
    },
    {
      "inputs": [
        {
          "internalType": "uint256",
          "name": "tokenId",
          "type": "uint256"
        },
        {
          "internalType": "uint256",
          "name": "index",
          "type": "uint256"
        },
        {
          "internalType": "uint64",
          "name": "assetId",
          "type": "uint64"
        }
      ],
      "name": "acceptAsset",
      "outputs": [],
      "stateMutability": "nonpayable",
      "type": "function"
    },
    {
      "inputs": [
        {
          "internalType": "uint256",
          "name": "parentId",
          "type": "uint256"
        },
        {
          "internalType": "uint256",
          "name": "childIndex",
          "type": "uint256"
        },
        {
          "internalType": "address",
          "name": "childAddress",
          "type": "address"
        },
        {
          "internalType": "uint256",
          "name": "childId",
          "type": "uint256"
        }
      ],
      "name": "acceptChild",
      "outputs": [],
      "stateMutability": "nonpayable",
      "type": "function"
    },
    {
      "inputs": [
        {
          "internalType": "uint256",
          "name": "parentId",
          "type": "uint256"
        },
        {
          "internalType": "uint256",
          "name": "childId",
          "type": "uint256"
        },
        {
          "internalType": "bytes",
          "name": "data",
          "type": "bytes"
        }
      ],
      "name": "addChild",
      "outputs": [],
      "stateMutability": "nonpayable",
      "type": "function"
    },
    {
      "inputs": [
        {
          "internalType": "address",
          "name": "to",
          "type": "address"
        },
        {
          "internalType": "uint256",
          "name": "tokenId",
          "type": "uint256"
        }
      ],
      "name": "approve",
      "outputs": [],
      "stateMutability": "nonpayable",
      "type": "function"
    },
    {
      "inputs": [
        {
          "internalType": "address",
          "name": "to",
          "type": "address"
        },
        {
          "internalType": "uint256",
          "name": "tokenId",
          "type": "uint256"
        }
      ],
      "name": "approveForAssets",
      "outputs": [],
      "stateMutability": "nonpayable",
      "type": "function"
    },
    {
      "inputs": [
        {
          "internalType": "address",
          "name": "owner",
          "type": "address"
        }
      ],
      "name": "balanceOf",
      "outputs": [
        {
          "internalType": "uint256",
          "name": "",
          "type": "uint256"
        }
      ],
      "stateMutability": "view",
      "type": "function"
    },
    {
      "inputs": [
        {
          "internalType": "uint256",
          "name": "tokenId",
          "type": "uint256"
        }
      ],
      "name": "burn",
      "outputs": [],
      "stateMutability": "nonpayable",
      "type": "function"
    },
    {
      "inputs": [
        {
          "internalType": "uint256",
          "name": "tokenId",
          "type": "uint256"
        },
        {
          "internalType": "uint256",
          "name": "maxChildrenBurns",
          "type": "uint256"
        }
      ],
      "name": "burn",
      "outputs": [
        {
          "internalType": "uint256",
          "name": "",
          "type": "uint256"
        }
      ],
      "stateMutability": "nonpayable",
      "type": "function"
    },
    {
      "inputs": [
        {
          "internalType": "address",
          "name": "parent",
          "type": "address"
        },
        {
          "internalType": "uint256",
          "name": "tokenId",
          "type": "uint256"
        },
        {
          "internalType": "uint64",
          "name": "assetId",
          "type": "uint64"
        },
        {
          "internalType": "uint64",
          "name": "slotId",
          "type": "uint64"
        }
      ],
      "name": "canTokenBeEquippedWithAssetIntoSlot",
      "outputs": [
        {
          "internalType": "bool",
          "name": "",
          "type": "bool"
        }
      ],
      "stateMutability": "view",
      "type": "function"
    },
    {
      "inputs": [
        {
          "internalType": "uint256",
          "name": "parentId",
          "type": "uint256"
        },
        {
          "internalType": "uint256",
          "name": "index",
          "type": "uint256"
        }
      ],
      "name": "childOf",
      "outputs": [
        {
          "components": [
            {
              "internalType": "uint256",
              "name": "tokenId",
              "type": "uint256"
            },
            {
              "internalType": "address",
              "name": "contractAddress",
              "type": "address"
            }
          ],
          "internalType": "struct IERC7401.Child",
          "name": "",
          "type": "tuple"
        }
      ],
      "stateMutability": "view",
      "type": "function"
    },
    {
      "inputs": [
        {
          "internalType": "uint256",
          "name": "parentId",
          "type": "uint256"
        }
      ],
      "name": "childrenOf",
      "outputs": [
        {
          "components": [
            {
              "internalType": "uint256",
              "name": "tokenId",
              "type": "uint256"
            },
            {
              "internalType": "address",
              "name": "contractAddress",
              "type": "address"
            }
          ],
          "internalType": "struct IERC7401.Child[]",
          "name": "",
          "type": "tuple[]"
        }
      ],
      "stateMutability": "view",
      "type": "function"
    },
    {
      "inputs": [
        {
          "internalType": "uint256",
          "name": "tokenId",
          "type": "uint256"
        }
      ],
      "name": "directOwnerOf",
      "outputs": [
        {
          "internalType": "address",
          "name": "",
          "type": "address"
        },
        {
          "internalType": "uint256",
          "name": "",
          "type": "uint256"
        },
        {
          "internalType": "bool",
          "name": "",
          "type": "bool"
        }
      ],
      "stateMutability": "view",
      "type": "function"
    },
    {
      "inputs": [
        {
          "components": [
            {
              "internalType": "uint256",
              "name": "tokenId",
              "type": "uint256"
            },
            {
              "internalType": "uint256",
              "name": "childIndex",
              "type": "uint256"
            },
            {
              "internalType": "uint64",
              "name": "assetId",
              "type": "uint64"
            },
            {
              "internalType": "uint64",
              "name": "slotPartId",
              "type": "uint64"
            },
            {
              "internalType": "uint64",
              "name": "childAssetId",
              "type": "uint64"
            }
          ],
          "internalType": "struct IERC6220.IntakeEquip",
          "name": "data",
          "type": "tuple"
        }
      ],
      "name": "equip",
      "outputs": [],
      "stateMutability": "nonpayable",
      "type": "function"
    },
    {
      "inputs": [
        {
          "internalType": "uint256",
          "name": "tokenId",
          "type": "uint256"
        }
      ],
      "name": "getActiveAssetPriorities",
      "outputs": [
        {
          "internalType": "uint64[]",
          "name": "",
          "type": "uint64[]"
        }
      ],
      "stateMutability": "view",
      "type": "function"
    },
    {
      "inputs": [
        {
          "internalType": "uint256",
          "name": "tokenId",
          "type": "uint256"
        }
      ],
      "name": "getActiveAssets",
      "outputs": [
        {
          "internalType": "uint64[]",
          "name": "",
          "type": "uint64[]"
        }
      ],
      "stateMutability": "view",
      "type": "function"
    },
    {
      "inputs": [
        {
          "internalType": "uint256",
          "name": "tokenId",
          "type": "uint256"
        }
      ],
      "name": "getApproved",
      "outputs": [
        {
          "internalType": "address",
          "name": "",
          "type": "address"
        }
      ],
      "stateMutability": "view",
      "type": "function"
    },
    {
      "inputs": [
        {
          "internalType": "uint256",
          "name": "tokenId",
          "type": "uint256"
        }
      ],
      "name": "getApprovedForAssets",
      "outputs": [
        {
          "internalType": "address",
          "name": "",
          "type": "address"
        }
      ],
      "stateMutability": "view",
      "type": "function"
    },
    {
      "inputs": [
        {
          "internalType": "uint256",
          "name": "tokenId",
          "type": "uint256"
        },
        {
          "internalType": "uint64",
          "name": "assetId",
          "type": "uint64"
        }
      ],
      "name": "getAssetAndEquippableData",
      "outputs": [
        {
          "internalType": "string",
          "name": "",
          "type": "string"
        },
        {
          "internalType": "uint64",
          "name": "",
          "type": "uint64"
        },
        {
          "internalType": "address",
          "name": "",
          "type": "address"
        },
        {
          "internalType": "uint64[]",
          "name": "",
          "type": "uint64[]"
        }
      ],
      "stateMutability": "view",
      "type": "function"
    },
    {
      "inputs": [
        {
          "internalType": "uint256",
          "name": "tokenId",
          "type": "uint256"
        },
        {
          "internalType": "uint64",
          "name": "assetId",
          "type": "uint64"
        }
      ],
      "name": "getAssetMetadata",
      "outputs": [
        {
          "internalType": "string",
          "name": "",
          "type": "string"
        }
      ],
      "stateMutability": "view",
      "type": "function"
    },
    {
      "inputs": [
        {
          "internalType": "uint256",
          "name": "tokenId",
          "type": "uint256"
        },
        {
          "internalType": "uint64",
          "name": "newAssetId",
          "type": "uint64"
        }
      ],
      "name": "getAssetReplacements",
      "outputs": [
        {
          "internalType": "uint64",
          "name": "",
          "type": "uint64"
        }
      ],
      "stateMutability": "view",
      "type": "function"
    },
    {
      "inputs": [
        {
          "internalType": "uint256",
          "name": "tokenId",
          "type": "uint256"
        },
        {
          "internalType": "address",
          "name": "targetCatalogAddress",
          "type": "address"
        },
        {
          "internalType": "uint64",
          "name": "slotPartId",
          "type": "uint64"
        }
      ],
      "name": "getEquipment",
      "outputs": [
        {
          "components": [
            {
              "internalType": "uint64",
              "name": "assetId",
              "type": "uint64"
            },
            {
              "internalType": "uint64",
              "name": "childAssetId",
              "type": "uint64"
            },
            {
              "internalType": "uint256",
              "name": "childId",
              "type": "uint256"
            },
            {
              "internalType": "address",
              "name": "childEquippableAddress",
              "type": "address"
            }
          ],
          "internalType": "struct IERC6220.Equipment",
          "name": "",
          "type": "tuple"
        }
      ],
      "stateMutability": "view",
      "type": "function"
    },
    {
      "inputs": [
        {
          "internalType": "uint256",
          "name": "tokenId",
          "type": "uint256"
        }
      ],
      "name": "getPendingAssets",
      "outputs": [
        {
          "internalType": "uint64[]",
          "name": "",
          "type": "uint64[]"
        }
      ],
      "stateMutability": "view",
      "type": "function"
    },
    {
      "inputs": [
        {
          "internalType": "address",
          "name": "owner",
          "type": "address"
        },
        {
          "internalType": "address",
          "name": "operator",
          "type": "address"
        }
      ],
      "name": "isApprovedForAll",
      "outputs": [
        {
          "internalType": "bool",
          "name": "",
          "type": "bool"
        }
      ],
      "stateMutability": "view",
      "type": "function"
    },
    {
      "inputs": [
        {
          "internalType": "address",
          "name": "owner",
          "type": "address"
        },
        {
          "internalType": "address",
          "name": "operator",
          "type": "address"
        }
      ],
      "name": "isApprovedForAllForAssets",
      "outputs": [
        {
          "internalType": "bool",
          "name": "",
          "type": "bool"
        }
      ],
      "stateMutability": "view",
      "type": "function"
    },
    {
      "inputs": [
        {
          "internalType": "uint256",
          "name": "tokenId",
          "type": "uint256"
        },
        {
          "internalType": "address",
          "name": "childAddress",
          "type": "address"
        },
        {
          "internalType": "uint256",
          "name": "childId",
          "type": "uint256"
        }
      ],
      "name": "isChildEquipped",
      "outputs": [
        {
          "internalType": "bool",
          "name": "",
          "type": "bool"
        }
      ],
      "stateMutability": "view",
      "type": "function"
    },
    {
      "inputs": [
        {
          "internalType": "address",
          "name": "from",
          "type": "address"
        },
        {
          "internalType": "address",
          "name": "to",
          "type": "address"
        },
        {
          "internalType": "uint256",
          "name": "tokenId",
          "type": "uint256"
        },
        {
          "internalType": "uint256",
          "name": "destinationId",
          "type": "uint256"
        },
        {
          "internalType": "bytes",
          "name": "data",
          "type": "bytes"
        }
      ],
      "name": "nestTransferFrom",
      "outputs": [],
      "stateMutability": "nonpayable",
      "type": "function"
    },
    {
      "inputs": [
        {
          "internalType": "uint256",
          "name": "tokenId",
          "type": "uint256"
        }
      ],
      "name": "ownerOf",
      "outputs": [
        {
          "internalType": "address",
          "name": "",
          "type": "address"
        }
      ],
      "stateMutability": "view",
      "type": "function"
    },
    {
      "inputs": [
        {
          "internalType": "uint256",
          "name": "parentId",
          "type": "uint256"
        },
        {
          "internalType": "uint256",
          "name": "index",
          "type": "uint256"
        }
      ],
      "name": "pendingChildOf",
      "outputs": [
        {
          "components": [
            {
              "internalType": "uint256",
              "name": "tokenId",
              "type": "uint256"
            },
            {
              "internalType": "address",
              "name": "contractAddress",
              "type": "address"
            }
          ],
          "internalType": "struct IERC7401.Child",
          "name": "",
          "type": "tuple"
        }
      ],
      "stateMutability": "view",
      "type": "function"
    },
    {
      "inputs": [
        {
          "internalType": "uint256",
          "name": "parentId",
          "type": "uint256"
        }
      ],
      "name": "pendingChildrenOf",
      "outputs": [
        {
          "components": [
            {
              "internalType": "uint256",
              "name": "tokenId",
              "type": "uint256"
            },
            {
              "internalType": "address",
              "name": "contractAddress",
              "type": "address"
            }
          ],
          "internalType": "struct IERC7401.Child[]",
          "name": "",
          "type": "tuple[]"
        }
      ],
      "stateMutability": "view",
      "type": "function"
    },
    {
      "inputs": [
        {
          "internalType": "uint256",
          "name": "tokenId",
          "type": "uint256"
        },
        {
          "internalType": "uint256",
          "name": "maxRejections",
          "type": "uint256"
        }
      ],
      "name": "rejectAllAssets",
      "outputs": [],
      "stateMutability": "nonpayable",
      "type": "function"
    },
    {
      "inputs": [
        {
          "internalType": "uint256",
          "name": "tokenId",
          "type": "uint256"
        },
        {
          "internalType": "uint256",
          "name": "maxRejections",
          "type": "uint256"
        }
      ],
      "name": "rejectAllChildren",
      "outputs": [],
      "stateMutability": "nonpayable",
      "type": "function"
    },
    {
      "inputs": [
        {
          "internalType": "uint256",
          "name": "tokenId",
          "type": "uint256"
        },
        {
          "internalType": "uint256",
          "name": "index",
          "type": "uint256"
        },
        {
          "internalType": "uint64",
          "name": "assetId",
          "type": "uint64"
        }
      ],
      "name": "rejectAsset",
      "outputs": [],
      "stateMutability": "nonpayable",
      "type": "function"
    },
    {
      "inputs": [
        {
          "internalType": "address",
          "name": "from",
          "type": "address"
        },
        {
          "internalType": "address",
          "name": "to",
          "type": "address"
        },
        {
          "internalType": "uint256",
          "name": "tokenId",
          "type": "uint256"
        }
      ],
      "name": "safeTransferFrom",
      "outputs": [],
      "stateMutability": "nonpayable",
      "type": "function"
    },
    {
      "inputs": [
        {
          "internalType": "address",
          "name": "from",
          "type": "address"
        },
        {
          "internalType": "address",
          "name": "to",
          "type": "address"
        },
        {
          "internalType": "uint256",
          "name": "tokenId",
          "type": "uint256"
        },
        {
          "internalType": "bytes",
          "name": "data",
          "type": "bytes"
        }
      ],
      "name": "safeTransferFrom",
      "outputs": [],
      "stateMutability": "nonpayable",
      "type": "function"
    },
    {
      "inputs": [
        {
          "internalType": "address",
          "name": "operator",
          "type": "address"
        },
        {
          "internalType": "bool",
          "name": "approved",
          "type": "bool"
        }
      ],
      "name": "setApprovalForAll",
      "outputs": [],
      "stateMutability": "nonpayable",
      "type": "function"
    },
    {
      "inputs": [
        {
          "internalType": "address",
          "name": "operator",
          "type": "address"
        },
        {
          "internalType": "bool",
          "name": "approved",
          "type": "bool"
        }
      ],
      "name": "setApprovalForAllForAssets",
      "outputs": [],
      "stateMutability": "nonpayable",
      "type": "function"
    },
    {
      "inputs": [
        {
          "internalType": "uint256",
          "name": "tokenId",
          "type": "uint256"
        },
        {
          "internalType": "uint64[]",
          "name": "priorities",
          "type": "uint64[]"
        }
      ],
      "name": "setPriority",
      "outputs": [],
      "stateMutability": "nonpayable",
      "type": "function"
    },
    {
      "inputs": [
        {
          "internalType": "bytes4",
          "name": "interfaceId",
          "type": "bytes4"
        }
      ],
      "name": "supportsInterface",
      "outputs": [
        {
          "internalType": "bool",
          "name": "",
          "type": "bool"
        }
      ],
      "stateMutability": "view",
      "type": "function"
    },
    {
      "inputs": [
        {
          "internalType": "uint256",
          "name": "tokenId",
          "type": "uint256"
        },
        {
          "internalType": "address",
          "name": "to",
          "type": "address"
        },
        {
          "internalType": "uint256",
          "name": "destinationId",
          "type": "uint256"
        },
        {
          "internalType": "uint256",
          "name": "childIndex",
          "type": "uint256"
        },
        {
          "internalType": "address",
          "name": "childAddress",
          "type": "address"
        },
        {
          "internalType": "uint256",
          "name": "childId",
          "type": "uint256"
        },
        {
          "internalType": "bool",
          "name": "isPending",
          "type": "bool"
        },
        {
          "internalType": "bytes",
          "name": "data",
          "type": "bytes"
        }
      ],
      "name": "transferChild",
      "outputs": [],
      "stateMutability": "nonpayable",
      "type": "function"
    },
    {
      "inputs": [
        {
          "internalType": "address",
          "name": "from",
          "type": "address"
        },
        {
          "internalType": "address",
          "name": "to",
          "type": "address"
        },
        {
          "internalType": "uint256",
          "name": "tokenId",
          "type": "uint256"
        }
      ],
      "name": "transferFrom",
      "outputs": [],
      "stateMutability": "nonpayable",
      "type": "function"
    },
    {
      "inputs": [
        {
          "internalType": "uint256",
          "name": "tokenId",
          "type": "uint256"
        },
        {
          "internalType": "uint64",
          "name": "assetId",
          "type": "uint64"
        },
        {
          "internalType": "uint64",
          "name": "slotPartId",
          "type": "uint64"
        }
      ],
      "name": "unequip",
      "outputs": [],
      "stateMutability": "nonpayable",
      "type": "function"
    }
  ],
  "bytecode": {
    "object": "0x608060405234801561001057600080fd5b506001600055613e21806100256000396000f3fe608060405234801561001057600080fd5b50600436106102695760003560e01c806370a0823111610151578063de8e602c116100c3578063e97ceaa811610087578063e97ceaa8146106d2578063e985e9c5146106e5578063ee1dffcf146106f8578063fb25fb7a14610737578063fc3517c814610771578063ffa1ad741461078457600080fd5b8063de8e602c14610637578063defa80c31461064a578063df6f556b1461065d578063e467a48f146106ac578063e7de4de4146106bf57600080fd5b8063979613361161011557806397961336146105c5578063a22cb465146105d8578063a898e364146105eb578063b390c0ab146105fe578063b88d4fde14610611578063c259a9881461062457600080fd5b806370a08231146104705780637280281e146104915780637507e2ae146104a45780638507dc281461058b5780638d4f3bf51461059e57600080fd5b806342842e0e116101ea5780635e2e3292116101ae5780635e2e3292146103f15780635e94354a146104115780635ea72f36146104245780636352211e14610437578063635490cc1461044a5780636f19951c1461045d57600080fd5b806342842e0e1461036857806342966c681461037b57806344ec93441461038e5780634e60edba146103ae57806351532e5a146103d157600080fd5b806322e6d1601161023157806322e6d160146102fc57806322f6da9c1461030f57806323b872dd146103225780632f32f9371461033557806338dcf74c1461035557600080fd5b806301ffc9a71461026e578063064c0a3a14610296578063074334fb146102ab578063081812fc146102be578063095ea7b3146102e9575b600080fd5b61028161027c366004613418565b6107a8565b60405190151581526020015b60405180910390f35b6102a96102a43660046134f3565b6107ef565b005b6102816102b9366004613584565b61080e565b6102d16102cc3660046135d3565b610888565b6040516001600160a01b03909116815260200161028d565b6102a96102f73660046135ec565b6108ce565b61028161030a366004613618565b61095a565b6102a961031d366004613651565b610988565b6102a9610330366004613686565b6109a3565b6103486103433660046136c7565b6109c8565b60405161028d91906136e9565b6102a9610363366004613709565b610a61565b6102a9610376366004613686565b610a86565b6102a96103893660046135d3565b610aa1565b6103a161039c3660046135d3565b610ab0565b60405161028d919061378a565b6103c16103bc3660046137ea565b610b2f565b60405161028d94939291906138a0565b6103e46103df3660046135d3565b610c0c565b60405161028d91906138ee565b6104046103ff3660046137ea565b610ca0565b60405161028d9190613901565b6103e461041f3660046135d3565b610d8f565b6102a96104323660046135ec565b610df8565b6102d16104453660046135d3565b610e7f565b6102a9610458366004613914565b610f0f565b6103a161046b3660046135d3565b611021565b61048361047e366004613963565b611091565b60405190815260200161028d565b6103e461049f3660046135d3565b6110d6565b6105416104b2366004613980565b6040805160808082018352600080835260208084018290528385018290526060938401829052968152601387528381206001600160a01b03968716825287528381206001600160401b03958616825287528390208351918201845280548086168352600160401b9004909416958101959095526001830154918501919091526002909101549091169082015290565b60405161028d919081516001600160401b03908116825260208084015190911690820152604080830151908201526060918201516001600160a01b03169181019190915260800190565b6102a96105993660046139c3565b61113f565b6105ac63524d524b60e01b81565b6040516001600160e01b0319909116815260200161028d565b6102a96105d33660046136c7565b6111d5565b6102a96105e63660046139c3565b6111e9565b6103486105f93660046136c7565b611277565b61048361060c3660046136c7565b6112d4565b6102a961061f3660046139f1565b6112ea565b6102a9610632366004613a5c565b611307565b6102a9610645366004613a81565b61131c565b6102a9610658366004613aff565b611331565b61069461066b3660046137ea565b60009182526009602090815260408084206001600160401b039384168552909152909120541690565b6040516001600160401b03909116815260200161028d565b6102d16106ba3660046135d3565b611356565b6102a96106cd3660046136c7565b611379565b6102a96106e0366004613b9a565b61138d565b6102816106f3366004613618565b6113a3565b610281610706366004613bd9565b60009283526014602090815260408085206001600160a01b0394909416855292815282842091845252902054151590565b61074a6107453660046135d3565b6113d1565b604080516001600160a01b039094168452602084019290925215159082015260600161028d565b6102a961077f366004613651565b611439565b610404604051806040016040528060058152602001640322e322e360dc1b81525081565b60006107b38261144e565b806107ce57506001600160e01b0319821663035a194d60e11b145b806107e957506001600160e01b03198216630a2f26b960e21b145b92915050565b826107f98161149f565b61080686868686866114c9565b505050505050565b6001600160401b038083166000908152601160209081526040808320548416808452601583528184206001600160a01b038a168552909252822054919290918116908416810361087957600061086d86610867896110d6565b906116ab565b94506108809350505050565b6000925050505b949350505050565b600061089382611714565b6000828152600260205260408120906108ab84610e7f565b6001600160a01b0390811682526020820192909252604001600020541692915050565b60006108d982610e7f565b9050806001600160a01b0316836001600160a01b03160361090d57604051630591db6d60e01b815260040160405180910390fd5b336001600160a01b0382161480159061092d575061092b81336113a3565b155b1561094b57604051634c12315960e11b815260040160405180910390fd5b610955838361174c565b505050565b6001600160a01b039182166000908152600e6020908152604080832093909416825291909152205460ff1690565b82610992816117c5565b61099d8484846117ec565b50505050565b806109ad8161149f565b61099d8484846040518060200160405280600081525061185b565b6040805180820190915260008082526020820152816109e684611021565b5111610a055760405163653e642560e11b815260040160405180910390fd5b6000838152600560205260408120805484908110610a2557610a25613c00565b60009182526020918290206040805180820190915260029092020180548252600101546001600160a01b03169181019190915291505092915050565b8051610a6c816117c5565b610a746119bd565b610a7d826119e7565b50506001600055565b610955838383604051806020016040528060008152506112ea565b610aac8160006112d4565b5050565b6000818152600660209081526040808320805482518185028101850190935280835260609493849084015b82821015610b235760008481526020908190206040805180820190915260028502909101805482526001908101546001600160a01b0316828401529083529092019101610adb565b50929695505050505050565b60606000806060610b408686610ca0565b6001600160401b0380871660009081526011602090815260408083205460108352818420546012845293829020805483518186028101860190945280845291909516946001600160a01b039094169392839190830182828015610bf457602002820191906000526020600020906000905b82829054906101000a90046001600160401b03166001600160401b031681526020019060080190602082600701049283019260010382029150808411610bb15790505b50505050509050935093509350935092959194509250565b6000818152600b6020908152604091829020805483518184028101840190945280845260609392830182828015610c9457602002820191906000526020600020906000905b82829054906101000a90046001600160401b03166001600160401b031681526020019060080190602082600701049283019260010382029150808411610c515790505b50505050509050919050565b6000828152600d602090815260408083206001600160401b038516845290915290205460609060ff16610ce657604051631b9928fd60e31b815260040160405180910390fd5b6001600160401b03821660009081526008602052604090208054610d0990613c16565b80601f0160208091040260200160405190810160405280929190818152602001828054610d3590613c16565b8015610d825780601f10610d5757610100808354040283529160200191610d82565b820191906000526020600020905b815481529060010190602001808311610d6557829003601f168201915b5050505050905092915050565b6000818152600c6020908152604091829020805483518184028101840190945280845260609392830182828015610c9457600091825260209182902080546001600160401b03168452908202830192909160089101808411610c51575094979650505050505050565b6000610e0382610e7f565b9050806001600160a01b0316836001600160a01b031603610e37576040516375f45abd60e01b815260040160405180910390fd5b336001600160a01b03821614801590610e575750610e55813361095a565b155b15610e75576040516357a2e94960e11b815260040160405180910390fd5b6109558383611d53565b600080600080610e8e856113d1565b9250925092508015610f06576040516331a9108f60e11b8152600481018390526001600160a01b03841690636352211e90602401602060405180830381865afa158015610edf573d6000803e3d6000fd5b505050506040513d601f19601f82011682018060405250810190610f039190613c50565b92505b50909392505050565b610f1883611714565b33803b610f385760405163b9d3114760e01b815260040160405180910390fd5b604080518082019091528381526001600160a01b03821660208201526000610f5f86610ab0565b5190506080811015610fbe576000868152600660209081526040822080546001808201835591845292829020855160029094020192835590840151910180546001600160a01b0319166001600160a01b03909216919091179055610fd7565b60405163a53c8c0560e01b815260040160405180910390fd5b84836001600160a01b0316877fe65085e689b77b126ba0bac3b079aa8288f19f4d5445af11c76003f8ab3075dd8460405161101491815260200190565b60405180910390a4610806565b6000818152600560209081526040808320805482518185028101850190935280835260609493849084018215610b235760008481526020908190206040805180820190915260028502909101805482526001908101546001600160a01b0316828401529083529092019101610adb565b60006001600160a01b0382166110ba57604051633bb9143360e11b815260040160405180910390fd5b506001600160a01b031660009081526001602052604090205490565b6000818152600a6020908152604091829020805483518184028101840190945280845260609392830182828015610c9457600091825260209182902080546001600160401b03168452908202830192909160089101808411610c51575094979650505050505050565b6001600160a01b0382163303611168576040516375f45abd60e01b815260040160405180910390fd5b336000818152600e602090815260408083206001600160a01b03871680855290835292819020805460ff191686151590811790915590519081529192917f0cff4fcf777050010027190b8061fd8bfd1de16d81b1f94e9752df1427a2623591015b60405180910390a35050565b816111df81611dcc565b6109558383611df3565b6001600160a01b038216330361121257604051630b7b99b960e21b815260040160405180910390fd5b3360008181526003602090815260408083206001600160a01b03871680855290835292819020805460ff191686151590811790915590519081529192917f17307eab39ab6107e8899845ad3d59bd9653f200f220920489ca2b5937696c3191016111c9565b60408051808201909152600080825260208201528161129584610ab0565b51116112b45760405163da22687f60e01b815260040160405180910390fd5b6000838152600660205260408120805484908110610a2557610a25613c00565b6000826112e08161149f565b6108808484611e68565b816112f48161149f565b611300858585856121d8565b5050505050565b82611311816117c5565b61099d84848461220d565b82611326816117c5565b61099d8484846123bf565b8761133b81611dcc565b61134b8989898989898989612439565b505050505050505050565b600061136182611714565b6000828152600f60205260408120906108ab84610e7f565b81611383816117c5565b61095583836124a1565b8361139781611dcc565b61130085858585612599565b6001600160a01b03918216600090815260036020908152604080832093909416825291909152205460ff1690565b6000818152600460209081526040808320815180830190925280548252600101546001600160a01b031691810182905282918291906114235760405163089ba7e160e41b815260040160405180910390fd5b6020810151905190959094508415159350915050565b82611443816117c5565b61099d84848461269f565b60006001600160e01b031982166301ffc9a760e01b148061147f57506001600160e01b031982166380ac58cd60e01b145b806107e957506001600160e01b031982166342b0e56f60e01b1492915050565b6114a933826128df565b6114c6576040516345f3c98360e11b815260040160405180910390fd5b50565b6000806114d5856113d1565b5091509150866001600160a01b0316826001600160a01b03161461150c5760405163e146af6f60e01b815260040160405180910390fd5b6001600160a01b038616611533576040516338f646ff60e21b815260040160405180910390fd5b6001600160a01b0386163014801561154a57508385145b1561156857604051633d76b10760e01b815260040160405180910390fd5b6001600160a01b0386163b6115905760405163b9d3114760e01b815260040160405180910390fd5b6040516301ffc9a760e01b81526342b0e56f60e01b60048201526001600160a01b038716906301ffc9a790602401602060405180830381865afa1580156115db573d6000803e3d6000fd5b505050506040513d601f19601f820116820180604052508101906115ff9190613c6d565b61161c57604051631784ec7360e21b815260040160405180910390fd5b611627858786612962565b6001600160a01b03871660009081526001602081905260408220805491929091611652908490613ca0565b909155506116639050858588612a53565b6001600160a01b0386166000908152600160208190526040822080549192909161168e908490613cb3565b909155506116a29050828783878988612ab2565b50505050505050565b81516000908190815b8181101561170357846001600160401b03168682815181106116d8576116d8613c00565b60200260200101516001600160401b0316036116fb5792506001915061170d9050565b6001016116b4565b5060008092509250505b9250929050565b6000818152600460205260409020600101546001600160a01b03166114c65760405163089ba7e160e41b815260040160405180910390fd5b600061175782610e7f565b60008381526002602090815260408083206001600160a01b038581168086529190935281842080546001600160a01b031916938916938417905590519394508593919290917f8c5be1e5ebec7d5bd14f71427d1e84f3dd0314c0f7b2291e5b200ac8c7c3b9259190a4505050565b6117cf3382612bb3565b6114c657604051635d64832960e01b815260040160405180910390fd5b6117f7838383612c11565b611802838383612cb9565b6000838152600d602090815260408083206001600160401b0385168085529252808320805460ff1916905551909185917f1010837a46db9510cad56c9b63e97183557a136e9d4ddbec309ce52c99afb1249190a3505050565b600080611867846113d1565b5091509150856001600160a01b0316826001600160a01b03161461189e5760405163e146af6f60e01b815260040160405180910390fd5b6001600160a01b0385166118c5576040516338f646ff60e21b815260040160405180910390fd5b6001600160a01b038616600090815260016020819052604082208054919290916118f0908490613ca0565b90915550611902905084600087612a53565b6001600160a01b0385166000908152600160208190526040822080549192909161192d908490613cb3565b909155505060405184906001600160a01b0380881691908916907fddf252ad1be2c89b69c2b068fc378daa952ba7f163c4a11628f55a4df523b3ef90600090a483856001600160a01b0316876001600160a01b03167f04444026cefd1b05506559cab59d1b865ae3ba4ed2fe5c894f04e522776c552d846000604051611014929190918252602082015260400190565b6002600054036119e0576040516362bfeae960e11b815260040160405180910390fd5b6002600055565b6040808201516001600160401b0390811660009081526010602090815283822054606086015186518452601383528584206001600160a01b039283168086529084528685209582168552949092529390912060020154919290911615611a605760405163bd0650ab60e01b815260040160405180910390fd5b611a6e836040015182612d07565b6000611a82846000015185602001516109c8565b60208101518151608087015160405163074334fb60e01b815230600482015260248101929092526001600160401b039081166044830152851660648201529192506001600160a01b03169063074334fb90608401602060405180830381865afa158015611af3573d6000803e3d6000fd5b505050506040513d601f19601f82011682018060405250810190611b179190613c6d565b611b3457604051632c36cd3360e01b815260040160405180910390fd5b6020810151604051636e5bceab60e11b81526001600160401b03841660048201526001600160a01b0391821660248201529084169063dcb79d5690604401602060405180830381865afa158015611b8f573d6000803e3d6000fd5b505050506040513d601f19601f82011682018060405250810190611bb39190613c6d565b611bd057604051637228eff560e11b815260040160405180910390fd5b6040805160808082018352868301516001600160401b0390811683529087015181166020808401918252855184860190815286820180516001600160a01b03908116606088019081528c516000908152601386528981208d8416825286528981208c8916825286528981208951815498518a16600160401b026001600160801b031990991699169890981796909617875592516001808801919091559251600290960180549682166001600160a01b0319909716969096179095558a5184526014835286842090519094168352928152848220865183529052928320805492939192909190611cc0908490613cb3565b92505081905550826001600160401b031685604001516001600160401b031686600001517f1f5de02b1d9c93ca468f54630e1daf13f6dc458a63f8061ff73e85bf9bc38884856000015186602001518a60800151604051611d46939291909283526001600160a01b039190911660208301526001600160401b0316604082015260600190565b60405180910390a4611300565b6000611d5e82610e7f565b6000838152600f602090815260408083206001600160a01b038581168086529190935281842080546001600160a01b031916938916938417905590519394508593919290917fb90cc0d925ac3511ab6af2d7ca73ffcf7ec4bd871fff36b958ecf440079c463e9190a4505050565b611dd63382612da7565b6114c6576040516302728a9d60e41b815260040160405180910390fd5b600082815260066020526040902054811015611e2257604051631e73178b60e11b815260040160405180910390fd5b6000828152600660205260408120611e39916132bf565b60405182907f8ac4a0d65950c3e40448afb2260e2e0ec36ea15644d9b39e37e85472e5f9445190600090a25050565b6000806000611e76856113d1565b50915091506000611e8686610e7f565b60408051602080820183526000918290526001600160a01b038716825260019081905291812080549394509192611ebe908490613ca0565b90915550611ecf905060008761174c565b611ed886612df3565b6000611ee387611021565b6000888152600560205260408120919250611efe91906132bf565b6000878152600660205260408120611f15916132bf565b60008781526002602090815260408083206001600160a01b0386168452909152812080546001600160a01b031916905581518190815b8181101561211a57898310611fc457848181518110611f6c57611f6c613c00565b602002602001015160200151858281518110611f8a57611f8a613c00565b6020908102919091010151516040516306177b2560e41b81526001600160a01b039092166004830152602482015260440160405180910390fd5b60076000868381518110611fda57611fda613c00565b6020026020010151602001516001600160a01b03166001600160a01b03168152602001908152602001600020600086838151811061201a5761201a613c00565b602002602001015160000151815260200190815260200160002060009055828a03935084818151811061204f5761204f613c00565b6020026020010151602001516001600160a01b031663b390c0ab86838151811061207b5761207b613c00565b6020026020010151600001516001876120949190613ca0565b6040516001600160e01b031960e085901b168152600481019290925260248201526044016020604051808303816000875af11580156120d7573d6000803e3d6000fd5b505050506040513d601f19601f820116820180604052508101906120fb9190613cc6565b612106906001613cb3565b6121109084613cb3565b9250600101611f4b565b5060008a81526004602052604080822082815560010180546001600160a01b0319169055518b91906001600160a01b038a16907fddf252ad1be2c89b69c2b068fc378daa952ba7f163c4a11628f55a4df523b3ef908390a4604080518781526000602082018190528c9290916001600160a01b038b16917f04444026cefd1b05506559cab59d1b865ae3ba4ed2fe5c894f04e522776c552d910160405180910390a46040805160208101909152600090525098975050505050505050565b6121e48484848461185b565b6121f084848484612dfe565b61099d5760405163bcb5663760e01b815260040160405180910390fd5b6001600160401b03808316600090815260106020908152604080832054878452601383528184206001600160a01b039182168086529084528285208787168652845293829020825160808101845281548088168252600160401b90049096169386019390935260018301549185019190915260029091015416606083018190529091906122ad576040516317de7dd760e21b815260040160405180910390fd5b60008581526013602090815260408083206001600160a01b0380871685529083528184206001600160401b0388168552835281842080546001600160801b03191681556001808201869055600290910180546001600160a01b031916905589855260148452828520606087015190921685529083528184208583015185529092528220805491929091612341908490613ca0565b92505081905550826001600160401b0316846001600160401b0316867f438e039ebbba8f290f3b5d41aaf3295eccc9b5e6b0e1d52ace700772afb7da13846040015185606001518660200151604051611d46939291909283526001600160a01b039190911660208301526001600160401b0316604082015260600190565b6000838152600a6020526040902054819081146123ef57604051633581be1d60e11b815260040160405180910390fd5b6000848152600c602052604090206124089084846132e0565b5060405184907ff0bfd70b0068f973d58178846ca67112671ec45e060838f7de5662036bcf801790600090a261099d565b816124875760008881526014602090815260408083206001600160a01b038816845282528083208684529091529020541561248757604051630619dc9d60e21b815260040160405180910390fd5b6124978888888888888888612efa565b5050505050505050565b6000828152600b6020526040902054818111156124d157604051635134ce8960e01b815260040160405180910390fd5b60005b8181101561254f576000848152600b602052604081208054839081106124fc576124fc613c00565b6000918252602080832060048304015488845260098252604080852060039094166008026101000a9091046001600160401b031684529190529020805467ffffffffffffffff19169055506001016124d4565b506000838152600b60205260408120612567916133a1565b60405160009084907f1010837a46db9510cad56c9b63e97183557a136e9d4ddbec309ce52c99afb124908390a3505050565b60006125a58585611277565b90506125b28184846130db565b6001600160a01b0383166000908152600760209081526040808320858452909152902054156125f45760405163188a497360e01b815260040160405180910390fd5b600085815260066020526040902061260c908561311f565b600085815260056020908152604080832080546001808201835591855283852086516002909202019081558584015190820180546001600160a01b0319166001600160a01b03928316179055871680855260078452828520878652845293829020555186815284929188917f29486b9e2ae569b440933a9b1b421467306fa21f3dcad439c262910a634963a99101611d46565b6126aa838383612c11565b60008381526009602090815260408083206001600160401b038086168552925282205416908082156127825761277c83600a600089815260200190815260200160002080548060200260200160405190810160405280929190818152602001828054801561276957602002820191906000526020600020906000905b82829054906101000a90046001600160401b03166001600160401b0316815260200190600801906020826007010492830192600103820291508084116127265790505b50505050506116ab90919063ffffffff16565b90925090505b8015612803576000868152600a602052604090208054859190849081106127ab576127ab613c00565b600091825260208083206004830401805460039093166008026101000a6001600160401b03818102199094169584160294909417909355888252600d835260408083209187168352925220805460ff1916905561288e565b6000868152600c60209081526040808320600a83529083208054825460018181018555938652848620600480830490910180546001600160401b0394851660086003958616810261010090810a9283029288021990931691909117909255855496870186559488529587209085040180548b84169590921690950290920a9283029202191617905592505b612899868686612cb9565b826001600160401b0316846001600160401b0316877f3f2709a99f6c06b4e57bbb38eb0134332f96f51a3da314f41a515adbb28b17cc60405160405180910390a4610806565b60008060006128ed846113d1565b50915091508060001461291057506001600160a01b0384811691161490506107e9565b816001600160a01b0316856001600160a01b03161480612935575061293582866113a3565b806129595750846001600160a01b031661294e85610888565b6001600160a01b0316145b95945050505050565b60005b6064811015612a39576000806000856001600160a01b031663fb25fb7a866040518263ffffffff1660e01b81526004016129a191815260200190565b606060405180830381865afa1580156129be573d6000803e3d6000fd5b505050506040513d601f19601f820116820180604052508101906129e29190613cdf565b925092509250806129f65750505050505050565b6001600160a01b03831630148015612a0d57508682145b15612a2b576040516324543e6d60e11b815260040160405180910390fd5b509093509150600101612965565b50604051630349a6bd60e51b815260040160405180910390fd5b6040805180820182528381526001600160a01b038381166020808401918252600088815260049091529384209251835551600190920180546001600160a01b03191692909116919091179055612aa9908461174c565b61095583612df3565b6040516318d5243360e21b815285906001600160a01b0382169063635490cc90612ae490879087908790600401613d22565b600060405180830381600087803b158015612afe57600080fd5b505af1158015612b12573d6000803e3d6000fd5b5050505082866001600160a01b0316886001600160a01b03167fddf252ad1be2c89b69c2b068fc378daa952ba7f163c4a11628f55a4df523b3ef60405160405180910390a482866001600160a01b0316886001600160a01b03167f04444026cefd1b05506559cab59d1b865ae3ba4ed2fe5c894f04e522776c552d8888604051612ba6929190918252602082015260400190565b60405180910390a46116a2565b600080612bbf83610e7f565b9050806001600160a01b0316846001600160a01b03161480612be65750612be6818561095a565b806108805750836001600160a01b0316612bff84611356565b6001600160a01b031614949350505050565b6000838152600b60205260409020548210612c3f57604051630757d52160e01b815260040160405180910390fd5b6000838152600b60205260409020805483908110612c5f57612c5f613c00565b90600052602060002090600491828204019190066008029054906101000a90046001600160401b03166001600160401b0316816001600160401b031614610955576040516378eeeecf60e01b815260040160405180910390fd5b6000838152600b60205260409020612cd190836131d9565b60009283526009602090815260408085206001600160401b039093168552919052909120805467ffffffffffffffff1916905550565b6001600160401b03821660009081526012602090815260408083208054825181850281018501909352808352612d8693869392919083018282801561276957600091825260209182902080546001600160401b0316845290820283019290916008910180841161272657905050505050506116ab90919063ffffffff16565b9150508061095557604051634ef44ed560e01b815260040160405180910390fd5b600080612db383610e7f565b9050806001600160a01b0316846001600160a01b03161480612dda5750612dda81856113a3565b806108805750836001600160a01b0316612bff84610888565b6114c6600082611d53565b60006001600160a01b0384163b15612ef257604051630a85bd0160e11b81526001600160a01b0385169063150b7a0290612e42903390899088908890600401613d41565b6020604051808303816000875af1925050508015612e7d575060408051601f3d908101601f19168201909252612e7a91810190613d7e565b60015b612ed8573d808015612eab576040519150601f19603f3d011682016040523d82523d6000602084013e612eb0565b606091505b508051612ed05760405163bcb5663760e01b815260040160405180910390fd5b805181602001fd5b6001600160e01b031916630a85bd0160e11b149050610880565b506001610880565b60408051808201909152600080825260208201528215612f2557612f1e8987611277565b9050612f32565b612f2f89876109c8565b90505b612f3d8186866130db565b8215612f60576000898152600660205260409020612f5b908761311f565b612f9a565b6001600160a01b038516600090815260076020908152604080832087845282528083208390558b835260059091529020612f9a908761311f565b6001600160a01b03881615613084578661301757604051635c46a7ef60e11b81526001600160a01b0386169063b88d4fde90612fe09030908c9089908890600401613d41565b600060405180830381600087803b158015612ffa57600080fd5b505af115801561300e573d6000803e3d6000fd5b50505050613084565b60208101518151604051630326051d60e11b81526001600160a01b039092169163064c0a3a916130519130918d918d908990600401613d9b565b600060405180830381600087803b15801561306b57600080fd5b505af115801561307f573d6000803e3d6000fd5b505050505b6040805187815284151560208201526001600160a01b038a81161582840152915186928816918c917f02d6d6dbcb604d5e1e8c7886456e82a9cdce88b0a580071358f206b5a4d58f709181900360600190a461134b565b82602001516001600160a01b0316826001600160a01b0316141580613101575082518114155b1561095557604051637383f2c160e11b815260040160405180910390fd5b8154829061312f90600190613ca0565b8154811061313f5761313f613c00565b906000526020600020906002020182828154811061315f5761315f613c00565b600091825260209091208254600290920201908155600191820154910180546001600160a01b0319166001600160a01b0390921691909117905581548290806131aa576131aa613dd5565b60008281526020812060026000199093019283020190815560010180546001600160a01b031916905590555050565b815481106131e657600080fd5b815482906131f690600190613ca0565b8154811061320657613206613c00565b90600052602060002090600491828204019190066008029054906101000a90046001600160401b031682828154811061324157613241613c00565b90600052602060002090600491828204019190066008026101000a8154816001600160401b0302191690836001600160401b031602179055508180548061328a5761328a613dd5565b60008281526020902060046000199092019182040180546001600160401b03600860038516026101000a021916905590555050565b50805460008255600202906000526020600020908101906114c691906133c6565b828054828255906000526020600020906003016004900481019282156133915791602002820160005b8382111561335c5783356001600160401b031683826101000a8154816001600160401b0302191690836001600160401b031602179055509260200192600801602081600701049283019260010302613309565b801561338f5782816101000a8154906001600160401b03021916905560080160208160070104928301926001030261335c565b505b5061339d9291506133ed565b5090565b5080546000825560030160049004906000526020600020908101906114c691906133ed565b5b8082111561339d57600081556001810180546001600160a01b03191690556002016133c7565b5b8082111561339d57600081556001016133ee565b6001600160e01b0319811681146114c657600080fd5b60006020828403121561342a57600080fd5b813561343581613402565b9392505050565b6001600160a01b03811681146114c657600080fd5b634e487b7160e01b600052604160045260246000fd5b600082601f83011261347857600080fd5b81356001600160401b038082111561349257613492613451565b604051601f8301601f19908116603f011681019082821181831017156134ba576134ba613451565b816040528381528660208588010111156134d357600080fd5b836020870160208301376000602085830101528094505050505092915050565b600080600080600060a0868803121561350b57600080fd5b85356135168161343c565b945060208601356135268161343c565b9350604086013592506060860135915060808601356001600160401b0381111561354f57600080fd5b61355b88828901613467565b9150509295509295909350565b80356001600160401b038116811461357f57600080fd5b919050565b6000806000806080858703121561359a57600080fd5b84356135a58161343c565b9350602085013592506135ba60408601613568565b91506135c860608601613568565b905092959194509250565b6000602082840312156135e557600080fd5b5035919050565b600080604083850312156135ff57600080fd5b823561360a8161343c565b946020939093013593505050565b6000806040838503121561362b57600080fd5b82356136368161343c565b915060208301356136468161343c565b809150509250929050565b60008060006060848603121561366657600080fd5b833592506020840135915061367d60408501613568565b90509250925092565b60008060006060848603121561369b57600080fd5b83356136a68161343c565b925060208401356136b68161343c565b929592945050506040919091013590565b600080604083850312156136da57600080fd5b50508035926020909101359150565b815181526020808301516001600160a01b031690820152604081016107e9565b600060a0828403121561371b57600080fd5b60405160a081018181106001600160401b038211171561373d5761373d613451565b8060405250823581526020830135602082015261375c60408401613568565b604082015261376d60608401613568565b606082015261377e60808401613568565b60808201529392505050565b602080825282518282018190526000919060409081850190868401855b828110156137dd576137cd848351805182526020908101516001600160a01b0316910152565b92840192908501906001016137a7565b5091979650505050505050565b600080604083850312156137fd57600080fd5b8235915061380d60208401613568565b90509250929050565b6000815180845260005b8181101561383c57602081850181015186830182015201613820565b506000602082860101526020601f19601f83011685010191505092915050565b600081518084526020808501945080840160005b838110156138955781516001600160401b031687529582019590820190600101613870565b509495945050505050565b6080815260006138b36080830187613816565b6001600160401b03861660208401526001600160a01b038516604084015282810360608401526138e3818561385c565b979650505050505050565b602081526000613435602083018461385c565b6020815260006134356020830184613816565b60008060006060848603121561392957600080fd5b833592506020840135915060408401356001600160401b0381111561394d57600080fd5b61395986828701613467565b9150509250925092565b60006020828403121561397557600080fd5b81356134358161343c565b60008060006060848603121561399557600080fd5b8335925060208401356139a78161343c565b915061367d60408501613568565b80151581146114c657600080fd5b600080604083850312156139d657600080fd5b82356139e18161343c565b91506020830135613646816139b5565b60008060008060808587031215613a0757600080fd5b8435613a128161343c565b93506020850135613a228161343c565b92506040850135915060608501356001600160401b03811115613a4457600080fd5b613a5087828801613467565b91505092959194509250565b600080600060608486031215613a7157600080fd5b833592506139a760208501613568565b600080600060408486031215613a9657600080fd5b8335925060208401356001600160401b0380821115613ab457600080fd5b818601915086601f830112613ac857600080fd5b813581811115613ad757600080fd5b8760208260051b8501011115613aec57600080fd5b6020830194508093505050509250925092565b600080600080600080600080610100898b031215613b1c57600080fd5b883597506020890135613b2e8161343c565b965060408901359550606089013594506080890135613b4c8161343c565b935060a0890135925060c0890135613b63816139b5565b915060e08901356001600160401b03811115613b7e57600080fd5b613b8a8b828c01613467565b9150509295985092959890939650565b60008060008060808587031215613bb057600080fd5b84359350602085013592506040850135613bc98161343c565b9396929550929360600135925050565b600080600060608486031215613bee57600080fd5b8335925060208401356136b68161343c565b634e487b7160e01b600052603260045260246000fd5b600181811c90821680613c2a57607f821691505b602082108103613c4a57634e487b7160e01b600052602260045260246000fd5b50919050565b600060208284031215613c6257600080fd5b81516134358161343c565b600060208284031215613c7f57600080fd5b8151613435816139b5565b634e487b7160e01b600052601160045260246000fd5b818103818111156107e9576107e9613c8a565b808201808211156107e9576107e9613c8a565b600060208284031215613cd857600080fd5b5051919050565b600080600060608486031215613cf457600080fd5b8351613cff8161343c565b602085015160408601519194509250613d17816139b5565b809150509250925092565b8381528260208201526060604082015260006129596060830184613816565b6001600160a01b0385811682528416602082015260408101839052608060608201819052600090613d7490830184613816565b9695505050505050565b600060208284031215613d9057600080fd5b815161343581613402565b6001600160a01b03868116825285166020820152604081018490526060810183905260a0608082018190526000906138e390830184613816565b634e487b7160e01b600052603160045260246000fdfea2646970667358221220aee3c04940b58dc7729e98c3656227d5da4d5188d8be146eaaa5a7e8edf9ad0864736f6c63430008150033",
    "linkReferences": {}
  },
  "methodIdentifiers": {
    "RMRK_INTERFACE()": "8d4f3bf5",
    "VERSION()": "ffa1ad74",
    "acceptAsset(uint256,uint256,uint64)": "fc3517c8",
    "acceptChild(uint256,uint256,address,uint256)": "e97ceaa8",
    "addChild(uint256,uint256,bytes)": "635490cc",
    "approve(address,uint256)": "095ea7b3",
    "approveForAssets(address,uint256)": "5ea72f36",
    "balanceOf(address)": "70a08231",
    "burn(uint256)": "42966c68",
    "burn(uint256,uint256)": "b390c0ab",
    "canTokenBeEquippedWithAssetIntoSlot(address,uint256,uint64,uint64)": "074334fb",
    "childOf(uint256,uint256)": "2f32f937",
    "childrenOf(uint256)": "6f19951c",
    "directOwnerOf(uint256)": "fb25fb7a",
    "equip((uint256,uint256,uint64,uint64,uint64))": "38dcf74c",
    "getActiveAssetPriorities(uint256)": "5e94354a",
    "getActiveAssets(uint256)": "7280281e",
    "getApproved(uint256)": "081812fc",
    "getApprovedForAssets(uint256)": "e467a48f",
    "getAssetAndEquippableData(uint256,uint64)": "4e60edba",
    "getAssetMetadata(uint256,uint64)": "5e2e3292",
    "getAssetReplacements(uint256,uint64)": "df6f556b",
    "getEquipment(uint256,address,uint64)": "7507e2ae",
    "getPendingAssets(uint256)": "51532e5a",
    "isApprovedForAll(address,address)": "e985e9c5",
    "isApprovedForAllForAssets(address,address)": "22e6d160",
    "isChildEquipped(uint256,address,uint256)": "ee1dffcf",
    "nestTransferFrom(address,address,uint256,uint256,bytes)": "064c0a3a",
    "ownerOf(uint256)": "6352211e",
    "pendingChildOf(uint256,uint256)": "a898e364",
    "pendingChildrenOf(uint256)": "44ec9344",
    "rejectAllAssets(uint256,uint256)": "e7de4de4",
    "rejectAllChildren(uint256,uint256)": "97961336",
    "rejectAsset(uint256,uint256,uint64)": "22f6da9c",
    "safeTransferFrom(address,address,uint256)": "42842e0e",
    "safeTransferFrom(address,address,uint256,bytes)": "b88d4fde",
    "setApprovalForAll(address,bool)": "a22cb465",
    "setApprovalForAllForAssets(address,bool)": "8507dc28",
    "setPriority(uint256,uint64[])": "de8e602c",
    "supportsInterface(bytes4)": "01ffc9a7",
    "transferChild(uint256,address,uint256,uint256,address,uint256,bool,bytes)": "defa80c3",
    "transferFrom(address,address,uint256)": "23b872dd",
    "unequip(uint256,uint64,uint64)": "c259a988"
  },
  "id": 78
}