{
  "abi": [
    {
      "inputs": [
        {
          "internalType": "string",
          "name": "name",
          "type": "string"
        },
        {
          "internalType": "string",
          "name": "symbol",
          "type": "string"
        },
        {
          "internalType": "string",
          "name": "collectionMetadata",
          "type": "string"
        },
        {
          "internalType": "uint256",
          "name": "maxSupply",
          "type": "uint256"
        },
        {
          "internalType": "address",
          "name": "royaltyRecipient",
          "type": "address"
        },
        {
          "internalType": "uint16",
          "name": "royaltyPercentageBps",
          "type": "uint16"
        }
      ],
      "stateMutability": "nonpayable",
      "type": "constructor"
    },
    {
      "inputs": [],
      "name": "ERC721AddressZeroIsNotaValidOwner",
      "type": "error"
    },
    {
      "inputs": [],
      "name": "ERC721ApprovalToCurrentOwner",
      "type": "error"
    },
    {
      "inputs": [],
      "name": "ERC721ApproveCallerIsNotOwnerNorApprovedForAll",
      "type": "error"
    },
    {
      "inputs": [],
      "name": "ERC721ApproveToCaller",
      "type": "error"
    },
    {
      "inputs": [],
      "name": "ERC721InvalidTokenId",
      "type": "error"
    },
    {
      "inputs": [],
      "name": "ERC721MintToTheZeroAddress",
      "type": "error"
    },
    {
      "inputs": [],
      "name": "ERC721NotApprovedOrOwner",
      "type": "error"
    },
    {
      "inputs": [],
      "name": "ERC721TokenAlreadyMinted",
      "type": "error"
    },
    {
      "inputs": [],
      "name": "ERC721TransferFromIncorrectOwner",
      "type": "error"
    },
    {
      "inputs": [],
      "name": "ERC721TransferToNonReceiverImplementer",
      "type": "error"
    },
    {
      "inputs": [],
      "name": "ERC721TransferToTheZeroAddress",
      "type": "error"
    },
    {
      "inputs": [],
      "name": "RMRKApprovalForAssetsToCurrentOwner",
      "type": "error"
    },
    {
      "inputs": [],
      "name": "RMRKApproveForAssetsCallerIsNotOwnerNorApprovedForAll",
      "type": "error"
    },
    {
      "inputs": [],
      "name": "RMRKAssetAlreadyExists",
      "type": "error"
    },
    {
      "inputs": [],
      "name": "RMRKBadPriorityListLength",
      "type": "error"
    },
    {
      "inputs": [],
      "name": "RMRKCatalogRequiredForParts",
      "type": "error"
    },
    {
      "inputs": [],
      "name": "RMRKChildAlreadyExists",
      "type": "error"
    },
    {
      "inputs": [],
      "name": "RMRKChildIndexOutOfRange",
      "type": "error"
    },
    {
      "inputs": [],
      "name": "RMRKEquippableEquipNotAllowedByCatalog",
      "type": "error"
    },
    {
      "inputs": [],
      "name": "RMRKIdZeroForbidden",
      "type": "error"
    },
    {
      "inputs": [],
      "name": "RMRKIndexOutOfRange",
      "type": "error"
    },
    {
      "inputs": [],
      "name": "RMRKIsNotContract",
      "type": "error"
    },
    {
      "inputs": [],
      "name": "RMRKMaxPendingAssetsReached",
      "type": "error"
    },
    {
      "inputs": [],
      "name": "RMRKMaxPendingChildrenReached",
      "type": "error"
    },
    {
      "inputs": [
        {
          "internalType": "address",
          "name": "childContract",
          "type": "address"
        },
        {
          "internalType": "uint256",
          "name": "childId",
          "type": "uint256"
        }
      ],
      "name": "RMRKMaxRecursiveBurnsReached",
      "type": "error"
    },
    {
      "inputs": [],
      "name": "RMRKMintOverMax",
      "type": "error"
    },
    {
      "inputs": [],
      "name": "RMRKMintToNonRMRKNestableImplementer",
      "type": "error"
    },
    {
      "inputs": [],
      "name": "RMRKMintZero",
      "type": "error"
    },
    {
      "inputs": [],
      "name": "RMRKMustUnequipFirst",
      "type": "error"
    },
    {
      "inputs": [],
      "name": "RMRKNestableTooDeep",
      "type": "error"
    },
    {
      "inputs": [],
      "name": "RMRKNestableTransferToDescendant",
      "type": "error"
    },
    {
      "inputs": [],
      "name": "RMRKNestableTransferToNonRMRKNestableImplementer",
      "type": "error"
    },
    {
      "inputs": [],
      "name": "RMRKNestableTransferToSelf",
      "type": "error"
    },
    {
      "inputs": [],
      "name": "RMRKNewContributorIsZeroAddress",
      "type": "error"
    },
    {
      "inputs": [],
      "name": "RMRKNewOwnerIsZeroAddress",
      "type": "error"
    },
    {
      "inputs": [],
      "name": "RMRKNoAssetMatchingId",
      "type": "error"
    },
    {
      "inputs": [],
      "name": "RMRKNotApprovedForAssetsOrOwner",
      "type": "error"
    },
    {
      "inputs": [],
      "name": "RMRKNotApprovedOrDirectOwner",
      "type": "error"
    },
    {
      "inputs": [],
      "name": "RMRKNotEquipped",
      "type": "error"
    },
    {
      "inputs": [],
      "name": "RMRKNotOwner",
      "type": "error"
    },
    {
      "inputs": [],
      "name": "RMRKNotOwnerOrContributor",
      "type": "error"
    },
    {
      "inputs": [],
      "name": "RMRKPendingChildIndexOutOfRange",
      "type": "error"
    },
    {
      "inputs": [],
      "name": "RMRKRoyaltiesTooHigh",
      "type": "error"
    },
    {
      "inputs": [],
      "name": "RMRKSlotAlreadyUsed",
      "type": "error"
    },
    {
      "inputs": [],
      "name": "RMRKTargetAssetCannotReceiveSlot",
      "type": "error"
    },
    {
      "inputs": [],
      "name": "RMRKTokenCannotBeEquippedWithAssetIntoSlot",
      "type": "error"
    },
    {
      "inputs": [],
      "name": "RMRKTokenDoesNotHaveAsset",
      "type": "error"
    },
    {
      "inputs": [],
      "name": "RMRKUnexpectedAssetId",
      "type": "error"
    },
    {
      "inputs": [],
      "name": "RMRKUnexpectedChildId",
      "type": "error"
    },
    {
      "inputs": [],
      "name": "RMRKUnexpectedNumberOfAssets",
      "type": "error"
    },
    {
      "inputs": [],
      "name": "RMRKUnexpectedNumberOfChildren",
      "type": "error"
    },
    {
      "inputs": [],
      "name": "RentrantCall",
      "type": "error"
    },
    {
      "anonymous": false,
      "inputs": [
        {
          "indexed": true,
          "internalType": "uint256",
          "name": "tokenId",
          "type": "uint256"
        }
      ],
      "name": "AllChildrenRejected",
      "type": "event"
    },
    {
      "anonymous": false,
      "inputs": [
        {
          "indexed": true,
          "internalType": "address",
          "name": "owner",
          "type": "address"
        },
        {
          "indexed": true,
          "internalType": "address",
          "name": "approved",
          "type": "address"
        },
        {
          "indexed": true,
          "internalType": "uint256",
          "name": "tokenId",
          "type": "uint256"
        }
      ],
      "name": "Approval",
      "type": "event"
    },
    {
      "anonymous": false,
      "inputs": [
        {
          "indexed": true,
          "internalType": "address",
          "name": "owner",
          "type": "address"
        },
        {
          "indexed": true,
          "internalType": "address",
          "name": "operator",
          "type": "address"
        },
        {
          "indexed": false,
          "internalType": "bool",
          "name": "approved",
          "type": "bool"
        }
      ],
      "name": "ApprovalForAll",
      "type": "event"
    },
    {
      "anonymous": false,
      "inputs": [
        {
          "indexed": true,
          "internalType": "address",
          "name": "owner",
          "type": "address"
        },
        {
          "indexed": true,
          "internalType": "address",
          "name": "operator",
          "type": "address"
        },
        {
          "indexed": false,
          "internalType": "bool",
          "name": "approved",
          "type": "bool"
        }
      ],
      "name": "ApprovalForAllForAssets",
      "type": "event"
    },
    {
      "anonymous": false,
      "inputs": [
        {
          "indexed": true,
          "internalType": "address",
          "name": "owner",
          "type": "address"
        },
        {
          "indexed": true,
          "internalType": "address",
          "name": "approved",
          "type": "address"
        },
        {
          "indexed": true,
          "internalType": "uint256",
          "name": "tokenId",
          "type": "uint256"
        }
      ],
      "name": "ApprovalForAssets",
      "type": "event"
    },
    {
      "anonymous": false,
      "inputs": [
        {
          "indexed": true,
          "internalType": "uint256",
          "name": "tokenId",
          "type": "uint256"
        },
        {
          "indexed": true,
          "internalType": "uint64",
          "name": "assetId",
          "type": "uint64"
        },
        {
          "indexed": true,
          "internalType": "uint64",
          "name": "replacesId",
          "type": "uint64"
        }
      ],
      "name": "AssetAccepted",
      "type": "event"
    },
    {
      "anonymous": false,
      "inputs": [
        {
          "indexed": false,
          "internalType": "uint256[]",
          "name": "tokenIds",
          "type": "uint256[]"
        },
        {
          "indexed": true,
          "internalType": "uint64",
          "name": "assetId",
          "type": "uint64"
        },
        {
          "indexed": true,
          "internalType": "uint64",
          "name": "replacesId",
          "type": "uint64"
        }
      ],
      "name": "AssetAddedToTokens",
      "type": "event"
    },
    {
      "anonymous": false,
      "inputs": [
        {
          "indexed": true,
          "internalType": "uint256",
          "name": "tokenId",
          "type": "uint256"
        }
      ],
      "name": "AssetPrioritySet",
      "type": "event"
    },
    {
      "anonymous": false,
      "inputs": [
        {
          "indexed": true,
          "internalType": "uint256",
          "name": "tokenId",
          "type": "uint256"
        },
        {
          "indexed": true,
          "internalType": "uint64",
          "name": "assetId",
          "type": "uint64"
        }
      ],
      "name": "AssetRejected",
      "type": "event"
    },
    {
      "anonymous": false,
      "inputs": [
        {
          "indexed": true,
          "internalType": "uint64",
          "name": "assetId",
          "type": "uint64"
        }
      ],
      "name": "AssetSet",
      "type": "event"
    },
    {
      "anonymous": false,
      "inputs": [
        {
          "indexed": true,
          "internalType": "uint256",
          "name": "tokenId",
          "type": "uint256"
        },
        {
          "indexed": false,
          "internalType": "uint256",
          "name": "childIndex",
          "type": "uint256"
        },
        {
          "indexed": true,
          "internalType": "address",
          "name": "childAddress",
          "type": "address"
        },
        {
          "indexed": true,
          "internalType": "uint256",
          "name": "childId",
          "type": "uint256"
        }
      ],
      "name": "ChildAccepted",
      "type": "event"
    },
    {
      "anonymous": false,
      "inputs": [
        {
          "indexed": true,
          "internalType": "uint256",
          "name": "tokenId",
          "type": "uint256"
        },
        {
          "indexed": true,
          "internalType": "uint64",
          "name": "assetId",
          "type": "uint64"
        },
        {
          "indexed": true,
          "internalType": "uint64",
          "name": "slotPartId",
          "type": "uint64"
        },
        {
          "indexed": false,
          "internalType": "uint256",
          "name": "childId",
          "type": "uint256"
        },
        {
          "indexed": false,
          "internalType": "address",
          "name": "childAddress",
          "type": "address"
        },
        {
          "indexed": false,
          "internalType": "uint64",
          "name": "childAssetId",
          "type": "uint64"
        }
      ],
      "name": "ChildAssetEquipped",
      "type": "event"
    },
    {
      "anonymous": false,
      "inputs": [
        {
          "indexed": true,
          "internalType": "uint256",
          "name": "tokenId",
          "type": "uint256"
        },
        {
          "indexed": true,
          "internalType": "uint64",
          "name": "assetId",
          "type": "uint64"
        },
        {
          "indexed": true,
          "internalType": "uint64",
          "name": "slotPartId",
          "type": "uint64"
        },
        {
          "indexed": false,
          "internalType": "uint256",
          "name": "childId",
          "type": "uint256"
        },
        {
          "indexed": false,
          "internalType": "address",
          "name": "childAddress",
          "type": "address"
        },
        {
          "indexed": false,
          "internalType": "uint64",
          "name": "childAssetId",
          "type": "uint64"
        }
      ],
      "name": "ChildAssetUnequipped",
      "type": "event"
    },
    {
      "anonymous": false,
      "inputs": [
        {
          "indexed": true,
          "internalType": "uint256",
          "name": "tokenId",
          "type": "uint256"
        },
        {
          "indexed": false,
          "internalType": "uint256",
          "name": "childIndex",
          "type": "uint256"
        },
        {
          "indexed": true,
          "internalType": "address",
          "name": "childAddress",
          "type": "address"
        },
        {
          "indexed": true,
          "internalType": "uint256",
          "name": "childId",
          "type": "uint256"
        }
      ],
      "name": "ChildProposed",
      "type": "event"
    },
    {
      "anonymous": false,
      "inputs": [
        {
          "indexed": true,
          "internalType": "uint256",
          "name": "tokenId",
          "type": "uint256"
        },
        {
          "indexed": false,
          "internalType": "uint256",
          "name": "childIndex",
          "type": "uint256"
        },
        {
          "indexed": true,
          "internalType": "address",
          "name": "childAddress",
          "type": "address"
        },
        {
          "indexed": true,
          "internalType": "uint256",
          "name": "childId",
          "type": "uint256"
        },
        {
          "indexed": false,
          "internalType": "bool",
          "name": "fromPending",
          "type": "bool"
        },
        {
          "indexed": false,
          "internalType": "bool",
          "name": "toZero",
          "type": "bool"
        }
      ],
      "name": "ChildTransferred",
      "type": "event"
    },
    {
      "anonymous": false,
      "inputs": [
        {
          "indexed": true,
          "internalType": "address",
          "name": "contributor",
          "type": "address"
        },
        {
          "indexed": false,
          "internalType": "bool",
          "name": "isContributor",
          "type": "bool"
        }
      ],
      "name": "ContributorUpdate",
      "type": "event"
    },
    {
      "anonymous": false,
      "inputs": [
        {
          "indexed": true,
          "internalType": "address",
          "name": "from",
          "type": "address"
        },
        {
          "indexed": true,
          "internalType": "address",
          "name": "to",
          "type": "address"
        },
        {
          "indexed": false,
          "internalType": "uint256",
          "name": "fromTokenId",
          "type": "uint256"
        },
        {
          "indexed": false,
          "internalType": "uint256",
          "name": "toTokenId",
          "type": "uint256"
        },
        {
          "indexed": true,
          "internalType": "uint256",
          "name": "tokenId",
          "type": "uint256"
        }
      ],
      "name": "NestTransfer",
      "type": "event"
    },
    {
      "anonymous": false,
      "inputs": [
        {
          "indexed": true,
          "internalType": "address",
          "name": "previousOwner",
          "type": "address"
        },
        {
          "indexed": true,
          "internalType": "address",
          "name": "newOwner",
          "type": "address"
        }
      ],
      "name": "OwnershipTransferred",
      "type": "event"
    },
    {
      "anonymous": false,
      "inputs": [
        {
          "indexed": true,
          "internalType": "address",
          "name": "from",
          "type": "address"
        },
        {
          "indexed": true,
          "internalType": "address",
          "name": "to",
          "type": "address"
        },
        {
          "indexed": true,
          "internalType": "uint256",
          "name": "tokenId",
          "type": "uint256"
        }
      ],
      "name": "Transfer",
      "type": "event"
    },
    {
      "anonymous": false,
      "inputs": [
        {
          "indexed": true,
          "internalType": "uint64",
          "name": "equippableGroupId",
          "type": "uint64"
        },
        {
          "indexed": true,
          "internalType": "uint64",
          "name": "slotPartId",
          "type": "uint64"
        },
        {
          "indexed": false,
          "internalType": "address",
          "name": "parentAddress",
          "type": "address"
        }
      ],
      "name": "ValidParentEquippableGroupIdSet",
      "type": "event"
    },
    {
      "inputs": [],
      "name": "RMRK_INTERFACE",
      "outputs": [
        {
          "internalType": "bytes4",
          "name": "",
          "type": "bytes4"
        }
      ],
      "stateMutability": "view",
      "type": "function"
    },
    {
      "inputs": [],
      "name": "VERSION",
      "outputs": [
        {
          "internalType": "string",
          "name": "",
          "type": "string"
        }
      ],
      "stateMutability": "view",
      "type": "function"
    },
    {
      "inputs": [
        {
          "internalType": "uint256",
          "name": "tokenId",
          "type": "uint256"
        },
        {
          "internalType": "uint256",
          "name": "index",
          "type": "uint256"
        },
        {
          "internalType": "uint64",
          "name": "assetId",
          "type": "uint64"
        }
      ],
      "name": "acceptAsset",
      "outputs": [],
      "stateMutability": "nonpayable",
      "type": "function"
    },
    {
      "inputs": [
        {
          "internalType": "uint256",
          "name": "parentId",
          "type": "uint256"
        },
        {
          "internalType": "uint256",
          "name": "childIndex",
          "type": "uint256"
        },
        {
          "internalType": "address",
          "name": "childAddress",
          "type": "address"
        },
        {
          "internalType": "uint256",
          "name": "childId",
          "type": "uint256"
        }
      ],
      "name": "acceptChild",
      "outputs": [],
      "stateMutability": "nonpayable",
      "type": "function"
    },
    {
      "inputs": [
        {
          "internalType": "string",
          "name": "metadataURI",
          "type": "string"
        }
      ],
      "name": "addAssetEntry",
      "outputs": [
        {
          "internalType": "uint256",
          "name": "",
          "type": "uint256"
        }
      ],
      "stateMutability": "nonpayable",
      "type": "function"
    },
    {
      "inputs": [
        {
          "internalType": "uint256",
          "name": "tokenId",
          "type": "uint256"
        },
        {
          "internalType": "uint64",
          "name": "assetId",
          "type": "uint64"
        },
        {
          "internalType": "uint64",
          "name": "replacesAssetWithId",
          "type": "uint64"
        }
      ],
      "name": "addAssetToToken",
      "outputs": [],
      "stateMutability": "nonpayable",
      "type": "function"
    },
    {
      "inputs": [
        {
          "internalType": "uint256",
          "name": "parentId",
          "type": "uint256"
        },
        {
          "internalType": "uint256",
          "name": "childId",
          "type": "uint256"
        },
        {
          "internalType": "bytes",
          "name": "data",
          "type": "bytes"
        }
      ],
      "name": "addChild",
      "outputs": [],
      "stateMutability": "nonpayable",
      "type": "function"
    },
    {
      "inputs": [
        {
          "internalType": "uint64",
          "name": "equippableGroupId",
          "type": "uint64"
        },
        {
          "internalType": "address",
          "name": "catalogAddress",
          "type": "address"
        },
        {
          "internalType": "string",
          "name": "metadataURI",
          "type": "string"
        },
        {
          "internalType": "uint64[]",
          "name": "partIds",
          "type": "uint64[]"
        }
      ],
      "name": "addEquippableAssetEntry",
      "outputs": [
        {
          "internalType": "uint256",
          "name": "",
          "type": "uint256"
        }
      ],
      "stateMutability": "nonpayable",
      "type": "function"
    },
    {
      "inputs": [
        {
          "internalType": "address",
          "name": "to",
          "type": "address"
        },
        {
          "internalType": "uint256",
          "name": "tokenId",
          "type": "uint256"
        }
      ],
      "name": "approve",
      "outputs": [],
      "stateMutability": "nonpayable",
      "type": "function"
    },
    {
      "inputs": [
        {
          "internalType": "address",
          "name": "to",
          "type": "address"
        },
        {
          "internalType": "uint256",
          "name": "tokenId",
          "type": "uint256"
        }
      ],
      "name": "approveForAssets",
      "outputs": [],
      "stateMutability": "nonpayable",
      "type": "function"
    },
    {
      "inputs": [
        {
          "internalType": "address",
          "name": "owner",
          "type": "address"
        }
      ],
      "name": "balanceOf",
      "outputs": [
        {
          "internalType": "uint256",
          "name": "",
          "type": "uint256"
        }
      ],
      "stateMutability": "view",
      "type": "function"
    },
    {
      "inputs": [
        {
          "internalType": "uint256",
          "name": "tokenId",
          "type": "uint256"
        }
      ],
      "name": "burn",
      "outputs": [],
      "stateMutability": "nonpayable",
      "type": "function"
    },
    {
      "inputs": [
        {
          "internalType": "uint256",
          "name": "tokenId",
          "type": "uint256"
        },
        {
          "internalType": "uint256",
          "name": "maxChildrenBurns",
          "type": "uint256"
        }
      ],
      "name": "burn",
      "outputs": [
        {
          "internalType": "uint256",
          "name": "",
          "type": "uint256"
        }
      ],
      "stateMutability": "nonpayable",
      "type": "function"
    },
    {
      "inputs": [
        {
          "internalType": "address",
          "name": "parent",
          "type": "address"
        },
        {
          "internalType": "uint256",
          "name": "tokenId",
          "type": "uint256"
        },
        {
          "internalType": "uint64",
          "name": "assetId",
          "type": "uint64"
        },
        {
          "internalType": "uint64",
          "name": "slotId",
          "type": "uint64"
        }
      ],
      "name": "canTokenBeEquippedWithAssetIntoSlot",
      "outputs": [
        {
          "internalType": "bool",
          "name": "",
          "type": "bool"
        }
      ],
      "stateMutability": "view",
      "type": "function"
    },
    {
      "inputs": [
        {
          "internalType": "uint256",
          "name": "parentId",
          "type": "uint256"
        },
        {
          "internalType": "uint256",
          "name": "index",
          "type": "uint256"
        }
      ],
      "name": "childOf",
      "outputs": [
        {
          "components": [
            {
              "internalType": "uint256",
              "name": "tokenId",
              "type": "uint256"
            },
            {
              "internalType": "address",
              "name": "contractAddress",
              "type": "address"
            }
          ],
          "internalType": "struct IERC7401.Child",
          "name": "",
          "type": "tuple"
        }
      ],
      "stateMutability": "view",
      "type": "function"
    },
    {
      "inputs": [
        {
          "internalType": "uint256",
          "name": "parentId",
          "type": "uint256"
        }
      ],
      "name": "childrenOf",
      "outputs": [
        {
          "components": [
            {
              "internalType": "uint256",
              "name": "tokenId",
              "type": "uint256"
            },
            {
              "internalType": "address",
              "name": "contractAddress",
              "type": "address"
            }
          ],
          "internalType": "struct IERC7401.Child[]",
          "name": "",
          "type": "tuple[]"
        }
      ],
      "stateMutability": "view",
      "type": "function"
    },
    {
      "inputs": [],
      "name": "collectionMetadata",
      "outputs": [
        {
          "internalType": "string",
          "name": "",
          "type": "string"
        }
      ],
      "stateMutability": "view",
      "type": "function"
    },
    {
      "inputs": [
        {
          "internalType": "uint256",
          "name": "tokenId",
          "type": "uint256"
        }
      ],
      "name": "directOwnerOf",
      "outputs": [
        {
          "internalType": "address",
          "name": "",
          "type": "address"
        },
        {
          "internalType": "uint256",
          "name": "",
          "type": "uint256"
        },
        {
          "internalType": "bool",
          "name": "",
          "type": "bool"
        }
      ],
      "stateMutability": "view",
      "type": "function"
    },
    {
      "inputs": [
        {
          "components": [
            {
              "internalType": "uint256",
              "name": "tokenId",
              "type": "uint256"
            },
            {
              "internalType": "uint256",
              "name": "childIndex",
              "type": "uint256"
            },
            {
              "internalType": "uint64",
              "name": "assetId",
              "type": "uint64"
            },
            {
              "internalType": "uint64",
              "name": "slotPartId",
              "type": "uint64"
            },
            {
              "internalType": "uint64",
              "name": "childAssetId",
              "type": "uint64"
            }
          ],
          "internalType": "struct IERC6220.IntakeEquip",
          "name": "data",
          "type": "tuple"
        }
      ],
      "name": "equip",
      "outputs": [],
      "stateMutability": "nonpayable",
      "type": "function"
    },
    {
      "inputs": [
        {
          "internalType": "uint256",
          "name": "tokenId",
          "type": "uint256"
        }
      ],
      "name": "getActiveAssetPriorities",
      "outputs": [
        {
          "internalType": "uint64[]",
          "name": "",
          "type": "uint64[]"
        }
      ],
      "stateMutability": "view",
      "type": "function"
    },
    {
      "inputs": [
        {
          "internalType": "uint256",
          "name": "tokenId",
          "type": "uint256"
        }
      ],
      "name": "getActiveAssets",
      "outputs": [
        {
          "internalType": "uint64[]",
          "name": "",
          "type": "uint64[]"
        }
      ],
      "stateMutability": "view",
      "type": "function"
    },
    {
      "inputs": [
        {
          "internalType": "uint256",
          "name": "tokenId",
          "type": "uint256"
        }
      ],
      "name": "getApproved",
      "outputs": [
        {
          "internalType": "address",
          "name": "",
          "type": "address"
        }
      ],
      "stateMutability": "view",
      "type": "function"
    },
    {
      "inputs": [
        {
          "internalType": "uint256",
          "name": "tokenId",
          "type": "uint256"
        }
      ],
      "name": "getApprovedForAssets",
      "outputs": [
        {
          "internalType": "address",
          "name": "",
          "type": "address"
        }
      ],
      "stateMutability": "view",
      "type": "function"
    },
    {
      "inputs": [
        {
          "internalType": "uint256",
          "name": "tokenId",
          "type": "uint256"
        },
        {
          "internalType": "uint64",
          "name": "assetId",
          "type": "uint64"
        }
      ],
      "name": "getAssetAndEquippableData",
      "outputs": [
        {
          "internalType": "string",
          "name": "",
          "type": "string"
        },
        {
          "internalType": "uint64",
          "name": "",
          "type": "uint64"
        },
        {
          "internalType": "address",
          "name": "",
          "type": "address"
        },
        {
          "internalType": "uint64[]",
          "name": "",
          "type": "uint64[]"
        }
      ],
      "stateMutability": "view",
      "type": "function"
    },
    {
      "inputs": [
        {
          "internalType": "uint256",
          "name": "tokenId",
          "type": "uint256"
        },
        {
          "internalType": "uint64",
          "name": "assetId",
          "type": "uint64"
        }
      ],
      "name": "getAssetMetadata",
      "outputs": [
        {
          "internalType": "string",
          "name": "",
          "type": "string"
        }
      ],
      "stateMutability": "view",
      "type": "function"
    },
    {
      "inputs": [
        {
          "internalType": "uint256",
          "name": "tokenId",
          "type": "uint256"
        },
        {
          "internalType": "uint64",
          "name": "newAssetId",
          "type": "uint64"
        }
      ],
      "name": "getAssetReplacements",
      "outputs": [
        {
          "internalType": "uint64",
          "name": "",
          "type": "uint64"
        }
      ],
      "stateMutability": "view",
      "type": "function"
    },
    {
      "inputs": [
        {
          "internalType": "uint256",
          "name": "tokenId",
          "type": "uint256"
        },
        {
          "internalType": "address",
          "name": "targetCatalogAddress",
          "type": "address"
        },
        {
          "internalType": "uint64",
          "name": "slotPartId",
          "type": "uint64"
        }
      ],
      "name": "getEquipment",
      "outputs": [
        {
          "components": [
            {
              "internalType": "uint64",
              "name": "assetId",
              "type": "uint64"
            },
            {
              "internalType": "uint64",
              "name": "childAssetId",
              "type": "uint64"
            },
            {
              "internalType": "uint256",
              "name": "childId",
              "type": "uint256"
            },
            {
              "internalType": "address",
              "name": "childEquippableAddress",
              "type": "address"
            }
          ],
          "internalType": "struct IERC6220.Equipment",
          "name": "",
          "type": "tuple"
        }
      ],
      "stateMutability": "view",
      "type": "function"
    },
    {
      "inputs": [
        {
          "internalType": "uint256",
          "name": "tokenId",
          "type": "uint256"
        }
      ],
      "name": "getPendingAssets",
      "outputs": [
        {
          "internalType": "uint64[]",
          "name": "",
          "type": "uint64[]"
        }
      ],
      "stateMutability": "view",
      "type": "function"
    },
    {
      "inputs": [],
      "name": "getRoyaltyPercentage",
      "outputs": [
        {
          "internalType": "uint256",
          "name": "",
          "type": "uint256"
        }
      ],
      "stateMutability": "view",
      "type": "function"
    },
    {
      "inputs": [],
      "name": "getRoyaltyRecipient",
      "outputs": [
        {
          "internalType": "address",
          "name": "",
          "type": "address"
        }
      ],
      "stateMutability": "view",
      "type": "function"
    },
    {
      "inputs": [
        {
          "internalType": "address",
          "name": "owner",
          "type": "address"
        },
        {
          "internalType": "address",
          "name": "operator",
          "type": "address"
        }
      ],
      "name": "isApprovedForAll",
      "outputs": [
        {
          "internalType": "bool",
          "name": "",
          "type": "bool"
        }
      ],
      "stateMutability": "view",
      "type": "function"
    },
    {
      "inputs": [
        {
          "internalType": "address",
          "name": "owner",
          "type": "address"
        },
        {
          "internalType": "address",
          "name": "operator",
          "type": "address"
        }
      ],
      "name": "isApprovedForAllForAssets",
      "outputs": [
        {
          "internalType": "bool",
          "name": "",
          "type": "bool"
        }
      ],
      "stateMutability": "view",
      "type": "function"
    },
    {
      "inputs": [
        {
          "internalType": "uint256",
          "name": "tokenId",
          "type": "uint256"
        },
        {
          "internalType": "address",
          "name": "childAddress",
          "type": "address"
        },
        {
          "internalType": "uint256",
          "name": "childId",
          "type": "uint256"
        }
      ],
      "name": "isChildEquipped",
      "outputs": [
        {
          "internalType": "bool",
          "name": "",
          "type": "bool"
        }
      ],
      "stateMutability": "view",
      "type": "function"
    },
    {
      "inputs": [
        {
          "internalType": "address",
          "name": "contributor",
          "type": "address"
        }
      ],
      "name": "isContributor",
      "outputs": [
        {
          "internalType": "bool",
          "name": "",
          "type": "bool"
        }
      ],
      "stateMutability": "view",
      "type": "function"
    },
    {
      "inputs": [
        {
          "internalType": "address",
          "name": "contributor",
          "type": "address"
        },
        {
          "internalType": "bool",
          "name": "grantRole",
          "type": "bool"
        }
      ],
      "name": "manageContributor",
      "outputs": [],
      "stateMutability": "nonpayable",
      "type": "function"
    },
    {
      "inputs": [],
      "name": "maxSupply",
      "outputs": [
        {
          "internalType": "uint256",
          "name": "",
          "type": "uint256"
        }
      ],
      "stateMutability": "view",
      "type": "function"
    },
    {
      "inputs": [
        {
          "internalType": "address",
          "name": "to",
          "type": "address"
        },
        {
          "internalType": "uint256",
          "name": "numToMint",
          "type": "uint256"
        },
        {
          "internalType": "string",
          "name": "tokenURI",
          "type": "string"
        }
      ],
      "name": "mint",
      "outputs": [
        {
          "internalType": "uint256",
          "name": "",
          "type": "uint256"
        }
      ],
      "stateMutability": "nonpayable",
      "type": "function"
    },
    {
      "inputs": [],
      "name": "name",
      "outputs": [
        {
          "internalType": "string",
          "name": "",
          "type": "string"
        }
      ],
      "stateMutability": "view",
      "type": "function"
    },
    {
      "inputs": [
        {
          "internalType": "address",
          "name": "to",
          "type": "address"
        },
        {
          "internalType": "uint256",
          "name": "numToMint",
          "type": "uint256"
        },
        {
          "internalType": "uint256",
          "name": "destinationId",
          "type": "uint256"
        },
        {
          "internalType": "string",
          "name": "tokenURI",
          "type": "string"
        }
      ],
      "name": "nestMint",
      "outputs": [
        {
          "internalType": "uint256",
          "name": "",
          "type": "uint256"
        }
      ],
      "stateMutability": "nonpayable",
      "type": "function"
    },
    {
      "inputs": [
        {
          "internalType": "address",
          "name": "from",
          "type": "address"
        },
        {
          "internalType": "address",
          "name": "to",
          "type": "address"
        },
        {
          "internalType": "uint256",
          "name": "tokenId",
          "type": "uint256"
        },
        {
          "internalType": "uint256",
          "name": "destinationId",
          "type": "uint256"
        },
        {
          "internalType": "bytes",
          "name": "data",
          "type": "bytes"
        }
      ],
      "name": "nestTransferFrom",
      "outputs": [],
      "stateMutability": "nonpayable",
      "type": "function"
    },
    {
      "inputs": [],
      "name": "owner",
      "outputs": [
        {
          "internalType": "address",
          "name": "",
          "type": "address"
        }
      ],
      "stateMutability": "view",
      "type": "function"
    },
    {
      "inputs": [
        {
          "internalType": "uint256",
          "name": "tokenId",
          "type": "uint256"
        }
      ],
      "name": "ownerOf",
      "outputs": [
        {
          "internalType": "address",
          "name": "",
          "type": "address"
        }
      ],
      "stateMutability": "view",
      "type": "function"
    },
    {
      "inputs": [
        {
          "internalType": "uint256",
          "name": "parentId",
          "type": "uint256"
        },
        {
          "internalType": "uint256",
          "name": "index",
          "type": "uint256"
        }
      ],
      "name": "pendingChildOf",
      "outputs": [
        {
          "components": [
            {
              "internalType": "uint256",
              "name": "tokenId",
              "type": "uint256"
            },
            {
              "internalType": "address",
              "name": "contractAddress",
              "type": "address"
            }
          ],
          "internalType": "struct IERC7401.Child",
          "name": "",
          "type": "tuple"
        }
      ],
      "stateMutability": "view",
      "type": "function"
    },
    {
      "inputs": [
        {
          "internalType": "uint256",
          "name": "parentId",
          "type": "uint256"
        }
      ],
      "name": "pendingChildrenOf",
      "outputs": [
        {
          "components": [
            {
              "internalType": "uint256",
              "name": "tokenId",
              "type": "uint256"
            },
            {
              "internalType": "address",
              "name": "contractAddress",
              "type": "address"
            }
          ],
          "internalType": "struct IERC7401.Child[]",
          "name": "",
          "type": "tuple[]"
        }
      ],
      "stateMutability": "view",
      "type": "function"
    },
    {
      "inputs": [
        {
          "internalType": "uint256",
          "name": "tokenId",
          "type": "uint256"
        },
        {
          "internalType": "uint256",
          "name": "maxRejections",
          "type": "uint256"
        }
      ],
      "name": "rejectAllAssets",
      "outputs": [],
      "stateMutability": "nonpayable",
      "type": "function"
    },
    {
      "inputs": [
        {
          "internalType": "uint256",
          "name": "tokenId",
          "type": "uint256"
        },
        {
          "internalType": "uint256",
          "name": "maxRejections",
          "type": "uint256"
        }
      ],
      "name": "rejectAllChildren",
      "outputs": [],
      "stateMutability": "nonpayable",
      "type": "function"
    },
    {
      "inputs": [
        {
          "internalType": "uint256",
          "name": "tokenId",
          "type": "uint256"
        },
        {
          "internalType": "uint256",
          "name": "index",
          "type": "uint256"
        },
        {
          "internalType": "uint64",
          "name": "assetId",
          "type": "uint64"
        }
      ],
      "name": "rejectAsset",
      "outputs": [],
      "stateMutability": "nonpayable",
      "type": "function"
    },
    {
      "inputs": [],
      "name": "renounceOwnership",
      "outputs": [],
      "stateMutability": "nonpayable",
      "type": "function"
    },
    {
      "inputs": [
        {
          "internalType": "uint256",
          "name": "tokenId",
          "type": "uint256"
        },
        {
          "internalType": "uint256",
          "name": "salePrice",
          "type": "uint256"
        }
      ],
      "name": "royaltyInfo",
      "outputs": [
        {
          "internalType": "address",
          "name": "receiver",
          "type": "address"
        },
        {
          "internalType": "uint256",
          "name": "royaltyAmount",
          "type": "uint256"
        }
      ],
      "stateMutability": "view",
      "type": "function"
    },
    {
      "inputs": [
        {
          "internalType": "address",
          "name": "from",
          "type": "address"
        },
        {
          "internalType": "address",
          "name": "to",
          "type": "address"
        },
        {
          "internalType": "uint256",
          "name": "tokenId",
          "type": "uint256"
        }
      ],
      "name": "safeTransferFrom",
      "outputs": [],
      "stateMutability": "nonpayable",
      "type": "function"
    },
    {
      "inputs": [
        {
          "internalType": "address",
          "name": "from",
          "type": "address"
        },
        {
          "internalType": "address",
          "name": "to",
          "type": "address"
        },
        {
          "internalType": "uint256",
          "name": "tokenId",
          "type": "uint256"
        },
        {
          "internalType": "bytes",
          "name": "data",
          "type": "bytes"
        }
      ],
      "name": "safeTransferFrom",
      "outputs": [],
      "stateMutability": "nonpayable",
      "type": "function"
    },
    {
      "inputs": [
        {
          "internalType": "address",
          "name": "operator",
          "type": "address"
        },
        {
          "internalType": "bool",
          "name": "approved",
          "type": "bool"
        }
      ],
      "name": "setApprovalForAll",
      "outputs": [],
      "stateMutability": "nonpayable",
      "type": "function"
    },
    {
      "inputs": [
        {
          "internalType": "address",
          "name": "operator",
          "type": "address"
        },
        {
          "internalType": "bool",
          "name": "approved",
          "type": "bool"
        }
      ],
      "name": "setApprovalForAllForAssets",
      "outputs": [],
      "stateMutability": "nonpayable",
      "type": "function"
    },
    {
      "inputs": [
        {
          "internalType": "uint256",
          "name": "tokenId",
          "type": "uint256"
        },
        {
          "internalType": "uint64[]",
          "name": "priorities",
          "type": "uint64[]"
        }
      ],
      "name": "setPriority",
      "outputs": [],
      "stateMutability": "nonpayable",
      "type": "function"
    },
    {
      "inputs": [
        {
          "internalType": "uint256",
          "name": "tokenId",
          "type": "uint256"
        },
        {
          "internalType": "string",
          "name": "tokenURI_",
          "type": "string"
        }
      ],
      "name": "setTokenURI",
      "outputs": [],
      "stateMutability": "nonpayable",
      "type": "function"
    },
    {
      "inputs": [
        {
          "internalType": "uint64",
          "name": "equippableGroupId",
          "type": "uint64"
        },
        {
          "internalType": "address",
          "name": "parentAddress",
          "type": "address"
        },
        {
          "internalType": "uint64",
          "name": "partId",
          "type": "uint64"
        }
      ],
      "name": "setValidParentForEquippableGroup",
      "outputs": [],
      "stateMutability": "nonpayable",
      "type": "function"
    },
    {
      "inputs": [],
      "name": "specs",
      "outputs": [
        {
          "internalType": "uint16",
          "name": "MOVE_SPEED",
          "type": "uint16"
        },
        {
          "internalType": "uint16",
          "name": "MOVE_ANGLE_SPEED",
          "type": "uint16"
        },
        {
          "internalType": "uint16",
          "name": "SHIP_MASS",
          "type": "uint16"
        },
        {
          "internalType": "uint16",
          "name": "LINEAR_DAMPING",
          "type": "uint16"
        },
        {
          "internalType": "uint16",
          "name": "ANGULAR_DAMPING",
          "type": "uint16"
        },
        {
          "internalType": "uint16",
          "name": "FIRE_RATE",
          "type": "uint16"
        }
      ],
      "stateMutability": "view",
      "type": "function"
    },
    {
      "inputs": [
        {
          "internalType": "bytes4",
          "name": "interfaceId",
          "type": "bytes4"
        }
      ],
      "name": "supportsInterface",
      "outputs": [
        {
          "internalType": "bool",
          "name": "",
          "type": "bool"
        }
      ],
      "stateMutability": "view",
      "type": "function"
    },
    {
      "inputs": [],
      "name": "symbol",
      "outputs": [
        {
          "internalType": "string",
          "name": "",
          "type": "string"
        }
      ],
      "stateMutability": "view",
      "type": "function"
    },
    {
      "inputs": [
        {
          "internalType": "uint256",
          "name": "tokenId",
          "type": "uint256"
        }
      ],
      "name": "tokenURI",
      "outputs": [
        {
          "internalType": "string",
          "name": "",
          "type": "string"
        }
      ],
      "stateMutability": "view",
      "type": "function"
    },
    {
      "inputs": [],
      "name": "totalAssets",
      "outputs": [
        {
          "internalType": "uint256",
          "name": "",
          "type": "uint256"
        }
      ],
      "stateMutability": "view",
      "type": "function"
    },
    {
      "inputs": [],
      "name": "totalSupply",
      "outputs": [
        {
          "internalType": "uint256",
          "name": "",
          "type": "uint256"
        }
      ],
      "stateMutability": "view",
      "type": "function"
    },
    {
      "inputs": [
        {
          "internalType": "uint256",
          "name": "tokenId",
          "type": "uint256"
        },
        {
          "internalType": "address",
          "name": "to",
          "type": "address"
        },
        {
          "internalType": "uint256",
          "name": "destinationId",
          "type": "uint256"
        },
        {
          "internalType": "uint256",
          "name": "childIndex",
          "type": "uint256"
        },
        {
          "internalType": "address",
          "name": "childAddress",
          "type": "address"
        },
        {
          "internalType": "uint256",
          "name": "childId",
          "type": "uint256"
        },
        {
          "internalType": "bool",
          "name": "isPending",
          "type": "bool"
        },
        {
          "internalType": "bytes",
          "name": "data",
          "type": "bytes"
        }
      ],
      "name": "transferChild",
      "outputs": [],
      "stateMutability": "nonpayable",
      "type": "function"
    },
    {
      "inputs": [
        {
          "internalType": "address",
          "name": "from",
          "type": "address"
        },
        {
          "internalType": "address",
          "name": "to",
          "type": "address"
        },
        {
          "internalType": "uint256",
          "name": "tokenId",
          "type": "uint256"
        }
      ],
      "name": "transferFrom",
      "outputs": [],
      "stateMutability": "nonpayable",
      "type": "function"
    },
    {
      "inputs": [
        {
          "internalType": "address",
          "name": "newOwner",
          "type": "address"
        }
      ],
      "name": "transferOwnership",
      "outputs": [],
      "stateMutability": "nonpayable",
      "type": "function"
    },
    {
      "inputs": [
        {
          "internalType": "uint256",
          "name": "tokenId",
          "type": "uint256"
        },
        {
          "internalType": "uint64",
          "name": "assetId",
          "type": "uint64"
        },
        {
          "internalType": "uint64",
          "name": "slotPartId",
          "type": "uint64"
        }
      ],
      "name": "unequip",
      "outputs": [],
      "stateMutability": "nonpayable",
      "type": "function"
    },
    {
      "inputs": [
        {
          "internalType": "address",
          "name": "newRoyaltyRecipient",
          "type": "address"
        }
      ],
      "name": "updateRoyaltyRecipient",
      "outputs": [],
      "stateMutability": "nonpayable",
      "type": "function"
    }
  ],
  "bytecode": {
    "object": "0x60806040523480156200001157600080fd5b50604051620056543803806200565483398101604081905262000034916200036c565b600080546001600160a01b0319166001600160a01b038416179055858585858561ffff8616818161271081106200007e57604051634006185d60e11b815260040160405180910390fd5b600190815560025550620000923362000168565b6006620000a08782620004c9565b506007620000af8682620004c9565b506005620000be8582620004c9565b505050600a5550620000d39150620001ba9050565b600081526001602080830191909152600219604080840191909152805160e0810182526103e88082526113889382019390935290810191909152603260608201526096608082015261947060a082015260c08101829052602280546001600160601b0319166b94700096003203e8138803e8178155620001576023846003620001d8565b509050505050505050505062000595565b600380546001600160a01b038381166001600160a01b0319831681179093556040519116919082907f8be0079c531659141344cd1fd0a4f28419497f9722a3daafe3b4186f6b6457e090600090a35050565b60405180606001604052806003906020820280368337509192915050565b600183019183908215620002665791602002820160005b838211156200023457835183826101000a81548161ffff021916908360010b61ffff1602179055509260200192600201602081600101049283019260010302620001ef565b8015620002645782816101000a81549061ffff021916905560020160208160010104928301926001030262000234565b505b506200027492915062000278565b5090565b5b8082111562000274576000815560010162000279565b634e487b7160e01b600052604160045260246000fd5b600082601f830112620002b757600080fd5b81516001600160401b0380821115620002d457620002d46200028f565b604051601f8301601f19908116603f01168101908282118183101715620002ff57620002ff6200028f565b816040528381526020925086838588010111156200031c57600080fd5b600091505b8382101562000340578582018301518183018401529082019062000321565b600093810190920192909252949350505050565b805161ffff811681146200036757600080fd5b919050565b60008060008060008060c087890312156200038657600080fd5b86516001600160401b03808211156200039e57600080fd5b620003ac8a838b01620002a5565b97506020890151915080821115620003c357600080fd5b620003d18a838b01620002a5565b96506040890151915080821115620003e857600080fd5b50620003f789828a01620002a5565b606089015160808a0151919650945090506001600160a01b03811681146200041e57600080fd5b91506200042e60a0880162000354565b90509295509295509295565b600181811c908216806200044f57607f821691505b6020821081036200047057634e487b7160e01b600052602260045260246000fd5b50919050565b601f821115620004c457600081815260208120601f850160051c810160208610156200049f5750805b601f850160051c820191505b81811015620004c057828155600101620004ab565b5050505b505050565b81516001600160401b03811115620004e557620004e56200028f565b620004fd81620004f684546200043a565b8462000476565b602080601f8311600181146200053557600084156200051c5750858301515b600019600386901b1c1916600185901b178555620004c0565b600085815260208120601f198616915b82811015620005665788860151825594840194600190910190840162000545565b5085821015620005855787850151600019600388901b60f8161c191681555b5050505050600190811b01905550565b6150af80620005a56000396000f3fe608060405234801561001057600080fd5b50600436106103f15760003560e01c80636f19951c11610215578063b88d4fde11610125578063e467a48f116100b8578063ee1dffcf11610087578063ee1dffcf14610aa4578063f2fde38b14610ae3578063fb25fb7a14610af6578063fc3517c814610b30578063ffa1ad7414610b4357600080fd5b8063e467a48f14610a2f578063e7de4de414610a42578063e97ceaa814610a55578063e985e9c514610a6857600080fd5b8063d5abeb01116100f4578063d5abeb01146109b2578063de8e602c146109ba578063defa80c3146109cd578063df6f556b146109e057600080fd5b8063b88d4fde14610966578063c259a98814610979578063c87b56dd1461098c578063d3fc98641461099f57600080fd5b80638d4f3bf5116101a857806397961336116101775780639796133614610899578063a22cb465146108ac578063a898e364146108bf578063adb7c3f7146108d2578063b390c0ab1461095357600080fd5b80638d4f3bf5146108485780638da5cb5b1461086f57806395d89b411461088057806395edc18c1461088857600080fd5b80637507e2ae116101e45780637507e2ae1461073357806379e8ca9e1461081a5780638507dc281461082d57806389ed2edf1461084057600080fd5b80636f19951c146106f257806370a0823114610705578063715018a6146107185780637280281e1461072057600080fd5b80632452cd91116103105780634e60edba116102a35780635e94354a116102725780635e94354a146106935780635ea72f36146106a65780636352211e146106b9578063635490cc146106cc57806365b67eb9146106df57600080fd5b80634e60edba1461063557806351532e5a1461065857806359c8b7dd146106785780635e2e32921461068057600080fd5b806338dcf74c116102df57806338dcf74c146105dc57806342842e0e146105ef57806342966c681461060257806344ec93441461061557600080fd5b80632452cd91146105645780632a55205a146105775780632f32f937146105a957806330ffb1d6146105c957600080fd5b80630fc499f5116103885780631d0d35f5116103575780631d0d35f5146104ff57806322e6d1601461052b57806322f6da9c1461053e57806323b872dd1461055157600080fd5b80630fc499f5146104be578063162094c4146104d157806318160ddd146104e45780631c7bb461146104ec57600080fd5b8063074334fb116103c4578063074334fb1461045a578063081812fc1461046d578063095ea7b3146104985780630ee2fd65146104ab57600080fd5b806301e1d114146103f657806301ffc9a71461040d578063064c0a3a1461043057806306fdde0314610445575b600080fd5b600b545b6040519081526020015b60405180910390f35b61042061041b3660046142fb565b610b67565b6040519015158152602001610404565b61044361043e3660046143e9565b610bc9565b005b61044d610dbd565b60405161040491906144a4565b6104206104683660046144ce565b610e4f565b61048061047b36600461451d565b610ec8565b6040516001600160a01b039091168152602001610404565b6104436104a6366004614536565b610f0e565b6103fa6104b9366004614562565b610f9a565b6104436104cc3660046145c4565b610ff8565b6104436104df3660046145e1565b611021565b6009546103fa565b6104436104fa366004614627565b611037565b61042061050d3660046145c4565b6001600160a01b031660009081526004602052604090205460011490565b610420610539366004614663565b61104a565b61044361054c36600461469c565b611078565b61044361055f3660046146c8565b6110f3565b6103fa61057236600461478f565b611118565b61058a610585366004614809565b611146565b604080516001600160a01b039093168352602083019190915201610404565b6105bc6105b7366004614809565b61117b565b604051610404919061482b565b6103fa6105d736600461484b565b611214565b6104436105ea36600461487f565b61123d565b6104436105fd3660046146c8565b6115c4565b61044361061036600461451d565b6115df565b61062861062336600461451d565b6115ea565b6040516104049190614900565b610648610643366004614960565b611669565b60405161040494939291906149c7565b61066b61066636600461451d565b611746565b6040516104049190614a0a565b6001546103fa565b61044d61068e366004614960565b6117da565b61066b6106a136600461451d565b6118c9565b6104436106b4366004614536565b611932565b6104806106c736600461451d565b6119b9565b6104436106da366004614a1d565b611a49565b6104436106ed366004614a6c565b611b5f565b61062861070036600461451d565b611b72565b6103fa6107133660046145c4565b611be2565b610443611c27565b61066b61072e36600461451d565b611c3b565b6107d0610741366004614a9a565b6040805160808082018352600080835260208084018290528385018290526060938401829052968152601e87528381206001600160a01b03968716825287528381206001600160401b03958616825287528390208351918201845280548086168352600160401b9004909416958101959095526001830154918501919091526002909101549091169082015290565b604051610404919081516001600160401b03908116825260208084015190911690820152604080830151908201526060918201516001600160a01b03169181019190915260800190565b610443610828366004614acf565b611ca4565b61044361083b366004614acf565b611d61565b61044d611df7565b61085663524d524b60e01b81565b6040516001600160e01b03199091168152602001610404565b6003546001600160a01b0316610480565b61044d611e06565b6000546001600160a01b0316610480565b6104436108a7366004614809565b611e15565b6104436108ba366004614acf565b611e95565b6105bc6108cd366004614809565b611f23565b6022546109169061ffff80821691620100008104821691640100000000820481169166010000000000008104821691600160401b8204811691600160501b90041686565b6040805161ffff978816815295871660208701529386169385019390935290841660608401528316608083015290911660a082015260c001610404565b6103fa610961366004614809565b611f80565b610443610974366004614afd565b6122e7565b610443610987366004614627565b61232d565b61044d61099a36600461451d565b6124f6565b6103fa6109ad366004614b50565b61258e565b600a546103fa565b6104436109c8366004614b92565b6125ea565b6104436109db366004614bce565b612674565b610a176109ee366004614960565b60009182526014602090815260408084206001600160401b039384168552909152909120541690565b6040516001600160401b039091168152602001610404565b610480610a3d36600461451d565b6128af565b610443610a50366004614809565b6128d2565b610443610a63366004614c69565b6129d4565b610420610a76366004614663565b6001600160a01b039182166000908152600e6020908152604080832093909416825291909152205460ff1690565b610420610ab2366004614ca8565b6000928352601f602090815260408085206001600160a01b0394909416855292815282842091845252902054151590565b610443610af13660046145c4565b6129ea565b610b09610b0436600461451d565b612a22565b604080516001600160a01b0390941684526020840192909252151590820152606001610404565b610443610b3e36600461469c565b612a8a565b61044d604051806040016040528060058152602001640322e322e360dc1b81525081565b6000610b7282612a9f565b80610b8d57506001600160e01b0319821663152a902d60e11b145b80610ba857506001600160e01b03198216635b5e139f60e01b145b80610bc357506001600160e01b0319821663524d524b60e01b145b92915050565b82610bd381612b26565b600080610bdf86612a22565b5091509150876001600160a01b0316826001600160a01b031614610c165760405163e146af6f60e01b815260040160405180910390fd5b6001600160a01b038716610c3d576040516338f646ff60e21b815260040160405180910390fd5b6001600160a01b03871630148015610c5457508486145b15610c7257604051633d76b10760e01b815260040160405180910390fd5b6001600160a01b0387163b610c9a5760405163b9d3114760e01b815260040160405180910390fd5b6040516301ffc9a760e01b81526342b0e56f60e01b60048201526001600160a01b038816906301ffc9a790602401602060405180830381865afa158015610ce5573d6000803e3d6000fd5b505050506040513d601f19601f82011682018060405250810190610d099190614ccf565b610d2657604051631784ec7360e21b815260040160405180910390fd5b610d31868887612bae565b610d3c888888612c9f565b6001600160a01b0388166000908152600c60205260408120805460019290610d65908490614d02565b90915550610d769050868689612cbc565b6001600160a01b0387166000908152600c60205260408120805460019290610d9f908490614d15565b90915550610db39050828883888a89612d1d565b5050505050505050565b606060068054610dcc90614d28565b80601f0160208091040260200160405190810160405280929190818152602001828054610df890614d28565b8015610e455780601f10610e1a57610100808354040283529160200191610e45565b820191906000526020600020905b815481529060010190602001808311610e2857829003601f168201915b5050505050905090565b6001600160401b038083166000908152601c602090815260408083205484168084528280528184206001600160a01b038a1685529092528220549192909181169084168103610eb9576000610ead86610ea789611c3b565b90612dfe565b9450610ec09350505050565b6000925050505b949350505050565b6000610ed382612e67565b6000828152600d6020526040812090610eeb846119b9565b6001600160a01b0390811682526020820192909252604001600020541692915050565b6000610f19826119b9565b9050806001600160a01b0316836001600160a01b031603610f4d57604051630591db6d60e01b815260040160405180910390fd5b336001600160a01b03821614801590610f6d5750610f6b8133610a76565b155b15610f8b57604051634c12315960e11b815260040160405180910390fd5b610f958383612e9f565b505050565b6000610fa4612f18565b600080610fb086612f57565b9092509050815b81811015610fec57610fc98186612fc9565b610fe488828860405180602001604052806000815250612fe1565b600101610fb7565b50909695505050505050565b6110006130b1565b600080546001600160a01b0319166001600160a01b03831617905550565b50565b611029612f18565b6110338282612fc9565b5050565b61103f612f18565b610f958383836130dc565b6001600160a01b03918216600090815260196020908152604080832093909416825291909152205460ff1690565b82611082816132d8565b61108d848484613339565b6110988484846133e1565b60008481526018602090815260408083206001600160401b0386168085529252808320805460ff1916905551909186917f1010837a46db9510cad56c9b63e97183557a136e9d4ddbec309ce52c99afb1249190a35b50505050565b806110fd81612b26565b6110ed8484846040518060200160405280600081525061342f565b6000611122612f18565b600b80546001019081905561113a9086868686613574565b50600b54949350505050565b600080546001546001600160a01b039091169190612710906111689085614d62565b6111729190614d79565b90509250929050565b60408051808201909152600080825260208201528161119984611b72565b51116111b85760405163653e642560e11b815260040160405180910390fd5b60008381526010602052604081208054849081106111d8576111d8614d9b565b60009182526020918290206040805180820190915260029092020180548252600101546001600160a01b03169181019190915291505092915050565b600061121e612f18565b600b805460010190819055611233908361361b565b50600b545b919050565b8051611248816132d8565b6112506136e1565b6040808301516001600160401b039081166000908152601b602090815283822054606087015187518452601e83528584206001600160a01b0392831680865290845286852095821685529490925293909120600201549192909116156112c95760405163bd0650ab60e01b815260040160405180910390fd5b6112d7846040015182613709565b60006112eb8560000151866020015161117b565b60208101518151608088015160405163074334fb60e01b815230600482015260248101929092526001600160401b039081166044830152851660648201529192506001600160a01b03169063074334fb90608401602060405180830381865afa15801561135c573d6000803e3d6000fd5b505050506040513d601f19601f820116820180604052508101906113809190614ccf565b61139d57604051632c36cd3360e01b815260040160405180910390fd5b6020810151604051636e5bceab60e11b81526001600160401b03841660048201526001600160a01b0391821660248201529084169063dcb79d5690604401602060405180830381865afa1580156113f8573d6000803e3d6000fd5b505050506040513d601f19601f8201168201806040525081019061141c9190614ccf565b61143957604051637228eff560e11b815260040160405180910390fd5b6040805160808082018352878301516001600160401b0390811683529088015181166020808401918252855184860190815286820180516001600160a01b03908116606088019081528d516000908152601e86528981208d8416825286528981208c8916825286528981208951815498518a16600160401b026001600160801b031990991699169890981796909617875592516001808801919091559251600290960180549682166001600160a01b0319909716969096179095558b518452601f835286842090519094168352928152848220865183529052928320805492939192909190611529908490614d15565b92505081905550826001600160401b031686604001516001600160401b031687600001517f1f5de02b1d9c93ca468f54630e1daf13f6dc458a63f8061ff73e85bf9bc38884856000015186602001518b608001516040516115af939291909283526001600160a01b039190911660208301526001600160401b0316604082015260600190565b60405180910390a45050600160025550505050565b610f95838383604051806020016040528060008152506122e7565b611033816000611f80565b6000818152601160209081526040808320805482518185028101850190935280835260609493849084015b8282101561165d5760008481526020908190206040805180820190915260028502909101805482526001908101546001600160a01b0316828401529083529092019101611615565b50929695505050505050565b6060600080606061167a86866117da565b6001600160401b038087166000908152601c6020908152604080832054601b835281842054601d845293829020805483518186028101860190945280845291909516946001600160a01b03909416939283919083018282801561172e57602002820191906000526020600020906000905b82829054906101000a90046001600160401b03166001600160401b0316815260200190600801906020826007010492830192600103820291508084116116eb5790505b50505050509050935093509350935092959194509250565b6000818152601660209081526040918290208054835181840281018401909452808452606093928301828280156117ce57602002820191906000526020600020906000905b82829054906101000a90046001600160401b03166001600160401b03168152602001906008019060208260070104928301926001038202915080841161178b5790505b50505050509050919050565b60008281526018602090815260408083206001600160401b038516845290915290205460609060ff1661182057604051631b9928fd60e31b815260040160405180910390fd5b6001600160401b0382166000908152601360205260409020805461184390614d28565b80601f016020809104026020016040519081016040528092919081815260200182805461186f90614d28565b80156118bc5780601f10611891576101008083540402835291602001916118bc565b820191906000526020600020905b81548152906001019060200180831161189f57829003601f168201915b5050505050905092915050565b6000818152601760209081526040918290208054835181840281018401909452808452606093928301828280156117ce57600091825260209182902080546001600160401b0316845290820283019290916008910180841161178b575094979650505050505050565b600061193d826119b9565b9050806001600160a01b0316836001600160a01b031603611971576040516375f45abd60e01b815260040160405180910390fd5b336001600160a01b03821614801590611991575061198f813361104a565b155b156119af576040516357a2e94960e11b815260040160405180910390fd5b610f9583836137d3565b6000806000806119c885612a22565b9250925092508015611a40576040516331a9108f60e11b8152600481018390526001600160a01b03841690636352211e90602401602060405180830381865afa158015611a19573d6000803e3d6000fd5b505050506040513d601f19601f82011682018060405250810190611a3d9190614db1565b92505b50909392505050565b611a5283612e67565b33803b611a725760405163b9d3114760e01b815260040160405180910390fd5b604080518082019091528381526001600160a01b03821660208201526000611a99866115ea565b5190506080811015611af8576000868152601160209081526040822080546001808201835591845292829020855160029094020192835590840151910180546001600160a01b0319166001600160a01b03909216919091179055611b11565b60405163a53c8c0560e01b815260040160405180910390fd5b84836001600160a01b0316877fe65085e689b77b126ba0bac3b079aa8288f19f4d5445af11c76003f8ab3075dd84604051611b4e91815260200190565b60405180910390a45b505050505050565b611b67612f18565b610f9583838361384c565b600081815260106020908152604080832080548251818502810185019093528083526060949384908401821561165d5760008481526020908190206040805180820190915260028502909101805482526001908101546001600160a01b0316828401529083529092019101611615565b60006001600160a01b038216611c0b57604051633bb9143360e11b815260040160405180910390fd5b506001600160a01b03166000908152600c602052604090205490565b611c2f6130b1565b611c3960006138fe565b565b6000818152601560209081526040918290208054835181840281018401909452808452606093928301828280156117ce57600091825260209182902080546001600160401b0316845290820283019290916008910180841161178b575094979650505050505050565b611cac6130b1565b6001600160a01b038216611cd35760405163016b812760e71b815260040160405180910390fd5b80611cf8576001600160a01b0382166000908152600460205260408120819055611d17565b6001600160a01b03821660009081526004602052604090206001908190555b50816001600160a01b03167f4b5657e84cf8a17ac5587bbeb3cc2bab9826c4c67b8bad81b4849de49d37aac282604051611d55911515815260200190565b60405180910390a25050565b6001600160a01b0382163303611d8a576040516375f45abd60e01b815260040160405180910390fd5b3360008181526019602090815260408083206001600160a01b03871680855290835292819020805460ff191686151590811790915590519081529192917f0cff4fcf777050010027190b8061fd8bfd1de16d81b1f94e9752df1427a2623591015b60405180910390a35050565b606060058054610dcc90614d28565b606060078054610dcc90614d28565b81611e1f81613950565b600083815260116020526040902054821015611e4e57604051631e73178b60e11b815260040160405180910390fd5b6000838152601160205260408120611e65916141ab565b60405183907f8ac4a0d65950c3e40448afb2260e2e0ec36ea15644d9b39e37e85472e5f9445190600090a2505050565b6001600160a01b0382163303611ebe57604051630b7b99b960e21b815260040160405180910390fd5b336000818152600e602090815260408083206001600160a01b03871680855290835292819020805460ff191686151590811790915590519081529192917f17307eab39ab6107e8899845ad3d59bd9653f200f220920489ca2b5937696c319101611deb565b604080518082019091526000808252602082015281611f41846115ea565b5111611f605760405163da22687f60e01b815260040160405180910390fd5b60008381526011602052604081208054849081106111d8576111d8614d9b565b600082611f8c81612b26565b600080611f9886612a22565b50915091506000611fa8876119b9565b9050611fb683600089612c9f565b6040805160208101909152600090526001600160a01b0383166000908152600c60205260408120805460019290611fee908490614d02565b90915550611fff9050600088612e9f565b61200a6000886137d3565b600061201588611b72565b600089815260106020526040812091925061203091906141ab565b6000888152601160205260408120612047916141ab565b6000888152600d602090815260408083206001600160a01b0386168452909152812080546001600160a01b031916905581518190815b8181101561224c578a83106120f65784818151811061209e5761209e614d9b565b6020026020010151602001518582815181106120bc576120bc614d9b565b6020908102919091010151516040516306177b2560e41b81526001600160a01b039092166004830152602482015260440160405180910390fd5b6012600086838151811061210c5761210c614d9b565b6020026020010151602001516001600160a01b03166001600160a01b03168152602001908152602001600020600086838151811061214c5761214c614d9b565b602002602001015160000151815260200190815260200160002060009055828b03935084818151811061218157612181614d9b565b6020026020010151602001516001600160a01b031663b390c0ab8683815181106121ad576121ad614d9b565b6020026020010151600001516001876121c69190614d02565b6040516001600160e01b031960e085901b168152600481019290925260248201526044016020604051808303816000875af1158015612209573d6000803e3d6000fd5b505050506040513d601f19601f8201168201806040525081019061222d9190614dce565b612238906001614d15565b6122429084614d15565b925060010161207d565b5060008b8152600f602052604080822082815560010180546001600160a01b0319169055518c91906001600160a01b038a169060008051602061505a833981519152908390a4604080518781526000602082018190528d9290916001600160a01b038b169160008051602061503a833981519152910160405180910390a4604080516020810190915260009052509998505050505050505050565b816122f181612b26565b6122fd8585858561342f565b612309858585856139b1565b6123265760405163bcb5663760e01b815260040160405180910390fd5b5050505050565b82612337816132d8565b6001600160401b038084166000908152601b6020908152604080832054888452601e83528184206001600160a01b039182168086529084528285208887168652845293829020825160808101845281548088168252600160401b90049096169386019390935260018301549185019190915260029091015416606083018190529091906123d7576040516317de7dd760e21b815260040160405180910390fd5b6000868152601e602090815260408083206001600160a01b0380871685529083528184206001600160401b0389168552835281842080546001600160801b03191681556001808201869055600290910180546001600160a01b03191690558a8552601f845282852060608701519092168552908352818420858301518552909252822080549192909161246b908490614d02565b92505081905550836001600160401b0316856001600160401b0316877f438e039ebbba8f290f3b5d41aaf3295eccc9b5e6b0e1d52ace700772afb7da138460400151856060015186602001516040516124e9939291909283526001600160a01b039190911660208301526001600160401b0316604082015260600190565b60405180910390a4611b57565b600081815260216020526040902080546060919061251390614d28565b80601f016020809104026020016040519081016040528092919081815260200182805461253f90614d28565b80156117ce5780601f10612561576101008083540402835291602001916117ce565b820191906000526020600020905b81548152906001019060200180831161256f5750939695505050505050565b6000612598612f18565b6000806125a485612f57565b9092509050815b818110156125df576125bd8186612fc9565b6125d7878260405180602001604052806000815250613aad565b6001016125ab565b509095945050505050565b816125f4816132d8565b8151600084815260156020526040902054811461262457604051633581be1d60e11b815260040160405180910390fd5b60008481526017602090815260409091208451612643928601906141cc565b5060405184907ff0bfd70b0068f973d58178846ca67112671ec45e060838f7de5662036bcf801790600090a26110ed565b8761267e81613950565b604080518082019091526000808252602082015283156126a9576126a28a88611f23565b90506126ff565b60008a8152601f602090815260408083206001600160a01b038a1684528252808320888452909152902054156126f257604051630619dc9d60e21b815260040160405180910390fd5b6126fc8a8861117b565b90505b61270a818787613b40565b831561272d5760008a81526011602052604090206127289088613b84565b612767565b6001600160a01b038616600090815260126020908152604080832088845282528083208390558c8352601090915290206127679088613b84565b6001600160a01b0389161561285157876127e457604051635c46a7ef60e11b81526001600160a01b0387169063b88d4fde906127ad9030908d908a908990600401614de7565b600060405180830381600087803b1580156127c757600080fd5b505af11580156127db573d6000803e3d6000fd5b50505050612851565b60208101518151604051630326051d60e11b81526001600160a01b039092169163064c0a3a9161281e9130918e918e908a90600401614e24565b600060405180830381600087803b15801561283857600080fd5b505af115801561284c573d6000803e3d6000fd5b505050505b6040805188815285151560208201526001600160a01b038b81161582840152915187928916918d917f02d6d6dbcb604d5e1e8c7886456e82a9cdce88b0a580071358f206b5a4d58f709181900360600190a450505050505050505050565b60006128ba82612e67565b6000828152601a6020526040812090610eeb846119b9565b816128dc816132d8565b6000838152601660205260409020548281111561290c57604051635134ce8960e01b815260040160405180910390fd5b60005b8181101561298a57600085815260166020526040812080548390811061293757612937614d9b565b6000918252602080832060048304015489845260148252604080852060039094166008026101000a9091046001600160401b031684529190529020805467ffffffffffffffff191690555060010161290f565b5060008481526016602052604081206129a291614284565b60405160009085907f1010837a46db9510cad56c9b63e97183557a136e9d4ddbec309ce52c99afb124908390a36110ed565b836129de81613950565b61232685858585613c3e565b6129f26130b1565b6001600160a01b038116612a1957604051634ece6ecf60e01b815260040160405180910390fd5b61101e816138fe565b6000818152600f60209081526040808320815180830190925280548252600101546001600160a01b03169181018290528291829190612a745760405163089ba7e160e41b815260040160405180910390fd5b6020810151905190959094508415159350915050565b82612a94816132d8565b6110ed848484613d4c565b60006001600160e01b031982166301ffc9a760e01b1480612ad057506001600160e01b031982166380ac58cd60e01b145b80612aeb57506001600160e01b031982166342b0e56f60e01b145b80612b0657506001600160e01b0319821663035a194d60e11b145b80610bc357506001600160e01b03198216630a2f26b960e21b1492915050565b600080612b3283612a22565b509150915080600014158015612b515750336001600160a01b03831614155b80612b905750336001600160a01b0383161480612b735750612b738233610a76565b80612b8e575033612b8384610ec8565b6001600160a01b0316145b155b15610f95576040516345f3c98360e11b815260040160405180910390fd5b60005b6064811015612c85576000806000856001600160a01b031663fb25fb7a866040518263ffffffff1660e01b8152600401612bed91815260200190565b606060405180830381865afa158015612c0a573d6000803e3d6000fd5b505050506040513d601f19601f82011682018060405250810190612c2e9190614e5e565b92509250925080612c425750505050505050565b6001600160a01b03831630148015612c5957508682145b15612c77576040516324543e6d60e11b815260040160405180910390fd5b509093509150600101612bb1565b50604051630349a6bd60e51b815260040160405180910390fd5b6001600160a01b038216610f955760098054600019019055505050565b6040805180820182528381526001600160a01b0383811660208084019182526000888152600f9091529384209251835551600190920180546001600160a01b03191692909116919091179055612d129084612e9f565b610f956000846137d3565b6040516318d5243360e21b815285906001600160a01b0382169063635490cc90612d4f90879087908790600401614ea1565b600060405180830381600087803b158015612d6957600080fd5b505af1158015612d7d573d6000803e3d6000fd5b5050505082866001600160a01b0316886001600160a01b031660008051602061505a83398151915260405160405180910390a482866001600160a01b0316886001600160a01b031660008051602061503a8339815191528888604051612ded929190918252602082015260400190565b60405180910390a450505050505050565b81516000908190815b81811015612e5657846001600160401b0316868281518110612e2b57612e2b614d9b565b60200260200101516001600160401b031603612e4e57925060019150612e609050565b600101612e07565b5060008092509250505b9250929050565b6000818152600f60205260409020600101546001600160a01b031661101e5760405163089ba7e160e41b815260040160405180910390fd5b6000612eaa826119b9565b6000838152600d602090815260408083206001600160a01b038581168086529190935281842080546001600160a01b031916938916938417905590519394508593919290917f8c5be1e5ebec7d5bd14f71427d1e84f3dd0314c0f7b2291e5b200ac8c7c3b9259190a4505050565b6003546001600160a01b03163314801590612f395750612f373361050d565b155b15611c39576040516301eca16760e41b815260040160405180910390fd5b60008082612f785760405163376bec4d60e01b815260040160405180910390fd5b600a54600854612f889085614d15565b1115612fa757604051635e91cdfb60e11b815260040160405180910390fd5b5050600880548281019182905560098054909301909255600191820192910190565b6000828152602160205260409020610f958282614f0f565b6001600160a01b0384163b6130095760405163b9d3114760e01b815260040160405180910390fd5b6040516301ffc9a760e01b81526342b0e56f60e01b60048201526001600160a01b038516906301ffc9a790602401602060405180830381865afa158015613054573d6000803e3d6000fd5b505050506040513d601f19601f820116820180604052508101906130789190614ccf565b6130955760405163fbd5d8b960e01b815260040160405180910390fd5b6130a184848484613f62565b6110ed6000856000858786612d1d565b6003546001600160a01b03163314611c3957604051631c62d58f60e11b815260040160405180910390fd5b60008381526018602090815260408083206001600160401b038616845290915290205460ff1615613120576040516308fe3c3160e41b815260040160405180910390fd5b6001600160401b0382166000908152601360205260408120805461314390614d28565b90500361316357604051632aa5eff960e11b815260040160405180910390fd5b6000838152601660205260409020546080116131925760405163bade3a7b60e01b815260040160405180910390fd5b60008381526018602090815260408083206001600160401b038681168086529184528285208054600160ff19909116811790915588865260168552928520805493840181558552929093206004820401805460039092166008026101000a8084021990921691909302179091558116156132405760008381526014602090815260408083206001600160401b0386811685529252909120805467ffffffffffffffff19169183169190911790555b60408051600180825281830190925260009160208083019080368337019050509050838160008151811061327657613276614d9b565b602002602001018181525050816001600160401b0316836001600160401b03167f4a85a0221f784dbe75db7c29c422f474c15bde9211a98e50a30018fa8dfa937b836040516132c59190614fce565b60405180910390a36110ed848484614065565b60006132e3826119b9565b9050336001600160a01b03821614806133015750613301813361104a565b8061331c575033613311836128af565b6001600160a01b0316145b61103357604051635d64832960e01b815260040160405180910390fd5b600083815260166020526040902054821061336757604051630757d52160e01b815260040160405180910390fd5b600083815260166020526040902080548390811061338757613387614d9b565b90600052602060002090600491828204019190066008029054906101000a90046001600160401b03166001600160401b0316816001600160401b031614610f95576040516378eeeecf60e01b815260040160405180910390fd5b60008381526016602052604090206133f990836140c5565b60009283526014602090815260408085206001600160401b039093168552919052909120805467ffffffffffffffff1916905550565b60008061343b84612a22565b5091509150856001600160a01b0316826001600160a01b0316146134725760405163e146af6f60e01b815260040160405180910390fd5b6001600160a01b038516613499576040516338f646ff60e21b815260040160405180910390fd5b6134a4868686612c9f565b6001600160a01b0386166000908152600c602052604081208054600192906134cd908490614d02565b909155506134df905084600087612cbc565b6001600160a01b0385166000908152600c60205260408120805460019290613508908490614d15565b909155505060405184906001600160a01b03808816919089169060008051602061505a83398151915290600090a483856001600160a01b0316876001600160a01b031660008051602061503a8339815191528460006040516124e9929190918252602082015260400190565b61357e858361361b565b6001600160a01b0383161580156135955750805115155b156135b357604051631035ad0760e11b815260040160405180910390fd5b6001600160401b038581166000908152601b6020908152604080832080546001600160a01b0319166001600160a01b038916179055601c8252808320805467ffffffffffffffff191694891694909417909355601d81529190208251611b57928401906141cc565b6001600160401b038216613642576040516312c33ce360e01b815260040160405180910390fd5b6001600160401b0382166000908152601360205260408120805461366590614d28565b90501115613686576040516308fe3c3160e41b815260040160405180910390fd5b6001600160401b03821660009081526013602052604090206136a88282614f0f565b506040516001600160401b038316907f3cd061096eaf881067d936308fbd8b81d060c45ab2ec910c02b953162befc10990600090a25050565b6002805403613703576040516362bfeae960e11b815260040160405180910390fd5b60028055565b6001600160401b0382166000908152601d6020908152604080832080548251818502810185019093528083526137b293869392919083018282801561379f57602002820191906000526020600020906000905b82829054906101000a90046001600160401b03166001600160401b03168152602001906008019060208260070104928301926001038202915080841161375c5790505b5050505050612dfe90919063ffffffff16565b91505080610f9557604051634ef44ed560e01b815260040160405180910390fd5b60006137de826119b9565b6000838152601a602090815260408083206001600160a01b038581168086529190935281842080546001600160a01b031916938916938417905590519394508593919290917fb90cc0d925ac3511ab6af2d7ca73ffcf7ec4bd871fff36b958ecf440079c463e9190a4505050565b6001600160401b038316158061386957506001600160401b038116155b15613887576040516312c33ce360e01b815260040160405180910390fd5b6001600160401b038381166000818152602080805260408083206001600160a01b03881680855290835292819020805467ffffffffffffffff19169587169586179055519182527f5b5af0622001a9b735a56357ddc1abd65e6a640126498674daf9d2fb05160725910160405180910390a3505050565b600380546001600160a01b038381166001600160a01b0319831681179093556040519116919082907f8be0079c531659141344cd1fd0a4f28419497f9722a3daafe3b4186f6b6457e090600090a35050565b600061395b826119b9565b9050336001600160a01b038216148061397957506139798133610a76565b8061399457503361398983610ec8565b6001600160a01b0316145b611033576040516302728a9d60e41b815260040160405180910390fd5b60006001600160a01b0384163b15613aa557604051630a85bd0160e11b81526001600160a01b0385169063150b7a02906139f5903390899088908890600401614de7565b6020604051808303816000875af1925050508015613a30575060408051601f3d908101601f19168201909252613a2d91810190615006565b60015b613a8b573d808015613a5e576040519150601f19603f3d011682016040523d82523d6000602084013e613a63565b606091505b508051613a835760405163bcb5663760e01b815260040160405180910390fd5b805181602001fd5b6001600160e01b031916630a85bd0160e11b149050610ec0565b506001610ec0565b613aba8383600084613f62565b60405182906001600160a01b0385169060009060008051602061505a833981519152908290a46040805160008082526020820181905284926001600160a01b0387169260008051602061503a833981519152910160405180910390a4613b2360008484846139b1565b610f955760405163bcb5663760e01b815260040160405180910390fd5b82602001516001600160a01b0316826001600160a01b0316141580613b66575082518114155b15610f9557604051637383f2c160e11b815260040160405180910390fd5b81548290613b9490600190614d02565b81548110613ba457613ba4614d9b565b9060005260206000209060020201828281548110613bc457613bc4614d9b565b600091825260209091208254600290920201908155600191820154910180546001600160a01b0319166001600160a01b039092169190911790558154829080613c0f57613c0f615023565b60008281526020812060026000199093019283020190815560010180546001600160a01b031916905590555050565b6000613c4a8585611f23565b9050613c57818484613b40565b6001600160a01b038316600090815260126020908152604080832085845290915290205415613c995760405163188a497360e01b815260040160405180910390fd5b6000858152601160205260409020613cb19085613b84565b600085815260106020908152604080832080546001808201835591855283852086516002909202019081558584015190820180546001600160a01b0319166001600160a01b03928316179055871680855260128452828520878652845293829020555186815284929188917f29486b9e2ae569b440933a9b1b421467306fa21f3dcad439c262910a634963a9910160405180910390a4612326565b613d57838383613339565b60008381526014602090815260408083206001600160401b03808616855292528220541690808215613e0557613dff836015600089815260200190815260200160002080548060200260200160405190810160405280929190818152602001828054801561379f57600091825260209182902080546001600160401b0316845290820283019290916008910180841161375c5790505050505050612dfe90919063ffffffff16565b90925090505b8015613e86576000868152601560205260409020805485919084908110613e2e57613e2e614d9b565b600091825260208083206004830401805460039093166008026101000a6001600160401b038181021990941695841602949094179093558882526018835260408083209187168352925220805460ff19169055613f11565b6000868152601760209081526040808320601583529083208054825460018181018555938652848620600480830490910180546001600160401b0394851660086003958616810261010090810a9283029288021990931691909117909255855496870186559488529587209085040180548b84169590921690950290920a9283029202191617905592505b613f1c8686866133e1565b826001600160401b0316846001600160401b0316877f3f2709a99f6c06b4e57bbb38eb0134332f96f51a3da314f41a515adbb28b17cc60405160405180910390a4611b57565b6001600160a01b038416613f89576040516325bd6bd360e01b815260040160405180910390fd5b6000838152600f60205260409020600101546001600160a01b031615613fc25760405163c5a8d37160e01b815260040160405180910390fd5b82613fe0576040516312c33ce360e01b815260040160405180910390fd5b613fec60008585612c9f565b6001600160a01b0384166000908152600c60205260408120805460019290614015908490614d15565b90915550506040805180820182529283526001600160a01b0394851660208085019182526000958652600f9052932091518255509051600190910180546001600160a01b03191691909216179055565b60008381526015602052604090205415806140995750614084836119b9565b6001600160a01b0316336001600160a01b0316145b15610f9557600083815260166020526040902054610f959084906140bf90600190614d02565b84613d4c565b815481106140d257600080fd5b815482906140e290600190614d02565b815481106140f2576140f2614d9b565b90600052602060002090600491828204019190066008029054906101000a90046001600160401b031682828154811061412d5761412d614d9b565b90600052602060002090600491828204019190066008026101000a8154816001600160401b0302191690836001600160401b031602179055508180548061417657614176615023565b60008281526020902060046000199092019182040180546001600160401b03600860038516026101000a021916905590555050565b508054600082556002029060005260206000209081019061101e91906142a9565b828054828255906000526020600020906003016004900481019282156142745791602002820160005b8382111561423f57835183826101000a8154816001600160401b0302191690836001600160401b0316021790555092602001926008016020816007010492830192600103026141f5565b80156142725782816101000a8154906001600160401b03021916905560080160208160070104928301926001030261423f565b505b506142809291506142d0565b5090565b50805460008255600301600490049060005260206000209081019061101e91906142d0565b5b8082111561428057600081556001810180546001600160a01b03191690556002016142aa565b5b8082111561428057600081556001016142d1565b6001600160e01b03198116811461101e57600080fd5b60006020828403121561430d57600080fd5b8135614318816142e5565b9392505050565b6001600160a01b038116811461101e57600080fd5b634e487b7160e01b600052604160045260246000fd5b604051601f8201601f191681016001600160401b038111828210171561437257614372614334565b604052919050565b600082601f83011261438b57600080fd5b81356001600160401b038111156143a4576143a4614334565b6143b7601f8201601f191660200161434a565b8181528460208386010111156143cc57600080fd5b816020850160208301376000918101602001919091529392505050565b600080600080600060a0868803121561440157600080fd5b853561440c8161431f565b9450602086013561441c8161431f565b9350604086013592506060860135915060808601356001600160401b0381111561444557600080fd5b6144518882890161437a565b9150509295509295909350565b6000815180845260005b8181101561448457602081850181015186830182015201614468565b506000602082860101526020601f19601f83011685010191505092915050565b602081526000614318602083018461445e565b80356001600160401b038116811461123857600080fd5b600080600080608085870312156144e457600080fd5b84356144ef8161431f565b935060208501359250614504604086016144b7565b9150614512606086016144b7565b905092959194509250565b60006020828403121561452f57600080fd5b5035919050565b6000806040838503121561454957600080fd5b82356145548161431f565b946020939093013593505050565b6000806000806080858703121561457857600080fd5b84356145838161431f565b9350602085013592506040850135915060608501356001600160401b038111156145ac57600080fd5b6145b88782880161437a565b91505092959194509250565b6000602082840312156145d657600080fd5b81356143188161431f565b600080604083850312156145f457600080fd5b8235915060208301356001600160401b0381111561461157600080fd5b61461d8582860161437a565b9150509250929050565b60008060006060848603121561463c57600080fd5b8335925061464c602085016144b7565b915061465a604085016144b7565b90509250925092565b6000806040838503121561467657600080fd5b82356146818161431f565b915060208301356146918161431f565b809150509250929050565b6000806000606084860312156146b157600080fd5b833592506020840135915061465a604085016144b7565b6000806000606084860312156146dd57600080fd5b83356146e88161431f565b925060208401356146f88161431f565b929592945050506040919091013590565b600082601f83011261471a57600080fd5b813560206001600160401b0382111561473557614735614334565b8160051b61474482820161434a565b928352848101820192828101908785111561475e57600080fd5b83870192505b8483101561478457614775836144b7565b82529183019190830190614764565b979650505050505050565b600080600080608085870312156147a557600080fd5b6147ae856144b7565b935060208501356147be8161431f565b925060408501356001600160401b03808211156147da57600080fd5b6147e68883890161437a565b935060608701359150808211156147fc57600080fd5b506145b887828801614709565b6000806040838503121561481c57600080fd5b50508035926020909101359150565b815181526020808301516001600160a01b03169082015260408101610bc3565b60006020828403121561485d57600080fd5b81356001600160401b0381111561487357600080fd5b610ec08482850161437a565b600060a0828403121561489157600080fd5b60405160a081018181106001600160401b03821117156148b3576148b3614334565b806040525082358152602083013560208201526148d2604084016144b7565b60408201526148e3606084016144b7565b60608201526148f4608084016144b7565b60808201529392505050565b602080825282518282018190526000919060409081850190868401855b8281101561495357614943848351805182526020908101516001600160a01b0316910152565b928401929085019060010161491d565b5091979650505050505050565b6000806040838503121561497357600080fd5b82359150611172602084016144b7565b600081518084526020808501945080840160005b838110156149bc5781516001600160401b031687529582019590820190600101614997565b509495945050505050565b6080815260006149da608083018761445e565b6001600160401b03861660208401526001600160a01b038516604084015282810360608401526147848185614983565b6020815260006143186020830184614983565b600080600060608486031215614a3257600080fd5b833592506020840135915060408401356001600160401b03811115614a5657600080fd5b614a628682870161437a565b9150509250925092565b600080600060608486031215614a8157600080fd5b614a8a846144b7565b9250602084013561464c8161431f565b600080600060608486031215614aaf57600080fd5b83359250602084013561464c8161431f565b801515811461101e57600080fd5b60008060408385031215614ae257600080fd5b8235614aed8161431f565b9150602083013561469181614ac1565b60008060008060808587031215614b1357600080fd5b8435614b1e8161431f565b93506020850135614b2e8161431f565b92506040850135915060608501356001600160401b038111156145ac57600080fd5b600080600060608486031215614b6557600080fd5b8335614b708161431f565b92506020840135915060408401356001600160401b03811115614a5657600080fd5b60008060408385031215614ba557600080fd5b8235915060208301356001600160401b03811115614bc257600080fd5b61461d85828601614709565b600080600080600080600080610100898b031215614beb57600080fd5b883597506020890135614bfd8161431f565b965060408901359550606089013594506080890135614c1b8161431f565b935060a0890135925060c0890135614c3281614ac1565b915060e08901356001600160401b03811115614c4d57600080fd5b614c598b828c0161437a565b9150509295985092959890939650565b60008060008060808587031215614c7f57600080fd5b84359350602085013592506040850135614c988161431f565b9396929550929360600135925050565b600080600060608486031215614cbd57600080fd5b8335925060208401356146f88161431f565b600060208284031215614ce157600080fd5b815161431881614ac1565b634e487b7160e01b600052601160045260246000fd5b81810381811115610bc357610bc3614cec565b80820180821115610bc357610bc3614cec565b600181811c90821680614d3c57607f821691505b602082108103614d5c57634e487b7160e01b600052602260045260246000fd5b50919050565b8082028115828204841417610bc357610bc3614cec565b600082614d9657634e487b7160e01b600052601260045260246000fd5b500490565b634e487b7160e01b600052603260045260246000fd5b600060208284031215614dc357600080fd5b81516143188161431f565b600060208284031215614de057600080fd5b5051919050565b6001600160a01b0385811682528416602082015260408101839052608060608201819052600090614e1a9083018461445e565b9695505050505050565b6001600160a01b03868116825285166020820152604081018490526060810183905260a0608082018190526000906147849083018461445e565b600080600060608486031215614e7357600080fd5b8351614e7e8161431f565b602085015160408601519194509250614e9681614ac1565b809150509250925092565b838152826020820152606060408201526000614ec0606083018461445e565b95945050505050565b601f821115610f9557600081815260208120601f850160051c81016020861015614ef05750805b601f850160051c820191505b81811015611b5757828155600101614efc565b81516001600160401b03811115614f2857614f28614334565b614f3c81614f368454614d28565b84614ec9565b602080601f831160018114614f715760008415614f595750858301515b600019600386901b1c1916600185901b178555611b57565b600085815260208120601f198616915b82811015614fa057888601518255948401946001909101908401614f81565b5085821015614fbe5787850151600019600388901b60f8161c191681555b5050505050600190811b01905550565b6020808252825182820181905260009190848201906040850190845b81811015610fec57835183529284019291840191600101614fea565b60006020828403121561501857600080fd5b8151614318816142e5565b634e487b7160e01b600052603160045260246000fdfe04444026cefd1b05506559cab59d1b865ae3ba4ed2fe5c894f04e522776c552dddf252ad1be2c89b69c2b068fc378daa952ba7f163c4a11628f55a4df523b3efa26469706673582212201e4a608062b55368b18268aee31c2deedfb66d3a1757b641621dcbd407091b8864736f6c63430008150033",
    "linkReferences": {}
  },
  "methodIdentifiers": {
    "RMRK_INTERFACE()": "8d4f3bf5",
    "VERSION()": "ffa1ad74",
    "acceptAsset(uint256,uint256,uint64)": "fc3517c8",
    "acceptChild(uint256,uint256,address,uint256)": "e97ceaa8",
    "addAssetEntry(string)": "30ffb1d6",
    "addAssetToToken(uint256,uint64,uint64)": "1c7bb461",
    "addChild(uint256,uint256,bytes)": "635490cc",
    "addEquippableAssetEntry(uint64,address,string,uint64[])": "2452cd91",
    "approve(address,uint256)": "095ea7b3",
    "approveForAssets(address,uint256)": "5ea72f36",
    "balanceOf(address)": "70a08231",
    "burn(uint256)": "42966c68",
    "burn(uint256,uint256)": "b390c0ab",
    "canTokenBeEquippedWithAssetIntoSlot(address,uint256,uint64,uint64)": "074334fb",
    "childOf(uint256,uint256)": "2f32f937",
    "childrenOf(uint256)": "6f19951c",
    "collectionMetadata()": "89ed2edf",
    "directOwnerOf(uint256)": "fb25fb7a",
    "equip((uint256,uint256,uint64,uint64,uint64))": "38dcf74c",
    "getActiveAssetPriorities(uint256)": "5e94354a",
    "getActiveAssets(uint256)": "7280281e",
    "getApproved(uint256)": "081812fc",
    "getApprovedForAssets(uint256)": "e467a48f",
    "getAssetAndEquippableData(uint256,uint64)": "4e60edba",
    "getAssetMetadata(uint256,uint64)": "5e2e3292",
    "getAssetReplacements(uint256,uint64)": "df6f556b",
    "getEquipment(uint256,address,uint64)": "7507e2ae",
    "getPendingAssets(uint256)": "51532e5a",
    "getRoyaltyPercentage()": "59c8b7dd",
    "getRoyaltyRecipient()": "95edc18c",
    "isApprovedForAll(address,address)": "e985e9c5",
    "isApprovedForAllForAssets(address,address)": "22e6d160",
    "isChildEquipped(uint256,address,uint256)": "ee1dffcf",
    "isContributor(address)": "1d0d35f5",
    "manageContributor(address,bool)": "79e8ca9e",
    "maxSupply()": "d5abeb01",
    "mint(address,uint256,string)": "d3fc9864",
    "name()": "06fdde03",
    "nestMint(address,uint256,uint256,string)": "0ee2fd65",
    "nestTransferFrom(address,address,uint256,uint256,bytes)": "064c0a3a",
    "owner()": "8da5cb5b",
    "ownerOf(uint256)": "6352211e",
    "pendingChildOf(uint256,uint256)": "a898e364",
    "pendingChildrenOf(uint256)": "44ec9344",
    "rejectAllAssets(uint256,uint256)": "e7de4de4",
    "rejectAllChildren(uint256,uint256)": "97961336",
    "rejectAsset(uint256,uint256,uint64)": "22f6da9c",
    "renounceOwnership()": "715018a6",
    "royaltyInfo(uint256,uint256)": "2a55205a",
    "safeTransferFrom(address,address,uint256)": "42842e0e",
    "safeTransferFrom(address,address,uint256,bytes)": "b88d4fde",
    "setApprovalForAll(address,bool)": "a22cb465",
    "setApprovalForAllForAssets(address,bool)": "8507dc28",
    "setPriority(uint256,uint64[])": "de8e602c",
    "setTokenURI(uint256,string)": "162094c4",
    "setValidParentForEquippableGroup(uint64,address,uint64)": "65b67eb9",
    "specs()": "adb7c3f7",
    "supportsInterface(bytes4)": "01ffc9a7",
    "symbol()": "95d89b41",
    "tokenURI(uint256)": "c87b56dd",
    "totalAssets()": "01e1d114",
    "totalSupply()": "18160ddd",
    "transferChild(uint256,address,uint256,uint256,address,uint256,bool,bytes)": "defa80c3",
    "transferFrom(address,address,uint256)": "23b872dd",
    "transferOwnership(address)": "f2fde38b",
    "unequip(uint256,uint64,uint64)": "c259a988",
    "updateRoyaltyRecipient(address)": "0fc499f5"
  },
  "id": 0
}