{
  "abi": [
    {
      "inputs": [],
      "name": "ERC721AddressZeroIsNotaValidOwner",
      "type": "error"
    },
    {
      "inputs": [],
      "name": "ERC721ApprovalToCurrentOwner",
      "type": "error"
    },
    {
      "inputs": [],
      "name": "ERC721ApproveCallerIsNotOwnerNorApprovedForAll",
      "type": "error"
    },
    {
      "inputs": [],
      "name": "ERC721ApproveToCaller",
      "type": "error"
    },
    {
      "inputs": [],
      "name": "ERC721InvalidTokenId",
      "type": "error"
    },
    {
      "inputs": [],
      "name": "ERC721NotApprovedOrOwner",
      "type": "error"
    },
    {
      "inputs": [],
      "name": "ERC721TransferFromIncorrectOwner",
      "type": "error"
    },
    {
      "inputs": [],
      "name": "ERC721TransferToNonReceiverImplementer",
      "type": "error"
    },
    {
      "inputs": [],
      "name": "ERC721TransferToTheZeroAddress",
      "type": "error"
    },
    {
      "inputs": [],
      "name": "RMRKChildAlreadyExists",
      "type": "error"
    },
    {
      "inputs": [],
      "name": "RMRKChildIndexOutOfRange",
      "type": "error"
    },
    {
      "inputs": [],
      "name": "RMRKIsNotContract",
      "type": "error"
    },
    {
      "inputs": [],
      "name": "RMRKMaxPendingChildrenReached",
      "type": "error"
    },
    {
      "inputs": [
        {
          "internalType": "address",
          "name": "childContract",
          "type": "address"
        },
        {
          "internalType": "uint256",
          "name": "childId",
          "type": "uint256"
        }
      ],
      "name": "RMRKMaxRecursiveBurnsReached",
      "type": "error"
    },
    {
      "inputs": [],
      "name": "RMRKNestableTooDeep",
      "type": "error"
    },
    {
      "inputs": [],
      "name": "RMRKNestableTransferToDescendant",
      "type": "error"
    },
    {
      "inputs": [],
      "name": "RMRKNestableTransferToNonRMRKNestableImplementer",
      "type": "error"
    },
    {
      "inputs": [],
      "name": "RMRKNestableTransferToSelf",
      "type": "error"
    },
    {
      "inputs": [],
      "name": "RMRKNotApprovedOrDirectOwner",
      "type": "error"
    },
    {
      "inputs": [],
      "name": "RMRKPendingChildIndexOutOfRange",
      "type": "error"
    },
    {
      "inputs": [],
      "name": "RMRKUnexpectedChildId",
      "type": "error"
    },
    {
      "inputs": [],
      "name": "RMRKUnexpectedNumberOfChildren",
      "type": "error"
    },
    {
      "anonymous": false,
      "inputs": [
        {
          "indexed": true,
          "internalType": "uint256",
          "name": "tokenId",
          "type": "uint256"
        }
      ],
      "name": "AllChildrenRejected",
      "type": "event"
    },
    {
      "anonymous": false,
      "inputs": [
        {
          "indexed": true,
          "internalType": "address",
          "name": "owner",
          "type": "address"
        },
        {
          "indexed": true,
          "internalType": "address",
          "name": "approved",
          "type": "address"
        },
        {
          "indexed": true,
          "internalType": "uint256",
          "name": "tokenId",
          "type": "uint256"
        }
      ],
      "name": "Approval",
      "type": "event"
    },
    {
      "anonymous": false,
      "inputs": [
        {
          "indexed": true,
          "internalType": "address",
          "name": "owner",
          "type": "address"
        },
        {
          "indexed": true,
          "internalType": "address",
          "name": "operator",
          "type": "address"
        },
        {
          "indexed": false,
          "internalType": "bool",
          "name": "approved",
          "type": "bool"
        }
      ],
      "name": "ApprovalForAll",
      "type": "event"
    },
    {
      "anonymous": false,
      "inputs": [
        {
          "indexed": true,
          "internalType": "uint256",
          "name": "tokenId",
          "type": "uint256"
        },
        {
          "indexed": false,
          "internalType": "uint256",
          "name": "childIndex",
          "type": "uint256"
        },
        {
          "indexed": true,
          "internalType": "address",
          "name": "childAddress",
          "type": "address"
        },
        {
          "indexed": true,
          "internalType": "uint256",
          "name": "childId",
          "type": "uint256"
        }
      ],
      "name": "ChildAccepted",
      "type": "event"
    },
    {
      "anonymous": false,
      "inputs": [
        {
          "indexed": true,
          "internalType": "uint256",
          "name": "tokenId",
          "type": "uint256"
        },
        {
          "indexed": false,
          "internalType": "uint256",
          "name": "childIndex",
          "type": "uint256"
        },
        {
          "indexed": true,
          "internalType": "address",
          "name": "childAddress",
          "type": "address"
        },
        {
          "indexed": true,
          "internalType": "uint256",
          "name": "childId",
          "type": "uint256"
        }
      ],
      "name": "ChildProposed",
      "type": "event"
    },
    {
      "anonymous": false,
      "inputs": [
        {
          "indexed": true,
          "internalType": "uint256",
          "name": "tokenId",
          "type": "uint256"
        },
        {
          "indexed": false,
          "internalType": "uint256",
          "name": "childIndex",
          "type": "uint256"
        },
        {
          "indexed": true,
          "internalType": "address",
          "name": "childAddress",
          "type": "address"
        },
        {
          "indexed": true,
          "internalType": "uint256",
          "name": "childId",
          "type": "uint256"
        },
        {
          "indexed": false,
          "internalType": "bool",
          "name": "fromPending",
          "type": "bool"
        },
        {
          "indexed": false,
          "internalType": "bool",
          "name": "toZero",
          "type": "bool"
        }
      ],
      "name": "ChildTransferred",
      "type": "event"
    },
    {
      "anonymous": false,
      "inputs": [
        {
          "indexed": true,
          "internalType": "address",
          "name": "from",
          "type": "address"
        },
        {
          "indexed": true,
          "internalType": "address",
          "name": "to",
          "type": "address"
        },
        {
          "indexed": false,
          "internalType": "uint256",
          "name": "fromTokenId",
          "type": "uint256"
        },
        {
          "indexed": false,
          "internalType": "uint256",
          "name": "toTokenId",
          "type": "uint256"
        },
        {
          "indexed": true,
          "internalType": "uint256",
          "name": "tokenId",
          "type": "uint256"
        }
      ],
      "name": "NestTransfer",
      "type": "event"
    },
    {
      "anonymous": false,
      "inputs": [
        {
          "indexed": true,
          "internalType": "address",
          "name": "from",
          "type": "address"
        },
        {
          "indexed": true,
          "internalType": "address",
          "name": "to",
          "type": "address"
        },
        {
          "indexed": true,
          "internalType": "uint256",
          "name": "tokenId",
          "type": "uint256"
        }
      ],
      "name": "Transfer",
      "type": "event"
    },
    {
      "inputs": [],
      "name": "RMRK_INTERFACE",
      "outputs": [
        {
          "internalType": "bytes4",
          "name": "",
          "type": "bytes4"
        }
      ],
      "stateMutability": "view",
      "type": "function"
    },
    {
      "inputs": [],
      "name": "VERSION",
      "outputs": [
        {
          "internalType": "string",
          "name": "",
          "type": "string"
        }
      ],
      "stateMutability": "view",
      "type": "function"
    },
    {
      "inputs": [
        {
          "internalType": "uint256",
          "name": "parentId",
          "type": "uint256"
        },
        {
          "internalType": "uint256",
          "name": "childIndex",
          "type": "uint256"
        },
        {
          "internalType": "address",
          "name": "childAddress",
          "type": "address"
        },
        {
          "internalType": "uint256",
          "name": "childId",
          "type": "uint256"
        }
      ],
      "name": "acceptChild",
      "outputs": [],
      "stateMutability": "nonpayable",
      "type": "function"
    },
    {
      "inputs": [
        {
          "internalType": "uint256",
          "name": "parentId",
          "type": "uint256"
        },
        {
          "internalType": "uint256",
          "name": "childId",
          "type": "uint256"
        },
        {
          "internalType": "bytes",
          "name": "data",
          "type": "bytes"
        }
      ],
      "name": "addChild",
      "outputs": [],
      "stateMutability": "nonpayable",
      "type": "function"
    },
    {
      "inputs": [
        {
          "internalType": "address",
          "name": "to",
          "type": "address"
        },
        {
          "internalType": "uint256",
          "name": "tokenId",
          "type": "uint256"
        }
      ],
      "name": "approve",
      "outputs": [],
      "stateMutability": "nonpayable",
      "type": "function"
    },
    {
      "inputs": [
        {
          "internalType": "address",
          "name": "owner",
          "type": "address"
        }
      ],
      "name": "balanceOf",
      "outputs": [
        {
          "internalType": "uint256",
          "name": "",
          "type": "uint256"
        }
      ],
      "stateMutability": "view",
      "type": "function"
    },
    {
      "inputs": [
        {
          "internalType": "uint256",
          "name": "tokenId",
          "type": "uint256"
        }
      ],
      "name": "burn",
      "outputs": [],
      "stateMutability": "nonpayable",
      "type": "function"
    },
    {
      "inputs": [
        {
          "internalType": "uint256",
          "name": "tokenId",
          "type": "uint256"
        },
        {
          "internalType": "uint256",
          "name": "maxChildrenBurns",
          "type": "uint256"
        }
      ],
      "name": "burn",
      "outputs": [
        {
          "internalType": "uint256",
          "name": "",
          "type": "uint256"
        }
      ],
      "stateMutability": "nonpayable",
      "type": "function"
    },
    {
      "inputs": [
        {
          "internalType": "uint256",
          "name": "parentId",
          "type": "uint256"
        },
        {
          "internalType": "uint256",
          "name": "index",
          "type": "uint256"
        }
      ],
      "name": "childOf",
      "outputs": [
        {
          "components": [
            {
              "internalType": "uint256",
              "name": "tokenId",
              "type": "uint256"
            },
            {
              "internalType": "address",
              "name": "contractAddress",
              "type": "address"
            }
          ],
          "internalType": "struct IERC7401.Child",
          "name": "",
          "type": "tuple"
        }
      ],
      "stateMutability": "view",
      "type": "function"
    },
    {
      "inputs": [
        {
          "internalType": "uint256",
          "name": "parentId",
          "type": "uint256"
        }
      ],
      "name": "childrenOf",
      "outputs": [
        {
          "components": [
            {
              "internalType": "uint256",
              "name": "tokenId",
              "type": "uint256"
            },
            {
              "internalType": "address",
              "name": "contractAddress",
              "type": "address"
            }
          ],
          "internalType": "struct IERC7401.Child[]",
          "name": "",
          "type": "tuple[]"
        }
      ],
      "stateMutability": "view",
      "type": "function"
    },
    {
      "inputs": [
        {
          "internalType": "uint256",
          "name": "tokenId",
          "type": "uint256"
        }
      ],
      "name": "directOwnerOf",
      "outputs": [
        {
          "internalType": "address",
          "name": "",
          "type": "address"
        },
        {
          "internalType": "uint256",
          "name": "",
          "type": "uint256"
        },
        {
          "internalType": "bool",
          "name": "",
          "type": "bool"
        }
      ],
      "stateMutability": "view",
      "type": "function"
    },
    {
      "inputs": [
        {
          "internalType": "uint256",
          "name": "tokenId",
          "type": "uint256"
        }
      ],
      "name": "getApproved",
      "outputs": [
        {
          "internalType": "address",
          "name": "",
          "type": "address"
        }
      ],
      "stateMutability": "view",
      "type": "function"
    },
    {
      "inputs": [
        {
          "internalType": "address",
          "name": "owner",
          "type": "address"
        },
        {
          "internalType": "address",
          "name": "operator",
          "type": "address"
        }
      ],
      "name": "isApprovedForAll",
      "outputs": [
        {
          "internalType": "bool",
          "name": "",
          "type": "bool"
        }
      ],
      "stateMutability": "view",
      "type": "function"
    },
    {
      "inputs": [
        {
          "internalType": "address",
          "name": "from",
          "type": "address"
        },
        {
          "internalType": "address",
          "name": "to",
          "type": "address"
        },
        {
          "internalType": "uint256",
          "name": "tokenId",
          "type": "uint256"
        },
        {
          "internalType": "uint256",
          "name": "destinationId",
          "type": "uint256"
        },
        {
          "internalType": "bytes",
          "name": "data",
          "type": "bytes"
        }
      ],
      "name": "nestTransferFrom",
      "outputs": [],
      "stateMutability": "nonpayable",
      "type": "function"
    },
    {
      "inputs": [
        {
          "internalType": "uint256",
          "name": "tokenId",
          "type": "uint256"
        }
      ],
      "name": "ownerOf",
      "outputs": [
        {
          "internalType": "address",
          "name": "",
          "type": "address"
        }
      ],
      "stateMutability": "view",
      "type": "function"
    },
    {
      "inputs": [
        {
          "internalType": "uint256",
          "name": "parentId",
          "type": "uint256"
        },
        {
          "internalType": "uint256",
          "name": "index",
          "type": "uint256"
        }
      ],
      "name": "pendingChildOf",
      "outputs": [
        {
          "components": [
            {
              "internalType": "uint256",
              "name": "tokenId",
              "type": "uint256"
            },
            {
              "internalType": "address",
              "name": "contractAddress",
              "type": "address"
            }
          ],
          "internalType": "struct IERC7401.Child",
          "name": "",
          "type": "tuple"
        }
      ],
      "stateMutability": "view",
      "type": "function"
    },
    {
      "inputs": [
        {
          "internalType": "uint256",
          "name": "parentId",
          "type": "uint256"
        }
      ],
      "name": "pendingChildrenOf",
      "outputs": [
        {
          "components": [
            {
              "internalType": "uint256",
              "name": "tokenId",
              "type": "uint256"
            },
            {
              "internalType": "address",
              "name": "contractAddress",
              "type": "address"
            }
          ],
          "internalType": "struct IERC7401.Child[]",
          "name": "",
          "type": "tuple[]"
        }
      ],
      "stateMutability": "view",
      "type": "function"
    },
    {
      "inputs": [
        {
          "internalType": "uint256",
          "name": "tokenId",
          "type": "uint256"
        },
        {
          "internalType": "uint256",
          "name": "maxRejections",
          "type": "uint256"
        }
      ],
      "name": "rejectAllChildren",
      "outputs": [],
      "stateMutability": "nonpayable",
      "type": "function"
    },
    {
      "inputs": [
        {
          "internalType": "address",
          "name": "from",
          "type": "address"
        },
        {
          "internalType": "address",
          "name": "to",
          "type": "address"
        },
        {
          "internalType": "uint256",
          "name": "tokenId",
          "type": "uint256"
        }
      ],
      "name": "safeTransferFrom",
      "outputs": [],
      "stateMutability": "nonpayable",
      "type": "function"
    },
    {
      "inputs": [
        {
          "internalType": "address",
          "name": "from",
          "type": "address"
        },
        {
          "internalType": "address",
          "name": "to",
          "type": "address"
        },
        {
          "internalType": "uint256",
          "name": "tokenId",
          "type": "uint256"
        },
        {
          "internalType": "bytes",
          "name": "data",
          "type": "bytes"
        }
      ],
      "name": "safeTransferFrom",
      "outputs": [],
      "stateMutability": "nonpayable",
      "type": "function"
    },
    {
      "inputs": [
        {
          "internalType": "address",
          "name": "operator",
          "type": "address"
        },
        {
          "internalType": "bool",
          "name": "approved",
          "type": "bool"
        }
      ],
      "name": "setApprovalForAll",
      "outputs": [],
      "stateMutability": "nonpayable",
      "type": "function"
    },
    {
      "inputs": [
        {
          "internalType": "bytes4",
          "name": "interfaceId",
          "type": "bytes4"
        }
      ],
      "name": "supportsInterface",
      "outputs": [
        {
          "internalType": "bool",
          "name": "",
          "type": "bool"
        }
      ],
      "stateMutability": "view",
      "type": "function"
    },
    {
      "inputs": [
        {
          "internalType": "uint256",
          "name": "tokenId",
          "type": "uint256"
        },
        {
          "internalType": "address",
          "name": "to",
          "type": "address"
        },
        {
          "internalType": "uint256",
          "name": "destinationId",
          "type": "uint256"
        },
        {
          "internalType": "uint256",
          "name": "childIndex",
          "type": "uint256"
        },
        {
          "internalType": "address",
          "name": "childAddress",
          "type": "address"
        },
        {
          "internalType": "uint256",
          "name": "childId",
          "type": "uint256"
        },
        {
          "internalType": "bool",
          "name": "isPending",
          "type": "bool"
        },
        {
          "internalType": "bytes",
          "name": "data",
          "type": "bytes"
        }
      ],
      "name": "transferChild",
      "outputs": [],
      "stateMutability": "nonpayable",
      "type": "function"
    },
    {
      "inputs": [
        {
          "internalType": "address",
          "name": "from",
          "type": "address"
        },
        {
          "internalType": "address",
          "name": "to",
          "type": "address"
        },
        {
          "internalType": "uint256",
          "name": "tokenId",
          "type": "uint256"
        }
      ],
      "name": "transferFrom",
      "outputs": [],
      "stateMutability": "nonpayable",
      "type": "function"
    }
  ],
  "bytecode": {
    "object": "0x608060405234801561001057600080fd5b5061229f806100206000396000f3fe608060405234801561001057600080fd5b50600436106101585760003560e01c806370a08231116100c3578063b88d4fde1161007c578063b88d4fde1461031e578063defa80c314610331578063e97ceaa814610344578063e985e9c514610357578063fb25fb7a1461036a578063ffa1ad74146103a457600080fd5b806370a082311461028a5780638d4f3bf5146102ab57806397961336146102d2578063a22cb465146102e5578063a898e364146102f8578063b390c0ab1461030b57600080fd5b806342842e0e1161011557806342842e0e1461020b57806342966c681461021e57806344ec9344146102315780636352211e14610251578063635490cc146102645780636f19951c1461027757600080fd5b806301ffc9a71461015d578063064c0a3a14610185578063081812fc1461019a578063095ea7b3146101c557806323b872dd146101d85780632f32f937146101eb575b600080fd5b61017061016b366004611bb1565b6103d5565b60405190151581526020015b60405180910390f35b610198610193366004611c8d565b610427565b005b6101ad6101a8366004611d03565b610446565b6040516001600160a01b03909116815260200161017c565b6101986101d3366004611d1c565b61048c565b6101986101e6366004611d48565b610518565b6101fe6101f9366004611d89565b610543565b60405161017c9190611dab565b610198610219366004611d48565b6105dc565b61019861022c366004611d03565b6105f7565b61024461023f366004611d03565b610606565b60405161017c9190611dcb565b6101ad61025f366004611d03565b610685565b610198610272366004611e2b565b610715565b610244610285366004611d03565b610827565b61029d610298366004611e7b565b610897565b60405190815260200161017c565b6102b963524d524b60e01b81565b6040516001600160e01b0319909116815260200161017c565b6101986102e0366004611d89565b6108dc565b6101986102f3366004611ea6565b6108f0565b6101fe610306366004611d89565b610985565b61029d610319366004611d89565b6109e2565b61019861032c366004611edf565b610a00565b61019861033f366004611f4b565b610a1d565b610198610352366004611fe7565b610a42565b610170610365366004612026565b610a58565b61037d610378366004611d03565b610a86565b604080516001600160a01b039094168452602084019290925215159082015260600161017c565b6103c8604051806040016040528060058152602001640322e322e360dc1b81525081565b60405161017c919061209a565b60006001600160e01b031982166301ffc9a760e01b148061040657506001600160e01b031982166380ac58cd60e01b145b8061042157506001600160e01b031982166342b0e56f60e01b145b92915050565b8261043181610aee565b61043e8686868686610b18565b505050505050565b600061045182610cf6565b60008281526001602052604081209061046984610685565b6001600160a01b0390811682526020820192909252604001600020541692915050565b600061049782610685565b9050806001600160a01b0316836001600160a01b0316036104cb57604051630591db6d60e01b815260040160405180910390fd5b336001600160a01b038216148015906104eb57506104e98133610a58565b155b1561050957604051634c12315960e11b815260040160405180910390fd5b6105138383610d2e565b505050565b8061052281610aee565b61053d84848460405180602001604052806000815250610da7565b50505050565b60408051808201909152600080825260208201528161056184610827565b51116105805760405163653e642560e11b815260040160405180910390fd5b60008381526004602052604081208054849081106105a0576105a06120ad565b60009182526020918290206040805180820190915260029092020180548252600101546001600160a01b03169181019190915291505092915050565b61051383838360405180602001604052806000815250610a00565b6106028160006109e2565b5050565b6000818152600560209081526040808320805482518185028101850190935280835260609493849084015b828210156106795760008481526020908190206040805180820190915260028502909101805482526001908101546001600160a01b0316828401529083529092019101610631565b50929695505050505050565b60008060008061069485610a86565b925092509250801561070c576040516331a9108f60e11b8152600481018390526001600160a01b03841690636352211e90602401602060405180830381865afa1580156106e5573d6000803e3d6000fd5b505050506040513d601f19601f8201168201806040525081019061070991906120c3565b92505b50909392505050565b61071e83610cf6565b33803b61073e5760405163b9d3114760e01b815260040160405180910390fd5b604080518082019091528381526001600160a01b0382166020820152600061076586610606565b51905060808110156107c4576000868152600560209081526040822080546001808201835591845292829020855160029094020192835590840151910180546001600160a01b0319166001600160a01b039092169190911790556107dd565b60405163a53c8c0560e01b815260040160405180910390fd5b84836001600160a01b0316877fe65085e689b77b126ba0bac3b079aa8288f19f4d5445af11c76003f8ab3075dd8460405161081a91815260200190565b60405180910390a461043e565b60008181526004602090815260408083208054825181850281018501909352808352606094938490840182156106795760008481526020908190206040805180820190915260028502909101805482526001908101546001600160a01b0316828401529083529092019101610631565b60006001600160a01b0382166108c057604051633bb9143360e11b815260040160405180910390fd5b506001600160a01b031660009081526020819052604090205490565b816108e681610f05565b6105138383610f2c565b6001600160a01b038216330361091957604051630b7b99b960e21b815260040160405180910390fd5b3360008181526002602090815260408083206001600160a01b03871680855290835292819020805460ff191686151590811790915590519081529192917f17307eab39ab6107e8899845ad3d59bd9653f200f220920489ca2b5937696c31910160405180910390a35050565b6040805180820190915260008082526020820152816109a384610606565b51116109c25760405163da22687f60e01b815260040160405180910390fd5b60008381526005602052604081208054849081106105a0576105a06120ad565b6000826109ee81610aee565b6109f88484610fa1565b949350505050565b81610a0a81610aee565b610a168585858561130a565b5050505050565b87610a2781610f05565b610a37898989898989898961133f565b505050505050505050565b83610a4c81610f05565b610a1685858585611520565b6001600160a01b03918216600090815260026020908152604080832093909416825291909152205460ff1690565b6000818152600360209081526040808320815180830190925280548252600101546001600160a01b03169181018290528291829190610ad85760405163089ba7e160e41b815260040160405180910390fd5b6020810151905190959094508415159350915050565b610af8338261162e565b610b15576040516345f3c98360e11b815260040160405180910390fd5b50565b600080610b2485610a86565b5091509150866001600160a01b0316826001600160a01b031614610b5b5760405163e146af6f60e01b815260040160405180910390fd5b6001600160a01b038616610b82576040516338f646ff60e21b815260040160405180910390fd5b6001600160a01b03861630148015610b9957508385145b15610bb757604051633d76b10760e01b815260040160405180910390fd5b6001600160a01b0386163b610bdf5760405163b9d3114760e01b815260040160405180910390fd5b6040516301ffc9a760e01b81526342b0e56f60e01b60048201526001600160a01b038716906301ffc9a790602401602060405180830381865afa158015610c2a573d6000803e3d6000fd5b505050506040513d601f19601f82011682018060405250810190610c4e91906120e0565b610c6b57604051631784ec7360e21b815260040160405180910390fd5b610c768587866116b1565b6001600160a01b0387166000908152602081905260408120805460019290610c9f908490612113565b90915550610cb090508585886117a2565b6001600160a01b0386166000908152602081905260408120805460019290610cd9908490612126565b90915550610ced90508287838789886117f8565b50505050505050565b6000818152600360205260409020600101546001600160a01b0316610b155760405163089ba7e160e41b815260040160405180910390fd5b6000610d3982610685565b60008381526001602090815260408083206001600160a01b038581168086529190935281842080546001600160a01b031916938916938417905590519394508593919290917f8c5be1e5ebec7d5bd14f71427d1e84f3dd0314c0f7b2291e5b200ac8c7c3b9259190a4505050565b600080610db384610a86565b5091509150856001600160a01b0316826001600160a01b031614610dea5760405163e146af6f60e01b815260040160405180910390fd5b6001600160a01b038516610e11576040516338f646ff60e21b815260040160405180910390fd5b6001600160a01b0386166000908152602081905260408120805460019290610e3a908490612113565b90915550610e4c9050846000876117a2565b6001600160a01b0385166000908152602081905260408120805460019290610e75908490612126565b909155505060405184906001600160a01b0380881691908916907fddf252ad1be2c89b69c2b068fc378daa952ba7f163c4a11628f55a4df523b3ef90600090a483856001600160a01b0316876001600160a01b03167f04444026cefd1b05506559cab59d1b865ae3ba4ed2fe5c894f04e522776c552d84600060405161081a929190918252602082015260400190565b610f0f33826118f9565b610b15576040516302728a9d60e41b815260040160405180910390fd5b600082815260056020526040902054811015610f5b57604051631e73178b60e11b815260040160405180910390fd5b6000828152600560205260408120610f7291611b54565b60405182907f8ac4a0d65950c3e40448afb2260e2e0ec36ea15644d9b39e37e85472e5f9445190600090a25050565b6000806000610faf85610a86565b50915091506000610fbf86610685565b90506040805160208101909152600090526001600160a01b0383166000908152602081905260408120805460019290610ff9908490612113565b9091555061100a9050600087610d2e565b600061101587610827565b60008881526004602052604081209192506110309190611b54565b600087815260056020526040812061104791611b54565b60008781526001602090815260408083206001600160a01b0386168452909152812080546001600160a01b031916905581518190815b8181101561124c578983106110f65784818151811061109e5761109e6120ad565b6020026020010151602001518582815181106110bc576110bc6120ad565b6020908102919091010151516040516306177b2560e41b81526001600160a01b039092166004830152602482015260440160405180910390fd5b6006600086838151811061110c5761110c6120ad565b6020026020010151602001516001600160a01b03166001600160a01b03168152602001908152602001600020600086838151811061114c5761114c6120ad565b602002602001015160000151815260200190815260200160002060009055828a039350848181518110611181576111816120ad565b6020026020010151602001516001600160a01b031663b390c0ab8683815181106111ad576111ad6120ad565b6020026020010151600001516001876111c69190612113565b6040516001600160e01b031960e085901b168152600481019290925260248201526044016020604051808303816000875af1158015611209573d6000803e3d6000fd5b505050506040513d601f19601f8201168201806040525081019061122d9190612139565b611238906001612126565b6112429084612126565b925060010161107d565b5060008a81526003602052604080822082815560010180546001600160a01b0319169055518b91906001600160a01b038a16907fddf252ad1be2c89b69c2b068fc378daa952ba7f163c4a11628f55a4df523b3ef908390a4604080518781526000602082018190528c9290916001600160a01b038b16917f04444026cefd1b05506559cab59d1b865ae3ba4ed2fe5c894f04e522776c552d910160405180910390a46040805160208101909152600090525098975050505050505050565b61131684848484610da7565b61132284848484611957565b61053d5760405163bcb5663760e01b815260040160405180910390fd5b6040805180820190915260008082526020820152821561136a576113638987610985565b9050611377565b6113748987610543565b90505b611382818686611a56565b82156113a55760008981526005602052604090206113a09087611a9a565b6113df565b6001600160a01b038516600090815260066020908152604080832087845282528083208390558b8352600490915290206113df9087611a9a565b6001600160a01b038816156114c9578661145c57604051635c46a7ef60e11b81526001600160a01b0386169063b88d4fde906114259030908c9089908890600401612152565b600060405180830381600087803b15801561143f57600080fd5b505af1158015611453573d6000803e3d6000fd5b505050506114c9565b60208101518151604051630326051d60e11b81526001600160a01b039092169163064c0a3a916114969130918d918d90899060040161218f565b600060405180830381600087803b1580156114b057600080fd5b505af11580156114c4573d6000803e3d6000fd5b505050505b6040805187815284151560208201526001600160a01b038a81161582840152915186928816918c917f02d6d6dbcb604d5e1e8c7886456e82a9cdce88b0a580071358f206b5a4d58f709181900360600190a4610a37565b600061152c8585610985565b9050611539818484611a56565b6001600160a01b03831660009081526006602090815260408083208584529091529020541561157b5760405163188a497360e01b815260040160405180910390fd5b60008581526005602052604090206115939085611a9a565b600085815260046020908152604080832080546001808201835591855283852086516002909202019081558584015190820180546001600160a01b0319166001600160a01b03928316179055871680855260068452828520878652845293829020555186815284929188917f29486b9e2ae569b440933a9b1b421467306fa21f3dcad439c262910a634963a9910160405180910390a4610a16565b600080600061163c84610a86565b50915091508060001461165f57506001600160a01b038481169116149050610421565b816001600160a01b0316856001600160a01b0316148061168457506116848286610a58565b806116a85750846001600160a01b031661169d85610446565b6001600160a01b0316145b95945050505050565b60005b6064811015611788576000806000856001600160a01b031663fb25fb7a866040518263ffffffff1660e01b81526004016116f091815260200190565b606060405180830381865afa15801561170d573d6000803e3d6000fd5b505050506040513d601f19601f8201168201806040525081019061173191906121d4565b925092509250806117455750505050505050565b6001600160a01b0383163014801561175c57508682145b1561177a576040516324543e6d60e11b815260040160405180910390fd5b5090935091506001016116b4565b50604051630349a6bd60e51b815260040160405180910390fd5b6040805180820182528381526001600160a01b038381166020808401918252600088815260039091529384209251835551600190920180546001600160a01b031916929091169190911790556105139084610d2e565b6040516318d5243360e21b815285906001600160a01b0382169063635490cc9061182a90879087908790600401612217565b600060405180830381600087803b15801561184457600080fd5b505af1158015611858573d6000803e3d6000fd5b5050505082866001600160a01b0316886001600160a01b03167fddf252ad1be2c89b69c2b068fc378daa952ba7f163c4a11628f55a4df523b3ef60405160405180910390a482866001600160a01b0316886001600160a01b03167f04444026cefd1b05506559cab59d1b865ae3ba4ed2fe5c894f04e522776c552d88886040516118ec929190918252602082015260400190565b60405180910390a4610ced565b60008061190583610685565b9050806001600160a01b0316846001600160a01b0316148061192c575061192c8185610a58565b806109f85750836001600160a01b031661194584610446565b6001600160a01b031614949350505050565b60006001600160a01b0384163b15611a4b57604051630a85bd0160e11b81526001600160a01b0385169063150b7a029061199b903390899088908890600401612152565b6020604051808303816000875af19250505080156119d6575060408051601f3d908101601f191682019092526119d391810190612236565b60015b611a31573d808015611a04576040519150601f19603f3d011682016040523d82523d6000602084013e611a09565b606091505b508051611a295760405163bcb5663760e01b815260040160405180910390fd5b805181602001fd5b6001600160e01b031916630a85bd0160e11b1490506109f8565b506001949350505050565b82602001516001600160a01b0316826001600160a01b0316141580611a7c575082518114155b1561051357604051637383f2c160e11b815260040160405180910390fd5b81548290611aaa90600190612113565b81548110611aba57611aba6120ad565b9060005260206000209060020201828281548110611ada57611ada6120ad565b600091825260209091208254600290920201908155600191820154910180546001600160a01b0319166001600160a01b039092169190911790558154829080611b2557611b25612253565b60008281526020812060026000199093019283020190815560010180546001600160a01b031916905590555050565b5080546000825560020290600052602060002090810190610b1591905b80821115611b9757600081556001810180546001600160a01b0319169055600201611b71565b5090565b6001600160e01b031981168114610b1557600080fd5b600060208284031215611bc357600080fd5b8135611bce81611b9b565b9392505050565b6001600160a01b0381168114610b1557600080fd5b634e487b7160e01b600052604160045260246000fd5b600082601f830112611c1157600080fd5b813567ffffffffffffffff80821115611c2c57611c2c611bea565b604051601f8301601f19908116603f01168101908282118183101715611c5457611c54611bea565b81604052838152866020858801011115611c6d57600080fd5b836020870160208301376000602085830101528094505050505092915050565b600080600080600060a08688031215611ca557600080fd5b8535611cb081611bd5565b94506020860135611cc081611bd5565b93506040860135925060608601359150608086013567ffffffffffffffff811115611cea57600080fd5b611cf688828901611c00565b9150509295509295909350565b600060208284031215611d1557600080fd5b5035919050565b60008060408385031215611d2f57600080fd5b8235611d3a81611bd5565b946020939093013593505050565b600080600060608486031215611d5d57600080fd5b8335611d6881611bd5565b92506020840135611d7881611bd5565b929592945050506040919091013590565b60008060408385031215611d9c57600080fd5b50508035926020909101359150565b815181526020808301516001600160a01b03169082015260408101610421565b602080825282518282018190526000919060409081850190868401855b82811015611e1e57611e0e848351805182526020908101516001600160a01b0316910152565b9284019290850190600101611de8565b5091979650505050505050565b600080600060608486031215611e4057600080fd5b8335925060208401359150604084013567ffffffffffffffff811115611e6557600080fd5b611e7186828701611c00565b9150509250925092565b600060208284031215611e8d57600080fd5b8135611bce81611bd5565b8015158114610b1557600080fd5b60008060408385031215611eb957600080fd5b8235611ec481611bd5565b91506020830135611ed481611e98565b809150509250929050565b60008060008060808587031215611ef557600080fd5b8435611f0081611bd5565b93506020850135611f1081611bd5565b925060408501359150606085013567ffffffffffffffff811115611f3357600080fd5b611f3f87828801611c00565b91505092959194509250565b600080600080600080600080610100898b031215611f6857600080fd5b883597506020890135611f7a81611bd5565b965060408901359550606089013594506080890135611f9881611bd5565b935060a0890135925060c0890135611faf81611e98565b915060e089013567ffffffffffffffff811115611fcb57600080fd5b611fd78b828c01611c00565b9150509295985092959890939650565b60008060008060808587031215611ffd57600080fd5b8435935060208501359250604085013561201681611bd5565b9396929550929360600135925050565b6000806040838503121561203957600080fd5b823561204481611bd5565b91506020830135611ed481611bd5565b6000815180845260005b8181101561207a5760208185018101518683018201520161205e565b506000602082860101526020601f19601f83011685010191505092915050565b602081526000611bce6020830184612054565b634e487b7160e01b600052603260045260246000fd5b6000602082840312156120d557600080fd5b8151611bce81611bd5565b6000602082840312156120f257600080fd5b8151611bce81611e98565b634e487b7160e01b600052601160045260246000fd5b81810381811115610421576104216120fd565b80820180821115610421576104216120fd565b60006020828403121561214b57600080fd5b5051919050565b6001600160a01b038581168252841660208201526040810183905260806060820181905260009061218590830184612054565b9695505050505050565b6001600160a01b03868116825285166020820152604081018490526060810183905260a0608082018190526000906121c990830184612054565b979650505050505050565b6000806000606084860312156121e957600080fd5b83516121f481611bd5565b60208501516040860151919450925061220c81611e98565b809150509250925092565b8381528260208201526060604082015260006116a86060830184612054565b60006020828403121561224857600080fd5b8151611bce81611b9b565b634e487b7160e01b600052603160045260246000fdfea2646970667358221220b1b0d32cd2364360e8737147e9884eab092b0c067fd1cea84205f85f70a37dcb64736f6c63430008150033",
    "linkReferences": {}
  },
  "methodIdentifiers": {
    "RMRK_INTERFACE()": "8d4f3bf5",
    "VERSION()": "ffa1ad74",
    "acceptChild(uint256,uint256,address,uint256)": "e97ceaa8",
    "addChild(uint256,uint256,bytes)": "635490cc",
    "approve(address,uint256)": "095ea7b3",
    "balanceOf(address)": "70a08231",
    "burn(uint256)": "42966c68",
    "burn(uint256,uint256)": "b390c0ab",
    "childOf(uint256,uint256)": "2f32f937",
    "childrenOf(uint256)": "6f19951c",
    "directOwnerOf(uint256)": "fb25fb7a",
    "getApproved(uint256)": "081812fc",
    "isApprovedForAll(address,address)": "e985e9c5",
    "nestTransferFrom(address,address,uint256,uint256,bytes)": "064c0a3a",
    "ownerOf(uint256)": "6352211e",
    "pendingChildOf(uint256,uint256)": "a898e364",
    "pendingChildrenOf(uint256)": "44ec9344",
    "rejectAllChildren(uint256,uint256)": "97961336",
    "safeTransferFrom(address,address,uint256)": "42842e0e",
    "safeTransferFrom(address,address,uint256,bytes)": "b88d4fde",
    "setApprovalForAll(address,bool)": "a22cb465",
    "supportsInterface(bytes4)": "01ffc9a7",
    "transferChild(uint256,address,uint256,uint256,address,uint256,bool,bytes)": "defa80c3",
    "transferFrom(address,address,uint256)": "23b872dd"
  },
  "id": 88
}