{
  "abi": [
    {
      "inputs": [
        {
          "internalType": "uint256",
          "name": "bulletPrice_",
          "type": "uint256"
        }
      ],
      "stateMutability": "nonpayable",
      "type": "constructor"
    },
    {
      "stateMutability": "payable",
      "type": "fallback"
    },
    {
      "inputs": [],
      "name": "bulletPrice",
      "outputs": [
        {
          "internalType": "uint256",
          "name": "",
          "type": "uint256"
        }
      ],
      "stateMutability": "view",
      "type": "function"
    },
    {
      "inputs": [
        {
          "internalType": "address",
          "name": "player_",
          "type": "address"
        },
        {
          "internalType": "uint256",
          "name": "amount_",
          "type": "uint256"
        }
      ],
      "name": "buyBullets",
      "outputs": [],
      "stateMutability": "payable",
      "type": "function"
    },
    {
      "inputs": [
        {
          "internalType": "address",
          "name": "player_",
          "type": "address"
        }
      ],
      "name": "getGameData",
      "outputs": [
        {
          "components": [
            {
              "internalType": "uint256",
              "name": "bullets",
              "type": "uint256"
            },
            {
              "components": [
                {
                  "internalType": "int256",
                  "name": "x",
                  "type": "int256"
                },
                {
                  "internalType": "int256",
                  "name": "y",
                  "type": "int256"
                },
                {
                  "internalType": "int256",
                  "name": "z",
                  "type": "int256"
                }
              ],
              "internalType": "struct Position",
              "name": "currentPosition",
              "type": "tuple"
            },
            {
              "internalType": "uint256",
              "name": "ethersAmount",
              "type": "uint256"
            },
            {
              "components": [
                {
                  "internalType": "int256",
                  "name": "x",
                  "type": "int256"
                },
                {
                  "internalType": "int256",
                  "name": "y",
                  "type": "int256"
                },
                {
                  "internalType": "int256",
                  "name": "z",
                  "type": "int256"
                }
              ],
              "internalType": "struct Position[]",
              "name": "ethersPosition",
              "type": "tuple[]"
            },
            {
              "internalType": "uint256[]",
              "name": "ethersId",
              "type": "uint256[]"
            },
            {
              "internalType": "uint256",
              "name": "wreckedEthers",
              "type": "uint256"
            }
          ],
          "internalType": "struct PlayerStatsResponse",
          "name": "response",
          "type": "tuple"
        }
      ],
      "stateMutability": "view",
      "type": "function"
    },
    {
      "inputs": [
        {
          "internalType": "address",
          "name": "player_",
          "type": "address"
        },
        {
          "components": [
            {
              "internalType": "int256",
              "name": "x",
              "type": "int256"
            },
            {
              "internalType": "int256",
              "name": "y",
              "type": "int256"
            },
            {
              "internalType": "int256",
              "name": "z",
              "type": "int256"
            }
          ],
          "internalType": "struct Position[]",
          "name": "ethersPosition_",
          "type": "tuple[]"
        }
      ],
      "name": "initPlayer",
      "outputs": [],
      "stateMutability": "nonpayable",
      "type": "function"
    },
    {
      "inputs": [
        {
          "internalType": "address",
          "name": "player_",
          "type": "address"
        },
        {
          "internalType": "uint256",
          "name": "amount_",
          "type": "uint256"
        }
      ],
      "name": "removeBullets",
      "outputs": [],
      "stateMutability": "nonpayable",
      "type": "function"
    },
    {
      "inputs": [
        {
          "internalType": "address",
          "name": "player_",
          "type": "address"
        },
        {
          "internalType": "uint256[]",
          "name": "ids_",
          "type": "uint256[]"
        }
      ],
      "name": "removeEther",
      "outputs": [],
      "stateMutability": "nonpayable",
      "type": "function"
    },
    {
      "inputs": [
        {
          "internalType": "address",
          "name": "player_",
          "type": "address"
        },
        {
          "components": [
            {
              "internalType": "int256",
              "name": "x",
              "type": "int256"
            },
            {
              "internalType": "int256",
              "name": "y",
              "type": "int256"
            },
            {
              "internalType": "int256",
              "name": "z",
              "type": "int256"
            }
          ],
          "internalType": "struct Position",
          "name": "newPosition_",
          "type": "tuple"
        }
      ],
      "name": "updatePlayerPosition",
      "outputs": [],
      "stateMutability": "nonpayable",
      "type": "function"
    },
    {
      "stateMutability": "payable",
      "type": "receive"
    }
  ],
  "bytecode": {
    "object": "0x608060405234801561001057600080fd5b50604051610ba5380380610ba583398101604081905261002f91610037565b600155610050565b60006020828403121561004957600080fd5b5051919050565b610b468061005f6000396000f3fe6080604052600436106100735760003560e01c8063a6d4c7811161004e578063a6d4c7811461014f578063b975c34d1461016f578063e013ce7c1461019c578063e7aa7b85146101bc576100b7565b8062b90efd146100f15780638b0f90fb146101135780638f6a7db31461013c576100b7565b366100b75760405162461bcd60e51b815260206004820152600f60248201526e139bdd081a5b5c1b195b595b9d1959608a1b60448201526064015b60405180910390fd5b60405162461bcd60e51b815260206004820152600f60248201526e139bdd081a5b5c1b195b595b9d1959608a1b60448201526064016100ae565b3480156100fd57600080fd5b5061011161010c3660046107f2565b6101dc565b005b34801561011f57600080fd5b5061012960015481565b6040519081526020015b60405180910390f35b61011161014a366004610831565b610220565b34801561015b57600080fd5b5061011161016a36600461085b565b6102a1565b34801561017b57600080fd5b5061018f61018a3660046108e1565b610396565b604051610133919061093e565b3480156101a857600080fd5b506101116101b7366004610831565b6105f8565b3480156101c857600080fd5b506101116101d7366004610a18565b61067a565b6001600160a01b0382166000908152602081905260409020819060010161021a82828135815560208201356001820155604082013560028201555050565b50505050565b346001548261022f9190610aa1565b11156102705760405162461bcd60e51b815260206004820152601060248201526f4e6f7420656e6f7567682066756e647360801b60448201526064016100ae565b6001600160a01b03821660009081526020819052604081208054839290610298908490610abe565b90915550505050565b6001600160a01b03831660009081526020819052604090206006810154600490910154146103045760405162461bcd60e51b815260206004820152601060248201526f23b0b6b29034b9903737ba1037bb32b960811b60448201526064016100ae565b6001600160a01b038316600090815260208190526040812060040182905581905b8181101561038f5783838281811061033f5761033f610ad1565b6001600160a01b0388166000908152602081815260408083208784526005018252918290206060939093029490940180358355938401356001830155830135600282015590505050600101610325565b5050505050565b61039e61077e565b6001600160a01b038216600090815260208190526040812060068101546004909101546103cb9190610ae7565b905060008167ffffffffffffffff8111156103e8576103e8610afa565b60405190808252806020026020018201604052801561043d57816020015b61042a60405180606001604052806000815260200160008152602001600081525090565b8152602001906001900390816104065790505b50905060008267ffffffffffffffff81111561045b5761045b610afa565b604051908082528060200260200182016040528015610484578160200160208202803683370190505b5090506000805b6001600160a01b038716600090815260208190526040902060040154811080156104b457508482105b15610578576001600160a01b03871660009081526020818152604080832084845260050190915290205415610570576001600160a01b0387166000908152602081815260408083208484526005018252918290208251606081018452815481526001820154928101929092526002015491810191909152845185908490811061053f5761053f610ad1565b60200260200101819052508083838151811061055d5761055d610ad1565b6020026020010181815250508160010191505b60010161048b565b50506040805160c0810182526001600160a01b039096166000818152602081815283822080548a5284516060808201875260018301548252600283015482850152600383015482880152838c01919091526004820154958b0195909552938901959095526080880193909352825291526006015460a08401525090919050565b6001600160a01b0382166000908152602081905260409020548111156106525760405162461bcd60e51b815260206004820152600f60248201526e4e6f206d6f72652062756c6c65747360881b60448201526064016100ae565b6001600160a01b03821660009081526020819052604081208054839290610298908490610ae7565b6001600160a01b03831660009081526020819052604090206006015481906106a3908290610abe565b6001600160a01b03851660009081526020819052604090206004015410156106fe5760405162461bcd60e51b815260206004820152600e60248201526d4e6f206d6f72652065746865727360901b60448201526064016100ae565b60005b81811015610747576001600160a01b0385166000908152602081815260408083208484526005019091528120818155600180820183905560029091019190915501610701565b506001600160a01b03841660009081526020819052604081206006018054839290610773908490610abe565b909155505050505050565b6040518060c00160405280600081526020016107b460405180606001604052806000815260200160008152602001600081525090565b8152602001600081526020016060815260200160608152602001600081525090565b80356001600160a01b03811681146107ed57600080fd5b919050565b600080828403608081121561080657600080fd5b61080f846107d6565b92506060601f198201121561082357600080fd5b506020830190509250929050565b6000806040838503121561084457600080fd5b61084d836107d6565b946020939093013593505050565b60008060006040848603121561087057600080fd5b610879846107d6565b9250602084013567ffffffffffffffff8082111561089657600080fd5b818601915086601f8301126108aa57600080fd5b8135818111156108b957600080fd5b8760206060830285010111156108ce57600080fd5b6020830194508093505050509250925092565b6000602082840312156108f357600080fd5b6108fc826107d6565b9392505050565b600081518084526020808501945080840160005b8381101561093357815187529582019590820190600101610917565b509495945050505050565b6000602080835261012083018451828501528185015161097560408601828051825260208082015190830152604090810151910152565b50604085015160a085015260608086015161010060c0870181905281519384905290840192600091906101408801905b808410156109e0576109cc8287518051825260208082015190830152604090810151910152565b9486019460019390930192908401906109a5565b506080890151888203601f190160e08a015295506109fe8187610903565b95505060a088015181880152505050508091505092915050565b600080600060408486031215610a2d57600080fd5b610a36846107d6565b9250602084013567ffffffffffffffff80821115610a5357600080fd5b818601915086601f830112610a6757600080fd5b813581811115610a7657600080fd5b8760208260051b85010111156108ce57600080fd5b634e487b7160e01b600052601160045260246000fd5b8082028115828204841417610ab857610ab8610a8b565b92915050565b80820180821115610ab857610ab8610a8b565b634e487b7160e01b600052603260045260246000fd5b81810381811115610ab857610ab8610a8b565b634e487b7160e01b600052604160045260246000fdfea264697066735822122046932a2a05a24334fa4ef58c175d68964e04f8140bf03ecba3f77b921d857c8f64736f6c63430008150033",
    "linkReferences": {}
  },
  "methodIdentifiers": {
    "bulletPrice()": "8b0f90fb",
    "buyBullets(address,uint256)": "8f6a7db3",
    "getGameData(address)": "b975c34d",
    "initPlayer(address,(int256,int256,int256)[])": "a6d4c781",
    "removeBullets(address,uint256)": "e013ce7c",
    "removeEther(address,uint256[])": "e7aa7b85",
    "updatePlayerPosition(address,(int256,int256,int256))": "00b90efd"
  },
  "id": 2
}