{
  "abi": [
    {
      "inputs": [],
      "name": "RMRKTokenHasNoAssets",
      "type": "error"
    },
    {
      "inputs": [
        {
          "internalType": "address",
          "name": "target",
          "type": "address"
        },
        {
          "internalType": "uint256",
          "name": "tokenId",
          "type": "uint256"
        }
      ],
      "name": "getAssetIdWithTopPriority",
      "outputs": [
        {
          "internalType": "uint64",
          "name": "",
          "type": "uint64"
        },
        {
          "internalType": "uint64",
          "name": "",
          "type": "uint64"
        }
      ],
      "stateMutability": "view",
      "type": "function"
    },
    {
      "inputs": [
        {
          "internalType": "address",
          "name": "target",
          "type": "address"
        },
        {
          "internalType": "uint256",
          "name": "tokenId",
          "type": "uint256"
        },
        {
          "internalType": "uint64[]",
          "name": "assetIds",
          "type": "uint64[]"
        }
      ],
      "name": "getAssetsById",
      "outputs": [
        {
          "internalType": "string[]",
          "name": "",
          "type": "string[]"
        }
      ],
      "stateMutability": "view",
      "type": "function"
    },
    {
      "inputs": [
        {
          "internalType": "address",
          "name": "target",
          "type": "address"
        },
        {
          "internalType": "uint256",
          "name": "tokenId",
          "type": "uint256"
        }
      ],
      "name": "getExtendedActiveAssets",
      "outputs": [
        {
          "components": [
            {
              "internalType": "uint64",
              "name": "id",
              "type": "uint64"
            },
            {
              "internalType": "uint64",
              "name": "priority",
              "type": "uint64"
            },
            {
              "internalType": "string",
              "name": "metadata",
              "type": "string"
            }
          ],
          "internalType": "struct RMRKMultiAssetRenderUtils.ExtendedActiveAsset[]",
          "name": "",
          "type": "tuple[]"
        }
      ],
      "stateMutability": "view",
      "type": "function"
    },
    {
      "inputs": [
        {
          "internalType": "address",
          "name": "target",
          "type": "address"
        },
        {
          "internalType": "uint256",
          "name": "tokenId",
          "type": "uint256"
        }
      ],
      "name": "getPendingAssets",
      "outputs": [
        {
          "components": [
            {
              "internalType": "uint64",
              "name": "id",
              "type": "uint64"
            },
            {
              "internalType": "uint128",
              "name": "acceptRejectIndex",
              "type": "uint128"
            },
            {
              "internalType": "uint64",
              "name": "replacesAssetWithId",
              "type": "uint64"
            },
            {
              "internalType": "string",
              "name": "metadata",
              "type": "string"
            }
          ],
          "internalType": "struct RMRKMultiAssetRenderUtils.PendingAsset[]",
          "name": "",
          "type": "tuple[]"
        }
      ],
      "stateMutability": "view",
      "type": "function"
    },
    {
      "inputs": [
        {
          "internalType": "address",
          "name": "target",
          "type": "address"
        },
        {
          "internalType": "uint256",
          "name": "tokenId",
          "type": "uint256"
        }
      ],
      "name": "getTopAsset",
      "outputs": [
        {
          "internalType": "uint64",
          "name": "topAssetId",
          "type": "uint64"
        },
        {
          "internalType": "uint64",
          "name": "topAssetPriority",
          "type": "uint64"
        },
        {
          "internalType": "string",
          "name": "topAssetMetadata",
          "type": "string"
        }
      ],
      "stateMutability": "view",
      "type": "function"
    },
    {
      "inputs": [
        {
          "internalType": "address",
          "name": "target",
          "type": "address"
        },
        {
          "internalType": "uint256",
          "name": "tokenId",
          "type": "uint256"
        }
      ],
      "name": "getTopAssetMetaForToken",
      "outputs": [
        {
          "internalType": "string",
          "name": "",
          "type": "string"
        }
      ],
      "stateMutability": "view",
      "type": "function"
    },
    {
      "inputs": [
        {
          "internalType": "address",
          "name": "target",
          "type": "address"
        },
        {
          "internalType": "uint256[]",
          "name": "tokenIds",
          "type": "uint256[]"
        }
      ],
      "name": "getTopAssetMetadataForTokens",
      "outputs": [
        {
          "internalType": "string[]",
          "name": "metadata",
          "type": "string[]"
        }
      ],
      "stateMutability": "view",
      "type": "function"
    }
  ],
  "bytecode": {
    "object": "0x608060405234801561001057600080fd5b5061117a806100206000396000f3fe608060405234801561001057600080fd5b506004361061007d5760003560e01c806373d36d7d1161005b57806373d36d7d146100eb5780638533168f1461010b578063e59a94151461012d578063ff0af3971461014057600080fd5b806316fbb189146100825780631ae99aeb146100ab57806341e78cb9146100cb575b600080fd5b610095610090366004610bdc565b610173565b6040516100a29190610c56565b60405180910390f35b6100be6100b9366004610bdc565b61044b565b6040516100a29190610ce8565b6100de6100d9366004610d65565b6106ff565b6040516100a29190610dee565b6100fe6100f9366004610bdc565b610838565b6040516100a29190610e50565b61011e610119366004610bdc565b6108ce565b6040516100a293929190610e6a565b6100de61013b366004610f08565b610967565b61015361014e366004610bdc565b610a15565b604080516001600160401b039384168152929091166020830152016100a2565b6040516328a9972d60e11b81526004810182905260609083906000906001600160a01b038316906351532e5a90602401600060405180830381865afa1580156101c0573d6000803e3d6000fd5b505050506040513d6000823e601f3d908101601f191682016040526101e89190810190610fc8565b80519091508061020b57604051633456866f60e01b815260040160405180910390fd5b6000816001600160401b0381111561022557610225610e9f565b60405190808252806020026020018201604052801561027657816020015b60408051608081018252600080825260208083018290529282015260608082015282526000199092019101816102435790505b50905060606000805b8481101561043d57866001600160a01b0316635e2e32928a8884815181106102a9576102a9611061565b60200260200101516040518363ffffffff1660e01b81526004016102e09291909182526001600160401b0316602082015260400190565b600060405180830381865afa1580156102fd573d6000803e3d6000fd5b505050506040513d6000823e601f3d908101601f191682016040526103259190810190611077565b9250866001600160a01b031663df6f556b8a88848151811061034957610349611061565b60200260200101516040518363ffffffff1660e01b81526004016103809291909182526001600160401b0316602082015260400190565b602060405180830381865afa15801561039d573d6000803e3d6000fd5b505050506040513d601f19601f820116820180604052508101906103c1919061110a565b915060405180608001604052808783815181106103e0576103e0611061565b60200260200101516001600160401b03168152602001826001600160801b03168152602001836001600160401b031681526020018481525084828151811061042a5761042a611061565b602090810291909101015260010161027f565b509198975050505050505050565b604051633940140f60e11b81526004810182905260609083906000906001600160a01b03831690637280281e90602401600060405180830381865afa158015610498573d6000803e3d6000fd5b505050506040513d6000823e601f3d908101601f191682016040526104c09190810190610fc8565b604051632f4a1aa560e11b8152600481018690529091506000906001600160a01b03841690635e94354a90602401600060405180830381865afa15801561050b573d6000803e3d6000fd5b505050506040513d6000823e601f3d908101601f191682016040526105339190810190610fc8565b82519091508061055657604051633456866f60e01b815260040160405180910390fd5b6000816001600160401b0381111561057057610570610e9f565b6040519080825280602002602001820160405280156105bd57816020015b6040805160608082018352600080835260208301529181019190915281526020019060019003908161058e5790505b509050606060005b838110156106f157866001600160a01b0316635e2e32928a8884815181106105ef576105ef611061565b60200260200101516040518363ffffffff1660e01b81526004016106269291909182526001600160401b0316602082015260400190565b600060405180830381865afa158015610643573d6000803e3d6000fd5b505050506040513d6000823e601f3d908101601f1916820160405261066b9190810190611077565b9150604051806060016040528087838151811061068a5761068a611061565b60200260200101516001600160401b031681526020018683815181106106b2576106b2611061565b60200260200101516001600160401b03168152602001838152508382815181106106de576106de611061565b60209081029190910101526001016105c5565b509098975050505050505050565b606084826000816001600160401b0381111561071d5761071d610e9f565b60405190808252806020026020018201604052801561075057816020015b606081526020019060019003908161073b5790505b50905060005b8281101561082c57836001600160a01b0316635e2e32928989898581811061078057610780611061565b90506020020160208101906107959190611127565b6040516001600160e01b031960e085901b16815260048101929092526001600160401b03166024820152604401600060405180830381865afa1580156107df573d6000803e3d6000fd5b505050506040513d6000823e601f3d908101601f191682016040526108079190810190611077565b82828151811061081957610819611061565b6020908102919091010152600101610756565b50979650505050505050565b606060006108468484610a15565b50604051632f17194960e11b8152600481018590526001600160401b03821660248201529091506001600160a01b03851690635e2e329290604401600060405180830381865afa15801561089e573d6000803e3d6000fd5b505050506040513d6000823e601f3d908101601f191682016040526108c69190810190611077565b949350505050565b60008060606108dd8585610a15565b604051632f17194960e11b8152600481018790526001600160401b038316602482015291945092506001600160a01b03861690635e2e329290604401600060405180830381865afa158015610936573d6000803e3d6000fd5b505050506040513d6000823e601f3d908101601f1916820160405261095e9190810190611077565b90509250925092565b8051606090806001600160401b0381111561098457610984610e9f565b6040519080825280602002602001820160405280156109b757816020015b60608152602001906001900390816109a25790505b50915060005b81811015610a0d576109e8858583815181106109db576109db611061565b6020026020010151610838565b8382815181106109fa576109fa611061565b60209081029190910101526001016109bd565b505092915050565b604051632f4a1aa560e11b8152600481018290526000908190849082906001600160a01b03831690635e94354a90602401600060405180830381865afa158015610a63573d6000803e3d6000fd5b505050506040513d6000823e601f3d908101601f19168201604052610a8b9190810190610fc8565b604051633940140f60e11b8152600481018790529091506000906001600160a01b03841690637280281e90602401600060405180830381865afa158015610ad6573d6000803e3d6000fd5b505050506040513d6000823e601f3d908101601f19168201604052610afe9190810190610fc8565b825190915080610b2157604051633456866f60e01b815260040160405180910390fd5b6001600160401b036000805b83816001600160401b03161015610bb157600086826001600160401b031681518110610b5b57610b5b611061565b60200260200101519050836001600160401b0316816001600160401b03161015610ba85780935085826001600160401b031681518110610b9d57610b9d611061565b602002602001015192505b50600101610b2d565b50999098509650505050505050565b80356001600160a01b0381168114610bd757600080fd5b919050565b60008060408385031215610bef57600080fd5b610bf883610bc0565b946020939093013593505050565b60005b83811015610c21578181015183820152602001610c09565b50506000910152565b60008151808452610c42816020860160208601610c06565b601f01601f19169290920160200192915050565b60006020808301818452808551808352604092508286019150828160051b87010184880160005b838110156106f157888303603f19018552815180516001600160401b039081168552888201516001600160801b031689860152878201511687850152606090810151608091850182905290610cd481860183610c2a565b968901969450505090860190600101610c7d565b60006020808301818452808551808352604092508286019150828160051b87010184880160005b838110156106f157888303603f19018552815180516001600160401b0390811685528882015116888501528601516060878501819052610d5181860183610c2a565b968901969450505090860190600101610d0f565b60008060008060608587031215610d7b57600080fd5b610d8485610bc0565b93506020850135925060408501356001600160401b0380821115610da757600080fd5b818701915087601f830112610dbb57600080fd5b813581811115610dca57600080fd5b8860208260051b8501011115610ddf57600080fd5b95989497505060200194505050565b6000602080830181845280855180835260408601915060408160051b870101925083870160005b82811015610e4357603f19888603018452610e31858351610c2a565b94509285019290850190600101610e15565b5092979650505050505050565b602081526000610e636020830184610c2a565b9392505050565b60006001600160401b03808616835280851660208401525060606040830152610e966060830184610c2a565b95945050505050565b634e487b7160e01b600052604160045260246000fd5b604051601f8201601f191681016001600160401b0381118282101715610edd57610edd610e9f565b604052919050565b60006001600160401b03821115610efe57610efe610e9f565b5060051b60200190565b60008060408385031215610f1b57600080fd5b610f2483610bc0565b91506020808401356001600160401b03811115610f4057600080fd5b8401601f81018613610f5157600080fd5b8035610f64610f5f82610ee5565b610eb5565b81815260059190911b82018301908381019088831115610f8357600080fd5b928401925b82841015610fa157833582529284019290840190610f88565b80955050505050509250929050565b6001600160401b0381168114610fc557600080fd5b50565b60006020808385031215610fdb57600080fd5b82516001600160401b03811115610ff157600080fd5b8301601f8101851361100257600080fd5b8051611010610f5f82610ee5565b81815260059190911b8201830190838101908783111561102f57600080fd5b928401925b8284101561105657835161104781610fb0565b82529284019290840190611034565b979650505050505050565b634e487b7160e01b600052603260045260246000fd5b60006020828403121561108957600080fd5b81516001600160401b03808211156110a057600080fd5b818401915084601f8301126110b457600080fd5b8151818111156110c6576110c6610e9f565b6110d9601f8201601f1916602001610eb5565b91508082528560208285010111156110f057600080fd5b611101816020840160208601610c06565b50949350505050565b60006020828403121561111c57600080fd5b8151610e6381610fb0565b60006020828403121561113957600080fd5b8135610e6381610fb056fea264697066735822122086f63e3caed51bb86192fcd3d6b41b63f1a52b38c635fc6a73498b460d0056e864736f6c63430008150033",
    "linkReferences": {}
  },
  "methodIdentifiers": {
    "getAssetIdWithTopPriority(address,uint256)": "ff0af397",
    "getAssetsById(address,uint256,uint64[])": "41e78cb9",
    "getExtendedActiveAssets(address,uint256)": "1ae99aeb",
    "getPendingAssets(address,uint256)": "16fbb189",
    "getTopAsset(address,uint256)": "8533168f",
    "getTopAssetMetaForToken(address,uint256)": "73d36d7d",
    "getTopAssetMetadataForTokens(address,uint256[])": "e59a9415"
  },
  "id": 92
}