{
  "abi": [
    {
      "inputs": [],
      "name": "RMRKChildNotFoundInParent",
      "type": "error"
    },
    {
      "inputs": [],
      "name": "RMRKMismachedArrayLength",
      "type": "error"
    },
    {
      "inputs": [],
      "name": "RMRKNotComposableAsset",
      "type": "error"
    },
    {
      "inputs": [],
      "name": "RMRKParentIsNotNFT",
      "type": "error"
    },
    {
      "inputs": [],
      "name": "RMRKTokenHasNoAssets",
      "type": "error"
    },
    {
      "inputs": [],
      "name": "RMRKUnexpectedParent",
      "type": "error"
    },
    {
      "inputs": [
        {
          "internalType": "address",
          "name": "childAddress",
          "type": "address"
        },
        {
          "internalType": "uint256",
          "name": "childId",
          "type": "uint256"
        },
        {
          "internalType": "address",
          "name": "expectedParent",
          "type": "address"
        },
        {
          "internalType": "uint256",
          "name": "expectedParentId",
          "type": "uint256"
        }
      ],
      "name": "checkExpectedParent",
      "outputs": [],
      "stateMutability": "view",
      "type": "function"
    },
    {
      "inputs": [
        {
          "internalType": "address",
          "name": "target",
          "type": "address"
        },
        {
          "internalType": "uint256",
          "name": "tokenId",
          "type": "uint256"
        },
        {
          "internalType": "uint64",
          "name": "assetId",
          "type": "uint64"
        }
      ],
      "name": "composeEquippables",
      "outputs": [
        {
          "internalType": "string",
          "name": "metadataURI",
          "type": "string"
        },
        {
          "internalType": "uint64",
          "name": "equippableGroupId",
          "type": "uint64"
        },
        {
          "internalType": "address",
          "name": "catalogAddress",
          "type": "address"
        },
        {
          "components": [
            {
              "internalType": "uint64",
              "name": "partId",
              "type": "uint64"
            },
            {
              "internalType": "uint8",
              "name": "z",
              "type": "uint8"
            },
            {
              "internalType": "string",
              "name": "metadataURI",
              "type": "string"
            }
          ],
          "internalType": "struct RMRKEquipRenderUtils.FixedPart[]",
          "name": "fixedParts",
          "type": "tuple[]"
        },
        {
          "components": [
            {
              "internalType": "uint64",
              "name": "partId",
              "type": "uint64"
            },
            {
              "internalType": "uint64",
              "name": "childAssetId",
              "type": "uint64"
            },
            {
              "internalType": "uint8",
              "name": "z",
              "type": "uint8"
            },
            {
              "internalType": "address",
              "name": "childAddress",
              "type": "address"
            },
            {
              "internalType": "uint256",
              "name": "childId",
              "type": "uint256"
            },
            {
              "internalType": "string",
              "name": "childAssetMetadata",
              "type": "string"
            },
            {
              "internalType": "string",
              "name": "partMetadata",
              "type": "string"
            }
          ],
          "internalType": "struct RMRKEquipRenderUtils.EquippedSlotPart[]",
          "name": "slotParts",
          "type": "tuple[]"
        }
      ],
      "stateMutability": "view",
      "type": "function"
    },
    {
      "inputs": [
        {
          "internalType": "address",
          "name": "collection",
          "type": "address"
        },
        {
          "internalType": "uint256",
          "name": "tokenId",
          "type": "uint256"
        }
      ],
      "name": "directOwnerOfWithParentsPerspective",
      "outputs": [
        {
          "internalType": "address",
          "name": "directOwner",
          "type": "address"
        },
        {
          "internalType": "uint256",
          "name": "ownerId",
          "type": "uint256"
        },
        {
          "internalType": "bool",
          "name": "isNFT",
          "type": "bool"
        },
        {
          "internalType": "bool",
          "name": "inParentsActiveChildren",
          "type": "bool"
        },
        {
          "internalType": "bool",
          "name": "inParentsPendingChildren",
          "type": "bool"
        }
      ],
      "stateMutability": "view",
      "type": "function"
    },
    {
      "inputs": [
        {
          "internalType": "address",
          "name": "parentAddress",
          "type": "address"
        },
        {
          "internalType": "uint256",
          "name": "parentId",
          "type": "uint256"
        },
        {
          "internalType": "uint64",
          "name": "parentAssetId",
          "type": "uint64"
        }
      ],
      "name": "equippedChildrenOf",
      "outputs": [
        {
          "components": [
            {
              "internalType": "uint64",
              "name": "assetId",
              "type": "uint64"
            },
            {
              "internalType": "uint64",
              "name": "childAssetId",
              "type": "uint64"
            },
            {
              "internalType": "uint256",
              "name": "childId",
              "type": "uint256"
            },
            {
              "internalType": "address",
              "name": "childEquippableAddress",
              "type": "address"
            }
          ],
          "internalType": "struct IERC6220.Equipment[]",
          "name": "equippedChildren",
          "type": "tuple[]"
        }
      ],
      "stateMutability": "view",
      "type": "function"
    },
    {
      "inputs": [
        {
          "internalType": "address",
          "name": "targetChild",
          "type": "address"
        },
        {
          "internalType": "uint256",
          "name": "childId",
          "type": "uint256"
        },
        {
          "internalType": "bool",
          "name": "onlyEquipped",
          "type": "bool"
        }
      ],
      "name": "getAllEquippableSlotsFromParent",
      "outputs": [
        {
          "internalType": "uint256",
          "name": "childIndex",
          "type": "uint256"
        },
        {
          "components": [
            {
              "internalType": "uint64",
              "name": "slotPartId",
              "type": "uint64"
            },
            {
              "internalType": "uint64",
              "name": "childAssetId",
              "type": "uint64"
            },
            {
              "internalType": "uint64",
              "name": "parentAssetId",
              "type": "uint64"
            },
            {
              "internalType": "uint64",
              "name": "priority",
              "type": "uint64"
            },
            {
              "internalType": "address",
              "name": "parentCatalogAddress",
              "type": "address"
            },
            {
              "internalType": "bool",
              "name": "isEquipped",
              "type": "bool"
            },
            {
              "internalType": "string",
              "name": "partMetadata",
              "type": "string"
            },
            {
              "internalType": "string",
              "name": "childAssetMetadata",
              "type": "string"
            },
            {
              "internalType": "string",
              "name": "parentAssetMetadata",
              "type": "string"
            }
          ],
          "internalType": "struct RMRKEquipRenderUtils.EquippableData[]",
          "name": "equippableData",
          "type": "tuple[]"
        }
      ],
      "stateMutability": "view",
      "type": "function"
    },
    {
      "inputs": [
        {
          "internalType": "address",
          "name": "target",
          "type": "address"
        },
        {
          "internalType": "uint256",
          "name": "tokenId",
          "type": "uint256"
        }
      ],
      "name": "getAssetIdWithTopPriority",
      "outputs": [
        {
          "internalType": "uint64",
          "name": "",
          "type": "uint64"
        },
        {
          "internalType": "uint64",
          "name": "",
          "type": "uint64"
        }
      ],
      "stateMutability": "view",
      "type": "function"
    },
    {
      "inputs": [
        {
          "internalType": "address",
          "name": "target",
          "type": "address"
        },
        {
          "internalType": "uint256",
          "name": "tokenId",
          "type": "uint256"
        },
        {
          "internalType": "uint64[]",
          "name": "assetIds",
          "type": "uint64[]"
        }
      ],
      "name": "getAssetsById",
      "outputs": [
        {
          "internalType": "string[]",
          "name": "",
          "type": "string[]"
        }
      ],
      "stateMutability": "view",
      "type": "function"
    },
    {
      "inputs": [
        {
          "internalType": "address",
          "name": "parentAddress",
          "type": "address"
        },
        {
          "internalType": "uint256",
          "name": "parentId",
          "type": "uint256"
        },
        {
          "internalType": "address",
          "name": "childAddress",
          "type": "address"
        },
        {
          "internalType": "uint256",
          "name": "childId",
          "type": "uint256"
        }
      ],
      "name": "getChildIndex",
      "outputs": [
        {
          "internalType": "uint256",
          "name": "",
          "type": "uint256"
        }
      ],
      "stateMutability": "view",
      "type": "function"
    },
    {
      "inputs": [
        {
          "internalType": "address",
          "name": "parentAddress",
          "type": "address"
        },
        {
          "internalType": "uint256",
          "name": "parentId",
          "type": "uint256"
        }
      ],
      "name": "getChildrenWithTopMetadata",
      "outputs": [
        {
          "components": [
            {
              "internalType": "address",
              "name": "contractAddress",
              "type": "address"
            },
            {
              "internalType": "uint256",
              "name": "tokenId",
              "type": "uint256"
            },
            {
              "internalType": "string",
              "name": "metadata",
              "type": "string"
            }
          ],
          "internalType": "struct RMRKEquipRenderUtils.ChildWithTopAssetMetadata[]",
          "name": "",
          "type": "tuple[]"
        }
      ],
      "stateMutability": "view",
      "type": "function"
    },
    {
      "inputs": [
        {
          "internalType": "address",
          "name": "targetChild",
          "type": "address"
        },
        {
          "internalType": "uint256",
          "name": "childId",
          "type": "uint256"
        },
        {
          "internalType": "uint64",
          "name": "parentAssetId",
          "type": "uint64"
        }
      ],
      "name": "getEquippableSlotsFromParent",
      "outputs": [
        {
          "internalType": "uint256",
          "name": "childIndex",
          "type": "uint256"
        },
        {
          "components": [
            {
              "internalType": "uint64",
              "name": "slotPartId",
              "type": "uint64"
            },
            {
              "internalType": "uint64",
              "name": "childAssetId",
              "type": "uint64"
            },
            {
              "internalType": "uint64",
              "name": "parentAssetId",
              "type": "uint64"
            },
            {
              "internalType": "uint64",
              "name": "priority",
              "type": "uint64"
            },
            {
              "internalType": "address",
              "name": "parentCatalogAddress",
              "type": "address"
            },
            {
              "internalType": "bool",
              "name": "isEquipped",
              "type": "bool"
            },
            {
              "internalType": "string",
              "name": "partMetadata",
              "type": "string"
            },
            {
              "internalType": "string",
              "name": "childAssetMetadata",
              "type": "string"
            },
            {
              "internalType": "string",
              "name": "parentAssetMetadata",
              "type": "string"
            }
          ],
          "internalType": "struct RMRKEquipRenderUtils.EquippableData[]",
          "name": "equippableData",
          "type": "tuple[]"
        }
      ],
      "stateMutability": "view",
      "type": "function"
    },
    {
      "inputs": [
        {
          "internalType": "address",
          "name": "targetChild",
          "type": "address"
        },
        {
          "internalType": "uint256",
          "name": "childId",
          "type": "uint256"
        },
        {
          "internalType": "uint64",
          "name": "parentAssetId",
          "type": "uint64"
        }
      ],
      "name": "getEquippableSlotsFromParentForPendingChild",
      "outputs": [
        {
          "internalType": "uint256",
          "name": "childIndex",
          "type": "uint256"
        },
        {
          "components": [
            {
              "internalType": "uint64",
              "name": "slotPartId",
              "type": "uint64"
            },
            {
              "internalType": "uint64",
              "name": "childAssetId",
              "type": "uint64"
            },
            {
              "internalType": "uint64",
              "name": "parentAssetId",
              "type": "uint64"
            },
            {
              "internalType": "uint64",
              "name": "priority",
              "type": "uint64"
            },
            {
              "internalType": "address",
              "name": "parentCatalogAddress",
              "type": "address"
            },
            {
              "internalType": "bool",
              "name": "isEquipped",
              "type": "bool"
            },
            {
              "internalType": "string",
              "name": "partMetadata",
              "type": "string"
            },
            {
              "internalType": "string",
              "name": "childAssetMetadata",
              "type": "string"
            },
            {
              "internalType": "string",
              "name": "parentAssetMetadata",
              "type": "string"
            }
          ],
          "internalType": "struct RMRKEquipRenderUtils.EquippableData[]",
          "name": "equippableData",
          "type": "tuple[]"
        }
      ],
      "stateMutability": "view",
      "type": "function"
    },
    {
      "inputs": [
        {
          "internalType": "address",
          "name": "target",
          "type": "address"
        },
        {
          "internalType": "uint64",
          "name": "tokenId",
          "type": "uint64"
        },
        {
          "internalType": "uint64",
          "name": "assetId",
          "type": "uint64"
        }
      ],
      "name": "getEquipped",
      "outputs": [
        {
          "internalType": "uint64[]",
          "name": "slotPartIds",
          "type": "uint64[]"
        },
        {
          "components": [
            {
              "internalType": "uint64",
              "name": "assetId",
              "type": "uint64"
            },
            {
              "internalType": "uint64",
              "name": "childAssetId",
              "type": "uint64"
            },
            {
              "internalType": "uint256",
              "name": "childId",
              "type": "uint256"
            },
            {
              "internalType": "address",
              "name": "childEquippableAddress",
              "type": "address"
            }
          ],
          "internalType": "struct IERC6220.Equipment[]",
          "name": "childrenEquipped",
          "type": "tuple[]"
        },
        {
          "internalType": "string[]",
          "name": "childrenAssetMetadata",
          "type": "string[]"
        }
      ],
      "stateMutability": "view",
      "type": "function"
    },
    {
      "inputs": [
        {
          "internalType": "address",
          "name": "target",
          "type": "address"
        },
        {
          "internalType": "uint256",
          "name": "tokenId",
          "type": "uint256"
        }
      ],
      "name": "getExtendedActiveAssets",
      "outputs": [
        {
          "components": [
            {
              "internalType": "uint64",
              "name": "id",
              "type": "uint64"
            },
            {
              "internalType": "uint64",
              "name": "priority",
              "type": "uint64"
            },
            {
              "internalType": "string",
              "name": "metadata",
              "type": "string"
            }
          ],
          "internalType": "struct RMRKMultiAssetRenderUtils.ExtendedActiveAsset[]",
          "name": "",
          "type": "tuple[]"
        }
      ],
      "stateMutability": "view",
      "type": "function"
    },
    {
      "inputs": [
        {
          "internalType": "address",
          "name": "target",
          "type": "address"
        },
        {
          "internalType": "uint256",
          "name": "tokenId",
          "type": "uint256"
        }
      ],
      "name": "getExtendedEquippableActiveAssets",
      "outputs": [
        {
          "components": [
            {
              "internalType": "uint64",
              "name": "id",
              "type": "uint64"
            },
            {
              "internalType": "uint64",
              "name": "equippableGroupId",
              "type": "uint64"
            },
            {
              "internalType": "uint64",
              "name": "priority",
              "type": "uint64"
            },
            {
              "internalType": "address",
              "name": "catalogAddress",
              "type": "address"
            },
            {
              "internalType": "string",
              "name": "metadata",
              "type": "string"
            },
            {
              "internalType": "uint64[]",
              "name": "partIds",
              "type": "uint64[]"
            }
          ],
          "internalType": "struct RMRKEquipRenderUtils.ExtendedEquippableActiveAsset[]",
          "name": "",
          "type": "tuple[]"
        }
      ],
      "stateMutability": "view",
      "type": "function"
    },
    {
      "inputs": [
        {
          "internalType": "uint256",
          "name": "tokenId",
          "type": "uint256"
        },
        {
          "internalType": "address",
          "name": "targetCollection",
          "type": "address"
        }
      ],
      "name": "getExtendedNft",
      "outputs": [
        {
          "components": [
            {
              "internalType": "string",
              "name": "tokenMetadataUri",
              "type": "string"
            },
            {
              "internalType": "address",
              "name": "directOwner",
              "type": "address"
            },
            {
              "internalType": "address",
              "name": "rootOwner",
              "type": "address"
            },
            {
              "internalType": "uint256",
              "name": "activeAssetCount",
              "type": "uint256"
            },
            {
              "internalType": "uint256",
              "name": "pendingAssetCount",
              "type": "uint256"
            },
            {
              "internalType": "uint64[]",
              "name": "priorities",
              "type": "uint64[]"
            },
            {
              "internalType": "uint256",
              "name": "maxSupply",
              "type": "uint256"
            },
            {
              "internalType": "uint256",
              "name": "totalSupply",
              "type": "uint256"
            },
            {
              "internalType": "address",
              "name": "issuer",
              "type": "address"
            },
            {
              "internalType": "string",
              "name": "name",
              "type": "string"
            },
            {
              "internalType": "string",
              "name": "symbol",
              "type": "string"
            },
            {
              "internalType": "uint256",
              "name": "activeChildrenNumber",
              "type": "uint256"
            },
            {
              "internalType": "uint256",
              "name": "pendingChildrenNumber",
              "type": "uint256"
            },
            {
              "internalType": "bool",
              "name": "isSoulbound",
              "type": "bool"
            },
            {
              "internalType": "bool",
              "name": "hasMultiAssetInterface",
              "type": "bool"
            },
            {
              "internalType": "bool",
              "name": "hasNestingInterface",
              "type": "bool"
            },
            {
              "internalType": "bool",
              "name": "hasEquippableInterface",
              "type": "bool"
            }
          ],
          "internalType": "struct RMRKRenderUtils.ExtendedNft",
          "name": "data",
          "type": "tuple"
        }
      ],
      "stateMutability": "view",
      "type": "function"
    },
    {
      "inputs": [
        {
          "internalType": "address",
          "name": "target",
          "type": "address"
        },
        {
          "internalType": "uint256",
          "name": "tokenId",
          "type": "uint256"
        }
      ],
      "name": "getExtendedPendingAssets",
      "outputs": [
        {
          "components": [
            {
              "internalType": "uint64",
              "name": "id",
              "type": "uint64"
            },
            {
              "internalType": "uint64",
              "name": "equippableGroupId",
              "type": "uint64"
            },
            {
              "internalType": "uint128",
              "name": "acceptRejectIndex",
              "type": "uint128"
            },
            {
              "internalType": "uint64",
              "name": "replacesAssetWithId",
              "type": "uint64"
            },
            {
              "internalType": "address",
              "name": "catalogAddress",
              "type": "address"
            },
            {
              "internalType": "string",
              "name": "metadata",
              "type": "string"
            },
            {
              "internalType": "uint64[]",
              "name": "partIds",
              "type": "uint64[]"
            }
          ],
          "internalType": "struct RMRKEquipRenderUtils.ExtendedPendingAsset[]",
          "name": "",
          "type": "tuple[]"
        }
      ],
      "stateMutability": "view",
      "type": "function"
    },
    {
      "inputs": [
        {
          "internalType": "address",
          "name": "childAddress",
          "type": "address"
        },
        {
          "internalType": "uint256",
          "name": "childId",
          "type": "uint256"
        }
      ],
      "name": "getParent",
      "outputs": [
        {
          "internalType": "address",
          "name": "parentAddress",
          "type": "address"
        },
        {
          "internalType": "uint256",
          "name": "parentId",
          "type": "uint256"
        }
      ],
      "stateMutability": "view",
      "type": "function"
    },
    {
      "inputs": [
        {
          "internalType": "address",
          "name": "target",
          "type": "address"
        },
        {
          "internalType": "uint256",
          "name": "tokenId",
          "type": "uint256"
        }
      ],
      "name": "getPendingAssets",
      "outputs": [
        {
          "components": [
            {
              "internalType": "uint64",
              "name": "id",
              "type": "uint64"
            },
            {
              "internalType": "uint128",
              "name": "acceptRejectIndex",
              "type": "uint128"
            },
            {
              "internalType": "uint64",
              "name": "replacesAssetWithId",
              "type": "uint64"
            },
            {
              "internalType": "string",
              "name": "metadata",
              "type": "string"
            }
          ],
          "internalType": "struct RMRKMultiAssetRenderUtils.PendingAsset[]",
          "name": "",
          "type": "tuple[]"
        }
      ],
      "stateMutability": "view",
      "type": "function"
    },
    {
      "inputs": [
        {
          "internalType": "address",
          "name": "parentAddress",
          "type": "address"
        },
        {
          "internalType": "uint256",
          "name": "parentId",
          "type": "uint256"
        },
        {
          "internalType": "address",
          "name": "childAddress",
          "type": "address"
        },
        {
          "internalType": "uint256",
          "name": "childId",
          "type": "uint256"
        }
      ],
      "name": "getPendingChildIndex",
      "outputs": [
        {
          "internalType": "uint256",
          "name": "",
          "type": "uint256"
        }
      ],
      "stateMutability": "view",
      "type": "function"
    },
    {
      "inputs": [
        {
          "internalType": "address",
          "name": "tokenAddress",
          "type": "address"
        },
        {
          "internalType": "uint256",
          "name": "tokenId",
          "type": "uint256"
        },
        {
          "internalType": "uint64",
          "name": "assetId",
          "type": "uint64"
        }
      ],
      "name": "getSlotPartsAndCatalog",
      "outputs": [
        {
          "internalType": "uint64[]",
          "name": "parentSlotPartIds",
          "type": "uint64[]"
        },
        {
          "internalType": "address",
          "name": "catalogAddress",
          "type": "address"
        }
      ],
      "stateMutability": "view",
      "type": "function"
    },
    {
      "inputs": [
        {
          "internalType": "address",
          "name": "target",
          "type": "address"
        },
        {
          "internalType": "uint256",
          "name": "tokenId",
          "type": "uint256"
        }
      ],
      "name": "getTopAsset",
      "outputs": [
        {
          "internalType": "uint64",
          "name": "topAssetId",
          "type": "uint64"
        },
        {
          "internalType": "uint64",
          "name": "topAssetPriority",
          "type": "uint64"
        },
        {
          "internalType": "string",
          "name": "topAssetMetadata",
          "type": "string"
        }
      ],
      "stateMutability": "view",
      "type": "function"
    },
    {
      "inputs": [
        {
          "internalType": "address",
          "name": "target",
          "type": "address"
        },
        {
          "internalType": "uint256",
          "name": "tokenId",
          "type": "uint256"
        }
      ],
      "name": "getTopAssetAndEquippableDataForToken",
      "outputs": [
        {
          "components": [
            {
              "internalType": "uint64",
              "name": "id",
              "type": "uint64"
            },
            {
              "internalType": "uint64",
              "name": "equippableGroupId",
              "type": "uint64"
            },
            {
              "internalType": "uint64",
              "name": "priority",
              "type": "uint64"
            },
            {
              "internalType": "address",
              "name": "catalogAddress",
              "type": "address"
            },
            {
              "internalType": "string",
              "name": "metadata",
              "type": "string"
            },
            {
              "internalType": "uint64[]",
              "name": "partIds",
              "type": "uint64[]"
            }
          ],
          "internalType": "struct RMRKEquipRenderUtils.ExtendedEquippableActiveAsset",
          "name": "topAsset",
          "type": "tuple"
        }
      ],
      "stateMutability": "view",
      "type": "function"
    },
    {
      "inputs": [
        {
          "internalType": "address",
          "name": "target",
          "type": "address"
        },
        {
          "internalType": "uint256",
          "name": "tokenId",
          "type": "uint256"
        }
      ],
      "name": "getTopAssetMetaForToken",
      "outputs": [
        {
          "internalType": "string",
          "name": "",
          "type": "string"
        }
      ],
      "stateMutability": "view",
      "type": "function"
    },
    {
      "inputs": [
        {
          "internalType": "address",
          "name": "target",
          "type": "address"
        },
        {
          "internalType": "uint256[]",
          "name": "tokenIds",
          "type": "uint256[]"
        }
      ],
      "name": "getTopAssetMetadataForTokens",
      "outputs": [
        {
          "internalType": "string[]",
          "name": "metadata",
          "type": "string[]"
        }
      ],
      "stateMutability": "view",
      "type": "function"
    },
    {
      "inputs": [
        {
          "internalType": "address",
          "name": "collection",
          "type": "address"
        },
        {
          "internalType": "uint256",
          "name": "tokenId",
          "type": "uint256"
        }
      ],
      "name": "getTotalDescendants",
      "outputs": [
        {
          "internalType": "uint256",
          "name": "totalDescendants",
          "type": "uint256"
        },
        {
          "internalType": "bool",
          "name": "hasMoreThanOneLevelOfNesting_",
          "type": "bool"
        }
      ],
      "stateMutability": "view",
      "type": "function"
    },
    {
      "inputs": [
        {
          "internalType": "address",
          "name": "collection",
          "type": "address"
        },
        {
          "internalType": "uint256",
          "name": "tokenId",
          "type": "uint256"
        }
      ],
      "name": "hasMoreThanOneLevelOfNesting",
      "outputs": [
        {
          "internalType": "bool",
          "name": "",
          "type": "bool"
        }
      ],
      "stateMutability": "view",
      "type": "function"
    },
    {
      "inputs": [
        {
          "internalType": "address",
          "name": "parentAddress",
          "type": "address"
        },
        {
          "internalType": "uint256",
          "name": "parentId",
          "type": "uint256"
        },
        {
          "internalType": "address",
          "name": "parentAssetCatalog",
          "type": "address"
        },
        {
          "internalType": "address",
          "name": "childAddress",
          "type": "address"
        },
        {
          "internalType": "uint256",
          "name": "childId",
          "type": "uint256"
        },
        {
          "internalType": "uint64",
          "name": "childAssetId",
          "type": "uint64"
        },
        {
          "internalType": "uint64",
          "name": "slotPartId",
          "type": "uint64"
        }
      ],
      "name": "isAssetEquipped",
      "outputs": [
        {
          "internalType": "bool",
          "name": "isEquipped",
          "type": "bool"
        }
      ],
      "stateMutability": "view",
      "type": "function"
    },
    {
      "inputs": [
        {
          "internalType": "address",
          "name": "collection",
          "type": "address"
        },
        {
          "internalType": "uint256",
          "name": "tokenId",
          "type": "uint256"
        }
      ],
      "name": "isTokenRejectedOrAbandoned",
      "outputs": [
        {
          "internalType": "bool",
          "name": "isRejectedOrAbandoned",
          "type": "bool"
        }
      ],
      "stateMutability": "view",
      "type": "function"
    },
    {
      "inputs": [
        {
          "internalType": "uint64[]",
          "name": "allPartIds",
          "type": "uint64[]"
        },
        {
          "internalType": "address",
          "name": "catalogAddress",
          "type": "address"
        }
      ],
      "name": "splitSlotAndFixedParts",
      "outputs": [
        {
          "internalType": "uint64[]",
          "name": "slotPartIds",
          "type": "uint64[]"
        },
        {
          "internalType": "uint64[]",
          "name": "fixedPartIds",
          "type": "uint64[]"
        }
      ],
      "stateMutability": "view",
      "type": "function"
    },
    {
      "inputs": [
        {
          "internalType": "address",
          "name": "parentAddress",
          "type": "address"
        },
        {
          "internalType": "address",
          "name": "childAddress",
          "type": "address"
        },
        {
          "internalType": "uint256",
          "name": "parentId",
          "type": "uint256"
        },
        {
          "internalType": "uint256",
          "name": "childId",
          "type": "uint256"
        }
      ],
      "name": "validateChildOf",
      "outputs": [
        {
          "internalType": "bool",
          "name": "",
          "type": "bool"
        }
      ],
      "stateMutability": "view",
      "type": "function"
    },
    {
      "inputs": [
        {
          "internalType": "address",
          "name": "parentAddress",
          "type": "address"
        },
        {
          "internalType": "address[]",
          "name": "childAddresses",
          "type": "address[]"
        },
        {
          "internalType": "uint256",
          "name": "parentId",
          "type": "uint256"
        },
        {
          "internalType": "uint256[]",
          "name": "childIds",
          "type": "uint256[]"
        }
      ],
      "name": "validateChildrenOf",
      "outputs": [
        {
          "internalType": "bool",
          "name": "",
          "type": "bool"
        },
        {
          "internalType": "bool[]",
          "name": "",
          "type": "bool[]"
        }
      ],
      "stateMutability": "view",
      "type": "function"
    }
  ],
  "bytecode": {
    "object": "0x608060405234801561001057600080fd5b50615cee80620000216000396000f3fe608060405234801561001057600080fd5b50600436106101e55760003560e01c80638533168f1161010f578063b57d646d116100a2578063e5d0faa011610071578063e5d0faa01461055b578063ef7f5e6f1461056e578063ef9a12291461058f578063ff0af397146105a457600080fd5b8063b57d646d14610501578063b6ede92114610522578063d905980f14610535578063e59a94151461054857600080fd5b80639f7b0fc8116100de5780639f7b0fc81461044d578063ac6053f11461047f578063ac8e4e3514610492578063b05f0d44146104b457600080fd5b80638533168f146103d45780638b7d8fd4146103f65780638ce9909514610416578063987d09d11461042957600080fd5b806347f59f21116101875780636f4f1d8f116101565780636f4f1d8f1461035e57806373d36d7d146103815780637cdc2a48146103a1578063815ee826146103c157600080fd5b806347f59f21146102d557806351200ce9146102f557806356937fa71461031657806369b0bb371461033657600080fd5b8063217ff256116101c3578063217ff256146102545780633e6f80c71461027457806341e78cb91461029557806347af4145146102b557600080fd5b80630a9059ec146101ea57806316fbb189146102145780631ae99aeb14610234575b600080fd5b6101fd6101f836600461484c565b6105d7565b60405161020b92919061492b565b60405180910390f35b610227610222366004614970565b610701565b60405161020b91906149ec565b610247610242366004614970565b6109db565b60405161020b9190614a7e565b610267610262366004614970565b610c8f565b60405161020b9190614b3f565b610287610282366004614c11565b610fb3565b60405190815260200161020b565b6102a86102a3366004614c59565b6110c8565b60405161020b9190614d39565b6102c86102c3366004614970565b611201565b60405161020b9190614dc9565b6102e86102e3366004614df1565b6112f2565b60405161020b9190614e98565b610308610303366004614df1565b61148c565b60405161020b929190614eab565b610329610324366004614fb2565b6114c8565b60405161020b9190614fe2565b610349610344366004614970565b611dd2565b6040805192835290151560208301520161020b565b61037161036c366004614970565b611ec9565b604051901515815260200161020b565b61039461038f366004614970565b611f00565b60405161020b9190615149565b6103b46103af366004614970565b611f8e565b60405161020b919061515c565b6103716103cf366004614970565b612255565b6103e76103e2366004614970565b6123ad565b60405161020b939291906151be565b610409610404366004614970565b612446565b60405161020b91906151ea565b610371610424366004615264565b612609565b61043c610437366004614df1565b6126e6565b60405161020b9594939291906153a5565b61046061045b366004614970565b61296a565b604080516001600160a01b03909316835260208301919091520161020b565b61030861048d36600461547b565b612a0b565b6104a56104a03660046154b2565b612ce8565b60405161020b939291906154f2565b6104c76104c2366004614970565b613005565b604080516001600160a01b03909616865260208601949094529115159284019290925290151560608301521515608082015260a00161020b565b61051461050f36600461552b565b61328a565b60405161020b9291906155d6565b610308610530366004614df1565b61356b565b610287610543366004614c11565b613588565b6102a86105563660046155fb565b61367b565b61037161056936600461564a565b613721565b61058161057c366004614df1565b613842565b60405161020b929190615690565b6105a261059d366004614c11565b61390c565b005b6105b76105b2366004614970565b61395f565b604080516001600160401b0393841681529290911660208301520161020b565b6000606082518551146105fd57604051630d2d5a0960e01b815260040160405180910390fd5b600080600087516001600160401b0381111561061b5761061b61472e565b604051908082528060200260200182016040528015610644578160200160208202803683370190505b509050600160005b89518110156106f2576106938b8b838151811061066b5761066b6156ba565b60200260200101518b8b8581518110610686576106866156ba565b6020026020010151613721565b8382815181106106a5576106a56156ba565b911515602092830291909101909101528180156106d957508281815181106106cf576106cf6156ba565b6020026020010151155b156106e357600091505b6000945084935060010161064c565b50999098509650505050505050565b6040516328a9972d60e11b81526004810182905260609083906000906001600160a01b038316906351532e5a90602401600060405180830381865afa15801561074e573d6000803e3d6000fd5b505050506040513d6000823e601f3d908101601f191682016040526107769190810190615734565b80519091508061079957604051633456866f60e01b815260040160405180910390fd5b6000816001600160401b038111156107b3576107b361472e565b60405190808252806020026020018201604052801561080457816020015b60408051608081018252600080825260208083018290529282015260608082015282526000199092019101816107d15790505b50905060606000805b848110156109cb57866001600160a01b0316635e2e32928a888481518110610837576108376156ba565b60200260200101516040518363ffffffff1660e01b815260040161086e9291909182526001600160401b0316602082015260400190565b600060405180830381865afa15801561088b573d6000803e3d6000fd5b505050506040513d6000823e601f3d908101601f191682016040526108b391908101906157cb565b9250866001600160a01b031663df6f556b8a8884815181106108d7576108d76156ba565b60200260200101516040518363ffffffff1660e01b815260040161090e9291909182526001600160401b0316602082015260400190565b602060405180830381865afa15801561092b573d6000803e3d6000fd5b505050506040513d601f19601f8201168201806040525081019061094f91906157ff565b9150604051806080016040528087838151811061096e5761096e6156ba565b60200260200101516001600160401b03168152602001826001600160801b03168152602001836001600160401b03168152602001848152508482815181106109b8576109b86156ba565b602090810291909101015260010161080d565b5091955050505050505b92915050565b604051633940140f60e11b81526004810182905260609083906000906001600160a01b03831690637280281e90602401600060405180830381865afa158015610a28573d6000803e3d6000fd5b505050506040513d6000823e601f3d908101601f19168201604052610a509190810190615734565b604051632f4a1aa560e11b8152600481018690529091506000906001600160a01b03841690635e94354a90602401600060405180830381865afa158015610a9b573d6000803e3d6000fd5b505050506040513d6000823e601f3d908101601f19168201604052610ac39190810190615734565b825190915080610ae657604051633456866f60e01b815260040160405180910390fd5b6000816001600160401b03811115610b0057610b0061472e565b604051908082528060200260200182016040528015610b4d57816020015b60408051606080820183526000808352602083015291810191909152815260200190600190039081610b1e5790505b509050606060005b83811015610c8157866001600160a01b0316635e2e32928a888481518110610b7f57610b7f6156ba565b60200260200101516040518363ffffffff1660e01b8152600401610bb69291909182526001600160401b0316602082015260400190565b600060405180830381865afa158015610bd3573d6000803e3d6000fd5b505050506040513d6000823e601f3d908101601f19168201604052610bfb91908101906157cb565b91506040518060600160405280878381518110610c1a57610c1a6156ba565b60200260200101516001600160401b03168152602001868381518110610c4257610c426156ba565b60200260200101516001600160401b0316815260200183815250838281518110610c6e57610c6e6156ba565b6020908102919091010152600101610b55565b509098975050505050505050565b6040516328a9972d60e11b81526004810182905260609083906000906001600160a01b038316906351532e5a90602401600060405180830381865afa158015610cdc573d6000803e3d6000fd5b505050506040513d6000823e601f3d908101601f19168201604052610d049190810190615734565b805190915080610d2757604051633456866f60e01b815260040160405180910390fd5b6000816001600160401b03811115610d4157610d4161472e565b604051908082528060200260200182016040528015610daa57816020015b6040805160e081018252600080825260208083018290529282018190526060808301829052608083019190915260a0820181905260c08201528252600019909201910181610d5f5790505b5090506000805b83811015610fa657600080600080896001600160a01b0316634e60edba8d8b8881518110610de157610de16156ba565b60200260200101516040518363ffffffff1660e01b8152600401610e189291909182526001600160401b0316602082015260400190565b600060405180830381865afa158015610e35573d6000803e3d6000fd5b505050506040513d6000823e601f3d908101601f19168201604052610e5d919081019061581c565b9350935093509350896001600160a01b031663df6f556b8d8b8881518110610e8757610e876156ba565b60200260200101516040518363ffffffff1660e01b8152600401610ebe9291909182526001600160401b0316602082015260400190565b602060405180830381865afa158015610edb573d6000803e3d6000fd5b505050506040513d601f19601f82011682018060405250810190610eff91906157ff565b95506040518060e001604052808a8781518110610f1e57610f1e6156ba565b60200260200101516001600160401b03168152602001846001600160401b03168152602001866001600160801b03168152602001876001600160401b03168152602001836001600160a01b0316815260200185815260200182815250878681518110610f8c57610f8c6156ba565b602002602001018190525084600101945050505050610db1565b5090979650505050505050565b60405163113b24d160e21b81526004810184905260009081906001600160a01b038716906344ec934490602401600060405180830381865afa158015610ffd573d6000803e3d6000fd5b505050506040513d6000823e601f3d908101601f19168201604052611025919081019061589a565b805190915060005b818110156110a65784838281518110611048576110486156ba565b60200260200101516000015114801561108f5750856001600160a01b0316838281518110611078576110786156ba565b6020026020010151602001516001600160a01b0316145b1561109e5792506110c0915050565b60010161102d565b50604051639746ef3f60e01b815260040160405180910390fd5b949350505050565b606084826000816001600160401b038111156110e6576110e661472e565b60405190808252806020026020018201604052801561111957816020015b60608152602001906001900390816111045790505b50905060005b828110156111f557836001600160a01b0316635e2e329289898985818110611149576111496156ba565b905060200201602081019061115e919061594e565b6040516001600160e01b031960e085901b16815260048101929092526001600160401b03166024820152604401600060405180830381865afa1580156111a8573d6000803e3d6000fd5b505050506040513d6000823e601f3d908101601f191682016040526111d091908101906157cb565b8282815181106111e2576111e26156ba565b602090810291909101015260010161111f565b50979650505050505050565b61120961465e565b600080611216858561395f565b60405163273076dd60e11b8152600481018790526001600160401b038316602482015291935091506000908190819081906001600160a01b038a1690634e60edba90604401600060405180830381865afa158015611278573d6000803e3d6000fd5b505050506040513d6000823e601f3d908101601f191682016040526112a0919081019061581c565b6040805160c0810182526001600160401b039b8c168152938b16602085015298909916978201979097526001600160a01b03909616606087015260808601525050505060a08101919091529392505050565b6060600080611302868686613842565b9092509050856000806113188389898789613afb565b865191935091506000826001600160401b038111156113395761133961472e565b60405190808252806020026020018201604052801561138b57816020015b6040805160808101825260008082526020808301829052928201819052606082015282526000199092019101816113575790505b50975060005b8281101561147d578481815181106113ab576113ab6156ba565b6020026020010151608001516000146114755760405180608001604052808b6001600160401b031681526020018683815181106113ea576113ea6156ba565b6020026020010151602001516001600160401b03168152602001868381518110611416576114166156ba565b6020026020010151608001518152602001868381518110611439576114396156ba565b6020026020010151606001516001600160a01b0316815250898381518110611463576114636156ba565b60200260200101819052508160010191505b600101611391565b50505050505050509392505050565b6000606060008061149d878761296a565b915091506114ad82828989610fb3565b93506114bc8787848489613f54565b92505050935093915050565b6115726040518061022001604052806060815260200160006001600160a01b0316815260200160006001600160a01b03168152602001600081526020016000815260200160608152602001600081526020016000815260200160006001600160a01b03168152602001606081526020016060815260200160008152602001600081526020016000151581526020016000151581526020016000151581526020016000151581525090565b6040516301ffc9a760e01b8152829081906001600160a01b038216906301ffc9a7906115a99063035a194d60e11b9060040161596b565b602060405180830381865afa1580156115c6573d6000803e3d6000fd5b505050506040513d601f19601f820116820180604052508101906115ea9190615980565b15156101c08401526040516301ffc9a760e01b81526001600160a01b038316906301ffc9a790611625906342b0e56f60e01b9060040161596b565b602060405180830381865afa158015611642573d6000803e3d6000fd5b505050506040513d601f19601f820116820180604052508101906116669190615980565b15156101e08401526040516301ffc9a760e01b81526001600160a01b038316906301ffc9a7906116a190630a2f26b960e21b9060040161596b565b602060405180830381865afa1580156116be573d6000803e3d6000fd5b505050506040513d601f19601f820116820180604052508101906116e29190615980565b15156102008401526101e08301511561185257604051637d92fdbd60e11b8152600481018690526001600160a01b0383169063fb25fb7a90602401606060405180830381865afa15801561173a573d6000803e3d6000fd5b505050506040513d601f19601f8201168201806040525081019061175e919061599d565b50506001600160a01b039081166020850152604051631bc6654760e21b81526004810187905290831690636f19951c90602401600060405180830381865afa1580156117ae573d6000803e3d6000fd5b505050506040513d6000823e601f3d908101601f191682016040526117d6919081019061589a565b5161016084015260405163113b24d160e21b8152600481018690526001600160a01b038316906344ec934490602401600060405180830381865afa158015611822573d6000803e3d6000fd5b505050506040513d6000823e601f3d908101601f1916820160405261184a919081019061589a565b516101808401525b826101c00151156119b657604051633940140f60e11b8152600481018690526001600160a01b03831690637280281e90602401600060405180830381865afa1580156118a2573d6000803e3d6000fd5b505050506040513d6000823e601f3d908101601f191682016040526118ca9190810190615734565b5160608401526040516328a9972d60e11b8152600481018690526001600160a01b038316906351532e5a90602401600060405180830381865afa158015611915573d6000803e3d6000fd5b505050506040513d6000823e601f3d908101601f1916820160405261193d9190810190615734565b516080840152604051632f4a1aa560e11b8152600481018690526001600160a01b03831690635e94354a90602401600060405180830381865afa158015611988573d6000803e3d6000fd5b505050506040513d6000823e601f3d908101601f191682016040526119b09190810190615734565b60a08401525b6040516331a9108f60e11b8152600481018690526001600160a01b03831690636352211e90602401602060405180830381865afa1580156119fb573d6000803e3d6000fd5b505050506040513d601f19601f82011682018060405250810190611a1f91906159d5565b6001600160a01b039081166040850152602084015116611a4d5760408301516001600160a01b031660208401525b6040516301ffc9a760e01b81526001600160a01b038316906301ffc9a790611a80906391a6262f60e01b9060040161596b565b602060405180830381865afa158015611a9d573d6000803e3d6000fd5b505050506040513d601f19601f82011682018060405250810190611ac19190615980565b15611b4d5760408381015190516391a6262f60e01b8152600481018790526001600160a01b03918216602482015261dead6044820152908516906391a6262f90606401602060405180830381865afa158015611b21573d6000803e3d6000fd5b505050506040513d601f19601f82011682018060405250810190611b459190615980565b156101a08401525b806001600160a01b03166306fdde036040518163ffffffff1660e01b8152600401600060405180830381865afa925050508015611bac57506040513d6000823e601f3d908101601f19168201604052611ba991908101906157cb565b60015b15611bb8576101208401525b806001600160a01b03166395d89b416040518163ffffffff1660e01b8152600401600060405180830381865afa925050508015611c1757506040513d6000823e601f3d908101601f19168201604052611c1491908101906157cb565b60015b15611c23576101408401525b60405163c87b56dd60e01b8152600481018690526001600160a01b0385169063c87b56dd90602401600060405180830381865afa925050508015611c8957506040513d6000823e601f3d908101601f19168201604052611c8691908101906157cb565b60015b15611c915783525b806001600160a01b03166318160ddd6040518163ffffffff1660e01b8152600401602060405180830381865afa925050508015611ceb575060408051601f3d908101601f19168201909252611ce8918101906159f2565b60015b15611cf65760e08401525b806001600160a01b031663d5abeb016040518163ffffffff1660e01b8152600401602060405180830381865afa925050508015611d50575060408051601f3d908101601f19168201909252611d4d918101906159f2565b60015b15611d5b5760c08401525b836001600160a01b0316638da5cb5b6040518163ffffffff1660e01b8152600401602060405180830381865afa925050508015611db5575060408051601f3d908101601f19168201909252611db2918101906159d5565b60015b15611dca576001600160a01b03166101008401525b505092915050565b6000806000846001600160a01b0316636f19951c856040518263ffffffff1660e01b8152600401611e0591815260200190565b600060405180830381865afa158015611e22573d6000803e3d6000fd5b505050506040513d6000823e601f3d908101601f19168201604052611e4a919081019061589a565b8051935090508260005b81811015611eba576000611ea2848381518110611e7357611e736156ba565b602002602001015160200151858481518110611e9157611e916156ba565b602002602001015160000151611dd2565b509050611eaf8187615a21565b955050600101611e54565b50808411925050509250929050565b600080600080611ed98686613005565b9450945094505050828015611eec575081155b8015611ef6575080155b9695505050505050565b60606000611f0e848461395f565b50604051632f17194960e11b8152600481018590526001600160401b03821660248201529091506001600160a01b03851690635e2e329290604401600060405180830381865afa158015611f66573d6000803e3d6000fd5b505050506040513d6000823e601f3d908101601f191682016040526110c091908101906157cb565b604051633940140f60e11b81526004810182905260609083906000906001600160a01b03831690637280281e90602401600060405180830381865afa158015611fdb573d6000803e3d6000fd5b505050506040513d6000823e601f3d908101601f191682016040526120039190810190615734565b604051632f4a1aa560e11b8152600481018690529091506000906001600160a01b03841690635e94354a90602401600060405180830381865afa15801561204e573d6000803e3d6000fd5b505050506040513d6000823e601f3d908101601f191682016040526120769190810190615734565b82519091508061209957604051633456866f60e01b815260040160405180910390fd5b6000816001600160401b038111156120b3576120b361472e565b6040519080825280602002602001820160405280156120ec57816020015b6120d961465e565b8152602001906001900390816120d15790505b50905060005b828110156111f557600080600080896001600160a01b0316634e60edba8d8b8881518110612122576121226156ba565b60200260200101516040518363ffffffff1660e01b81526004016121599291909182526001600160401b0316602082015260400190565b600060405180830381865afa158015612176573d6000803e3d6000fd5b505050506040513d6000823e601f3d908101601f1916820160405261219e919081019061581c565b93509350935093506040518060c001604052808a87815181106121c3576121c36156ba565b60200260200101516001600160401b03168152602001846001600160401b031681526020018987815181106121fa576121fa6156ba565b60200260200101516001600160401b03168152602001836001600160a01b031681526020018581526020018281525086868151811061223b5761223b6156ba565b6020026020010181905250846001019450505050506120f2565b604051631bc6654760e21b81526004810182905260009081906001600160a01b03851690636f19951c90602401600060405180830381865afa15801561229f573d6000803e3d6000fd5b505050506040513d6000823e601f3d908101601f191682016040526122c7919081019061589a565b805190915060005b818110156123a15760008382815181106122eb576122eb6156ba565b6020026020010151602001516001600160a01b0316636f19951c858481518110612317576123176156ba565b6020026020010151600001516040518263ffffffff1660e01b815260040161234191815260200190565b600060405180830381865afa15801561235e573d6000803e3d6000fd5b505050506040513d6000823e601f3d908101601f19168201604052612386919081019061589a565b51111561239957600193505050506109d5565b6001016122cf565b50600095945050505050565b60008060606123bc858561395f565b604051632f17194960e11b8152600481018790526001600160401b038316602482015291945092506001600160a01b03861690635e2e329290604401600060405180830381865afa158015612415573d6000803e3d6000fd5b505050506040513d6000823e601f3d908101601f1916820160405261243d91908101906157cb565b90509250925092565b604051631bc6654760e21b8152600481018290526060906000906001600160a01b03851690636f19951c90602401600060405180830381865afa158015612491573d6000803e3d6000fd5b505050506040513d6000823e601f3d908101601f191682016040526124b9919081019061589a565b80519091506000816001600160401b038111156124d8576124d861472e565b60405190808252806020026020018201604052801561252557816020015b604080516060808201835260008083526020830152918101919091528152602001906001900390816124f65790505b50905060005b828110156125ff57600061257985838151811061254a5761254a6156ba565b602002602001015160200151868481518110612568576125686156ba565b602002602001015160000151611f00565b90506040518060600160405280868481518110612598576125986156ba565b6020026020010151602001516001600160a01b031681526020018684815181106125c4576125c46156ba565b6020026020010151600001518152602001828152508383815181106125eb576125eb6156ba565b60209081029190910101525060010161252b565b5095945050505050565b604051633a83f15760e11b8152600481018790526001600160a01b0386811660248301526001600160401b038316604483015260009182918a1690637507e2ae90606401608060405180830381865afa15801561266a573d6000803e3d6000fd5b505050506040513d601f19601f8201168201806040525081019061268e9190615a34565b9050856001600160a01b031681606001516001600160a01b03161480156126b85750848160400151145b80156126d95750836001600160401b031681602001516001600160401b0316145b9998505050505050505050565b60405163273076dd60e11b8152600481018390526001600160401b0382166024820152606090600090819083908190889082906001600160a01b03831690634e60edba90604401600060405180830381865afa15801561274a573d6000803e3d6000fd5b505050506040513d6000823e601f3d908101601f19168201604052612772919081019061581c565b929950909750955090506001600160a01b0385166127a357604051630f40c4af60e31b815260040160405180910390fd5b6000806127b0838861328a565b9150915080516001600160401b038111156127cd576127cd61472e565b60405190808252806020026020018201604052801561281a57816020015b604080516060808201835260008083526020830152918101919091528152602001906001900390816127eb5790505b508151909650801561294957604051632601b1bb60e21b81526000906001600160a01b038a1690639806c6ec90612855908690600401615a92565b600060405180830381865afa158015612872573d6000803e3d6000fd5b505050506040513d6000823e601f3d908101601f1916820160405261289a9190810190615ba7565b905060005b828110156129465760405180606001604052808583815181106128c4576128c46156ba565b60200260200101516001600160401b031681526020018383815181106128ec576128ec6156ba565b60200260200101516020015160ff168152602001838381518110612912576129126156ba565b602002602001015160600151815250898281518110612933576129336156ba565b602090810291909101015260010161289f565b50505b612956858d8d8b87613afb565b50999d989c50969a50949850505050505050565b6000806000846001600160a01b031663fb25fb7a856040518263ffffffff1660e01b815260040161299d91815260200190565b606060405180830381865afa1580156129ba573d6000803e3d6000fd5b505050506040513d601f19601f820116820180604052508101906129de919061599d565b9194509250905080612a0357604051630daea74560e11b815260040160405180910390fd5b509250929050565b60006060600080612a1c878761296a565b604051633940140f60e11b81526004810182905291935091506000906001600160a01b03841690637280281e90602401600060405180830381865afa158015612a69573d6000803e3d6000fd5b505050506040513d6000823e601f3d908101601f19168201604052612a919190810190615734565b8051604051633940140f60e11b8152600481018a9052919250906000906001600160a01b038b1690637280281e90602401600060405180830381865afa158015612adf573d6000803e3d6000fd5b505050506040513d6000823e601f3d908101601f19168201604052612b079190810190615734565b519050600080612b178385615c57565b6001600160401b03811115612b2e57612b2e61472e565b604051908082528060200260200182016040528015612b6757816020015b612b546146b8565b815260200190600190039081612b4c5790505b509050606060005b85811015612c2a57612b9e8e8e8b8b8b600081518110612b9157612b916156ba565b6020026020010151613f54565b805190925060005b81811015612c20578d1580612bd55750838181518110612bc857612bc86156ba565b602002602001015160a001515b15612c1857838181518110612bec57612bec6156ba565b6020026020010151858781518110612c0657612c066156ba565b60200260200101819052508560010195505b600101612ba6565b5050600101612b6f565b50826001600160401b03811115612c4357612c4361472e565b604051908082528060200260200182016040528015612c7c57816020015b612c696146b8565b815260200190600190039081612c615790505b50985060005b83811015612cc957828181518110612c9c57612c9c6156ba565b60200260200101518a8281518110612cb657612cb66156ba565b6020908102919091010152600101612c82565b50612cd688888f8f613588565b99505050505050505050935093915050565b60405163273076dd60e11b81526001600160401b0380841660048301528216602482015260609081908190869060009081906001600160a01b03841690634e60edba90604401600060405180830381865afa158015612d4b573d6000803e3d6000fd5b505050506040513d6000823e601f3d908101601f19168201604052612d73919081019061581c565b935093505050612d83818361328a565b508051909650806001600160401b03811115612da157612da161472e565b604051908082528060200260200182016040528015612df357816020015b604080516080810182526000808252602080830182905292820181905260608201528252600019909201910181612dbf5790505b509550806001600160401b03811115612e0e57612e0e61472e565b604051908082528060200260200182016040528015612e4157816020015b6060815260200190600190039081612e2c5790505b50945060005b81811015612ff7576000856001600160a01b0316637507e2ae8c878c8681518110612e7457612e746156ba565b60200260200101516040518463ffffffff1660e01b8152600401612ec1939291906001600160401b0393841681526001600160a01b03929092166020830152909116604082015260600190565b608060405180830381865afa158015612ede573d6000803e3d6000fd5b505050506040513d601f19601f82011682018060405250810190612f029190615a34565b9050896001600160401b031681600001516001600160401b031603612fee5780888381518110612f3457612f346156ba565b602002602001018190525080606001516001600160a01b0316635e2e3292826040015183602001516040518363ffffffff1660e01b8152600401612f8b9291909182526001600160401b0316602082015260400190565b600060405180830381865afa158015612fa8573d6000803e3d6000fd5b505050506040513d6000823e601f3d908101601f19168201604052612fd091908101906157cb565b878381518110612fe257612fe26156ba565b60200260200101819052505b50600101612e47565b505050505093509350939050565b6000806000806000866001600160a01b031663fb25fb7a876040518263ffffffff1660e01b815260040161303b91815260200190565b606060405180830381865afa158015613058573d6000803e3d6000fd5b505050506040513d601f19601f8201168201806040525081019061307c919061599d565b919650945092508261309357506000905080613280565b604051631bc6654760e21b8152600481018590526000906001600160a01b03871690636f19951c90602401600060405180830381865afa1580156130db573d6000803e3d6000fd5b505050506040513d6000823e601f3d908101601f19168201604052613103919081019061589a565b60405163113b24d160e21b8152600481018790529091506000906001600160a01b038816906344ec934490602401600060405180830381865afa15801561314e573d6000803e3d6000fd5b505050506040513d6000823e601f3d908101601f19168201604052613176919081019061589a565b825190915060005b818110156131f65789848281518110613199576131996156ba565b6020026020010151600001511480156131e057508a6001600160a01b03168482815181106131c9576131c96156ba565b6020026020010151602001516001600160a01b0316145b156131ee57600195506131f6565b60010161317e565b508461327c5750805160005b8181101561327a578983828151811061321d5761321d6156ba565b60200260200101516000015114801561326457508a6001600160a01b031683828151811061324d5761324d6156ba565b6020026020010151602001516001600160a01b0316145b15613272576001945061327a565b600101613202565b505b5050505b9295509295909350565b6060806000836001600160a01b0316639806c6ec866040518263ffffffff1660e01b81526004016132bb9190615a92565b600060405180830381865afa1580156132d8573d6000803e3d6000fd5b505050506040513d6000823e601f3d908101601f191682016040526133009190810190615ba7565b905060008060008751905060005b818110156133aa57600285828151811061332a5761332a6156ba565b602002602001015160000151600281111561334757613347615c6e565b0361335e57613357600185615a21565b93506133a2565b6001858281518110613372576133726156ba565b602002602001015160000151600281111561338f5761338f615c6e565b036133a25761339f600184615a21565b92505b60010161330e565b50816001600160401b038111156133c3576133c361472e565b6040519080825280602002602001820160405280156133ec578160200160208202803683370190505b509550826001600160401b038111156134075761340761472e565b604051908082528060200260200182016040528015613430578160200160208202803683370190505b50945060008060005b8381101561355d576002878281518110613455576134556156ba565b602002602001015160000151600281111561347257613472615c6e565b036134cd578a8181518110613489576134896156ba565b60200260200101518883815181106134a3576134a36156ba565b6001600160401b03909216602092830291909101909101526134c6600183615a21565b9150613555565b60018782815181106134e1576134e16156ba565b60200260200101516000015160028111156134fe576134fe615c6e565b03613555578a8181518110613515576135156156ba565b602002602001015189848151811061352f5761352f6156ba565b6001600160401b0390921660209283029190910190910152613552600184615a21565b92505b600101613439565b505050505050509250929050565b6000606060008061357c878761296a565b915091506114ad828289895b604051631bc6654760e21b81526004810184905260009081906001600160a01b03871690636f19951c90602401600060405180830381865afa1580156135d2573d6000803e3d6000fd5b505050506040513d6000823e601f3d908101601f191682016040526135fa919081019061589a565b805190915060005b818110156110a6578483828151811061361d5761361d6156ba565b6020026020010151600001511480156136645750856001600160a01b031683828151811061364d5761364d6156ba565b6020026020010151602001516001600160a01b0316145b156136735792506110c0915050565b600101613602565b8051606090806001600160401b038111156136985761369861472e565b6040519080825280602002602001820160405280156136cb57816020015b60608152602001906001900390816136b65790505b50915060005b81811015611dca576136fc858583815181106136ef576136ef6156ba565b6020026020010151611f00565b83828151811061370e5761370e6156ba565b60209081029190910101526001016136d1565b6040516301ffc9a760e01b81526000906001600160a01b038516906301ffc9a790613757906342b0e56f60e01b9060040161596b565b602060405180830381865afa158015613774573d6000803e3d6000fd5b505050506040513d601f19601f820116820180604052508101906137989190615980565b6137a4575060006110c0565b604051637d92fdbd60e11b81526004810183905260009081906001600160a01b0387169063fb25fb7a90602401606060405180830381865afa1580156137ee573d6000803e3d6000fd5b505050506040513d601f19601f82011682018060405250810190613812919061599d565b5091509150866001600160a01b0316826001600160a01b031614801561383757508481145b979650505050505050565b60405163273076dd60e11b8152600481018390526001600160401b038216602482015260609060009082906001600160a01b03871690634e60edba90604401600060405180830381865afa15801561389e573d6000803e3d6000fd5b505050506040513d6000823e601f3d908101601f191682016040526138c6919081019061581c565b9094509250506001600160a01b03831690506138f557604051630f40c4af60e31b815260040160405180910390fd5b6138ff818361328a565b5096919550909350505050565b600080613919868661296a565b90925090506001600160a01b038083169085161415806139395750808314155b1561395757604051631eb88d2d60e31b815260040160405180910390fd5b505050505050565b604051632f4a1aa560e11b8152600481018290526000908190849082906001600160a01b03831690635e94354a90602401600060405180830381865afa1580156139ad573d6000803e3d6000fd5b505050506040513d6000823e601f3d908101601f191682016040526139d59190810190615734565b604051633940140f60e11b8152600481018790529091506000906001600160a01b03841690637280281e90602401600060405180830381865afa158015613a20573d6000803e3d6000fd5b505050506040513d6000823e601f3d908101601f19168201604052613a489190810190615734565b825190915080613a6b57604051633456866f60e01b815260040160405180910390fd5b6001600160401b036000805b83816001600160401b031610156106f257600086826001600160401b031681518110613aa557613aa56156ba565b60200260200101519050836001600160401b0316816001600160401b03161015613af25780935085826001600160401b031681518110613ae757613ae76156ba565b602002602001015192505b50600101613a77565b6060600082516001600160401b03811115613b1857613b1861472e565b604051908082528060200260200182016040528015613ba757816020015b613b946040518060e0016040528060006001600160401b0316815260200160006001600160401b03168152602001600060ff16815260200160006001600160a01b031681526020016000815260200160608152602001606081525090565b815260200190600190039081613b365790505b5083519092508015613f495760606000866001600160a01b0316639806c6ec876040518263ffffffff1660e01b8152600401613be39190615a92565b600060405180830381865afa158015613c00573d6000803e3d6000fd5b505050506040513d6000823e601f3d908101601f19168201604052613c289190810190615ba7565b905060005b83811015613f455760008b6001600160a01b0316637507e2ae8c8b8b8681518110613c5a57613c5a6156ba565b60200260200101516040518463ffffffff1660e01b8152600401613ca3939291909283526001600160a01b039190911660208301526001600160401b0316604082015260600190565b608060405180830381865afa158015613cc0573d6000803e3d6000fd5b505050506040513d601f19601f82011682018060405250810190613ce49190615a34565b9050896001600160401b031681600001516001600160401b031603613e6e5780606001516001600160a01b0316635e2e3292826040015183602001516040518363ffffffff1660e01b8152600401613d4f9291909182526001600160401b0316602082015260400190565b600060405180830381865afa158015613d6c573d6000803e3d6000fd5b505050506040513d6000823e601f3d908101601f19168201604052613d9491908101906157cb565b93506040518060e00160405280898481518110613db357613db36156ba565b60200260200101516001600160401b0316815260200182602001516001600160401b03168152602001848481518110613dee57613dee6156ba565b60200260200101516020015160ff16815260200182606001516001600160a01b0316815260200182604001518152602001858152602001848481518110613e3757613e376156ba565b602002602001015160600151815250878381518110613e5857613e586156ba565b6020026020010181905250856001019550613f3c565b878281518110613e8057613e806156ba565b6020026020010151878381518110613e9a57613e9a6156ba565b60209081029190910101516001600160401b0390911690528251839083908110613ec657613ec66156ba565b602002602001015160200151878381518110613ee457613ee46156ba565b60200260200101516040019060ff16908160ff1681525050828281518110613f0e57613f0e6156ba565b602002602001015160600151878381518110613f2c57613f2c6156ba565b602002602001015160c001819052505b50600101613c2d565b5050505b509550959350505050565b6060600080613f64868686613842565b91509150600080613f778a8a868b614325565b91509150806001600160401b03811115613f9357613f9361472e565b604051908082528060200260200182016040528015613fcc57816020015b613fb96146b8565b815260200190600190039081613fb15790505b50945060005b8181101561431757828181518110613fec57613fec6156ba565b6020026020010151868281518110614006576140066156ba565b602002602001018190525061405a8989868e8e88878151811061402b5761402b6156ba565b602002602001015160200151898881518110614049576140496156ba565b602002602001015160000151612609565b86828151811061406c5761406c6156ba565b602002602001015160a0019015159081151581525050836001600160a01b031663d297ac438483815181106140a3576140a36156ba565b6020908102919091010151516040516001600160e01b031960e084901b1681526001600160401b039091166004820152602401600060405180830381865afa1580156140f3573d6000803e3d6000fd5b505050506040513d6000823e601f3d908101601f1916820160405261411b9190810190615c84565b60600151868281518110614131576141316156ba565b602002602001015160c0018190525086868281518110614153576141536156ba565b6020026020010151604001906001600160401b031690816001600160401b0316815250508386828151811061418a5761418a6156ba565b6020026020010151608001906001600160a01b031690816001600160a01b0316815250508a6001600160a01b0316635e2e32928b8584815181106141d0576141d06156ba565b6020026020010151602001516040518363ffffffff1660e01b815260040161420b9291909182526001600160401b0316602082015260400190565b600060405180830381865afa158015614228573d6000803e3d6000fd5b505050506040513d6000823e601f3d908101601f1916820160405261425091908101906157cb565b868281518110614262576142626156ba565b602090810291909101015160e00152604051632f17194960e11b8152600481018990526001600160401b03881660248201526001600160a01b038a1690635e2e329290604401600060405180830381865afa1580156142c5573d6000803e3d6000fd5b505050506040513d6000823e601f3d908101601f191682016040526142ed91908101906157cb565b8682815181106142ff576142ff6156ba565b60209081029190910101516101000152600101613fd2565b505050505095945050505050565b6060600080866001600160a01b0316637280281e876040518263ffffffff1660e01b815260040161435891815260200190565b600060405180830381865afa158015614375573d6000803e3d6000fd5b505050506040513d6000823e601f3d908101601f1916820160405261439d9190810190615734565b604051632f4a1aa560e11b8152600481018890529091506000906001600160a01b03891690635e94354a90602401600060405180830381865afa1580156143e8573d6000803e3d6000fd5b505050506040513d6000823e601f3d908101601f191682016040526144109190810190615734565b8251909150806001600160401b0381111561442d5761442d61472e565b60405190808252806020026020018201604052801561446657816020015b6144536146b8565b81526020019060019003908161444b5790505b50945060005b818110156146515760005b8851811015614648578a6001600160a01b031663074334fb898c8886815181106144a3576144a36156ba565b60200260200101518d86815181106144bd576144bd6156ba565b60209081029190910101516040516001600160e01b031960e087901b1681526001600160a01b03909416600485015260248401929092526001600160401b039081166044840152166064820152608401602060405180830381865afa15801561452a573d6000803e3d6000fd5b505050506040513d601f19601f8201168201806040525081019061454e9190615980565b1561464057848281518110614565576145656156ba565b602002602001015187878151811061457f5761457f6156ba565b6020026020010151602001906001600160401b031690816001600160401b0316815250508881815181106145b5576145b56156ba565b60200260200101518787815181106145cf576145cf6156ba565b60209081029190910101516001600160401b03909116905283518490839081106145fb576145fb6156ba565b6020026020010151878781518110614615576146156156ba565b6020026020010151606001906001600160401b031690816001600160401b0316815250508560010195505b600101614477565b5060010161446c565b5050505094509492505050565b6040518060c0016040528060006001600160401b0316815260200160006001600160401b0316815260200160006001600160401b0316815260200160006001600160a01b0316815260200160608152602001606081525090565b604080516101208101825260008082526020820181905291810182905260608082018390526080820183905260a082019290925260c0810182905260e0810182905261010081019190915290565b6001600160a01b038116811461471b57600080fd5b50565b803561472981614706565b919050565b634e487b7160e01b600052604160045260246000fd5b604080519081016001600160401b03811182821017156147665761476661472e565b60405290565b604051608081016001600160401b03811182821017156147665761476661472e565b604051601f8201601f191681016001600160401b03811182821017156147b6576147b661472e565b604052919050565b60006001600160401b038211156147d7576147d761472e565b5060051b60200190565b600082601f8301126147f257600080fd5b81356020614807614802836147be565b61478e565b82815260059290921b8401810191818101908684111561482657600080fd5b8286015b84811015614841578035835291830191830161482a565b509695505050505050565b6000806000806080858703121561486257600080fd5b843561486d81614706565b93506020858101356001600160401b038082111561488a57600080fd5b818801915088601f83011261489e57600080fd5b81356148ac614802826147be565b81815260059190911b8301840190848101908b8311156148cb57600080fd5b938501935b828510156148f25784356148e381614706565b825293850193908501906148d0565b9750505060408801359450606088013592508083111561491157600080fd5b505061491f878288016147e1565b91505092959194509250565b60006040820184151583526020604081850152818551808452606086019150828701935060005b81811015610fa6578451151583529383019391830191600101614952565b6000806040838503121561498357600080fd5b823561498e81614706565b946020939093013593505050565b60005b838110156149b757818101518382015260200161499f565b50506000910152565b600081518084526149d881602086016020860161499c565b601f01601f19169290920160200192915050565b60006020808301818452808551808352604092508286019150828160051b87010184880160005b83811015610c8157888303603f19018552815180516001600160401b039081168552888201516001600160801b031689860152878201511687850152606090810151608091850182905290614a6a818601836149c0565b968901969450505090860190600101614a13565b60006020808301818452808551808352604092508286019150828160051b87010184880160005b83811015610c8157888303603f19018552815180516001600160401b0390811685528882015116888501528601516060878501819052614ae7818601836149c0565b968901969450505090860190600101614aa5565b600081518084526020808501945080840160005b83811015614b345781516001600160401b031687529582019590820190600101614b0f565b509495945050505050565b60006020808301818452808551808352604092508286019150828160051b87010184880160005b83811015610c8157603f19898403018552815180516001600160401b03908116855288820151811689860152878201516001600160801b031688860152606080830151909116908501526080808201516001600160a01b03169085015260a08082015160e08287018190529190614bdf838801826149c0565b9250505060c08083015192508582038187015250614bfd8183614afb565b968901969450505090860190600101614b66565b60008060008060808587031215614c2757600080fd5b8435614c3281614706565b9350602085013592506040850135614c4981614706565b9396929550929360600135925050565b60008060008060608587031215614c6f57600080fd5b8435614c7a81614706565b93506020850135925060408501356001600160401b0380821115614c9d57600080fd5b818701915087601f830112614cb157600080fd5b813581811115614cc057600080fd5b8860208260051b8501011115614cd557600080fd5b95989497505060200194505050565b600081518084526020808501808196508360051b8101915082860160005b85811015614d2c578284038952614d1a8483516149c0565b98850198935090840190600101614d02565b5091979650505050505050565b602081526000614d4c6020830184614ce4565b9392505050565b60006001600160401b038083511684528060208401511660208501528060408401511660408501525060018060a01b036060830151166060840152608082015160c06080850152614da760c08501826149c0565b905060a083015184820360a0860152614dc08282614afb565b95945050505050565b602081526000614d4c6020830184614d53565b6001600160401b038116811461471b57600080fd5b600080600060608486031215614e0657600080fd5b8335614e1181614706565b9250602084013591506040840135614e2881614ddc565b809150509250925092565b600081518084526020808501945080840160005b83811015614b3457815180516001600160401b039081168952848201511684890152604080820151908901526060908101516001600160a01b03169088015260809096019590820190600101614e47565b602081526000614d4c6020830184614e33565b6000604080830185845260208281860152818651808452606093508387019150838160051b88010183890160005b83811015614fa257605f198a8403018552815180516001600160401b039081168552878201518116888601528982015181168a8601528882015116888501526080808201516001600160a01b03169085015260a08082015115159085015260c0808201516101208287018190529190614f54838801826149c0565b9250505060e08083015186830382880152614f6f83826149c0565b925050506101008083015192508582038187015250614f8e81836149c0565b968801969450505090850190600101614ed9565b50909a9950505050505050505050565b60008060408385031215614fc557600080fd5b823591506020830135614fd781614706565b809150509250929050565b60208152600082516102208060208501526150016102408501836149c0565b9150602085015161501d60408601826001600160a01b03169052565b5060408501516001600160a01b03811660608601525060608501516080850152608085015160a085015260a0850151601f19808685030160c08701526150638483614afb565b935060c087015160e087015260e0870151915061010082818801528088015192505061012061509c818801846001600160a01b03169052565b808801519250506101408187860301818801526150b985846149c0565b9450808801519250506101608187860301818801526150d885846149c0565b90880151610180888101919091528801516101a08089019190915288015190945091506101c0905061510d8187018315159052565b86015190506101e06151228682018315159052565b86015190506102006151378682018315159052565b90950151151593019290925250919050565b602081526000614d4c60208301846149c0565b6000602080830181845280855180835260408601915060408160051b870101925083870160005b828110156151b157603f1988860301845261519f858351614d53565b94509285019290850190600101615183565b5092979650505050505050565b60006001600160401b03808616835280851660208401525060606040830152614dc060608301846149c0565b60006020808301818452808551808352604092508286019150828160051b87010184880160005b83811015610c8157888303603f19018552815180516001600160a01b0316845287810151888501528601516060878501819052615250818601836149c0565b968901969450505090860190600101615211565b600080600080600080600060e0888a03121561527f57600080fd5b873561528a81614706565b96506020880135955060408801356152a181614706565b945060608801356152b181614706565b93506080880135925060a08801356152c881614ddc565b915060c08801356152d881614ddc565b8091505092959891949750929550565b600081518084526020808501808196508360051b8101915082860160005b85811015614d2c578284038952815180516001600160401b03908116865286820151168686015260408082015160ff16908601526060808201516001600160a01b0316908601526080808201519086015260a08082015160e08288018190529190615373838901826149c0565b9250505060c0808301519250868203818801525061539181836149c0565b9a87019a9550505090840190600101615306565b60a0815260006153b860a08301886149c0565b60206001600160401b0380891682860152604060018060a01b038916818701526060868503818801528489518087528587019150858160051b880101868c0160005b8381101561544657898303601f1901855281518051891684528981015160ff168a850152870151878401879052615433878501826149c0565b958a0195935050908801906001016153fa565b505089810360808b015261545a818c6152e8565b9f9e505050505050505050505050505050565b801515811461471b57600080fd5b60008060006060848603121561549057600080fd5b833561549b81614706565b9250602084013591506040840135614e288161546d565b6000806000606084860312156154c757600080fd5b83356154d281614706565b925060208401356154e281614ddc565b91506040840135614e2881614ddc565b6060815260006155056060830186614afb565b82810360208401526155178186614e33565b90508281036040840152611ef68185614ce4565b6000806040838503121561553e57600080fd5b82356001600160401b0381111561555457600080fd5b8301601f8101851361556557600080fd5b80356020615575614802836147be565b82815260059290921b8301810191818101908884111561559457600080fd5b938201935b838510156155bb5784356155ac81614ddc565b82529382019390820190615599565b95506155ca905086820161471e565b93505050509250929050565b6040815260006155e96040830185614afb565b8281036020840152614dc08185614afb565b6000806040838503121561560e57600080fd5b823561561981614706565b915060208301356001600160401b0381111561563457600080fd5b615640858286016147e1565b9150509250929050565b6000806000806080858703121561566057600080fd5b843561566b81614706565b9350602085013561567b81614706565b93969395505050506040820135916060013590565b6040815260006156a36040830185614afb565b905060018060a01b03831660208301529392505050565b634e487b7160e01b600052603260045260246000fd5b600082601f8301126156e157600080fd5b815160206156f1614802836147be565b82815260059290921b8401810191818101908684111561571057600080fd5b8286015b8481101561484157805161572781614ddc565b8352918301918301615714565b60006020828403121561574657600080fd5b81516001600160401b0381111561575c57600080fd5b6110c0848285016156d0565b600082601f83011261577957600080fd5b81516001600160401b038111156157925761579261472e565b6157a5601f8201601f191660200161478e565b8181528460208386010111156157ba57600080fd5b6110c082602083016020870161499c565b6000602082840312156157dd57600080fd5b81516001600160401b038111156157f357600080fd5b6110c084828501615768565b60006020828403121561581157600080fd5b8151614d4c81614ddc565b6000806000806080858703121561583257600080fd5b84516001600160401b038082111561584957600080fd5b61585588838901615768565b95506020870151915061586782614ddc565b604087015191945061587882614706565b60608701519193508082111561588d57600080fd5b5061491f878288016156d0565b600060208083850312156158ad57600080fd5b82516001600160401b038111156158c357600080fd5b8301601f810185136158d457600080fd5b80516158e2614802826147be565b81815260069190911b8201830190838101908783111561590157600080fd5b928401925b82841015613837576040848903121561591f5760008081fd5b615927614744565b845181528585015161593881614706565b8187015282526040939093019290840190615906565b60006020828403121561596057600080fd5b8135614d4c81614ddc565b6001600160e01b031991909116815260200190565b60006020828403121561599257600080fd5b8151614d4c8161546d565b6000806000606084860312156159b257600080fd5b83516159bd81614706565b602085015160408601519194509250614e288161546d565b6000602082840312156159e757600080fd5b8151614d4c81614706565b600060208284031215615a0457600080fd5b5051919050565b634e487b7160e01b600052601160045260246000fd5b808201808211156109d5576109d5615a0b565b600060808284031215615a4657600080fd5b615a4e61476c565b8251615a5981614ddc565b81526020830151615a6981614ddc565b6020820152604083810151908201526060830151615a8681614706565b60608201529392505050565b602081526000614d4c6020830184614afb565b600082601f830112615ab657600080fd5b81516020615ac6614802836147be565b82815260059290921b84018101918181019086841115615ae557600080fd5b8286015b84811015614841578051615afc81614706565b8352918301918301615ae9565b600060808284031215615b1b57600080fd5b615b2361476c565b9050815160038110615b3457600080fd5b8152602082015160ff81168114615b4a57600080fd5b602082015260408201516001600160401b0380821115615b6957600080fd5b615b7585838601615aa5565b60408401526060840151915080821115615b8e57600080fd5b50615b9b84828501615768565b60608301525092915050565b60006020808385031215615bba57600080fd5b82516001600160401b0380821115615bd157600080fd5b818501915085601f830112615be557600080fd5b8151615bf3614802826147be565b81815260059190911b83018401908481019088831115615c1257600080fd5b8585015b83811015615c4a57805185811115615c2e5760008081fd5b615c3c8b89838a0101615b09565b845250918601918601615c16565b5098975050505050505050565b80820281158282048414176109d5576109d5615a0b565b634e487b7160e01b600052602160045260246000fd5b600060208284031215615c9657600080fd5b81516001600160401b03811115615cac57600080fd5b6110c084828501615b0956fea2646970667358221220cb1f985c0b36a973b53a4bed684d1f4df55d4d93d48e9335ac07a6a9da1b688d64736f6c63430008150033",
    "linkReferences": {}
  },
  "methodIdentifiers": {
    "checkExpectedParent(address,uint256,address,uint256)": "ef9a1229",
    "composeEquippables(address,uint256,uint64)": "987d09d1",
    "directOwnerOfWithParentsPerspective(address,uint256)": "b05f0d44",
    "equippedChildrenOf(address,uint256,uint64)": "47f59f21",
    "getAllEquippableSlotsFromParent(address,uint256,bool)": "ac6053f1",
    "getAssetIdWithTopPriority(address,uint256)": "ff0af397",
    "getAssetsById(address,uint256,uint64[])": "41e78cb9",
    "getChildIndex(address,uint256,address,uint256)": "d905980f",
    "getChildrenWithTopMetadata(address,uint256)": "8b7d8fd4",
    "getEquippableSlotsFromParent(address,uint256,uint64)": "b6ede921",
    "getEquippableSlotsFromParentForPendingChild(address,uint256,uint64)": "51200ce9",
    "getEquipped(address,uint64,uint64)": "ac8e4e35",
    "getExtendedActiveAssets(address,uint256)": "1ae99aeb",
    "getExtendedEquippableActiveAssets(address,uint256)": "7cdc2a48",
    "getExtendedNft(uint256,address)": "56937fa7",
    "getExtendedPendingAssets(address,uint256)": "217ff256",
    "getParent(address,uint256)": "9f7b0fc8",
    "getPendingAssets(address,uint256)": "16fbb189",
    "getPendingChildIndex(address,uint256,address,uint256)": "3e6f80c7",
    "getSlotPartsAndCatalog(address,uint256,uint64)": "ef7f5e6f",
    "getTopAsset(address,uint256)": "8533168f",
    "getTopAssetAndEquippableDataForToken(address,uint256)": "47af4145",
    "getTopAssetMetaForToken(address,uint256)": "73d36d7d",
    "getTopAssetMetadataForTokens(address,uint256[])": "e59a9415",
    "getTotalDescendants(address,uint256)": "69b0bb37",
    "hasMoreThanOneLevelOfNesting(address,uint256)": "815ee826",
    "isAssetEquipped(address,uint256,address,address,uint256,uint64,uint64)": "8ce99095",
    "isTokenRejectedOrAbandoned(address,uint256)": "6f4f1d8f",
    "splitSlotAndFixedParts(uint64[],address)": "b57d646d",
    "validateChildOf(address,address,uint256,uint256)": "e5d0faa0",
    "validateChildrenOf(address,address[],uint256,uint256[])": "0a9059ec"
  },
  "id": 91
}