{
  "abi": [
    {
      "inputs": [],
      "name": "RMRK_INTERFACE",
      "outputs": [
        {
          "internalType": "bytes4",
          "name": "",
          "type": "bytes4"
        }
      ],
      "stateMutability": "view",
      "type": "function"
    },
    {
      "inputs": [],
      "name": "VERSION",
      "outputs": [
        {
          "internalType": "string",
          "name": "",
          "type": "string"
        }
      ],
      "stateMutability": "view",
      "type": "function"
    }
  ],
  "bytecode": {
    "object": "0x608060405234801561001057600080fd5b5061010e806100206000396000f3fe6080604052348015600f57600080fd5b506004361060325760003560e01c80638d4f3bf5146037578063ffa1ad74146062575b600080fd5b604463524d524b60e01b81565b6040516001600160e01b031990911681526020015b60405180910390f35b6085604051806040016040528060058152602001640322e322e360dc1b81525081565b60405160599190600060208083528351808285015260005b8181101560b757858101830151858201604001528201609d565b506000604082860101526040601f19601f830116850101925050509291505056fea26469706673582212204af32edbfaf276c916ecdc6a8da61c0836fc280666096b276d373ac353d4722564736f6c63430008150033",
    "linkReferences": {}
  },
  "methodIdentifiers": {
    "RMRK_INTERFACE()": "8d4f3bf5",
    "VERSION()": "ffa1ad74"
  },
  "id": 76
}