{
  "abi": [
    {
      "inputs": [],
      "stateMutability": "nonpayable",
      "type": "constructor"
    },
    {
      "inputs": [],
      "name": "RMRKNewContributorIsZeroAddress",
      "type": "error"
    },
    {
      "inputs": [],
      "name": "RMRKNewOwnerIsZeroAddress",
      "type": "error"
    },
    {
      "inputs": [],
      "name": "RMRKNotOwner",
      "type": "error"
    },
    {
      "anonymous": false,
      "inputs": [
        {
          "indexed": true,
          "internalType": "address",
          "name": "contributor",
          "type": "address"
        },
        {
          "indexed": false,
          "internalType": "bool",
          "name": "isContributor",
          "type": "bool"
        }
      ],
      "name": "ContributorUpdate",
      "type": "event"
    },
    {
      "anonymous": false,
      "inputs": [
        {
          "indexed": true,
          "internalType": "address",
          "name": "previousOwner",
          "type": "address"
        },
        {
          "indexed": true,
          "internalType": "address",
          "name": "newOwner",
          "type": "address"
        }
      ],
      "name": "OwnershipTransferred",
      "type": "event"
    },
    {
      "inputs": [
        {
          "internalType": "address",
          "name": "contributor",
          "type": "address"
        }
      ],
      "name": "isContributor",
      "outputs": [
        {
          "internalType": "bool",
          "name": "",
          "type": "bool"
        }
      ],
      "stateMutability": "view",
      "type": "function"
    },
    {
      "inputs": [
        {
          "internalType": "address",
          "name": "contributor",
          "type": "address"
        },
        {
          "internalType": "bool",
          "name": "grantRole",
          "type": "bool"
        }
      ],
      "name": "manageContributor",
      "outputs": [],
      "stateMutability": "nonpayable",
      "type": "function"
    },
    {
      "inputs": [],
      "name": "owner",
      "outputs": [
        {
          "internalType": "address",
          "name": "",
          "type": "address"
        }
      ],
      "stateMutability": "view",
      "type": "function"
    },
    {
      "inputs": [],
      "name": "renounceOwnership",
      "outputs": [],
      "stateMutability": "nonpayable",
      "type": "function"
    },
    {
      "inputs": [
        {
          "internalType": "address",
          "name": "newOwner",
          "type": "address"
        }
      ],
      "name": "transferOwnership",
      "outputs": [],
      "stateMutability": "nonpayable",
      "type": "function"
    }
  ],
  "bytecode": {
    "object": "0x608060405234801561001057600080fd5b5061001a3361001f565b61006f565b600080546001600160a01b038381166001600160a01b0319831681178455604051919092169283917f8be0079c531659141344cd1fd0a4f28419497f9722a3daafe3b4186f6b6457e09190a35050565b6103208061007e6000396000f3fe608060405234801561001057600080fd5b50600436106100575760003560e01c80631d0d35f51461005c578063715018a61461009e57806379e8ca9e146100a85780638da5cb5b146100bb578063f2fde38b146100d6575b600080fd5b61008961006a36600461028c565b6001600160a01b03166000908152600160208190526040909120541490565b60405190151581526020015b60405180910390f35b6100a66100e9565b005b6100a66100b63660046102ae565b6100fd565b6000546040516001600160a01b039091168152602001610095565b6100a66100e436600461028c565b6101ba565b6100f16101f5565b6100fb6000610220565b565b6101056101f5565b6001600160a01b03821661012c5760405163016b812760e71b815260040160405180910390fd5b80610151576001600160a01b0382166000908152600160205260408120819055610170565b6001600160a01b03821660009081526001602081905260409091208190555b50816001600160a01b03167f4b5657e84cf8a17ac5587bbeb3cc2bab9826c4c67b8bad81b4849de49d37aac2826040516101ae911515815260200190565b60405180910390a25050565b6101c26101f5565b6001600160a01b0381166101e957604051634ece6ecf60e01b815260040160405180910390fd5b6101f281610220565b50565b6000546001600160a01b031633146100fb57604051631c62d58f60e11b815260040160405180910390fd5b600080546001600160a01b038381166001600160a01b0319831681178455604051919092169283917f8be0079c531659141344cd1fd0a4f28419497f9722a3daafe3b4186f6b6457e09190a35050565b80356001600160a01b038116811461028757600080fd5b919050565b60006020828403121561029e57600080fd5b6102a782610270565b9392505050565b600080604083850312156102c157600080fd5b6102ca83610270565b9150602083013580151581146102df57600080fd5b80915050925092905056fea2646970667358221220d67c5f2be51f554a02a80febf47dfff369aa599f19212f5ce14c9e3a0be9f6c164736f6c63430008150033",
    "linkReferences": {}
  },
  "methodIdentifiers": {
    "isContributor(address)": "1d0d35f5",
    "manageContributor(address,bool)": "79e8ca9e",
    "owner()": "8da5cb5b",
    "renounceOwnership()": "715018a6",
    "transferOwnership(address)": "f2fde38b"
  },
  "id": 74
}