{
  "abi": [
    {
      "inputs": [
        {
          "internalType": "uint256",
          "name": "tokenId",
          "type": "uint256"
        }
      ],
      "name": "tokenURI",
      "outputs": [
        {
          "internalType": "string",
          "name": "",
          "type": "string"
        }
      ],
      "stateMutability": "view",
      "type": "function"
    }
  ],
  "bytecode": {
    "object": "0x608060405234801561001057600080fd5b506101d2806100206000396000f3fe608060405234801561001057600080fd5b506004361061002b5760003560e01c8063c87b56dd14610030575b600080fd5b61004361003e3660046100fb565b610059565b6040516100509190610114565b60405180910390f35b600081815260208190526040902080546060919061007690610162565b80601f01602080910402602001604051908101604052809291908181526020018280546100a290610162565b80156100ef5780601f106100c4576101008083540402835291602001916100ef565b820191906000526020600020905b8154815290600101906020018083116100d257829003601f168201915b50505050509050919050565b60006020828403121561010d57600080fd5b5035919050565b600060208083528351808285015260005b8181101561014157858101830151858201604001528201610125565b506000604082860101526040601f19601f8301168501019250505092915050565b600181811c9082168061017657607f821691505b60208210810361019657634e487b7160e01b600052602260045260246000fd5b5091905056fea26469706673582212206ccce6710f9e6081ce191c6a047b7b6fbddc56cf881500dbd73428866789d02e64736f6c63430008150033",
    "linkReferences": {}
  },
  "methodIdentifiers": {
    "tokenURI(uint256)": "c87b56dd"
  },
  "id": 97
}