{
  "abi": [
    {
      "inputs": [],
      "name": "ERC721AddressZeroIsNotaValidOwner",
      "type": "error"
    },
    {
      "inputs": [],
      "name": "ERC721ApprovalToCurrentOwner",
      "type": "error"
    },
    {
      "inputs": [],
      "name": "ERC721ApproveCallerIsNotOwnerNorApprovedForAll",
      "type": "error"
    },
    {
      "inputs": [],
      "name": "ERC721ApproveToCaller",
      "type": "error"
    },
    {
      "inputs": [],
      "name": "ERC721InvalidTokenId",
      "type": "error"
    },
    {
      "inputs": [],
      "name": "ERC721NotApprovedOrOwner",
      "type": "error"
    },
    {
      "inputs": [],
      "name": "ERC721TransferFromIncorrectOwner",
      "type": "error"
    },
    {
      "inputs": [],
      "name": "ERC721TransferToNonReceiverImplementer",
      "type": "error"
    },
    {
      "inputs": [],
      "name": "ERC721TransferToTheZeroAddress",
      "type": "error"
    },
    {
      "inputs": [],
      "name": "RMRKApprovalForAssetsToCurrentOwner",
      "type": "error"
    },
    {
      "inputs": [],
      "name": "RMRKApproveForAssetsCallerIsNotOwnerNorApprovedForAll",
      "type": "error"
    },
    {
      "inputs": [],
      "name": "RMRKBadPriorityListLength",
      "type": "error"
    },
    {
      "inputs": [],
      "name": "RMRKChildAlreadyExists",
      "type": "error"
    },
    {
      "inputs": [],
      "name": "RMRKChildIndexOutOfRange",
      "type": "error"
    },
    {
      "inputs": [],
      "name": "RMRKEquippableEquipNotAllowedByCatalog",
      "type": "error"
    },
    {
      "inputs": [],
      "name": "RMRKIndexOutOfRange",
      "type": "error"
    },
    {
      "inputs": [],
      "name": "RMRKIsNotContract",
      "type": "error"
    },
    {
      "inputs": [],
      "name": "RMRKMaxPendingChildrenReached",
      "type": "error"
    },
    {
      "inputs": [
        {
          "internalType": "address",
          "name": "childContract",
          "type": "address"
        },
        {
          "internalType": "uint256",
          "name": "childId",
          "type": "uint256"
        }
      ],
      "name": "RMRKMaxRecursiveBurnsReached",
      "type": "error"
    },
    {
      "inputs": [],
      "name": "RMRKMustUnequipFirst",
      "type": "error"
    },
    {
      "inputs": [],
      "name": "RMRKNestableTooDeep",
      "type": "error"
    },
    {
      "inputs": [],
      "name": "RMRKNestableTransferToDescendant",
      "type": "error"
    },
    {
      "inputs": [],
      "name": "RMRKNestableTransferToNonRMRKNestableImplementer",
      "type": "error"
    },
    {
      "inputs": [],
      "name": "RMRKNestableTransferToSelf",
      "type": "error"
    },
    {
      "inputs": [],
      "name": "RMRKNotApprovedForAssetsOrOwner",
      "type": "error"
    },
    {
      "inputs": [],
      "name": "RMRKNotApprovedOrDirectOwner",
      "type": "error"
    },
    {
      "inputs": [],
      "name": "RMRKNotEquipped",
      "type": "error"
    },
    {
      "inputs": [],
      "name": "RMRKPendingChildIndexOutOfRange",
      "type": "error"
    },
    {
      "inputs": [],
      "name": "RMRKSlotAlreadyUsed",
      "type": "error"
    },
    {
      "inputs": [],
      "name": "RMRKTargetAssetCannotReceiveSlot",
      "type": "error"
    },
    {
      "inputs": [],
      "name": "RMRKTokenCannotBeEquippedWithAssetIntoSlot",
      "type": "error"
    },
    {
      "inputs": [],
      "name": "RMRKTokenDoesNotHaveAsset",
      "type": "error"
    },
    {
      "inputs": [],
      "name": "RMRKUnexpectedAssetId",
      "type": "error"
    },
    {
      "inputs": [],
      "name": "RMRKUnexpectedChildId",
      "type": "error"
    },
    {
      "inputs": [],
      "name": "RMRKUnexpectedNumberOfAssets",
      "type": "error"
    },
    {
      "inputs": [],
      "name": "RMRKUnexpectedNumberOfChildren",
      "type": "error"
    },
    {
      "inputs": [],
      "name": "RentrantCall",
      "type": "error"
    },
    {
      "anonymous": false,
      "inputs": [
        {
          "indexed": true,
          "internalType": "uint256",
          "name": "tokenId",
          "type": "uint256"
        }
      ],
      "name": "AllChildrenRejected",
      "type": "event"
    },
    {
      "anonymous": false,
      "inputs": [
        {
          "indexed": true,
          "internalType": "address",
          "name": "owner",
          "type": "address"
        },
        {
          "indexed": true,
          "internalType": "address",
          "name": "approved",
          "type": "address"
        },
        {
          "indexed": true,
          "internalType": "uint256",
          "name": "tokenId",
          "type": "uint256"
        }
      ],
      "name": "Approval",
      "type": "event"
    },
    {
      "anonymous": false,
      "inputs": [
        {
          "indexed": true,
          "internalType": "address",
          "name": "owner",
          "type": "address"
        },
        {
          "indexed": true,
          "internalType": "address",
          "name": "operator",
          "type": "address"
        },
        {
          "indexed": false,
          "internalType": "bool",
          "name": "approved",
          "type": "bool"
        }
      ],
      "name": "ApprovalForAll",
      "type": "event"
    },
    {
      "anonymous": false,
      "inputs": [
        {
          "indexed": true,
          "internalType": "address",
          "name": "owner",
          "type": "address"
        },
        {
          "indexed": true,
          "internalType": "address",
          "name": "operator",
          "type": "address"
        },
        {
          "indexed": false,
          "internalType": "bool",
          "name": "approved",
          "type": "bool"
        }
      ],
      "name": "ApprovalForAllForAssets",
      "type": "event"
    },
    {
      "anonymous": false,
      "inputs": [
        {
          "indexed": true,
          "internalType": "address",
          "name": "owner",
          "type": "address"
        },
        {
          "indexed": true,
          "internalType": "address",
          "name": "approved",
          "type": "address"
        },
        {
          "indexed": true,
          "internalType": "uint256",
          "name": "tokenId",
          "type": "uint256"
        }
      ],
      "name": "ApprovalForAssets",
      "type": "event"
    },
    {
      "anonymous": false,
      "inputs": [
        {
          "indexed": true,
          "internalType": "uint256",
          "name": "tokenId",
          "type": "uint256"
        },
        {
          "indexed": true,
          "internalType": "uint64",
          "name": "assetId",
          "type": "uint64"
        },
        {
          "indexed": true,
          "internalType": "uint64",
          "name": "replacesId",
          "type": "uint64"
        }
      ],
      "name": "AssetAccepted",
      "type": "event"
    },
    {
      "anonymous": false,
      "inputs": [
        {
          "indexed": false,
          "internalType": "uint256[]",
          "name": "tokenIds",
          "type": "uint256[]"
        },
        {
          "indexed": true,
          "internalType": "uint64",
          "name": "assetId",
          "type": "uint64"
        },
        {
          "indexed": true,
          "internalType": "uint64",
          "name": "replacesId",
          "type": "uint64"
        }
      ],
      "name": "AssetAddedToTokens",
      "type": "event"
    },
    {
      "anonymous": false,
      "inputs": [
        {
          "indexed": true,
          "internalType": "uint256",
          "name": "tokenId",
          "type": "uint256"
        }
      ],
      "name": "AssetPrioritySet",
      "type": "event"
    },
    {
      "anonymous": false,
      "inputs": [
        {
          "indexed": true,
          "internalType": "uint256",
          "name": "tokenId",
          "type": "uint256"
        },
        {
          "indexed": true,
          "internalType": "uint64",
          "name": "assetId",
          "type": "uint64"
        }
      ],
      "name": "AssetRejected",
      "type": "event"
    },
    {
      "anonymous": false,
      "inputs": [
        {
          "indexed": true,
          "internalType": "uint64",
          "name": "assetId",
          "type": "uint64"
        }
      ],
      "name": "AssetSet",
      "type": "event"
    },
    {
      "anonymous": false,
      "inputs": [
        {
          "indexed": true,
          "internalType": "uint256",
          "name": "tokenId",
          "type": "uint256"
        },
        {
          "indexed": false,
          "internalType": "uint256",
          "name": "childIndex",
          "type": "uint256"
        },
        {
          "indexed": true,
          "internalType": "address",
          "name": "childAddress",
          "type": "address"
        },
        {
          "indexed": true,
          "internalType": "uint256",
          "name": "childId",
          "type": "uint256"
        }
      ],
      "name": "ChildAccepted",
      "type": "event"
    },
    {
      "anonymous": false,
      "inputs": [
        {
          "indexed": true,
          "internalType": "uint256",
          "name": "tokenId",
          "type": "uint256"
        },
        {
          "indexed": true,
          "internalType": "uint64",
          "name": "assetId",
          "type": "uint64"
        },
        {
          "indexed": true,
          "internalType": "uint64",
          "name": "slotPartId",
          "type": "uint64"
        },
        {
          "indexed": false,
          "internalType": "uint256",
          "name": "childId",
          "type": "uint256"
        },
        {
          "indexed": false,
          "internalType": "address",
          "name": "childAddress",
          "type": "address"
        },
        {
          "indexed": false,
          "internalType": "uint64",
          "name": "childAssetId",
          "type": "uint64"
        }
      ],
      "name": "ChildAssetEquipped",
      "type": "event"
    },
    {
      "anonymous": false,
      "inputs": [
        {
          "indexed": true,
          "internalType": "uint256",
          "name": "tokenId",
          "type": "uint256"
        },
        {
          "indexed": true,
          "internalType": "uint64",
          "name": "assetId",
          "type": "uint64"
        },
        {
          "indexed": true,
          "internalType": "uint64",
          "name": "slotPartId",
          "type": "uint64"
        },
        {
          "indexed": false,
          "internalType": "uint256",
          "name": "childId",
          "type": "uint256"
        },
        {
          "indexed": false,
          "internalType": "address",
          "name": "childAddress",
          "type": "address"
        },
        {
          "indexed": false,
          "internalType": "uint64",
          "name": "childAssetId",
          "type": "uint64"
        }
      ],
      "name": "ChildAssetUnequipped",
      "type": "event"
    },
    {
      "anonymous": false,
      "inputs": [
        {
          "indexed": true,
          "internalType": "uint256",
          "name": "tokenId",
          "type": "uint256"
        },
        {
          "indexed": false,
          "internalType": "uint256",
          "name": "childIndex",
          "type": "uint256"
        },
        {
          "indexed": true,
          "internalType": "address",
          "name": "childAddress",
          "type": "address"
        },
        {
          "indexed": true,
          "internalType": "uint256",
          "name": "childId",
          "type": "uint256"
        }
      ],
      "name": "ChildProposed",
      "type": "event"
    },
    {
      "anonymous": false,
      "inputs": [
        {
          "indexed": true,
          "internalType": "uint256",
          "name": "tokenId",
          "type": "uint256"
        },
        {
          "indexed": false,
          "internalType": "uint256",
          "name": "childIndex",
          "type": "uint256"
        },
        {
          "indexed": true,
          "internalType": "address",
          "name": "childAddress",
          "type": "address"
        },
        {
          "indexed": true,
          "internalType": "uint256",
          "name": "childId",
          "type": "uint256"
        },
        {
          "indexed": false,
          "internalType": "bool",
          "name": "fromPending",
          "type": "bool"
        },
        {
          "indexed": false,
          "internalType": "bool",
          "name": "toZero",
          "type": "bool"
        }
      ],
      "name": "ChildTransferred",
      "type": "event"
    },
    {
      "anonymous": false,
      "inputs": [
        {
          "indexed": true,
          "internalType": "address",
          "name": "from",
          "type": "address"
        },
        {
          "indexed": true,
          "internalType": "address",
          "name": "to",
          "type": "address"
        },
        {
          "indexed": false,
          "internalType": "uint256",
          "name": "fromTokenId",
          "type": "uint256"
        },
        {
          "indexed": false,
          "internalType": "uint256",
          "name": "toTokenId",
          "type": "uint256"
        },
        {
          "indexed": true,
          "internalType": "uint256",
          "name": "tokenId",
          "type": "uint256"
        }
      ],
      "name": "NestTransfer",
      "type": "event"
    },
    {
      "anonymous": false,
      "inputs": [
        {
          "indexed": true,
          "internalType": "address",
          "name": "from",
          "type": "address"
        },
        {
          "indexed": true,
          "internalType": "address",
          "name": "to",
          "type": "address"
        },
        {
          "indexed": true,
          "internalType": "uint256",
          "name": "tokenId",
          "type": "uint256"
        }
      ],
      "name": "Transfer",
      "type": "event"
    },
    {
      "anonymous": false,
      "inputs": [
        {
          "indexed": true,
          "internalType": "uint64",
          "name": "equippableGroupId",
          "type": "uint64"
        },
        {
          "indexed": true,
          "internalType": "uint64",
          "name": "slotPartId",
          "type": "uint64"
        },
        {
          "indexed": false,
          "internalType": "address",
          "name": "parentAddress",
          "type": "address"
        }
      ],
      "name": "ValidParentEquippableGroupIdSet",
      "type": "event"
    },
    {
      "inputs": [],
      "name": "RMRK_INTERFACE",
      "outputs": [
        {
          "internalType": "bytes4",
          "name": "",
          "type": "bytes4"
        }
      ],
      "stateMutability": "view",
      "type": "function"
    },
    {
      "inputs": [],
      "name": "VERSION",
      "outputs": [
        {
          "internalType": "string",
          "name": "",
          "type": "string"
        }
      ],
      "stateMutability": "view",
      "type": "function"
    },
    {
      "inputs": [
        {
          "internalType": "uint256",
          "name": "tokenId",
          "type": "uint256"
        },
        {
          "internalType": "uint256",
          "name": "index",
          "type": "uint256"
        },
        {
          "internalType": "uint64",
          "name": "assetId",
          "type": "uint64"
        }
      ],
      "name": "acceptAsset",
      "outputs": [],
      "stateMutability": "nonpayable",
      "type": "function"
    },
    {
      "inputs": [
        {
          "internalType": "uint256",
          "name": "parentId",
          "type": "uint256"
        },
        {
          "internalType": "uint256",
          "name": "childIndex",
          "type": "uint256"
        },
        {
          "internalType": "address",
          "name": "childAddress",
          "type": "address"
        },
        {
          "internalType": "uint256",
          "name": "childId",
          "type": "uint256"
        }
      ],
      "name": "acceptChild",
      "outputs": [],
      "stateMutability": "nonpayable",
      "type": "function"
    },
    {
      "inputs": [
        {
          "internalType": "uint256",
          "name": "parentId",
          "type": "uint256"
        },
        {
          "internalType": "uint256",
          "name": "childId",
          "type": "uint256"
        },
        {
          "internalType": "bytes",
          "name": "data",
          "type": "bytes"
        }
      ],
      "name": "addChild",
      "outputs": [],
      "stateMutability": "nonpayable",
      "type": "function"
    },
    {
      "inputs": [
        {
          "internalType": "address",
          "name": "to",
          "type": "address"
        },
        {
          "internalType": "uint256",
          "name": "tokenId",
          "type": "uint256"
        }
      ],
      "name": "approve",
      "outputs": [],
      "stateMutability": "nonpayable",
      "type": "function"
    },
    {
      "inputs": [
        {
          "internalType": "address",
          "name": "to",
          "type": "address"
        },
        {
          "internalType": "uint256",
          "name": "tokenId",
          "type": "uint256"
        }
      ],
      "name": "approveForAssets",
      "outputs": [],
      "stateMutability": "nonpayable",
      "type": "function"
    },
    {
      "inputs": [
        {
          "internalType": "address",
          "name": "owner",
          "type": "address"
        }
      ],
      "name": "balanceOf",
      "outputs": [
        {
          "internalType": "uint256",
          "name": "",
          "type": "uint256"
        }
      ],
      "stateMutability": "view",
      "type": "function"
    },
    {
      "inputs": [
        {
          "internalType": "uint256",
          "name": "tokenId",
          "type": "uint256"
        }
      ],
      "name": "burn",
      "outputs": [],
      "stateMutability": "nonpayable",
      "type": "function"
    },
    {
      "inputs": [
        {
          "internalType": "uint256",
          "name": "tokenId",
          "type": "uint256"
        },
        {
          "internalType": "uint256",
          "name": "maxChildrenBurns",
          "type": "uint256"
        }
      ],
      "name": "burn",
      "outputs": [
        {
          "internalType": "uint256",
          "name": "",
          "type": "uint256"
        }
      ],
      "stateMutability": "nonpayable",
      "type": "function"
    },
    {
      "inputs": [
        {
          "internalType": "address",
          "name": "parent",
          "type": "address"
        },
        {
          "internalType": "uint256",
          "name": "tokenId",
          "type": "uint256"
        },
        {
          "internalType": "uint64",
          "name": "assetId",
          "type": "uint64"
        },
        {
          "internalType": "uint64",
          "name": "slotId",
          "type": "uint64"
        }
      ],
      "name": "canTokenBeEquippedWithAssetIntoSlot",
      "outputs": [
        {
          "internalType": "bool",
          "name": "",
          "type": "bool"
        }
      ],
      "stateMutability": "view",
      "type": "function"
    },
    {
      "inputs": [
        {
          "internalType": "uint256",
          "name": "parentId",
          "type": "uint256"
        },
        {
          "internalType": "uint256",
          "name": "index",
          "type": "uint256"
        }
      ],
      "name": "childOf",
      "outputs": [
        {
          "components": [
            {
              "internalType": "uint256",
              "name": "tokenId",
              "type": "uint256"
            },
            {
              "internalType": "address",
              "name": "contractAddress",
              "type": "address"
            }
          ],
          "internalType": "struct IERC7401.Child",
          "name": "",
          "type": "tuple"
        }
      ],
      "stateMutability": "view",
      "type": "function"
    },
    {
      "inputs": [
        {
          "internalType": "uint256",
          "name": "parentId",
          "type": "uint256"
        }
      ],
      "name": "childrenOf",
      "outputs": [
        {
          "components": [
            {
              "internalType": "uint256",
              "name": "tokenId",
              "type": "uint256"
            },
            {
              "internalType": "address",
              "name": "contractAddress",
              "type": "address"
            }
          ],
          "internalType": "struct IERC7401.Child[]",
          "name": "",
          "type": "tuple[]"
        }
      ],
      "stateMutability": "view",
      "type": "function"
    },
    {
      "inputs": [
        {
          "internalType": "uint256",
          "name": "tokenId",
          "type": "uint256"
        }
      ],
      "name": "directOwnerOf",
      "outputs": [
        {
          "internalType": "address",
          "name": "",
          "type": "address"
        },
        {
          "internalType": "uint256",
          "name": "",
          "type": "uint256"
        },
        {
          "internalType": "bool",
          "name": "",
          "type": "bool"
        }
      ],
      "stateMutability": "view",
      "type": "function"
    },
    {
      "inputs": [
        {
          "components": [
            {
              "internalType": "uint256",
              "name": "tokenId",
              "type": "uint256"
            },
            {
              "internalType": "uint256",
              "name": "childIndex",
              "type": "uint256"
            },
            {
              "internalType": "uint64",
              "name": "assetId",
              "type": "uint64"
            },
            {
              "internalType": "uint64",
              "name": "slotPartId",
              "type": "uint64"
            },
            {
              "internalType": "uint64",
              "name": "childAssetId",
              "type": "uint64"
            }
          ],
          "internalType": "struct IERC6220.IntakeEquip",
          "name": "data",
          "type": "tuple"
        }
      ],
      "name": "equip",
      "outputs": [],
      "stateMutability": "nonpayable",
      "type": "function"
    },
    {
      "inputs": [
        {
          "internalType": "uint256",
          "name": "tokenId",
          "type": "uint256"
        }
      ],
      "name": "getActiveAssetPriorities",
      "outputs": [
        {
          "internalType": "uint64[]",
          "name": "",
          "type": "uint64[]"
        }
      ],
      "stateMutability": "view",
      "type": "function"
    },
    {
      "inputs": [
        {
          "internalType": "uint256",
          "name": "tokenId",
          "type": "uint256"
        }
      ],
      "name": "getActiveAssets",
      "outputs": [
        {
          "internalType": "uint64[]",
          "name": "",
          "type": "uint64[]"
        }
      ],
      "stateMutability": "view",
      "type": "function"
    },
    {
      "inputs": [
        {
          "internalType": "uint256",
          "name": "tokenId",
          "type": "uint256"
        }
      ],
      "name": "getApproved",
      "outputs": [
        {
          "internalType": "address",
          "name": "",
          "type": "address"
        }
      ],
      "stateMutability": "view",
      "type": "function"
    },
    {
      "inputs": [
        {
          "internalType": "uint256",
          "name": "tokenId",
          "type": "uint256"
        }
      ],
      "name": "getApprovedForAssets",
      "outputs": [
        {
          "internalType": "address",
          "name": "",
          "type": "address"
        }
      ],
      "stateMutability": "view",
      "type": "function"
    },
    {
      "inputs": [
        {
          "internalType": "uint256",
          "name": "tokenId",
          "type": "uint256"
        },
        {
          "internalType": "uint64",
          "name": "assetId",
          "type": "uint64"
        }
      ],
      "name": "getAssetAndEquippableData",
      "outputs": [
        {
          "internalType": "string",
          "name": "",
          "type": "string"
        },
        {
          "internalType": "uint64",
          "name": "",
          "type": "uint64"
        },
        {
          "internalType": "address",
          "name": "",
          "type": "address"
        },
        {
          "internalType": "uint64[]",
          "name": "",
          "type": "uint64[]"
        }
      ],
      "stateMutability": "view",
      "type": "function"
    },
    {
      "inputs": [
        {
          "internalType": "uint256",
          "name": "tokenId",
          "type": "uint256"
        },
        {
          "internalType": "uint64",
          "name": "assetId",
          "type": "uint64"
        }
      ],
      "name": "getAssetMetadata",
      "outputs": [
        {
          "internalType": "string",
          "name": "",
          "type": "string"
        }
      ],
      "stateMutability": "view",
      "type": "function"
    },
    {
      "inputs": [
        {
          "internalType": "uint256",
          "name": "tokenId",
          "type": "uint256"
        },
        {
          "internalType": "uint64",
          "name": "newAssetId",
          "type": "uint64"
        }
      ],
      "name": "getAssetReplacements",
      "outputs": [
        {
          "internalType": "uint64",
          "name": "",
          "type": "uint64"
        }
      ],
      "stateMutability": "view",
      "type": "function"
    },
    {
      "inputs": [
        {
          "internalType": "uint256",
          "name": "tokenId",
          "type": "uint256"
        },
        {
          "internalType": "address",
          "name": "targetCatalogAddress",
          "type": "address"
        },
        {
          "internalType": "uint64",
          "name": "slotPartId",
          "type": "uint64"
        }
      ],
      "name": "getEquipment",
      "outputs": [
        {
          "components": [
            {
              "internalType": "uint64",
              "name": "assetId",
              "type": "uint64"
            },
            {
              "internalType": "uint64",
              "name": "childAssetId",
              "type": "uint64"
            },
            {
              "internalType": "uint256",
              "name": "childId",
              "type": "uint256"
            },
            {
              "internalType": "address",
              "name": "childEquippableAddress",
              "type": "address"
            }
          ],
          "internalType": "struct IERC6220.Equipment",
          "name": "",
          "type": "tuple"
        }
      ],
      "stateMutability": "view",
      "type": "function"
    },
    {
      "inputs": [
        {
          "internalType": "uint256",
          "name": "tokenId",
          "type": "uint256"
        }
      ],
      "name": "getPendingAssets",
      "outputs": [
        {
          "internalType": "uint64[]",
          "name": "",
          "type": "uint64[]"
        }
      ],
      "stateMutability": "view",
      "type": "function"
    },
    {
      "inputs": [
        {
          "internalType": "address",
          "name": "owner",
          "type": "address"
        },
        {
          "internalType": "address",
          "name": "operator",
          "type": "address"
        }
      ],
      "name": "isApprovedForAll",
      "outputs": [
        {
          "internalType": "bool",
          "name": "",
          "type": "bool"
        }
      ],
      "stateMutability": "view",
      "type": "function"
    },
    {
      "inputs": [
        {
          "internalType": "address",
          "name": "owner",
          "type": "address"
        },
        {
          "internalType": "address",
          "name": "operator",
          "type": "address"
        }
      ],
      "name": "isApprovedForAllForAssets",
      "outputs": [
        {
          "internalType": "bool",
          "name": "",
          "type": "bool"
        }
      ],
      "stateMutability": "view",
      "type": "function"
    },
    {
      "inputs": [
        {
          "internalType": "uint256",
          "name": "tokenId",
          "type": "uint256"
        },
        {
          "internalType": "address",
          "name": "childAddress",
          "type": "address"
        },
        {
          "internalType": "uint256",
          "name": "childId",
          "type": "uint256"
        }
      ],
      "name": "isChildEquipped",
      "outputs": [
        {
          "internalType": "bool",
          "name": "",
          "type": "bool"
        }
      ],
      "stateMutability": "view",
      "type": "function"
    },
    {
      "inputs": [
        {
          "internalType": "address",
          "name": "from",
          "type": "address"
        },
        {
          "internalType": "address",
          "name": "to",
          "type": "address"
        },
        {
          "internalType": "uint256",
          "name": "tokenId",
          "type": "uint256"
        },
        {
          "internalType": "uint256",
          "name": "destinationId",
          "type": "uint256"
        },
        {
          "internalType": "bytes",
          "name": "data",
          "type": "bytes"
        }
      ],
      "name": "nestTransferFrom",
      "outputs": [],
      "stateMutability": "nonpayable",
      "type": "function"
    },
    {
      "inputs": [
        {
          "internalType": "uint256",
          "name": "tokenId",
          "type": "uint256"
        }
      ],
      "name": "ownerOf",
      "outputs": [
        {
          "internalType": "address",
          "name": "",
          "type": "address"
        }
      ],
      "stateMutability": "view",
      "type": "function"
    },
    {
      "inputs": [
        {
          "internalType": "uint256",
          "name": "parentId",
          "type": "uint256"
        },
        {
          "internalType": "uint256",
          "name": "index",
          "type": "uint256"
        }
      ],
      "name": "pendingChildOf",
      "outputs": [
        {
          "components": [
            {
              "internalType": "uint256",
              "name": "tokenId",
              "type": "uint256"
            },
            {
              "internalType": "address",
              "name": "contractAddress",
              "type": "address"
            }
          ],
          "internalType": "struct IERC7401.Child",
          "name": "",
          "type": "tuple"
        }
      ],
      "stateMutability": "view",
      "type": "function"
    },
    {
      "inputs": [
        {
          "internalType": "uint256",
          "name": "parentId",
          "type": "uint256"
        }
      ],
      "name": "pendingChildrenOf",
      "outputs": [
        {
          "components": [
            {
              "internalType": "uint256",
              "name": "tokenId",
              "type": "uint256"
            },
            {
              "internalType": "address",
              "name": "contractAddress",
              "type": "address"
            }
          ],
          "internalType": "struct IERC7401.Child[]",
          "name": "",
          "type": "tuple[]"
        }
      ],
      "stateMutability": "view",
      "type": "function"
    },
    {
      "inputs": [
        {
          "internalType": "uint256",
          "name": "tokenId",
          "type": "uint256"
        },
        {
          "internalType": "uint256",
          "name": "maxRejections",
          "type": "uint256"
        }
      ],
      "name": "rejectAllAssets",
      "outputs": [],
      "stateMutability": "nonpayable",
      "type": "function"
    },
    {
      "inputs": [
        {
          "internalType": "uint256",
          "name": "tokenId",
          "type": "uint256"
        },
        {
          "internalType": "uint256",
          "name": "maxRejections",
          "type": "uint256"
        }
      ],
      "name": "rejectAllChildren",
      "outputs": [],
      "stateMutability": "nonpayable",
      "type": "function"
    },
    {
      "inputs": [
        {
          "internalType": "uint256",
          "name": "tokenId",
          "type": "uint256"
        },
        {
          "internalType": "uint256",
          "name": "index",
          "type": "uint256"
        },
        {
          "internalType": "uint64",
          "name": "assetId",
          "type": "uint64"
        }
      ],
      "name": "rejectAsset",
      "outputs": [],
      "stateMutability": "nonpayable",
      "type": "function"
    },
    {
      "inputs": [
        {
          "internalType": "address",
          "name": "from",
          "type": "address"
        },
        {
          "internalType": "address",
          "name": "to",
          "type": "address"
        },
        {
          "internalType": "uint256",
          "name": "tokenId",
          "type": "uint256"
        }
      ],
      "name": "safeTransferFrom",
      "outputs": [],
      "stateMutability": "nonpayable",
      "type": "function"
    },
    {
      "inputs": [
        {
          "internalType": "address",
          "name": "from",
          "type": "address"
        },
        {
          "internalType": "address",
          "name": "to",
          "type": "address"
        },
        {
          "internalType": "uint256",
          "name": "tokenId",
          "type": "uint256"
        },
        {
          "internalType": "bytes",
          "name": "data",
          "type": "bytes"
        }
      ],
      "name": "safeTransferFrom",
      "outputs": [],
      "stateMutability": "nonpayable",
      "type": "function"
    },
    {
      "inputs": [
        {
          "internalType": "address",
          "name": "operator",
          "type": "address"
        },
        {
          "internalType": "bool",
          "name": "approved",
          "type": "bool"
        }
      ],
      "name": "setApprovalForAll",
      "outputs": [],
      "stateMutability": "nonpayable",
      "type": "function"
    },
    {
      "inputs": [
        {
          "internalType": "address",
          "name": "operator",
          "type": "address"
        },
        {
          "internalType": "bool",
          "name": "approved",
          "type": "bool"
        }
      ],
      "name": "setApprovalForAllForAssets",
      "outputs": [],
      "stateMutability": "nonpayable",
      "type": "function"
    },
    {
      "inputs": [
        {
          "internalType": "uint256",
          "name": "tokenId",
          "type": "uint256"
        },
        {
          "internalType": "uint64[]",
          "name": "priorities",
          "type": "uint64[]"
        }
      ],
      "name": "setPriority",
      "outputs": [],
      "stateMutability": "nonpayable",
      "type": "function"
    },
    {
      "inputs": [
        {
          "internalType": "bytes4",
          "name": "interfaceId",
          "type": "bytes4"
        }
      ],
      "name": "supportsInterface",
      "outputs": [
        {
          "internalType": "bool",
          "name": "",
          "type": "bool"
        }
      ],
      "stateMutability": "view",
      "type": "function"
    },
    {
      "inputs": [
        {
          "internalType": "uint256",
          "name": "tokenId",
          "type": "uint256"
        },
        {
          "internalType": "address",
          "name": "to",
          "type": "address"
        },
        {
          "internalType": "uint256",
          "name": "destinationId",
          "type": "uint256"
        },
        {
          "internalType": "uint256",
          "name": "childIndex",
          "type": "uint256"
        },
        {
          "internalType": "address",
          "name": "childAddress",
          "type": "address"
        },
        {
          "internalType": "uint256",
          "name": "childId",
          "type": "uint256"
        },
        {
          "internalType": "bool",
          "name": "isPending",
          "type": "bool"
        },
        {
          "internalType": "bytes",
          "name": "data",
          "type": "bytes"
        }
      ],
      "name": "transferChild",
      "outputs": [],
      "stateMutability": "nonpayable",
      "type": "function"
    },
    {
      "inputs": [
        {
          "internalType": "address",
          "name": "from",
          "type": "address"
        },
        {
          "internalType": "address",
          "name": "to",
          "type": "address"
        },
        {
          "internalType": "uint256",
          "name": "tokenId",
          "type": "uint256"
        }
      ],
      "name": "transferFrom",
      "outputs": [],
      "stateMutability": "nonpayable",
      "type": "function"
    },
    {
      "inputs": [
        {
          "internalType": "uint256",
          "name": "tokenId",
          "type": "uint256"
        },
        {
          "internalType": "uint64",
          "name": "assetId",
          "type": "uint64"
        },
        {
          "internalType": "uint64",
          "name": "slotPartId",
          "type": "uint64"
        }
      ],
      "name": "unequip",
      "outputs": [],
      "stateMutability": "nonpayable",
      "type": "function"
    }
  ],
  "bytecode": {
    "object": "0x608060405234801561001057600080fd5b506001600055613d7d806100256000396000f3fe608060405234801561001057600080fd5b50600436106102695760003560e01c806370a0823111610151578063de8e602c116100c3578063e97ceaa811610087578063e97ceaa8146106d2578063e985e9c5146106e5578063ee1dffcf14610721578063fb25fb7a14610760578063fc3517c81461079a578063ffa1ad74146107ad57600080fd5b8063de8e602c14610637578063defa80c31461064a578063df6f556b1461065d578063e467a48f146106ac578063e7de4de4146106bf57600080fd5b8063979613361161011557806397961336146105c5578063a22cb465146105d8578063a898e364146105eb578063b390c0ab146105fe578063b88d4fde14610611578063c259a9881461062457600080fd5b806370a08231146104705780637280281e146104915780637507e2ae146104a45780638507dc281461058b5780638d4f3bf51461059e57600080fd5b806342842e0e116101ea5780635e2e3292116101ae5780635e2e3292146103f15780635e94354a146104115780635ea72f36146104245780636352211e14610437578063635490cc1461044a5780636f19951c1461045d57600080fd5b806342842e0e1461036857806342966c681461037b57806344ec93441461038e5780634e60edba146103ae57806351532e5a146103d157600080fd5b806322e6d1601161023157806322e6d160146102fc57806322f6da9c1461030f57806323b872dd146103225780632f32f9371461033557806338dcf74c1461035557600080fd5b806301ffc9a71461026e578063064c0a3a14610296578063074334fb146102ab578063081812fc146102be578063095ea7b3146102e9575b600080fd5b61028161027c36600461331e565b6107d1565b60405190151581526020015b60405180910390f35b6102a96102a436600461340c565b610859565b005b6102816102b936600461349d565b610a46565b6102d16102cc3660046134ec565b610ac0565b6040516001600160a01b03909116815260200161028d565b6102a96102f7366004613505565b610b06565b61028161030a366004613531565b610b92565b6102a961031d36600461356a565b610bc0565b6102a961033036600461359f565b610c3b565b6103486103433660046135e0565b610c60565b60405161028d9190613602565b6102a9610363366004613622565b610cf9565b6102a961037636600461359f565b611080565b6102a96103893660046134ec565b61109b565b6103a161039c3660046134ec565b6110aa565b60405161028d91906136a3565b6103c16103bc366004613703565b611129565b60405161028d94939291906137b9565b6103e46103df3660046134ec565b611206565b60405161028d9190613807565b6104046103ff366004613703565b61129a565b60405161028d919061381a565b6103e461041f3660046134ec565b611389565b6102a9610432366004613505565b6113f2565b6102d16104453660046134ec565b611479565b6102a961045836600461382d565b611509565b6103a161046b3660046134ec565b61161f565b61048361047e36600461387c565b61168f565b60405190815260200161028d565b6103e461049f3660046134ec565b6116d4565b6105416104b2366004613899565b6040805160808082018352600080835260208084018290528385018290526060938401829052968152601387528381206001600160a01b03968716825287528381206001600160401b03958616825287528390208351918201845280548086168352600160401b9004909416958101959095526001830154918501919091526002909101549091169082015290565b60405161028d919081516001600160401b03908116825260208084015190911690820152604080830151908201526060918201516001600160a01b03169181019190915260800190565b6102a96105993660046138dc565b61173d565b6105ac63524d524b60e01b81565b6040516001600160e01b0319909116815260200161028d565b6102a96105d33660046135e0565b6117d3565b6102a96105e63660046138dc565b611853565b6103486105f93660046135e0565b6118e1565b61048361060c3660046135e0565b61193e565b6102a961061f36600461390a565b611cbb565b6102a9610632366004613975565b611d01565b6102a961064536600461399a565b611eca565b6102a9610658366004613a52565b611f54565b61069461066b366004613703565b60009182526009602090815260408084206001600160401b039384168552909152909120541690565b6040516001600160401b03909116815260200161028d565b6102d16106ba3660046134ec565b61218f565b6102a96106cd3660046135e0565b6121b2565b6102a96106e0366004613aed565b6122b4565b6102816106f3366004613531565b6001600160a01b03918216600090815260036020908152604080832093909416825291909152205460ff1690565b61028161072f366004613b2c565b60009283526014602090815260408085206001600160a01b0394909416855292815282842091845252902054151590565b61077361076e3660046134ec565b6122ca565b604080516001600160a01b039094168452602084019290925215159082015260600161028d565b6102a96107a836600461356a565b612332565b610404604051806040016040528060058152602001640322e322e360dc1b81525081565b60006001600160e01b031982166301ffc9a760e01b148061080257506001600160e01b031982166380ac58cd60e01b145b8061081d57506001600160e01b031982166342b0e56f60e01b145b8061083857506001600160e01b0319821663035a194d60e11b145b8061085357506001600160e01b03198216630a2f26b960e21b145b92915050565b8261086381612347565b60008061086f866122ca565b5091509150876001600160a01b0316826001600160a01b0316146108a65760405163e146af6f60e01b815260040160405180910390fd5b6001600160a01b0387166108cd576040516338f646ff60e21b815260040160405180910390fd5b6001600160a01b038716301480156108e457508486145b1561090257604051633d76b10760e01b815260040160405180910390fd5b6001600160a01b0387163b61092a5760405163b9d3114760e01b815260040160405180910390fd5b6040516301ffc9a760e01b81526342b0e56f60e01b60048201526001600160a01b038816906301ffc9a790602401602060405180830381865afa158015610975573d6000803e3d6000fd5b505050506040513d601f19601f820116820180604052508101906109999190613b53565b6109b657604051631784ec7360e21b815260040160405180910390fd5b6109c18688876123cf565b6001600160a01b038816600090815260016020819052604082208054919290916109ec908490613b86565b909155506109fd90508686896124c0565b6001600160a01b03871660009081526001602081905260408220805491929091610a28908490613b99565b90915550610a3c9050828883888a89612521565b5050505050505050565b6001600160401b038083166000908152601160209081526040808320548416808452601583528184206001600160a01b038a1685529092528220549192909181169084168103610ab1576000610aa586610a9f896116d4565b90612626565b9450610ab89350505050565b6000925050505b949350505050565b6000610acb8261268f565b600082815260026020526040812090610ae384611479565b6001600160a01b0390811682526020820192909252604001600020541692915050565b6000610b1182611479565b9050806001600160a01b0316836001600160a01b031603610b4557604051630591db6d60e01b815260040160405180910390fd5b336001600160a01b03821614801590610b655750610b6381336106f3565b155b15610b8357604051634c12315960e11b815260040160405180910390fd5b610b8d83836126ca565b505050565b6001600160a01b039182166000908152600e6020908152604080832093909416825291909152205460ff1690565b82610bca81612743565b610bd58484846127a4565b610be084848461284c565b6000848152600d602090815260408083206001600160401b0386168085529252808320805460ff1916905551909186917f1010837a46db9510cad56c9b63e97183557a136e9d4ddbec309ce52c99afb1249190a35b50505050565b80610c4581612347565b610c358484846040518060200160405280600081525061289a565b604080518082019091526000808252602082015281610c7e8461161f565b5111610c9d5760405163653e642560e11b815260040160405180910390fd5b6000838152600560205260408120805484908110610cbd57610cbd613bac565b60009182526020918290206040805180820190915260029092020180548252600101546001600160a01b03169181019190915291505092915050565b8051610d0481612743565b610d0c6129fc565b6040808301516001600160401b0390811660009081526010602090815283822054606087015187518452601383528584206001600160a01b039283168086529084528685209582168552949092529390912060020154919290911615610d855760405163bd0650ab60e01b815260040160405180910390fd5b610d93846040015182612a26565b6000610da785600001518660200151610c60565b60208101518151608088015160405163074334fb60e01b815230600482015260248101929092526001600160401b039081166044830152851660648201529192506001600160a01b03169063074334fb90608401602060405180830381865afa158015610e18573d6000803e3d6000fd5b505050506040513d601f19601f82011682018060405250810190610e3c9190613b53565b610e5957604051632c36cd3360e01b815260040160405180910390fd5b6020810151604051636e5bceab60e11b81526001600160401b03841660048201526001600160a01b0391821660248201529084169063dcb79d5690604401602060405180830381865afa158015610eb4573d6000803e3d6000fd5b505050506040513d601f19601f82011682018060405250810190610ed89190613b53565b610ef557604051637228eff560e11b815260040160405180910390fd5b6040805160808082018352878301516001600160401b0390811683529088015181166020808401918252855184860190815286820180516001600160a01b03908116606088019081528d516000908152601386528981208d8416825286528981208c8916825286528981208951815498518a16600160401b026001600160801b031990991699169890981796909617875592516001808801919091559251600290960180549682166001600160a01b0319909716969096179095558b5184526014835286842090519094168352928152848220865183529052928320805492939192909190610fe5908490613b99565b92505081905550826001600160401b031686604001516001600160401b031687600001517f1f5de02b1d9c93ca468f54630e1daf13f6dc458a63f8061ff73e85bf9bc38884856000015186602001518b6080015160405161106b939291909283526001600160a01b039190911660208301526001600160401b0316604082015260600190565b60405180910390a45050600160005550505050565b610b8d83838360405180602001604052806000815250611cbb565b6110a681600061193e565b5050565b6000818152600660209081526040808320805482518185028101850190935280835260609493849084015b8282101561111d5760008481526020908190206040805180820190915260028502909101805482526001908101546001600160a01b03168284015290835290920191016110d5565b50929695505050505050565b6060600080606061113a868661129a565b6001600160401b0380871660009081526011602090815260408083205460108352818420546012845293829020805483518186028101860190945280845291909516946001600160a01b0390941693928391908301828280156111ee57602002820191906000526020600020906000905b82829054906101000a90046001600160401b03166001600160401b0316815260200190600801906020826007010492830192600103820291508084116111ab5790505b50505050509050935093509350935092959194509250565b6000818152600b602090815260409182902080548351818402810184019094528084526060939283018282801561128e57602002820191906000526020600020906000905b82829054906101000a90046001600160401b03166001600160401b03168152602001906008019060208260070104928301926001038202915080841161124b5790505b50505050509050919050565b6000828152600d602090815260408083206001600160401b038516845290915290205460609060ff166112e057604051631b9928fd60e31b815260040160405180910390fd5b6001600160401b0382166000908152600860205260409020805461130390613bc2565b80601f016020809104026020016040519081016040528092919081815260200182805461132f90613bc2565b801561137c5780601f106113515761010080835404028352916020019161137c565b820191906000526020600020905b81548152906001019060200180831161135f57829003601f168201915b5050505050905092915050565b6000818152600c602090815260409182902080548351818402810184019094528084526060939283018282801561128e57600091825260209182902080546001600160401b0316845290820283019290916008910180841161124b575094979650505050505050565b60006113fd82611479565b9050806001600160a01b0316836001600160a01b031603611431576040516375f45abd60e01b815260040160405180910390fd5b336001600160a01b03821614801590611451575061144f8133610b92565b155b1561146f576040516357a2e94960e11b815260040160405180910390fd5b610b8d8383612af0565b600080600080611488856122ca565b9250925092508015611500576040516331a9108f60e11b8152600481018390526001600160a01b03841690636352211e90602401602060405180830381865afa1580156114d9573d6000803e3d6000fd5b505050506040513d601f19601f820116820180604052508101906114fd9190613bfc565b92505b50909392505050565b6115128361268f565b33803b6115325760405163b9d3114760e01b815260040160405180910390fd5b604080518082019091528381526001600160a01b03821660208201526000611559866110aa565b51905060808110156115b8576000868152600660209081526040822080546001808201835591845292829020855160029094020192835590840151910180546001600160a01b0319166001600160a01b039092169190911790556115d1565b60405163a53c8c0560e01b815260040160405180910390fd5b84836001600160a01b0316877fe65085e689b77b126ba0bac3b079aa8288f19f4d5445af11c76003f8ab3075dd8460405161160e91815260200190565b60405180910390a45b505050505050565b600081815260056020908152604080832080548251818502810185019093528083526060949384908401821561111d5760008481526020908190206040805180820190915260028502909101805482526001908101546001600160a01b03168284015290835290920191016110d5565b60006001600160a01b0382166116b857604051633bb9143360e11b815260040160405180910390fd5b506001600160a01b031660009081526001602052604090205490565b6000818152600a602090815260409182902080548351818402810184019094528084526060939283018282801561128e57600091825260209182902080546001600160401b0316845290820283019290916008910180841161124b575094979650505050505050565b6001600160a01b0382163303611766576040516375f45abd60e01b815260040160405180910390fd5b336000818152600e602090815260408083206001600160a01b03871680855290835292819020805460ff191686151590811790915590519081529192917f0cff4fcf777050010027190b8061fd8bfd1de16d81b1f94e9752df1427a2623591015b60405180910390a35050565b816117dd81612b69565b60008381526006602052604090205482101561180c57604051631e73178b60e11b815260040160405180910390fd5b6000838152600660205260408120611823916131ce565b60405183907f8ac4a0d65950c3e40448afb2260e2e0ec36ea15644d9b39e37e85472e5f9445190600090a2505050565b6001600160a01b038216330361187c57604051630b7b99b960e21b815260040160405180910390fd5b3360008181526003602090815260408083206001600160a01b03871680855290835292819020805460ff191686151590811790915590519081529192917f17307eab39ab6107e8899845ad3d59bd9653f200f220920489ca2b5937696c3191016117c7565b6040805180820190915260008082526020820152816118ff846110aa565b511161191e5760405163da22687f60e01b815260040160405180910390fd5b6000838152600660205260408120805484908110610cbd57610cbd613bac565b60008261194a81612347565b600080611956866122ca565b5091509150600061196687611479565b60408051602080820183526000918290526001600160a01b03871682526001908190529181208054939450919261199e908490613b86565b909155506119af90506000886126ca565b6119ba600088612af0565b60006119c58861161f565b60008981526005602052604081209192506119e091906131ce565b60008881526006602052604081206119f7916131ce565b60008881526002602090815260408083206001600160a01b0386168452909152812080546001600160a01b031916905581518190815b81811015611bfc578a8310611aa657848181518110611a4e57611a4e613bac565b602002602001015160200151858281518110611a6c57611a6c613bac565b6020908102919091010151516040516306177b2560e41b81526001600160a01b039092166004830152602482015260440160405180910390fd5b60076000868381518110611abc57611abc613bac565b6020026020010151602001516001600160a01b03166001600160a01b031681526020019081526020016000206000868381518110611afc57611afc613bac565b602002602001015160000151815260200190815260200160002060009055828b039350848181518110611b3157611b31613bac565b6020026020010151602001516001600160a01b031663b390c0ab868381518110611b5d57611b5d613bac565b602002602001015160000151600187611b769190613b86565b6040516001600160e01b031960e085901b168152600481019290925260248201526044016020604051808303816000875af1158015611bb9573d6000803e3d6000fd5b505050506040513d601f19601f82011682018060405250810190611bdd9190613c19565b611be8906001613b99565b611bf29084613b99565b9250600101611a2d565b5060008b81526004602052604080822082815560010180546001600160a01b0319169055518c91906001600160a01b038a16907fddf252ad1be2c89b69c2b068fc378daa952ba7f163c4a11628f55a4df523b3ef908390a4604080518781526000602082018190528d9290916001600160a01b038b16917f04444026cefd1b05506559cab59d1b865ae3ba4ed2fe5c894f04e522776c552d910160405180910390a4604080516020810190915260009052509998505050505050505050565b81611cc581612347565b611cd18585858561289a565b611cdd85858585612bca565b611cfa5760405163bcb5663760e01b815260040160405180910390fd5b5050505050565b82611d0b81612743565b6001600160401b03808416600090815260106020908152604080832054888452601383528184206001600160a01b039182168086529084528285208887168652845293829020825160808101845281548088168252600160401b9004909616938601939093526001830154918501919091526002909101541660608301819052909190611dab576040516317de7dd760e21b815260040160405180910390fd5b60008681526013602090815260408083206001600160a01b0380871685529083528184206001600160401b0389168552835281842080546001600160801b03191681556001808201869055600290910180546001600160a01b03191690558a855260148452828520606087015190921685529083528184208583015185529092528220805491929091611e3f908490613b86565b92505081905550836001600160401b0316856001600160401b0316877f438e039ebbba8f290f3b5d41aaf3295eccc9b5e6b0e1d52ace700772afb7da13846040015185606001518660200151604051611ebd939291909283526001600160a01b039190911660208301526001600160401b0316604082015260600190565b60405180910390a4611617565b81611ed481612743565b81516000848152600a60205260409020548114611f0457604051633581be1d60e11b815260040160405180910390fd5b6000848152600c602090815260409091208451611f23928601906131ef565b5060405184907ff0bfd70b0068f973d58178846ca67112671ec45e060838f7de5662036bcf801790600090a2610c35565b87611f5e81612b69565b60408051808201909152600080825260208201528315611f8957611f828a886118e1565b9050611fdf565b60008a81526014602090815260408083206001600160a01b038a168452825280832088845290915290205415611fd257604051630619dc9d60e21b815260040160405180910390fd5b611fdc8a88610c60565b90505b611fea818787612cc6565b831561200d5760008a81526006602052604090206120089088612d0a565b612047565b6001600160a01b038616600090815260076020908152604080832088845282528083208390558c8352600590915290206120479088612d0a565b6001600160a01b0389161561213157876120c457604051635c46a7ef60e11b81526001600160a01b0387169063b88d4fde9061208d9030908d908a908990600401613c32565b600060405180830381600087803b1580156120a757600080fd5b505af11580156120bb573d6000803e3d6000fd5b50505050612131565b60208101518151604051630326051d60e11b81526001600160a01b039092169163064c0a3a916120fe9130918e918e908a90600401613c6f565b600060405180830381600087803b15801561211857600080fd5b505af115801561212c573d6000803e3d6000fd5b505050505b6040805188815285151560208201526001600160a01b038b81161582840152915187928916918d917f02d6d6dbcb604d5e1e8c7886456e82a9cdce88b0a580071358f206b5a4d58f709181900360600190a450505050505050505050565b600061219a8261268f565b6000828152600f6020526040812090610ae384611479565b816121bc81612743565b6000838152600b6020526040902054828111156121ec57604051635134ce8960e01b815260040160405180910390fd5b60005b8181101561226a576000858152600b6020526040812080548390811061221757612217613bac565b6000918252602080832060048304015489845260098252604080852060039094166008026101000a9091046001600160401b031684529190529020805467ffffffffffffffff19169055506001016121ef565b506000848152600b60205260408120612282916132a7565b60405160009085907f1010837a46db9510cad56c9b63e97183557a136e9d4ddbec309ce52c99afb124908390a3610c35565b836122be81612b69565b611cfa85858585612dc4565b6000818152600460209081526040808320815180830190925280548252600101546001600160a01b0316918101829052829182919061231c5760405163089ba7e160e41b815260040160405180910390fd5b6020810151905190959094508415159350915050565b8261233c81612743565b610c35848484612ed2565b600080612353836122ca565b5091509150806000141580156123725750336001600160a01b03831614155b806123b15750336001600160a01b0383161480612394575061239482336106f3565b806123af5750336123a484610ac0565b6001600160a01b0316145b155b15610b8d576040516345f3c98360e11b815260040160405180910390fd5b60005b60648110156124a6576000806000856001600160a01b031663fb25fb7a866040518263ffffffff1660e01b815260040161240e91815260200190565b606060405180830381865afa15801561242b573d6000803e3d6000fd5b505050506040513d601f19601f8201168201806040525081019061244f9190613ca9565b925092509250806124635750505050505050565b6001600160a01b0383163014801561247a57508682145b15612498576040516324543e6d60e11b815260040160405180910390fd5b5090935091506001016123d2565b50604051630349a6bd60e51b815260040160405180910390fd5b6040805180820182528381526001600160a01b038381166020808401918252600088815260049091529384209251835551600190920180546001600160a01b0319169290911691909117905561251690846126ca565b610b8d600084612af0565b6040516318d5243360e21b815285906001600160a01b0382169063635490cc9061255390879087908790600401613cec565b600060405180830381600087803b15801561256d57600080fd5b505af1158015612581573d6000803e3d6000fd5b5050505082866001600160a01b0316886001600160a01b03167fddf252ad1be2c89b69c2b068fc378daa952ba7f163c4a11628f55a4df523b3ef60405160405180910390a482866001600160a01b0316886001600160a01b03167f04444026cefd1b05506559cab59d1b865ae3ba4ed2fe5c894f04e522776c552d8888604051612615929190918252602082015260400190565b60405180910390a450505050505050565b81516000908190815b8181101561267e57846001600160401b031686828151811061265357612653613bac565b60200260200101516001600160401b031603612676579250600191506126889050565b60010161262f565b5060008092509250505b9250929050565b6000818152600460205260409020600101546001600160a01b03166126c75760405163089ba7e160e41b815260040160405180910390fd5b50565b60006126d582611479565b60008381526002602090815260408083206001600160a01b038581168086529190935281842080546001600160a01b031916938916938417905590519394508593919290917f8c5be1e5ebec7d5bd14f71427d1e84f3dd0314c0f7b2291e5b200ac8c7c3b9259190a4505050565b600061274e82611479565b9050336001600160a01b038216148061276c575061276c8133610b92565b8061278757503361277c8361218f565b6001600160a01b0316145b6110a657604051635d64832960e01b815260040160405180910390fd5b6000838152600b602052604090205482106127d257604051630757d52160e01b815260040160405180910390fd5b6000838152600b602052604090208054839081106127f2576127f2613bac565b90600052602060002090600491828204019190066008029054906101000a90046001600160401b03166001600160401b0316816001600160401b031614610b8d576040516378eeeecf60e01b815260040160405180910390fd5b6000838152600b6020526040902061286490836130e8565b60009283526009602090815260408085206001600160401b039093168552919052909120805467ffffffffffffffff1916905550565b6000806128a6846122ca565b5091509150856001600160a01b0316826001600160a01b0316146128dd5760405163e146af6f60e01b815260040160405180910390fd5b6001600160a01b038516612904576040516338f646ff60e21b815260040160405180910390fd5b6001600160a01b0386166000908152600160208190526040822080549192909161292f908490613b86565b909155506129419050846000876124c0565b6001600160a01b0385166000908152600160208190526040822080549192909161296c908490613b99565b909155505060405184906001600160a01b0380881691908916907fddf252ad1be2c89b69c2b068fc378daa952ba7f163c4a11628f55a4df523b3ef90600090a483856001600160a01b0316876001600160a01b03167f04444026cefd1b05506559cab59d1b865ae3ba4ed2fe5c894f04e522776c552d846000604051611ebd929190918252602082015260400190565b600260005403612a1f576040516362bfeae960e11b815260040160405180910390fd5b6002600055565b6001600160401b03821660009081526012602090815260408083208054825181850281018501909352808352612acf938693929190830182828015612abc57602002820191906000526020600020906000905b82829054906101000a90046001600160401b03166001600160401b031681526020019060080190602082600701049283019260010382029150808411612a795790505b505050505061262690919063ffffffff16565b91505080610b8d57604051634ef44ed560e01b815260040160405180910390fd5b6000612afb82611479565b6000838152600f602090815260408083206001600160a01b038581168086529190935281842080546001600160a01b031916938916938417905590519394508593919290917fb90cc0d925ac3511ab6af2d7ca73ffcf7ec4bd871fff36b958ecf440079c463e9190a4505050565b6000612b7482611479565b9050336001600160a01b0382161480612b925750612b9281336106f3565b80612bad575033612ba283610ac0565b6001600160a01b0316145b6110a6576040516302728a9d60e41b815260040160405180910390fd5b60006001600160a01b0384163b15612cbe57604051630a85bd0160e11b81526001600160a01b0385169063150b7a0290612c0e903390899088908890600401613c32565b6020604051808303816000875af1925050508015612c49575060408051601f3d908101601f19168201909252612c4691810190613d14565b60015b612ca4573d808015612c77576040519150601f19603f3d011682016040523d82523d6000602084013e612c7c565b606091505b508051612c9c5760405163bcb5663760e01b815260040160405180910390fd5b805181602001fd5b6001600160e01b031916630a85bd0160e11b149050610ab8565b506001610ab8565b82602001516001600160a01b0316826001600160a01b0316141580612cec575082518114155b15610b8d57604051637383f2c160e11b815260040160405180910390fd5b81548290612d1a90600190613b86565b81548110612d2a57612d2a613bac565b9060005260206000209060020201828281548110612d4a57612d4a613bac565b600091825260209091208254600290920201908155600191820154910180546001600160a01b0319166001600160a01b039092169190911790558154829080612d9557612d95613d31565b60008281526020812060026000199093019283020190815560010180546001600160a01b031916905590555050565b6000612dd085856118e1565b9050612ddd818484612cc6565b6001600160a01b038316600090815260076020908152604080832085845290915290205415612e1f5760405163188a497360e01b815260040160405180910390fd5b6000858152600660205260409020612e379085612d0a565b600085815260056020908152604080832080546001808201835591855283852086516002909202019081558584015190820180546001600160a01b0319166001600160a01b03928316179055871680855260078452828520878652845293829020555186815284929188917f29486b9e2ae569b440933a9b1b421467306fa21f3dcad439c262910a634963a9910160405180910390a4611cfa565b612edd8383836127a4565b60008381526009602090815260408083206001600160401b03808616855292528220541690808215612f8b57612f8583600a6000898152602001908152602001600020805480602002602001604051908101604052809291908181526020018280548015612abc57600091825260209182902080546001600160401b03168452908202830192909160089101808411612a79579050505050505061262690919063ffffffff16565b90925090505b801561300c576000868152600a60205260409020805485919084908110612fb457612fb4613bac565b600091825260208083206004830401805460039093166008026101000a6001600160401b03818102199094169584160294909417909355888252600d835260408083209187168352925220805460ff19169055613097565b6000868152600c60209081526040808320600a83529083208054825460018181018555938652848620600480830490910180546001600160401b0394851660086003958616810261010090810a9283029288021990931691909117909255855496870186559488529587209085040180548b84169590921690950290920a9283029202191617905592505b6130a286868661284c565b826001600160401b0316846001600160401b0316877f3f2709a99f6c06b4e57bbb38eb0134332f96f51a3da314f41a515adbb28b17cc60405160405180910390a4611617565b815481106130f557600080fd5b8154829061310590600190613b86565b8154811061311557613115613bac565b90600052602060002090600491828204019190066008029054906101000a90046001600160401b031682828154811061315057613150613bac565b90600052602060002090600491828204019190066008026101000a8154816001600160401b0302191690836001600160401b031602179055508180548061319957613199613d31565b60008281526020902060046000199092019182040180546001600160401b03600860038516026101000a021916905590555050565b50805460008255600202906000526020600020908101906126c791906132cc565b828054828255906000526020600020906003016004900481019282156132975791602002820160005b8382111561326257835183826101000a8154816001600160401b0302191690836001600160401b031602179055509260200192600801602081600701049283019260010302613218565b80156132955782816101000a8154906001600160401b030219169055600801602081600701049283019260010302613262565b505b506132a39291506132f3565b5090565b5080546000825560030160049004906000526020600020908101906126c791906132f3565b5b808211156132a357600081556001810180546001600160a01b03191690556002016132cd565b5b808211156132a357600081556001016132f4565b6001600160e01b0319811681146126c757600080fd5b60006020828403121561333057600080fd5b813561333b81613308565b9392505050565b6001600160a01b03811681146126c757600080fd5b634e487b7160e01b600052604160045260246000fd5b604051601f8201601f191681016001600160401b038111828210171561339557613395613357565b604052919050565b600082601f8301126133ae57600080fd5b81356001600160401b038111156133c7576133c7613357565b6133da601f8201601f191660200161336d565b8181528460208386010111156133ef57600080fd5b816020850160208301376000918101602001919091529392505050565b600080600080600060a0868803121561342457600080fd5b853561342f81613342565b9450602086013561343f81613342565b9350604086013592506060860135915060808601356001600160401b0381111561346857600080fd5b6134748882890161339d565b9150509295509295909350565b80356001600160401b038116811461349857600080fd5b919050565b600080600080608085870312156134b357600080fd5b84356134be81613342565b9350602085013592506134d360408601613481565b91506134e160608601613481565b905092959194509250565b6000602082840312156134fe57600080fd5b5035919050565b6000806040838503121561351857600080fd5b823561352381613342565b946020939093013593505050565b6000806040838503121561354457600080fd5b823561354f81613342565b9150602083013561355f81613342565b809150509250929050565b60008060006060848603121561357f57600080fd5b833592506020840135915061359660408501613481565b90509250925092565b6000806000606084860312156135b457600080fd5b83356135bf81613342565b925060208401356135cf81613342565b929592945050506040919091013590565b600080604083850312156135f357600080fd5b50508035926020909101359150565b815181526020808301516001600160a01b03169082015260408101610853565b600060a0828403121561363457600080fd5b60405160a081018181106001600160401b038211171561365657613656613357565b8060405250823581526020830135602082015261367560408401613481565b604082015261368660608401613481565b606082015261369760808401613481565b60808201529392505050565b602080825282518282018190526000919060409081850190868401855b828110156136f6576136e6848351805182526020908101516001600160a01b0316910152565b92840192908501906001016136c0565b5091979650505050505050565b6000806040838503121561371657600080fd5b8235915061372660208401613481565b90509250929050565b6000815180845260005b8181101561375557602081850181015186830182015201613739565b506000602082860101526020601f19601f83011685010191505092915050565b600081518084526020808501945080840160005b838110156137ae5781516001600160401b031687529582019590820190600101613789565b509495945050505050565b6080815260006137cc608083018761372f565b6001600160401b03861660208401526001600160a01b038516604084015282810360608401526137fc8185613775565b979650505050505050565b60208152600061333b6020830184613775565b60208152600061333b602083018461372f565b60008060006060848603121561384257600080fd5b833592506020840135915060408401356001600160401b0381111561386657600080fd5b6138728682870161339d565b9150509250925092565b60006020828403121561388e57600080fd5b813561333b81613342565b6000806000606084860312156138ae57600080fd5b8335925060208401356138c081613342565b915061359660408501613481565b80151581146126c757600080fd5b600080604083850312156138ef57600080fd5b82356138fa81613342565b9150602083013561355f816138ce565b6000806000806080858703121561392057600080fd5b843561392b81613342565b9350602085013561393b81613342565b92506040850135915060608501356001600160401b0381111561395d57600080fd5b6139698782880161339d565b91505092959194509250565b60008060006060848603121561398a57600080fd5b833592506138c060208501613481565b600080604083850312156139ad57600080fd5b823591506020808401356001600160401b03808211156139cc57600080fd5b818601915086601f8301126139e057600080fd5b8135818111156139f2576139f2613357565b8060051b9150613a0384830161336d565b8181529183018401918481019089841115613a1d57600080fd5b938501935b83851015613a4257613a3385613481565b82529385019390850190613a22565b8096505050505050509250929050565b600080600080600080600080610100898b031215613a6f57600080fd5b883597506020890135613a8181613342565b965060408901359550606089013594506080890135613a9f81613342565b935060a0890135925060c0890135613ab6816138ce565b915060e08901356001600160401b03811115613ad157600080fd5b613add8b828c0161339d565b9150509295985092959890939650565b60008060008060808587031215613b0357600080fd5b84359350602085013592506040850135613b1c81613342565b9396929550929360600135925050565b600080600060608486031215613b4157600080fd5b8335925060208401356135cf81613342565b600060208284031215613b6557600080fd5b815161333b816138ce565b634e487b7160e01b600052601160045260246000fd5b8181038181111561085357610853613b70565b8082018082111561085357610853613b70565b634e487b7160e01b600052603260045260246000fd5b600181811c90821680613bd657607f821691505b602082108103613bf657634e487b7160e01b600052602260045260246000fd5b50919050565b600060208284031215613c0e57600080fd5b815161333b81613342565b600060208284031215613c2b57600080fd5b5051919050565b6001600160a01b0385811682528416602082015260408101839052608060608201819052600090613c659083018461372f565b9695505050505050565b6001600160a01b03868116825285166020820152604081018490526060810183905260a0608082018190526000906137fc9083018461372f565b600080600060608486031215613cbe57600080fd5b8351613cc981613342565b602085015160408601519194509250613ce1816138ce565b809150509250925092565b838152826020820152606060408201526000613d0b606083018461372f565b95945050505050565b600060208284031215613d2657600080fd5b815161333b81613308565b634e487b7160e01b600052603160045260246000fdfea2646970667358221220eb4c86cab733e857cd247c7f2c13c683d13346a99893a9b46215e6d09f307f7d64736f6c63430008150033",
    "linkReferences": {}
  },
  "methodIdentifiers": {
    "RMRK_INTERFACE()": "8d4f3bf5",
    "VERSION()": "ffa1ad74",
    "acceptAsset(uint256,uint256,uint64)": "fc3517c8",
    "acceptChild(uint256,uint256,address,uint256)": "e97ceaa8",
    "addChild(uint256,uint256,bytes)": "635490cc",
    "approve(address,uint256)": "095ea7b3",
    "approveForAssets(address,uint256)": "5ea72f36",
    "balanceOf(address)": "70a08231",
    "burn(uint256)": "42966c68",
    "burn(uint256,uint256)": "b390c0ab",
    "canTokenBeEquippedWithAssetIntoSlot(address,uint256,uint64,uint64)": "074334fb",
    "childOf(uint256,uint256)": "2f32f937",
    "childrenOf(uint256)": "6f19951c",
    "directOwnerOf(uint256)": "fb25fb7a",
    "equip((uint256,uint256,uint64,uint64,uint64))": "38dcf74c",
    "getActiveAssetPriorities(uint256)": "5e94354a",
    "getActiveAssets(uint256)": "7280281e",
    "getApproved(uint256)": "081812fc",
    "getApprovedForAssets(uint256)": "e467a48f",
    "getAssetAndEquippableData(uint256,uint64)": "4e60edba",
    "getAssetMetadata(uint256,uint64)": "5e2e3292",
    "getAssetReplacements(uint256,uint64)": "df6f556b",
    "getEquipment(uint256,address,uint64)": "7507e2ae",
    "getPendingAssets(uint256)": "51532e5a",
    "isApprovedForAll(address,address)": "e985e9c5",
    "isApprovedForAllForAssets(address,address)": "22e6d160",
    "isChildEquipped(uint256,address,uint256)": "ee1dffcf",
    "nestTransferFrom(address,address,uint256,uint256,bytes)": "064c0a3a",
    "ownerOf(uint256)": "6352211e",
    "pendingChildOf(uint256,uint256)": "a898e364",
    "pendingChildrenOf(uint256)": "44ec9344",
    "rejectAllAssets(uint256,uint256)": "e7de4de4",
    "rejectAllChildren(uint256,uint256)": "97961336",
    "rejectAsset(uint256,uint256,uint64)": "22f6da9c",
    "safeTransferFrom(address,address,uint256)": "42842e0e",
    "safeTransferFrom(address,address,uint256,bytes)": "b88d4fde",
    "setApprovalForAll(address,bool)": "a22cb465",
    "setApprovalForAllForAssets(address,bool)": "8507dc28",
    "setPriority(uint256,uint64[])": "de8e602c",
    "supportsInterface(bytes4)": "01ffc9a7",
    "transferChild(uint256,address,uint256,uint256,address,uint256,bool,bytes)": "defa80c3",
    "transferFrom(address,address,uint256)": "23b872dd",
    "unequip(uint256,uint64,uint64)": "c259a988"
  },
  "id": 79
}