{
  "abi": [
    {
      "inputs": [
        {
          "internalType": "address",
          "name": "gameRegistry_",
          "type": "address"
        }
      ],
      "stateMutability": "nonpayable",
      "type": "constructor"
    },
    {
      "inputs": [
        {
          "internalType": "uint256",
          "name": "amount_",
          "type": "uint256"
        }
      ],
      "name": "buyBullets",
      "outputs": [],
      "stateMutability": "payable",
      "type": "function"
    },
    {
      "inputs": [],
      "name": "getGameData",
      "outputs": [
        {
          "components": [
            {
              "internalType": "uint256",
              "name": "bullets",
              "type": "uint256"
            },
            {
              "components": [
                {
                  "internalType": "int256",
                  "name": "x",
                  "type": "int256"
                },
                {
                  "internalType": "int256",
                  "name": "y",
                  "type": "int256"
                },
                {
                  "internalType": "int256",
                  "name": "z",
                  "type": "int256"
                }
              ],
              "internalType": "struct Position",
              "name": "currentPosition",
              "type": "tuple"
            },
            {
              "internalType": "uint256",
              "name": "ethersAmount",
              "type": "uint256"
            },
            {
              "components": [
                {
                  "internalType": "int256",
                  "name": "x",
                  "type": "int256"
                },
                {
                  "internalType": "int256",
                  "name": "y",
                  "type": "int256"
                },
                {
                  "internalType": "int256",
                  "name": "z",
                  "type": "int256"
                }
              ],
              "internalType": "struct Position[]",
              "name": "ethersPosition",
              "type": "tuple[]"
            },
            {
              "internalType": "uint256[]",
              "name": "ethersId",
              "type": "uint256[]"
            },
            {
              "internalType": "uint256",
              "name": "wreckedEthers",
              "type": "uint256"
            }
          ],
          "internalType": "struct PlayerStatsResponse",
          "name": "",
          "type": "tuple"
        }
      ],
      "stateMutability": "view",
      "type": "function"
    },
    {
      "inputs": [
        {
          "internalType": "uint256[]",
          "name": "etherIds_",
          "type": "uint256[]"
        },
        {
          "internalType": "uint256",
          "name": "bulletsAmount_",
          "type": "uint256"
        },
        {
          "components": [
            {
              "internalType": "int256",
              "name": "x",
              "type": "int256"
            },
            {
              "internalType": "int256",
              "name": "y",
              "type": "int256"
            },
            {
              "internalType": "int256",
              "name": "z",
              "type": "int256"
            }
          ],
          "internalType": "struct Position",
          "name": "newPlayerPosition_",
          "type": "tuple"
        }
      ],
      "name": "registerAction",
      "outputs": [],
      "stateMutability": "nonpayable",
      "type": "function"
    },
    {
      "inputs": [
        {
          "components": [
            {
              "internalType": "int256",
              "name": "x",
              "type": "int256"
            },
            {
              "internalType": "int256",
              "name": "y",
              "type": "int256"
            },
            {
              "internalType": "int256",
              "name": "z",
              "type": "int256"
            }
          ],
          "internalType": "struct Position[]",
          "name": "ethersPosition_",
          "type": "tuple[]"
        }
      ],
      "name": "start",
      "outputs": [],
      "stateMutability": "nonpayable",
      "type": "function"
    }
  ],
  "bytecode": {
    "object": "0x608060405234801561001057600080fd5b50604051610a38380380610a3883398101604081905261002f91610054565b600080546001600160a01b0319166001600160a01b0392909216919091179055610084565b60006020828403121561006657600080fd5b81516001600160a01b038116811461007d57600080fd5b9392505050565b6109a5806100936000396000f3fe60806040526004361061003f5760003560e01c806340c2158d146100445780639078bb7614610066578063af4e99de14610086578063b8891c2b146100b1575b600080fd5b34801561005057600080fd5b5061006461005f3660046103d2565b6100c4565b005b34801561007257600080fd5b50610064610081366004610447565b61012e565b34801561009257600080fd5b5061009b610296565b6040516100a89190610518565b60405180910390f35b6100646100bf3660046105f2565b610313565b60005460405163a6d4c78160e01b81526001600160a01b039091169063a6d4c781906100f89033908690869060040161060b565b600060405180830381600087803b15801561011257600080fd5b505af1158015610126573d6000803e3d6000fd5b505050505050565b811561019957600054604051633804f39f60e21b8152336004820152602481018490526001600160a01b039091169063e013ce7c90604401600060405180830381600087803b15801561018057600080fd5b505af1158015610194573d6000803e3d6000fd5b505050505b82156102065760005460405163e7aa7b8560e01b81526001600160a01b039091169063e7aa7b85906101d39033908890889060040161066c565b600060405180830381600087803b1580156101ed57600080fd5b505af1158015610201573d6000803e3d6000fd5b505050505b8035158015906102195750602081013515155b80156102285750604081013515155b156102905760005460405162b90efd60e01b81526001600160a01b039091169062b90efd9061025d90339085906004016106b6565b600060405180830381600087803b15801561027757600080fd5b505af115801561028b573d6000803e3d6000fd5b505050505b50505050565b61029e61037a565b60005460405163b975c34d60e01b81523360048201526001600160a01b039091169063b975c34d90602401600060405180830381865afa1580156102e6573d6000803e3d6000fd5b505050506040513d6000823e601f3d908101601f1916820160405261030e91908101906108ac565b905090565b600054604051638f6a7db360e01b8152336004820152602481018390526001600160a01b0390911690638f6a7db390604401600060405180830381600087803b15801561035f57600080fd5b505af1158015610373573d6000803e3d6000fd5b5050505050565b6040518060c00160405280600081526020016103b060405180606001604052806000815260200160008152602001600081525090565b8152602001600081526020016060815260200160608152602001600081525090565b600080602083850312156103e557600080fd5b823567ffffffffffffffff808211156103fd57600080fd5b818501915085601f83011261041157600080fd5b81358181111561042057600080fd5b86602060608302850101111561043557600080fd5b60209290920196919550909350505050565b60008060008084860360a081121561045e57600080fd5b853567ffffffffffffffff8082111561047657600080fd5b818801915088601f83011261048a57600080fd5b81358181111561049957600080fd5b8960208260051b85010111156104ae57600080fd5b6020928301975095505086013592506060603f19820112156104cf57600080fd5b509295919450926040019150565b600081518084526020808501945080840160005b8381101561050d578151875295820195908201906001016104f1565b509495945050505050565b6000602080835261012083018451828501528185015161054f60408601828051825260208082015190830152604090810151910152565b50604085015160a085015260608086015161010060c0870181905281519384905290840192600091906101408801905b808410156105ba576105a68287518051825260208082015190830152604090810151910152565b94860194600193909301929084019061057f565b506080890151888203601f190160e08a015295506105d881876104dd565b95505060a088015181880152505050508091505092915050565b60006020828403121561060457600080fd5b5035919050565b6001600160a01b038416815260406020820181905281018290526000606080830185835b8681101561065f57813583526020808301359084015260408083013590840152918301919083019060010161062f565b5090979650505050505050565b6001600160a01b0384168152604060208201819052810182905260006001600160fb1b0383111561069c57600080fd5b8260051b8085606085013791909101606001949350505050565b6001600160a01b0383168152608081016106e760208301848035825260208082013590830152604090810135910152565b9392505050565b634e487b7160e01b600052604160045260246000fd5b60405160c0810167ffffffffffffffff81118282101715610727576107276106ee565b60405290565b604051601f8201601f1916810167ffffffffffffffff81118282101715610756576107566106ee565b604052919050565b60006060828403121561077057600080fd5b6040516060810181811067ffffffffffffffff82111715610793576107936106ee565b80604052508091508251815260208301516020820152604083015160408201525092915050565b600067ffffffffffffffff8211156107d4576107d46106ee565b5060051b60200190565b600082601f8301126107ef57600080fd5b815160206108046107ff836107ba565b61072d565b8281526060928302850182019282820191908785111561082357600080fd5b8387015b8581101561065f57610839898261075e565b8452928401928101610827565b600082601f83011261085757600080fd5b815160206108676107ff836107ba565b82815260059290921b8401810191818101908684111561088657600080fd5b8286015b848110156108a1578051835291830191830161088a565b509695505050505050565b6000602082840312156108be57600080fd5b815167ffffffffffffffff808211156108d657600080fd5b9083019061010082860312156108eb57600080fd5b6108f3610704565b82518152610904866020850161075e565b60208201526080830151604082015260a08301518281111561092557600080fd5b610931878286016107de565b60608301525060c08301518281111561094957600080fd5b61095587828601610846565b60808301525060e0929092015160a083015250939250505056fea2646970667358221220aff6ed65853625008ab611e0fa7900c861c444388f6ffb716b8a3e7b84a19e7d64736f6c63430008150033",
    "linkReferences": {}
  },
  "methodIdentifiers": {
    "buyBullets(uint256)": "b8891c2b",
    "getGameData()": "af4e99de",
    "registerAction(uint256[],uint256,(int256,int256,int256))": "9078bb76",
    "start((int256,int256,int256)[])": "40c2158d"
  },
  "id": 1
}