{
  "abi": [
    {
      "inputs": [
        {
          "internalType": "uint256",
          "name": "tokenId",
          "type": "uint256"
        },
        {
          "internalType": "address",
          "name": "targetCollection",
          "type": "address"
        }
      ],
      "name": "getExtendedNft",
      "outputs": [
        {
          "components": [
            {
              "internalType": "string",
              "name": "tokenMetadataUri",
              "type": "string"
            },
            {
              "internalType": "address",
              "name": "directOwner",
              "type": "address"
            },
            {
              "internalType": "address",
              "name": "rootOwner",
              "type": "address"
            },
            {
              "internalType": "uint256",
              "name": "activeAssetCount",
              "type": "uint256"
            },
            {
              "internalType": "uint256",
              "name": "pendingAssetCount",
              "type": "uint256"
            },
            {
              "internalType": "uint64[]",
              "name": "priorities",
              "type": "uint64[]"
            },
            {
              "internalType": "uint256",
              "name": "maxSupply",
              "type": "uint256"
            },
            {
              "internalType": "uint256",
              "name": "totalSupply",
              "type": "uint256"
            },
            {
              "internalType": "address",
              "name": "issuer",
              "type": "address"
            },
            {
              "internalType": "string",
              "name": "name",
              "type": "string"
            },
            {
              "internalType": "string",
              "name": "symbol",
              "type": "string"
            },
            {
              "internalType": "uint256",
              "name": "activeChildrenNumber",
              "type": "uint256"
            },
            {
              "internalType": "uint256",
              "name": "pendingChildrenNumber",
              "type": "uint256"
            },
            {
              "internalType": "bool",
              "name": "isSoulbound",
              "type": "bool"
            },
            {
              "internalType": "bool",
              "name": "hasMultiAssetInterface",
              "type": "bool"
            },
            {
              "internalType": "bool",
              "name": "hasNestingInterface",
              "type": "bool"
            },
            {
              "internalType": "bool",
              "name": "hasEquippableInterface",
              "type": "bool"
            }
          ],
          "internalType": "struct RMRKRenderUtils.ExtendedNft",
          "name": "data",
          "type": "tuple"
        }
      ],
      "stateMutability": "view",
      "type": "function"
    }
  ],
  "bytecode": {
    "object": "0x608060405234801561001057600080fd5b50610f07806100206000396000f3fe608060405234801561001057600080fd5b506004361061002b5760003560e01c806356937fa714610030575b600080fd5b61004361003e366004610967565b610059565b6040516100509190610a2c565b60405180910390f35b6101036040518061022001604052806060815260200160006001600160a01b0316815260200160006001600160a01b03168152602001600081526020016000815260200160608152602001600081526020016000815260200160006001600160a01b03168152602001606081526020016060815260200160008152602001600081526020016000151581526020016000151581526020016000151581526020016000151581525090565b6040516301ffc9a760e01b815263035a194d60e11b6004820152829081906001600160a01b038216906301ffc9a790602401602060405180830381865afa158015610152573d6000803e3d6000fd5b505050506040513d601f19601f820116820180604052508101906101769190610ba8565b15156101c08401526040516301ffc9a760e01b81526342b0e56f60e01b60048201526001600160a01b038316906301ffc9a790602401602060405180830381865afa1580156101c9573d6000803e3d6000fd5b505050506040513d601f19601f820116820180604052508101906101ed9190610ba8565b15156101e08401526040516301ffc9a760e01b8152630a2f26b960e21b60048201526001600160a01b038316906301ffc9a790602401602060405180830381865afa158015610240573d6000803e3d6000fd5b505050506040513d601f19601f820116820180604052508101906102649190610ba8565b15156102008401526101e0830151156103d457604051637d92fdbd60e11b8152600481018690526001600160a01b0383169063fb25fb7a90602401606060405180830381865afa1580156102bc573d6000803e3d6000fd5b505050506040513d601f19601f820116820180604052508101906102e09190610bca565b50506001600160a01b039081166020850152604051631bc6654760e21b81526004810187905290831690636f19951c90602401600060405180830381865afa158015610330573d6000803e3d6000fd5b505050506040513d6000823e601f3d908101601f191682016040526103589190810190610c9d565b5161016084015260405163113b24d160e21b8152600481018690526001600160a01b038316906344ec934490602401600060405180830381865afa1580156103a4573d6000803e3d6000fd5b505050506040513d6000823e601f3d908101601f191682016040526103cc9190810190610c9d565b516101808401525b826101c001511561053857604051633940140f60e11b8152600481018690526001600160a01b03831690637280281e90602401600060405180830381865afa158015610424573d6000803e3d6000fd5b505050506040513d6000823e601f3d908101601f1916820160405261044c9190810190610d62565b5160608401526040516328a9972d60e11b8152600481018690526001600160a01b038316906351532e5a90602401600060405180830381865afa158015610497573d6000803e3d6000fd5b505050506040513d6000823e601f3d908101601f191682016040526104bf9190810190610d62565b516080840152604051632f4a1aa560e11b8152600481018690526001600160a01b03831690635e94354a90602401600060405180830381865afa15801561050a573d6000803e3d6000fd5b505050506040513d6000823e601f3d908101601f191682016040526105329190810190610d62565b60a08401525b6040516331a9108f60e11b8152600481018690526001600160a01b03831690636352211e90602401602060405180830381865afa15801561057d573d6000803e3d6000fd5b505050506040513d601f19601f820116820180604052508101906105a19190610e07565b6001600160a01b0390811660408501526020840151166105cf5760408301516001600160a01b031660208401525b6040516301ffc9a760e01b81526391a6262f60e01b60048201526001600160a01b038316906301ffc9a790602401602060405180830381865afa15801561061a573d6000803e3d6000fd5b505050506040513d601f19601f8201168201806040525081019061063e9190610ba8565b156106ca5760408381015190516391a6262f60e01b8152600481018790526001600160a01b03918216602482015261dead6044820152908516906391a6262f90606401602060405180830381865afa15801561069e573d6000803e3d6000fd5b505050506040513d601f19601f820116820180604052508101906106c29190610ba8565b156101a08401525b806001600160a01b03166306fdde036040518163ffffffff1660e01b8152600401600060405180830381865afa92505050801561072957506040513d6000823e601f3d908101601f191682016040526107269190810190610e24565b60015b15610735576101208401525b806001600160a01b03166395d89b416040518163ffffffff1660e01b8152600401600060405180830381865afa92505050801561079457506040513d6000823e601f3d908101601f191682016040526107919190810190610e24565b60015b156107a0576101408401525b60405163c87b56dd60e01b8152600481018690526001600160a01b0385169063c87b56dd90602401600060405180830381865afa92505050801561080657506040513d6000823e601f3d908101601f191682016040526108039190810190610e24565b60015b1561080e5783525b806001600160a01b03166318160ddd6040518163ffffffff1660e01b8152600401602060405180830381865afa925050508015610868575060408051601f3d908101601f1916820190925261086591810190610eb8565b60015b156108735760e08401525b806001600160a01b031663d5abeb016040518163ffffffff1660e01b8152600401602060405180830381865afa9250505080156108cd575060408051601f3d908101601f191682019092526108ca91810190610eb8565b60015b156108d85760c08401525b836001600160a01b0316638da5cb5b6040518163ffffffff1660e01b8152600401602060405180830381865afa925050508015610932575060408051601f3d908101601f1916820190925261092f91810190610e07565b60015b15610947576001600160a01b03166101008401525b505092915050565b6001600160a01b038116811461096457600080fd5b50565b6000806040838503121561097a57600080fd5b82359150602083013561098c8161094f565b809150509250929050565b60005b838110156109b257818101518382015260200161099a565b50506000910152565b600081518084526109d3816020860160208601610997565b601f01601f19169290920160200192915050565b600081518084526020808501945080840160005b83811015610a2157815167ffffffffffffffff16875295820195908201906001016109fb565b509495945050505050565b6020815260008251610220806020850152610a4b6102408501836109bb565b91506020850151610a6760408601826001600160a01b03169052565b5060408501516001600160a01b03811660608601525060608501516080850152608085015160a085015260a0850151601f19808685030160c0870152610aad84836109e7565b935060c087015160e087015260e08701519150610100828188015280880151925050610120610ae6818801846001600160a01b03169052565b80880151925050610140818786030181880152610b0385846109bb565b945080880151925050610160818786030181880152610b2285846109bb565b90880151610180888101919091528801516101a08089019190915288015190945091506101c09050610b578187018315159052565b86015190506101e0610b6c8682018315159052565b8601519050610200610b818682018315159052565b90950151151593019290925250919050565b80518015158114610ba357600080fd5b919050565b600060208284031215610bba57600080fd5b610bc382610b93565b9392505050565b600080600060608486031215610bdf57600080fd5b8351610bea8161094f565b60208501519093509150610c0060408501610b93565b90509250925092565b634e487b7160e01b600052604160045260246000fd5b6040805190810167ffffffffffffffff81118282101715610c4257610c42610c09565b60405290565b604051601f8201601f1916810167ffffffffffffffff81118282101715610c7157610c71610c09565b604052919050565b600067ffffffffffffffff821115610c9357610c93610c09565b5060051b60200190565b60006020808385031215610cb057600080fd5b825167ffffffffffffffff811115610cc757600080fd5b8301601f81018513610cd857600080fd5b8051610ceb610ce682610c79565b610c48565b81815260069190911b82018301908381019087831115610d0a57600080fd5b928401925b82841015610d575760408489031215610d285760008081fd5b610d30610c1f565b8451815285850151610d418161094f565b8187015282526040939093019290840190610d0f565b979650505050505050565b60006020808385031215610d7557600080fd5b825167ffffffffffffffff80821115610d8d57600080fd5b818501915085601f830112610da157600080fd5b8151610daf610ce682610c79565b81815260059190911b83018401908481019088831115610dce57600080fd5b938501935b82851015610dfb5784518481168114610dec5760008081fd5b82529385019390850190610dd3565b98975050505050505050565b600060208284031215610e1957600080fd5b8151610bc38161094f565b600060208284031215610e3657600080fd5b815167ffffffffffffffff80821115610e4e57600080fd5b818401915084601f830112610e6257600080fd5b815181811115610e7457610e74610c09565b610e87601f8201601f1916602001610c48565b9150808252856020828501011115610e9e57600080fd5b610eaf816020840160208601610997565b50949350505050565b600060208284031215610eca57600080fd5b505191905056fea2646970667358221220a16be862ef0ea654ec3c8b2594f3426dbeacd9193b22dc68b14abbd29a441abc64736f6c63430008150033",
    "linkReferences": {}
  },
  "methodIdentifiers": {
    "getExtendedNft(uint256,address)": "56937fa7"
  },
  "id": 94
}