{
  "abi": [
    {
      "inputs": [
        {
          "internalType": "bytes",
          "name": "data",
          "type": "bytes"
        },
        {
          "internalType": "uint256",
          "name": "start",
          "type": "uint256"
        },
        {
          "internalType": "uint256",
          "name": "end",
          "type": "uint256"
        }
      ],
      "name": "Slice_OutOfBounds",
      "type": "error"
    },
    {
      "anonymous": false,
      "inputs": [
        {
          "indexed": true,
          "internalType": "ResourceId",
          "name": "tableId",
          "type": "bytes32"
        },
        {
          "indexed": false,
          "internalType": "bytes32[]",
          "name": "keyTuple",
          "type": "bytes32[]"
        },
        {
          "indexed": false,
          "internalType": "bytes",
          "name": "staticData",
          "type": "bytes"
        },
        {
          "indexed": false,
          "internalType": "PackedCounter",
          "name": "encodedLengths",
          "type": "bytes32"
        },
        {
          "indexed": false,
          "internalType": "bytes",
          "name": "dynamicData",
          "type": "bytes"
        }
      ],
      "name": "Store_SetRecord",
      "type": "event"
    },
    {
      "anonymous": false,
      "inputs": [
        {
          "indexed": true,
          "internalType": "ResourceId",
          "name": "tableId",
          "type": "bytes32"
        },
        {
          "indexed": false,
          "internalType": "bytes32[]",
          "name": "keyTuple",
          "type": "bytes32[]"
        },
        {
          "indexed": false,
          "internalType": "uint48",
          "name": "start",
          "type": "uint48"
        },
        {
          "indexed": false,
          "internalType": "bytes",
          "name": "data",
          "type": "bytes"
        }
      ],
      "name": "Store_SpliceStaticData",
      "type": "event"
    },
    {
      "inputs": [],
      "name": "_msgSender",
      "outputs": [
        {
          "internalType": "address",
          "name": "sender",
          "type": "address"
        }
      ],
      "stateMutability": "view",
      "type": "function"
    },
    {
      "inputs": [],
      "name": "_msgValue",
      "outputs": [
        {
          "internalType": "uint256",
          "name": "value",
          "type": "uint256"
        }
      ],
      "stateMutability": "pure",
      "type": "function"
    },
    {
      "inputs": [],
      "name": "_world",
      "outputs": [
        {
          "internalType": "address",
          "name": "",
          "type": "address"
        }
      ],
      "stateMutability": "view",
      "type": "function"
    },
    {
      "inputs": [],
      "name": "bulletPrice",
      "outputs": [
        {
          "internalType": "uint256",
          "name": "",
          "type": "uint256"
        }
      ],
      "stateMutability": "view",
      "type": "function"
    },
    {
      "inputs": [
        {
          "internalType": "uint256",
          "name": "amount_",
          "type": "uint256"
        }
      ],
      "name": "buyBullets",
      "outputs": [],
      "stateMutability": "payable",
      "type": "function"
    },
    {
      "inputs": [],
      "name": "getGameData",
      "outputs": [
        {
          "components": [
            {
              "internalType": "uint256",
              "name": "bullets",
              "type": "uint256"
            },
            {
              "components": [
                {
                  "internalType": "int256",
                  "name": "x",
                  "type": "int256"
                },
                {
                  "internalType": "int256",
                  "name": "y",
                  "type": "int256"
                },
                {
                  "internalType": "int256",
                  "name": "z",
                  "type": "int256"
                }
              ],
              "internalType": "struct Position",
              "name": "currentPosition",
              "type": "tuple"
            },
            {
              "internalType": "uint256",
              "name": "ethersAmount",
              "type": "uint256"
            },
            {
              "components": [
                {
                  "internalType": "int256",
                  "name": "x",
                  "type": "int256"
                },
                {
                  "internalType": "int256",
                  "name": "y",
                  "type": "int256"
                },
                {
                  "internalType": "int256",
                  "name": "z",
                  "type": "int256"
                }
              ],
              "internalType": "struct Position[]",
              "name": "ethersPosition",
              "type": "tuple[]"
            },
            {
              "internalType": "uint256[]",
              "name": "ethersId",
              "type": "uint256[]"
            },
            {
              "internalType": "uint256",
              "name": "wreckedEthers",
              "type": "uint256"
            }
          ],
          "internalType": "struct PlayerStatsResponse",
          "name": "",
          "type": "tuple"
        }
      ],
      "stateMutability": "view",
      "type": "function"
    },
    {
      "inputs": [
        {
          "internalType": "uint256[]",
          "name": "removeEtherIds_",
          "type": "uint256[]"
        },
        {
          "internalType": "uint256",
          "name": "shotBulletsAmount_",
          "type": "uint256"
        },
        {
          "components": [
            {
              "internalType": "int256",
              "name": "x",
              "type": "int256"
            },
            {
              "internalType": "int256",
              "name": "y",
              "type": "int256"
            },
            {
              "internalType": "int256",
              "name": "z",
              "type": "int256"
            }
          ],
          "internalType": "struct Position",
          "name": "newPlayerPosition_",
          "type": "tuple"
        }
      ],
      "name": "registerAction",
      "outputs": [],
      "stateMutability": "nonpayable",
      "type": "function"
    },
    {
      "inputs": [
        {
          "components": [
            {
              "internalType": "int256",
              "name": "x",
              "type": "int256"
            },
            {
              "internalType": "int256",
              "name": "y",
              "type": "int256"
            },
            {
              "internalType": "int256",
              "name": "z",
              "type": "int256"
            }
          ],
          "internalType": "struct Position[]",
          "name": "ethersPosition_",
          "type": "tuple[]"
        }
      ],
      "name": "start",
      "outputs": [],
      "stateMutability": "nonpayable",
      "type": "function"
    },
    {
      "inputs": [
        {
          "internalType": "bytes4",
          "name": "interfaceId",
          "type": "bytes4"
        }
      ],
      "name": "supportsInterface",
      "outputs": [
        {
          "internalType": "bool",
          "name": "",
          "type": "bool"
        }
      ],
      "stateMutability": "pure",
      "type": "function"
    }
  ],
  "bytecode": {
    "object": "0x608060405266038d7ea4c6800060005534801561001b57600080fd5b506125fa8061002b6000396000f3fe6080604052600436106100865760003560e01c80638b0f90fb116100595780638b0f90fb146101315780639078bb7614610147578063af4e99de14610167578063b8891c2b14610189578063e1af802c1461019c57600080fd5b806301ffc9a71461008b578063119df25f146100c057806340c2158d146100ed57806345ec93541461010f575b600080fd5b34801561009757600080fd5b506100ab6100a6366004611e7b565b6101b1565b60405190151581526020015b60405180910390f35b3480156100cc57600080fd5b506100d56101e8565b6040516001600160a01b0390911681526020016100b7565b3480156100f957600080fd5b5061010d610108366004611ea5565b6101f7565b005b34801561011b57600080fd5b5036601f1901355b6040519081526020016100b7565b34801561013d57600080fd5b5061012360005481565b34801561015357600080fd5b5061010d610162366004611f1a565b610305565b34801561017357600080fd5b5061017c610484565b6040516100b79190611feb565b61010d6101973660046120c5565b6106e8565b3480156101a857600080fd5b506100d561076d565b60006001600160e01b03198216630168425160e71b14806101e257506001600160e01b031982166301ffc9a760e01b145b92915050565b60006101f2610777565b905090565b60006102016101e8565b6001600160a01b0316905060006102178261078b565b90508060200151816000015111156102695760405162461bcd60e51b815260206004820152601060248201526f23b0b6b29034b9903737ba1037bb32b960811b60448201526064015b60405180910390fd5b826102748382610852565b60005b818110156102fd576102f5848260405180606001604052808a8a878181106102a1576102a16120de565b9050606002016000013581526020018a8a878181106102c2576102c26120de565b9050606002016020013581526020018a8a878181106102e3576102e36120de565b90506060020160400135815250610907565b600101610277565b505050505050565b600061030f6101e8565b6001600160a01b03169050821561038457600061032b826109e8565b90508381101561036f5760405162461bcd60e51b815260206004820152600f60248201526e4e6f206d6f72652062756c6c65747360881b6044820152606401610260565b6103828261037d868461210a565b610a87565b505b8315610441578360006103968361078b565b90508181602001516103a8919061211d565b815110156103e95760405162461bcd60e51b815260206004820152600e60248201526d4e6f206d6f72652065746865727360901b6044820152606401610260565b610402838383602001516103fd919061211d565b610b3c565b60005b8281101561043d576104358482604051806060016040528060008152602001600081526020016000815250610907565b600101610405565b5050505b8135158015906104545750602082013515155b80156104635750604082013515155b1561047d5761047d81833560208501356040860135610bd3565b5050505050565b61048c611e23565b60006104966101e8565b6001600160a01b0316905060006104ac8261078b565b90506000816020015182600001516104c4919061210a565b905060008167ffffffffffffffff8111156104e1576104e1612130565b60405190808252806020026020018201604052801561053657816020015b61052360405180606001604052806000815260200160008152602001600081525090565b8152602001906001900390816104ff5790505b50905060008267ffffffffffffffff81111561055457610554612130565b60405190808252806020026020018201604052801561057d578160200160208202803683370190505b5090506000805b85518110801561059357508482105b15610664576105a28782610c64565b51158015906105bd57506105b68782610c64565b6020015115155b80156105d557506105ce8782610c64565b6040015115155b1561065c5760405180606001604052806105ef8984610c64565b5181526020016105ff8984610c64565b6020015181526020016106128984610c64565b6040015181525084838151811061062b5761062b6120de565b602002602001018190525080838381518110610649576106496120de565b6020026020010181815250508160010191505b600101610584565b506040518060c00160405280610679886109e8565b815260200160405180606001604052806106928a610d66565b5181526020016106a18a610d66565b6020015181526020016106b38a610d66565b604001518152508152602001866000015181526020018481526020018381526020018660200151815250965050505050505090565b34600054826106f79190612146565b11156107385760405162461bcd60e51b815260206004820152601060248201526f4e6f7420656e6f7567682066756e647360801b6044820152606401610260565b60006107426101e8565b6001600160a01b031690506000610758826109e8565b90506107688261037d858461211d565b505050565b60006101f2610e11565b60331936013560601c806107885750335b90565b60408051808201825260008082526020820181905282516001808252818501909452919290919081602001602082028036833701905050905082816000815181106107d8576107d86120de565b6020026020010181815250506000806000610837613a3160f11b60006545746865727360d01b6040516020016108109392919061215d565b604051602081830303815290604052610828906121a7565b8564020010010160d51b610e50565b925092509250610848838383610f07565b9695505050505050565b604080516001808252818301909252600091602080830190803683370190505090508281600081518110610888576108886120de565b602002602001018181525050610768613a3160f11b60006545746865727360d01b6040516020016108bb9392919061215d565b6040516020818303038152906040526108d3906121a7565b826000856040516020016108e991815260200190565b60408051601f1981840301815291905264020010010160d51b610f3c565b6000610920826000015183602001518460400151610fd8565b604080516002808252606080830184529394506000939284929190602083019080368337019050509050868160008151811061095e5761095e6120de565b6020026020010181815250508560001b81600181518110610981576109816120de565b6020026020010181815250506109df613a3160f11b60006f22ba3432b939a0b93930b733b2b6b2b760811b6040516020016109be9392919061215d565b6040516020818303038152906040526109d6906121a7565b8286868661100e565b50505050505050565b604080516001808252818301909252600091829190602080830190803683370190505090508281600081518110610a2157610a216120de565b6020026020010181815250506000610a7f613a3160f11b60006642756c6c65747360c81b604051602001610a579392919061215d565b604051602081830303815290604052610a6f906121a7565b836000630100080160dd1b61106b565b949350505050565b604080516001808252818301909252600091602080830190803683370190505090508281600081518110610abd57610abd6120de565b602002602001018181525050610768613a3160f11b60006642756c6c65747360c81b604051602001610af19392919061215d565b604051602081830303815290604052610b09906121a7565b82600085604051602001610b1f91815260200190565b60408051601f19818403018152919052630100080160dd1b610f3c565b604080516001808252818301909252600091602080830190803683370190505090508281600081518110610b7257610b726120de565b602002602001018181525050610768613a3160f11b60006545746865727360d01b604051602001610ba59392919061215d565b604051602081830303815290604052610bbd906121a7565b826001856040516020016108e991815260200190565b6000610be0848484610fd8565b604080516001808252818301909252919250600091606091839190602080830190803683370190505090508781600081518110610c1f57610c1f6120de565b602002602001018181525050610c5a613a3160f11b60006d283630bcb2b92837b9b4ba34b7b760911b6040516020016109be9392919061215d565b5050505050505050565b610c8860405180606001604052806000815260200160008152602001600081525090565b6040805160028082526060820183526000926020830190803683370190505090508381600081518110610cbd57610cbd6120de565b6020026020010181815250508260001b81600181518110610ce057610ce06120de565b6020026020010181815250506000806000610d4a613a3160f11b60006f22ba3432b939a0b93930b733b2b6b2b760811b604051602001610d229392919061215d565b604051602081830303815290604052610d3a906121a7565b856503001801010160cd1b610e50565b925092509250610d5b83838361110f565b979650505050505050565b610d8a60405180606001604052806000815260200160008152602001600081525090565b604080516001808252818301909252600091602080830190803683370190505090508281600081518110610dc057610dc06120de565b6020026020010181815250506000806000610e00613a3160f11b60006d283630bcb2b92837b9b4ba34b7b760911b604051602001610d229392919061215d565b92509250925061084883838361110f565b7f629a4c26e296b22a8e0856e9f6ecb2d1008d7e00081111962cd175fa7488e175546000906001600160a01b031680610e4b573391505090565b919050565b6060600060606000610e60610e11565b9050306001600160a01b03821603610e8957610e7d878787611155565b93509350935050610efe565b60405163419b58fd60e01b81526001600160a01b0382169063419b58fd90610eb9908a908a908a906004016121ce565b600060405180830381865afa158015610ed6573d6000803e3d6000fd5b505050506040513d6000823e601f3d908101601f19168201604052610e7d9190810190612299565b93509350939050565b6040805180820190915260008082526020820152610f2e8460208101516040909101519091565b602083015281529392505050565b6000610f46610e11565b9050306001600160a01b03821603610f6a57610f65868686868661125d565b6102fd565b6040516301c85d5760e51b81526001600160a01b0382169063390baae090610f9e9089908990899089908990600401612332565b600060405180830381600087803b158015610fb857600080fd5b505af1158015610fcc573d6000803e3d6000fd5b50505050505050505050565b604080516020810185905290810183905260608181018390529060800160405160208183030381529060405290505b9392505050565b6000611018610e11565b9050306001600160a01b0382160361103757610f658686868686611272565b60405163298314fb60e01b81526001600160a01b0382169063298314fb90610f9e9089908990899089908990600401612379565b600080611076610e11565b9050306001600160a01b0382160361109c5761109486868686611288565b915050610a7f565b604051638c364d5960e01b81526001600160a01b03821690638c364d59906110ce9089908990899089906004016123ca565b602060405180830381865afa1580156110eb573d6000803e3d6000fd5b505050506040513d601f19601f8201168201806040525081019061109491906123f9565b61113360405180606001604052806000815260200160008152602001600081525090565b6020840151604085015160608601516040840152602083015281529392505050565b6060600060606000611166856112be565b90506111738787836112e1565b935060006111808661131a565b90508015611252576111928888611357565b935066ffffffffffffff841667ffffffffffffffff8111156111b6576111b6612130565b6040519080825280601f01601f1916602001820160405280156111e0576020820181803683370190505b5092506020830160005b828160ff16101561124f5760006112028b8b8461136a565b9050600061121f888460ff166028026038011c64ffffffffff1690565b905061122e82826000876113d2565b611238818561211d565b93505050808061124790612412565b9150506111ea565b50505b505093509350939050565b61047d858561126c8487611488565b856114cb565b61047d85858585856112838b6116d2565b611785565b60006112b56112978686611a22565b60ff858116601b0360080285901c166112b08587611488565b611a78565b95945050505050565b600060086112ce6002602061210a565b6112d89190612146565b9190911c919050565b6060816000036113005750604080516020810190915260008152611007565b600061130c8585611a22565b90506112b581846000611ac9565b6000600860018061132d6002602061210a565b611337919061210a565b611341919061210a565b61134b9190612146565b8260ff911c1692915050565b60006110076113668484611aec565b5490565b6000838360405160200161137f929190612431565b604051602081830303815290604052805190602001208260f81b6001600160f81b0319167f3b4102da22e32d82fc925482184f16c09fd4281692720b87d124aef6da48a0f1181860001c90509392505050565b811561144457602082106113fc576020820484019350602082816113f8576113f861246c565b0691505b81156114445760208290036000600019600883021c1990508554600885021b811984511682821617845250818511611435575050611482565b50600194909401939283900392015b5b602083106114665783548152600190930192601f1990920191602001611445565b82156114825780518454600019600886021c9182169119161781525b50505050565b600080805b8360ff168110156114c3576114af60ff601b83900360080287901c168361211d565b9150806114bb81612482565b91505061148d565b509392505050565b60006114d78585611a22565b9050847f8c0b5119d4cec7b284c6b1b39252a03d1e2f2d7451a5895562524c113bb952be85858560405161150d9392919061249b565b60405180910390a2613a3160f11b856001600160f01b031916146115315750611482565b600061153c86611b42565b905060005b81518110156115fe57600082828151811061155e5761155e6120de565b602002602001015190506115866004826001600160581b031916611bf390919063ffffffff16565b156115eb5760405163964f667d60e01b8152606082901c9063964f667d906115b8908b908b908b908b906004016124ce565b600060405180830381600087803b1580156115d257600080fd5b505af11580156115e6573d6000803e3d6000fd5b505050505b50806115f681612482565b915050611541565b50611612828565ffffffffffff1685611c11565b60005b81518110156109df576000828281518110611632576116326120de565b6020026020010151905061165a6008826001600160581b031916611bf390919063ffffffff16565b156116bf5760405163a8ba872160e01b8152606082901c9063a8ba87219061168c908b908b908b908b906004016124ce565b600060405180830381600087803b1580156116a657600080fd5b505af11580156116ba573d6000803e3d6000fd5b505050505b50806116ca81612482565b915050611615565b6000613a3160f11b6473746f726560d81b655461626c657360d01b6040516020016116ff9392919061215d565b604051602081830303815290604052611717906121a7565b820361172d57506503001811010160cd1b919050565b6101e261177c613a3160f11b6473746f726560d81b655461626c657360d01b60405160200161175e9392919061215d565b604051602081830303815290604052611776906121a7565b84611c21565b60206000611a78565b857f8dbb3a9672eebfd3773e72dd9c102393436816d832c7ba9e1e1ac8fcadcac7a9868686866040516117bb9493929190612507565b60405180910390a2613a3160f11b866001600160f01b031916036102fd5760006117e487611b42565b905060005b81518110156118aa576000828281518110611806576118066120de565b6020026020010151905061182e6001826001600160581b031916611bf390919063ffffffff16565b15611897576040516315c19b2760e21b8152606082901c906357066c9c90611864908c908c908c908c908c908c90600401612546565b600060405180830381600087803b15801561187e57600080fd5b505af1158015611892573d6000803e3d6000fd5b505050505b50806118a281612482565b9150506117e9565b5060006118b78888611a22565b905060006020870190506118cf826000838a51611c3d565b60006118da8561131a565b111561195e5760006118ec8a8a611aec565b878155905060208601915060008060005b6119068861131a565b8160ff1610156119595761191b8d8d8361136a565b92506119368a8260ff166028026038011c64ffffffffff1690565b91506119458360008785611c3d565b61194f828661211d565b94506001016118fd565b505050505b60005b8351811015610fcc57600084828151811061197e5761197e6120de565b602002602001015190506119a66002826001600160581b031916611bf390919063ffffffff16565b15611a0f57604051635b28cdaf60e01b8152606082901c90635b28cdaf906119dc908e908e908e908e908e908e90600401612546565b600060405180830381600087803b1580156119f657600080fd5b505af1158015611a0a573d6000803e3d6000fd5b505050505b5080611a1a81612482565b915050611961565b60008282604051602001611a37929190612431565b60408051601f1981840301815291905280516020909101207f86425bff6b57326c7859e89024fe4f238ca327a1ae4a230180dd2f0e88aaa7d9189392505050565b600060208210611a9e57602082048401935060208281611a9a57611a9a61246c565b0691505b508254600882021b6020829003808411156114c3576001850154600882021c82179150509392505050565b60405160208101601f19603f85840101166040528382526114c3858585846113d2565b60008282604051602001611b01929190612431565b60408051601f1981840301815291905280516020909101207f14e2fcc58e58e68ec7edc30c8d50dccc3ce2714a623ec81f46b6a63922d76569189392505050565b60408051600180825281830190925260609160009190602080830190803683370190505090508281600081518110611b7c57611b7c6120de565b6020026020010181815250506000611bdc613a3160f11b6473746f726560d81b6953746f7265486f6f6b7360b01b604051602001611bbc9392919061215d565b604051602081830303815290604052611bd4906121a7565b836000611cfd565b9050610a7f611bee8260008451611d37565b611da5565b60008160ff1682611c048560581c90565b1660ff1614905092915050565b6107688383602084018451611c3d565b6040805160208101849052908101829052600090606001611a37565b8215611cb75760208310611c6757602083048401935060208381611c6357611c6361246c565b0692505b8215611cb75760208390036000600019600884021c1990506008850281811c91508451811c9050811987541682821617875550818311611ca8575050611482565b50600194909401939182019190035b5b60208110611cd95781518455600190930192602090910190601f1901611cb8565b8015611482576000600019600883021c198554845182169119161785555050505050565b6060610a7f611d0d85858561136a565b611d3084611d1b8888611357565b9060ff166028026038011c64ffffffffff1690565b6000611ac9565b6000818311158015611d4a575083518211155b611d6d578383836040516323230fa360e01b81526004016102609392919061259f565b60208401611d7b848261211d565b90506000611d89858561210a565b6001600160801b031660809290921b9190911795945050505050565b60606000611007836015600060606000611dbf8560801c90565b90506001600160801b0385166000858281611ddc57611ddc61246c565b04905060405193506020840160208202810160405281855260005b82811015611e17578451871c825293870193602090910190600101611df7565b50505050509392505050565b6040518060c0016040528060008152602001611e5960405180606001604052806000815260200160008152602001600081525090565b8152602001600081526020016060815260200160608152602001600081525090565b600060208284031215611e8d57600080fd5b81356001600160e01b03198116811461100757600080fd5b60008060208385031215611eb857600080fd5b823567ffffffffffffffff80821115611ed057600080fd5b818501915085601f830112611ee457600080fd5b813581811115611ef357600080fd5b866020606083028501011115611f0857600080fd5b60209290920196919550909350505050565b60008060008084860360a0811215611f3157600080fd5b853567ffffffffffffffff80821115611f4957600080fd5b818801915088601f830112611f5d57600080fd5b813581811115611f6c57600080fd5b8960208260051b8501011115611f8157600080fd5b6020928301975095505086013592506060603f1982011215611fa257600080fd5b509295919450926040019150565b600081518084526020808501945080840160005b83811015611fe057815187529582019590820190600101611fc4565b509495945050505050565b6000602080835261012083018451828501528185015161202260408601828051825260208082015190830152604090810151910152565b50604085015160a085015260608086015161010060c0870181905281519384905290840192600091906101408801905b8084101561208d576120798287518051825260208082015190830152604090810151910152565b948601946001939093019290840190612052565b506080890151888203601f190160e08a015295506120ab8187611fb0565b95505060a088015181880152505050508091505092915050565b6000602082840312156120d757600080fd5b5035919050565b634e487b7160e01b600052603260045260246000fd5b634e487b7160e01b600052601160045260246000fd5b818103818111156101e2576101e26120f4565b808201808211156101e2576101e26120f4565b634e487b7160e01b600052604160045260246000fd5b80820281158282048414176101e2576101e26120f4565b6001600160f01b031993909316835271ffffffffffffffffffffffffffffffffffff199190911660028301526fffffffffffffffffffffffffffffffff1916601082015260200190565b805160208083015191908110156121c8576000198160200360031b1b821691505b50919050565b8381526060602082015260006121e76060830185611fb0565b9050826040830152949350505050565b60005b838110156122125781810151838201526020016121fa565b50506000910152565b600082601f83011261222c57600080fd5b815167ffffffffffffffff8082111561224757612247612130565b604051601f8301601f19908116603f0116810190828211818310171561226f5761226f612130565b8160405283815286602085880101111561228857600080fd5b6108488460208301602089016121f7565b6000806000606084860312156122ae57600080fd5b835167ffffffffffffffff808211156122c657600080fd5b6122d28783880161221b565b94506020860151935060408601519150808211156122ef57600080fd5b506122fc8682870161221b565b9150509250925092565b6000815180845261231e8160208601602086016121f7565b601f01601f19169290920160200192915050565b85815260a06020820152600061234b60a0830187611fb0565b60ff8616604084015282810360608401526123668186612306565b9150508260808301529695505050505050565b85815260a06020820152600061239260a0830187611fb0565b82810360408401526123a48187612306565b905084606084015282810360808401526123be8185612306565b98975050505050505050565b8481526080602082015260006123e36080830186611fb0565b60ff949094166040830152506060015292915050565b60006020828403121561240b57600080fd5b5051919050565b600060ff821660ff8103612428576124286120f4565b60010192915050565b82815260006020808301845182860160005b8281101561245f57815184529284019290840190600101612443565b5091979650505050505050565b634e487b7160e01b600052601260045260246000fd5b600060018201612494576124946120f4565b5060010190565b6060815260006124ae6060830186611fb0565b65ffffffffffff8516602084015282810360408401526108488185612306565b8481526080602082015260006124e76080830186611fb0565b65ffffffffffff851660408401528281036060840152610d5b8185612306565b60808152600061251a6080830187611fb0565b828103602084015261252c8187612306565b90508460408401528281036060840152610d5b8185612306565b86815260c06020820152600061255f60c0830188611fb0565b82810360408401526125718188612306565b9050856060840152828103608084015261258b8186612306565b9150508260a0830152979650505050505050565b6060815260006125b26060830186612306565b6020830194909452506040015291905056fea2646970667358221220418bf776b2718bec55eaf03331731710f49bccabebc6d79c8a517be7838d85d364736f6c63430008150033",
    "linkReferences": {}
  },
  "methodIdentifiers": {
    "_msgSender()": "119df25f",
    "_msgValue()": "45ec9354",
    "_world()": "e1af802c",
    "bulletPrice()": "8b0f90fb",
    "buyBullets(uint256)": "b8891c2b",
    "getGameData()": "af4e99de",
    "registerAction(uint256[],uint256,(int256,int256,int256))": "9078bb76",
    "start((int256,int256,int256)[])": "40c2158d",
    "supportsInterface(bytes4)": "01ffc9a7"
  },
  "id": 12
}