{
  "abi": [
    {
      "inputs": [],
      "name": "RMRKChildNotFoundInParent",
      "type": "error"
    },
    {
      "inputs": [],
      "name": "RMRKMismachedArrayLength",
      "type": "error"
    },
    {
      "inputs": [],
      "name": "RMRKParentIsNotNFT",
      "type": "error"
    },
    {
      "inputs": [],
      "name": "RMRKUnexpectedParent",
      "type": "error"
    },
    {
      "inputs": [
        {
          "internalType": "address",
          "name": "childAddress",
          "type": "address"
        },
        {
          "internalType": "uint256",
          "name": "childId",
          "type": "uint256"
        },
        {
          "internalType": "address",
          "name": "expectedParent",
          "type": "address"
        },
        {
          "internalType": "uint256",
          "name": "expectedParentId",
          "type": "uint256"
        }
      ],
      "name": "checkExpectedParent",
      "outputs": [],
      "stateMutability": "view",
      "type": "function"
    },
    {
      "inputs": [
        {
          "internalType": "address",
          "name": "collection",
          "type": "address"
        },
        {
          "internalType": "uint256",
          "name": "tokenId",
          "type": "uint256"
        }
      ],
      "name": "directOwnerOfWithParentsPerspective",
      "outputs": [
        {
          "internalType": "address",
          "name": "directOwner",
          "type": "address"
        },
        {
          "internalType": "uint256",
          "name": "ownerId",
          "type": "uint256"
        },
        {
          "internalType": "bool",
          "name": "isNFT",
          "type": "bool"
        },
        {
          "internalType": "bool",
          "name": "inParentsActiveChildren",
          "type": "bool"
        },
        {
          "internalType": "bool",
          "name": "inParentsPendingChildren",
          "type": "bool"
        }
      ],
      "stateMutability": "view",
      "type": "function"
    },
    {
      "inputs": [
        {
          "internalType": "address",
          "name": "parentAddress",
          "type": "address"
        },
        {
          "internalType": "uint256",
          "name": "parentId",
          "type": "uint256"
        },
        {
          "internalType": "address",
          "name": "childAddress",
          "type": "address"
        },
        {
          "internalType": "uint256",
          "name": "childId",
          "type": "uint256"
        }
      ],
      "name": "getChildIndex",
      "outputs": [
        {
          "internalType": "uint256",
          "name": "",
          "type": "uint256"
        }
      ],
      "stateMutability": "view",
      "type": "function"
    },
    {
      "inputs": [
        {
          "internalType": "address",
          "name": "childAddress",
          "type": "address"
        },
        {
          "internalType": "uint256",
          "name": "childId",
          "type": "uint256"
        }
      ],
      "name": "getParent",
      "outputs": [
        {
          "internalType": "address",
          "name": "parentAddress",
          "type": "address"
        },
        {
          "internalType": "uint256",
          "name": "parentId",
          "type": "uint256"
        }
      ],
      "stateMutability": "view",
      "type": "function"
    },
    {
      "inputs": [
        {
          "internalType": "address",
          "name": "parentAddress",
          "type": "address"
        },
        {
          "internalType": "uint256",
          "name": "parentId",
          "type": "uint256"
        },
        {
          "internalType": "address",
          "name": "childAddress",
          "type": "address"
        },
        {
          "internalType": "uint256",
          "name": "childId",
          "type": "uint256"
        }
      ],
      "name": "getPendingChildIndex",
      "outputs": [
        {
          "internalType": "uint256",
          "name": "",
          "type": "uint256"
        }
      ],
      "stateMutability": "view",
      "type": "function"
    },
    {
      "inputs": [
        {
          "internalType": "address",
          "name": "collection",
          "type": "address"
        },
        {
          "internalType": "uint256",
          "name": "tokenId",
          "type": "uint256"
        }
      ],
      "name": "getTotalDescendants",
      "outputs": [
        {
          "internalType": "uint256",
          "name": "totalDescendants",
          "type": "uint256"
        },
        {
          "internalType": "bool",
          "name": "hasMoreThanOneLevelOfNesting_",
          "type": "bool"
        }
      ],
      "stateMutability": "view",
      "type": "function"
    },
    {
      "inputs": [
        {
          "internalType": "address",
          "name": "collection",
          "type": "address"
        },
        {
          "internalType": "uint256",
          "name": "tokenId",
          "type": "uint256"
        }
      ],
      "name": "hasMoreThanOneLevelOfNesting",
      "outputs": [
        {
          "internalType": "bool",
          "name": "",
          "type": "bool"
        }
      ],
      "stateMutability": "view",
      "type": "function"
    },
    {
      "inputs": [
        {
          "internalType": "address",
          "name": "collection",
          "type": "address"
        },
        {
          "internalType": "uint256",
          "name": "tokenId",
          "type": "uint256"
        }
      ],
      "name": "isTokenRejectedOrAbandoned",
      "outputs": [
        {
          "internalType": "bool",
          "name": "isRejectedOrAbandoned",
          "type": "bool"
        }
      ],
      "stateMutability": "view",
      "type": "function"
    },
    {
      "inputs": [
        {
          "internalType": "address",
          "name": "parentAddress",
          "type": "address"
        },
        {
          "internalType": "address",
          "name": "childAddress",
          "type": "address"
        },
        {
          "internalType": "uint256",
          "name": "parentId",
          "type": "uint256"
        },
        {
          "internalType": "uint256",
          "name": "childId",
          "type": "uint256"
        }
      ],
      "name": "validateChildOf",
      "outputs": [
        {
          "internalType": "bool",
          "name": "",
          "type": "bool"
        }
      ],
      "stateMutability": "view",
      "type": "function"
    },
    {
      "inputs": [
        {
          "internalType": "address",
          "name": "parentAddress",
          "type": "address"
        },
        {
          "internalType": "address[]",
          "name": "childAddresses",
          "type": "address[]"
        },
        {
          "internalType": "uint256",
          "name": "parentId",
          "type": "uint256"
        },
        {
          "internalType": "uint256[]",
          "name": "childIds",
          "type": "uint256[]"
        }
      ],
      "name": "validateChildrenOf",
      "outputs": [
        {
          "internalType": "bool",
          "name": "",
          "type": "bool"
        },
        {
          "internalType": "bool[]",
          "name": "",
          "type": "bool[]"
        }
      ],
      "stateMutability": "view",
      "type": "function"
    }
  ],
  "bytecode": {
    "object": "0x608060405234801561001057600080fd5b506110f1806100206000396000f3fe608060405234801561001057600080fd5b506004361061009e5760003560e01c80639f7b0fc8116100665780639f7b0fc81461014c578063b05f0d441461017e578063d905980f146101cb578063e5d0faa0146101de578063ef9a1229146101f157600080fd5b80630a9059ec146100a35780633e6f80c7146100cd57806369b0bb37146100ee5780636f4f1d8f14610116578063815ee82614610139575b600080fd5b6100b66100b1366004610d6d565b610206565b6040516100c4929190610e4d565b60405180910390f35b6100e06100db366004610e9f565b610331565b6040519081526020016100c4565b6101016100fc366004610ee7565b610446565b604080519283529015156020830152016100c4565b610129610124366004610ee7565b61053d565b60405190151581526020016100c4565b610129610147366004610ee7565b610576565b61015f61015a366004610ee7565b6106ce565b604080516001600160a01b0390931683526020830191909152016100c4565b61019161018c366004610ee7565b61076f565b604080516001600160a01b03909616865260208601949094529115159284019290925290151560608301521515608082015260a0016100c4565b6100e06101d9366004610e9f565b6109f4565b6101296101ec366004610f13565b610ae7565b6102046101ff366004610e9f565b610c03565b005b60006060825185511461022c57604051630d2d5a0960e01b815260040160405180910390fd5b6000806000875167ffffffffffffffff81111561024b5761024b610c6e565b604051908082528060200260200182016040528015610274578160200160208202803683370190505b509050600160005b8951811015610322576102c38b8b838151811061029b5761029b610f59565b60200260200101518b8b85815181106102b6576102b6610f59565b6020026020010151610ae7565b8382815181106102d5576102d5610f59565b9115156020928302919091019091015281801561030957508281815181106102ff576102ff610f59565b6020026020010151155b1561031357600091505b6000945084935060010161027c565b50999098509650505050505050565b60405163113b24d160e21b81526004810184905260009081906001600160a01b038716906344ec934490602401600060405180830381865afa15801561037b573d6000803e3d6000fd5b505050506040513d6000823e601f3d908101601f191682016040526103a39190810190610f6f565b805190915060005b8181101561042457848382815181106103c6576103c6610f59565b60200260200101516000015114801561040d5750856001600160a01b03168382815181106103f6576103f6610f59565b6020026020010151602001516001600160a01b0316145b1561041c57925061043e915050565b6001016103ab565b50604051639746ef3f60e01b815260040160405180910390fd5b949350505050565b6000806000846001600160a01b0316636f19951c856040518263ffffffff1660e01b815260040161047991815260200190565b600060405180830381865afa158015610496573d6000803e3d6000fd5b505050506040513d6000823e601f3d908101601f191682016040526104be9190810190610f6f565b8051935090508260005b8181101561052e5760006105168483815181106104e7576104e7610f59565b60200260200101516020015185848151811061050557610505610f59565b602002602001015160000151610446565b5090506105238187611024565b9550506001016104c8565b50808411925050509250929050565b60008060008061054d868661076f565b9450945094505050828015610560575081155b801561056a575080155b93505050505b92915050565b604051631bc6654760e21b81526004810182905260009081906001600160a01b03851690636f19951c90602401600060405180830381865afa1580156105c0573d6000803e3d6000fd5b505050506040513d6000823e601f3d908101601f191682016040526105e89190810190610f6f565b805190915060005b818110156106c257600083828151811061060c5761060c610f59565b6020026020010151602001516001600160a01b0316636f19951c85848151811061063857610638610f59565b6020026020010151600001516040518263ffffffff1660e01b815260040161066291815260200190565b600060405180830381865afa15801561067f573d6000803e3d6000fd5b505050506040513d6000823e601f3d908101601f191682016040526106a79190810190610f6f565b5111156106ba5760019350505050610570565b6001016105f0565b50600095945050505050565b6000806000846001600160a01b031663fb25fb7a856040518263ffffffff1660e01b815260040161070191815260200190565b606060405180830381865afa15801561071e573d6000803e3d6000fd5b505050506040513d601f19601f82011682018060405250810190610742919061105a565b919450925090508061076757604051630daea74560e11b815260040160405180910390fd5b509250929050565b6000806000806000866001600160a01b031663fb25fb7a876040518263ffffffff1660e01b81526004016107a591815260200190565b606060405180830381865afa1580156107c2573d6000803e3d6000fd5b505050506040513d601f19601f820116820180604052508101906107e6919061105a565b91965094509250826107fd575060009050806109ea565b604051631bc6654760e21b8152600481018590526000906001600160a01b03871690636f19951c90602401600060405180830381865afa158015610845573d6000803e3d6000fd5b505050506040513d6000823e601f3d908101601f1916820160405261086d9190810190610f6f565b60405163113b24d160e21b8152600481018790529091506000906001600160a01b038816906344ec934490602401600060405180830381865afa1580156108b8573d6000803e3d6000fd5b505050506040513d6000823e601f3d908101601f191682016040526108e09190810190610f6f565b825190915060005b81811015610960578984828151811061090357610903610f59565b60200260200101516000015114801561094a57508a6001600160a01b031684828151811061093357610933610f59565b6020026020010151602001516001600160a01b0316145b156109585760019550610960565b6001016108e8565b50846109e65750805160005b818110156109e4578983828151811061098757610987610f59565b6020026020010151600001511480156109ce57508a6001600160a01b03168382815181106109b7576109b7610f59565b6020026020010151602001516001600160a01b0316145b156109dc57600194506109e4565b60010161096c565b505b5050505b9295509295909350565b604051631bc6654760e21b81526004810184905260009081906001600160a01b03871690636f19951c90602401600060405180830381865afa158015610a3e573d6000803e3d6000fd5b505050506040513d6000823e601f3d908101601f19168201604052610a669190810190610f6f565b805190915060005b818110156104245784838281518110610a8957610a89610f59565b602002602001015160000151148015610ad05750856001600160a01b0316838281518110610ab957610ab9610f59565b6020026020010151602001516001600160a01b0316145b15610adf57925061043e915050565b600101610a6e565b6040516301ffc9a760e01b81526342b0e56f60e01b60048201526000906001600160a01b038516906301ffc9a790602401602060405180830381865afa158015610b35573d6000803e3d6000fd5b505050506040513d601f19601f82011682018060405250810190610b599190611099565b610b655750600061043e565b604051637d92fdbd60e11b81526004810183905260009081906001600160a01b0387169063fb25fb7a90602401606060405180830381865afa158015610baf573d6000803e3d6000fd5b505050506040513d601f19601f82011682018060405250810190610bd3919061105a565b5091509150866001600160a01b0316826001600160a01b0316148015610bf857508481145b979650505050505050565b600080610c1086866106ce565b90925090506001600160a01b03808316908516141580610c305750808314155b15610c4e57604051631eb88d2d60e31b815260040160405180910390fd5b505050505050565b6001600160a01b0381168114610c6b57600080fd5b50565b634e487b7160e01b600052604160045260246000fd5b6040805190810167ffffffffffffffff81118282101715610ca757610ca7610c6e565b60405290565b604051601f8201601f1916810167ffffffffffffffff81118282101715610cd657610cd6610c6e565b604052919050565b600067ffffffffffffffff821115610cf857610cf8610c6e565b5060051b60200190565b600082601f830112610d1357600080fd5b81356020610d28610d2383610cde565b610cad565b82815260059290921b84018101918181019086841115610d4757600080fd5b8286015b84811015610d625780358352918301918301610d4b565b509695505050505050565b60008060008060808587031215610d8357600080fd5b8435610d8e81610c56565b935060208581013567ffffffffffffffff80821115610dac57600080fd5b818801915088601f830112610dc057600080fd5b8135610dce610d2382610cde565b81815260059190911b8301840190848101908b831115610ded57600080fd5b938501935b82851015610e14578435610e0581610c56565b82529385019390850190610df2565b97505050604088013594506060880135925080831115610e3357600080fd5b5050610e4187828801610d02565b91505092959194509250565b60006040820184151583526020604081850152818551808452606086019150828701935060005b81811015610e92578451151583529383019391830191600101610e74565b5090979650505050505050565b60008060008060808587031215610eb557600080fd5b8435610ec081610c56565b9350602085013592506040850135610ed781610c56565b9396929550929360600135925050565b60008060408385031215610efa57600080fd5b8235610f0581610c56565b946020939093013593505050565b60008060008060808587031215610f2957600080fd5b8435610f3481610c56565b93506020850135610f4481610c56565b93969395505050506040820135916060013590565b634e487b7160e01b600052603260045260246000fd5b60006020808385031215610f8257600080fd5b825167ffffffffffffffff811115610f9957600080fd5b8301601f81018513610faa57600080fd5b8051610fb8610d2382610cde565b81815260069190911b82018301908381019087831115610fd757600080fd5b928401925b82841015610bf85760408489031215610ff55760008081fd5b610ffd610c84565b845181528585015161100e81610c56565b8187015282526040939093019290840190610fdc565b8082018082111561057057634e487b7160e01b600052601160045260246000fd5b8051801515811461105557600080fd5b919050565b60008060006060848603121561106f57600080fd5b835161107a81610c56565b6020850151909350915061109060408501611045565b90509250925092565b6000602082840312156110ab57600080fd5b6110b482611045565b939250505056fea26469706673582212202f4acbe298c34e123ef2c6812cd7a7a083b2787d4b8fd6f0af75feb9bea0f51664736f6c63430008150033",
    "linkReferences": {}
  },
  "methodIdentifiers": {
    "checkExpectedParent(address,uint256,address,uint256)": "ef9a1229",
    "directOwnerOfWithParentsPerspective(address,uint256)": "b05f0d44",
    "getChildIndex(address,uint256,address,uint256)": "d905980f",
    "getParent(address,uint256)": "9f7b0fc8",
    "getPendingChildIndex(address,uint256,address,uint256)": "3e6f80c7",
    "getTotalDescendants(address,uint256)": "69b0bb37",
    "hasMoreThanOneLevelOfNesting(address,uint256)": "815ee826",
    "isTokenRejectedOrAbandoned(address,uint256)": "6f4f1d8f",
    "validateChildOf(address,address,uint256,uint256)": "e5d0faa0",
    "validateChildrenOf(address,address[],uint256,uint256[])": "0a9059ec"
  },
  "id": 93
}